:020000040807EB
:1000000070FF0020290207085D521A0065020708E8
:100010003502070837020708390207080000000008
:100020000000000000000000000000003B02070884
:100030003D020708000000003F02070841020708D0
:100040004302070843020708430207084302070860
:100050004302070843020708430207084302070850
:100060004302070843020708430207084302070840
:100070004302070843020708430207084302070830
:100080004302070843020708430207084302070820
:100090004302070843020708430207084302070810
:1000A0004302070843020708430207084302070800
:1000B00043020708430207084302070843020708F0
:1000C00043020708430207084302070843020708E0
:1000D00043020708430207084302070843020708D0
:1000E00043020708430207084302070843020708C0
:1000F00043020708430207084302070843020708B0
:10010000430207084302070843020708430207089F
:10011000430207084302070843020708430207088F
:10012000430207084302070843020708430207087F
:1001300000F002F800F068F80AA090E8000C824491
:100140008344AAF10107DA4501D100F05DF8AFF26E
:10015000090EBAE80F0013F0010F18BFFB1A43F0A5
:100160000103184750DA000070DA0000103A24BF8B
:1001700078C878C1FAD8520724BF30C830C144BF0C
:1001800004680C607047000000230024002500264E
:10019000103A28BF78C1FBD8520728BF30C148BFEA
:1001A0000B607047692900F0FF80642900F0FC8033
:1001B000752900F0F9806F2900F09081782900F00E
:1001C000B7810368DB0928BF41F08001632900F093
:1001D000E483E32900F0F783002070471FB59DE812
:1001E000030000F051FC00F005FD04000020002198
:1001F00008F004FD401C606000F0D4FA1FBD10B58B
:10020000002007F03FFF10BD00F0CEFC1146FFF7C5
:10021000E5FF08F087FC00F00FFD03B4FFF7EFFFE8
:1002200003BC00F0BBFC00000948804709480047B8
:10023000FEE7FEE7FEE7FEE7FEE7FEE7FEE7FEE796
:10024000FEE7FEE704480549054A044B70470000F5
:10025000A12807083101070870E7002070FF00207F
:1002600070FF002000B5FFB441464A4653465C4645
:1002700065463EB40D496A460A600D4908600D495D
:1002800088473EBC884691469A46A346AC46FFBC8A
:1002900000BD064801688D463EBC884691469A4698
:1002A000A346AC46FFBC044800BD0000F0FF0020A0
:1002B000F4FF0020390107085CD407080FB41CB50F
:1002C000074B06AA7B4469460090059800F043FB63
:1002D0000020694600F052FB1CBC5DF814FB0000D6
:1002E000B506000070B5044685690068C10601D5F1
:1002F000302600E02026C00707D070BDD4E90121D8
:1003000030469047206A401C20626D1EF6D570BDB5
:1003100070B5044685690078C00707D170BDD4E97F
:10032000012120209047206A401C20626D1EF6D5D6
:1003300070BD09684A0501D540B27047C905FCD5B2
:1003400000B2704709684A0501D5C0B27047C905B7
:10035000FCD580B2704770B50C460546012A05D021
:100360002878800600D5EA69002302E0012305E031
:100370005B1C934202D2E05C0028F9D1A869E61820
:10038000C01AA861286A184428622846FFF7AAFF05
:1003900004E0D5E9012114F8010B9047B442F8D3E9
:1003A0002846FFF7B5FF70BD2DE9F0410646002451
:1003B00010687529314616A510D0FFF7BAFF00283E
:1003C00002DA404213A507E031688A0701D512A579
:1003D00002E0490704D511A5012401E0FFF7B2FFAF
:1003E00000210A2206F1240709E0B0FBF2FCB0FB71
:1003F000F2F302FB1C00303078541846491C0028E8
:10040000F3D123462A463046BDE8F04100F045BA14
:10041000000000002D0000002B0000002000000064
:100420002DE9FF5F15468A460446DFF8AC80F844A4
:100430000027D8E900103E46CDE9001010E03AF858
:1004400016106A4602A800F0CAFA411C07D02178AB
:10045000890603D5E269391891420DD80744761C04
:100460002078800602D5E069B84205DDAE42E6DBC1
:100470003AF816000028E2D1A069C01BA06120460E
:10048000FFF730FFD8E90010CDE90010002017E099
:100490003AF818106A4602A800F0A1FAB0F1FF3F3E
:1004A00081460BD000250DF1080B05E0D4E90121B0
:1004B0001BF8050090476D1C4D45F7D308F101006E
:1004C000B0428046E4DB206A384420622046FFF7D1
:1004D0001FFFBDE8FF9F00003AD0000070B5044642
:1004E00021461068FFF72EFF002104F1240505E0E6
:1004F00000F007023032C0086A54491C0028F7D1C6
:100500002068002308A2050708D500F02000084352
:1005100004D0E069012305A2401EE0612046BDE849
:10052000704000F0BAB90000000000003000000088
:1005300070B504460D4621461068FFF703FF218879
:10054000090502D50F4A7A4402E00E4A7A440E3277
:10055000002104F1240305E000F00F060009965D78
:100560005E54491C0028F7D120780023000704D5E9
:10057000702D02D009B1022311322046BDE870402F
:1005800000F08BB92ACF00002DE9F05F89460446C0
:100590004FF0000ADFF874B1FB44C0F820A02046F9
:1005A000E1688847002874D0252806D0D4E90121C5
:1005B0009047206A401C2062F1E700265F462046F3
:1005C000E16888472028054607DB312D05D27819D8
:1005D00010F8200C08B10643F1E7B00701D526F06A
:1005E0000406C4F81CA00027C4F818A02A2D09D0BE
:1005F000284608F007F938B304EB8708303DC8F8FF
:10060000185019E059F8041B204604EB8702916149
:10061000E1688847012F054618D1E069002820DAF3
:1006200026F020061DE0D8F8180000EB800005EB4E
:1006300040003038C8F818002046E1688847054671
:1006400008F0E0F80028EED1012F0AD02E2D08D1B5
:100650002046E16888477F1C0546022F46F02006A9
:10066000C4DBA069002803DA404246F00106A0611D
:10067000F00701D026F010066C2D0BD0682D09D0A4
:100680004C2D39D06A2D35D0742D35D07A2D33D0FC
:1006900016E038E0E1682F4620468847B842054614
:1006A00009D16C2F26D04FF48060E16806432046C4
:1006B0008847054604E06C2F1AD04FF4807006433B
:1006C0000DB3A5F14100192802D8203546F4006683
:1006D0004A462946204626604E46FFF763FD80B114
:1006E00001280BD0F61D26F0070000F1080956E797
:1006F0004020E4E78020D8E70020D6E706F104098F
:100700004DE7284652E7206ABDE8F09F00CF000081
:1007100010B5431C02E010F8011B71B18107FAD13A
:100720004FF0013202C88C1A8C4314EAC211F9D07E
:10073000C01A0A0603D0C01E10BDC01A10BD0A049C
:1007400001D0801E10BD0902FCD0401E10BD4FF02C
:10075000000200B5134694469646203922BFA0E811
:100760000C50A0E80C50B1F12001BFF4F7AF09071D
:1007700028BFA0E80C5048BF0CC05DF804EB89000E
:1007800028BF40F8042B08BF704748BF20F8022B51
:1007900011F0804F18BF00F8012B70477047704769
:1007A0007047000070B5064C7C44064D7D4403E064
:1007B000206820448047241DAC42F9D170BD000060
:1007C00038D5000038D500000048704740E70020C9
:1007D0000048704744E7002070B5064600F034F941
:1007E000056806F10B0020F00704B4429CBF00200E
:1007F00070BD2B466A68BAB11068A04210D304F1EC
:10080000080188423CBF5068586007D351681019EE
:1008100041601168091B016058601460101D70BDB3
:1008200013465268002AE7D12146284600F018F9FD
:100830000028DED170BD70B50446051F00F004F934
:100840000068002C14BF446870BD002C18BFAC4277
:100850003CBF20466468F8D301680A18AA4218BF52
:10086000456003D12A680546114401602868411992
:10087000A1421CBF6C6070BD61686960216808445A
:10088000286070BD10B500F0E3F8006810BD10B529
:10089000044600F0DDF8046010BD2DE9F0470D4678
:1008A00099469246044600F124080168880604D55A
:1008B000E06921F01001216000E00120A84201DD83
:1008C000471B00E00027A1697A1902EB0900081A0A
:1008D000A0612078C00602D42046FFF703FD002661
:1008E00008E0D4E901211AF806009047206A401C6C
:1008F000761C20624E45F4DB2078C0060AD52046DF
:10090000FFF7F0FC06E0D4E9012130209047206A8F
:10091000401C2062381EA7F10107F4DC07E0D4E98F
:10092000012118F805009047206A401C2062281E0B
:10093000A5F10105F3DC2046FFF7EAFC207800066C
:1009400002D50220BDE8F0870120FBE701694A1CBF
:1009500002610878704700B58FB0CDE90131002100
:10096000059105497944CDE9031011466846FFF722
:100970000BFE0FB000BD0000E5FFFFFF0A6802F8A4
:10098000010B0A60704710B5436913B1AFF30080E3
:1009900001E0FFF7E0FC012010BD127800F1240116
:1009A0000A7000224A700122EDE711684FF0FF3211
:1009B000E9E710B5436913B1AFF3008001E0FFF739
:1009C0002FFD012010BD128800F124018284002235
:1009D000C2840122EDE711684FF0FF32E9E770B5FC
:1009E00016460C46054600F027F8036893F8010107
:1009F000012806D0FF2C0FD8185D68B101202C709B
:100A000070BDD3F807013246214603F207130344B1
:100A10002846BDE8704018474FF0FF3070BD10B554
:100A200000F06EF8BDE8104000F064B800F080B847
:100A3000004870470CE7002010B500F0DBF8001DFF
:100A400010BD00BFB98100000048704714E70020C6
:100A5000004870470CE700207047704770477047A8
:100A600038B504460A4600206946AFF300800028E6
:100A700008BF38BD02460099204600F0C3F80120A7
:100A800038BD012000F0FFB8F8B5AFF3008005468F
:100A900000200C46102000BF0646A819A0420DD920
:100AA000324669460020AFF30080070008BF00F01F
:100AB000EAF80098A04218BF0546C419FFF7C4FF22
:100AC00005600746F01D20F007004619284600F093
:100AD0000AF8B44208BFF8BDA21B31463868BDE829
:100AE000F84000F08FB800210160C0E901107047A4
:100AF00010207047002801D000F050B87047000067
:100B000010B5002102A000F0A5F8012010BD0000E2
:100B10005349475056464E3A2050757265207669C3
:100B2000727475616C20666E2063616C6C65640024
:100B300010B500F00EF8016919B100220261884772
:100B400001E08068804700F07DF8000010B500F0FB
:100B500079F870B500F052F804680546A4B9202071
:100B6000FFF73AFE040011D0094900202C60C4E9C7
:100B700000010849A1602073206160610649A061FD
:100B800009B100F087F8E061204670BD00F05AF826
:100B9000000000004D0B070800000000014918206C
:100BA000ABBEFEE7260002007546FFF741FFAE46EA
:100BB00005006946534620F00700854618B020B569
:100BC000FFF740FBBDE820404FF000064FF0000764
:100BD0004FF000084FF0000B21F00701AC46ACE8E5
:100BE000C009ACE8C009ACE8C009ACE8C0098D4652
:100BF00070470000004870472CE70020004870470D
:100C000048E70020034640688C46002818BF884209
:100C10003CBF03464068F8D318681844884207D0A0
:100C20000CF1030020F00700001D411A521A014682
:100C3000081D0A60FFF7FFBD0446AFF300802046A1
:100C4000FFF7EBFA002000F04BF8FFF7D8FA01208D
:100C5000FFF7A4FF70B505460C460A2000E06D1CA6
:100C600000F036F835B128780028F8D102E0641C8D
:100C700000F02EF814B120780028F8D1BDE87040BB
:100C80000A2000F025B810B500F032F8BDE8104099
:100C9000FFF730BF10B58820FFF79EFD002801D078
:100CA0000021017010BD802902D808B1017809B176
:100CB00000207047012100F8081B704718B100F1AF
:100CC0000802914201D00020704700210170704756
:100CD00008B569468DF800000320ABBE08BD70471B
:100CE00010B500F06DF8BDE81040FFF703BF00003D
:100CF00010B5012805D0002103A0FFF7ABFF0120AC
:100D000010BD09A1F8E7000053494752544D454D25
:100D10003A204F7574206F662068656170206D659C
:100D20006D6F7279000000003A2048656170206D97
:100D3000656D6F727920636F72727570746564008F
:100D40004FF0013C50F8042B51F8043B9A4221D15A
:100D5000A2EB0C03934313EACC1317D150F8042BE6
:100D600051F8043B9A4215D1A2EB0C03934313EACA
:100D7000CC130BD150F8042B51F8043B9A4209D103
:100D8000A2EB0C03934313EACC13DBD04FF000002B
:100D9000704700BFD01A01BAB1FA81F101F0180111
:100DA00022FA01F0CB40C1F12001DBB2C0B2C01A7F
:100DB0002CFA01F3D11A914311EAC311E6D170471D
:100DC00010B5002102A0FFF745FF012010BD000073
:100DD000534947414252543A2041626E6F726D61ED
:100DE0006C207465726D696E6174696F6E000000CD
:100DF00030B51A498379026853B30B6893430B608B
:100E00000A1D13680468A343136002790A44136837
:100E1000046823431360114A083213680468A3432B
:100E20001360131D1C680568AC431C604479102CCA
:100E300005D021440A68006802430A6030BD116889
:100E4000046821431160196800680143196030BDCE
:100E50000079084401689143016030BD00040140FD
:100E600010B58A0721F003040649130F21440F220D
:100E70008C689A4094438C608A68984002438A60E8
:100E800010BD000000000140F0B5CA78002502F056
:100E90000F03D20601D58A7813430A784FF00F0E5C
:100EA00012F0FF0F4FF001021CD004680F8802FA05
:100EB00005F63740B74211D14FEA850C0EFA0CF710
:100EC00024EA070703FA0CF43C43CF78282F02D01A
:100ED000482F02D002E0466100E006616D1C082D3B
:100EE000E4D304600C88FF2C1ED944685FF0000630
:100EF00006F1080702FA07F50F882F40AF420FD11D
:100F00004FEA860C0EFA0CF7BC4303FA0CF73C438D
:100F1000CF78282F00D14561CF78482F00D10561C7
:100F2000761C082EE4D34460F0BD0246002092688F
:100F30000A4200D0012070470AB101617047416147
:100F4000704700002DE9F74FDFF8D4A182B0544676
:100F5000DFF8D0810298C4E90A01D8F800001546EC
:100F60004746016902988847064629466E4806F0BA
:100F700081F9AAF580796D496B48C9F8045006F0EB
:100F80002DFA6A496848A83106F028FA6849664887
:100F900006F024FA66496448A83106F01FFA65494C
:100FA000614806F01BFA63495F48A83106F016FA5B
:100FB00061495D4806F012FA002589F8005038684A
:100FC00029460268A06A9047C0B2009038680022A3
:100FD00011468368A06A9847386803210268A06AAE
:100FE0009047C0B20127554C012824D0277000211A
:100FF0004F48A83005F0C6FD6570A770AB46DAF81B
:101000002C00B946554628B3D8F8001047460A6860
:101010001C21904700F0FF0A38681D210268E86A29
:101020009047C7B2A86A03F06DFE454A014600200A
:1010300052F821100BE025700121D9E7524500D16B
:1010400060700A5CBA4200D1A070401CC0B20A5C59
:10105000FF2AF3D184F803B084F804B084F805B013
:1010600084F806B084F807B084F808B084F809B0B2
:1010700084F80AB084F80BB0D8F8000001225F466B
:1010800083680021A86A9847D8F800000321026805
:10109000A86A9047C0B201283CD084F80C9000BFE9
:1010A000D8F800000021009A8368A86A98476773FF
:1010B00084F80E90E77327746774A774E774277534
:1010C0006775A775E775029800F04CF816491D483A
:1010D000C1F80C010021144806F0EEF80920B0EB2D
:1010E000167F19D0C6F30360092815D000211148D6
:1010F000A83005F047FD0A20B0EB167F0ED0C6F3EE
:1011000003600A280AD0002105B00B48BDE8F04F63
:1011100005F038BD2773C3E70121E8E70121F3E7B4
:1011200004E00020F4FF0020BCE00020CCE100201F
:101130001CE300206CE40020BCE50020F4E6002065
:10114000DCB50708054F070810B5054C204606F02A
:10115000F7F804F58270BDE8104006F0C5BE000047
:10116000BCE0002070B5134C0646002120680268E0
:1011700030469047C5B22068002211468368304649
:1011800098470021304603F0EFFE2068012200213D
:1011900083683046984700280BD00121304603F081
:1011A000E3FE20682A46002183683046BDE870408F
:1011B000184770BDF4FF00202DE9F14FFB4D0527C6
:1011C000DFF8EC83FB4EDFF8F09384B0002405F1E8
:1011D000910A3068295D02681AF801100498904756
:1011E00099F8003008EB83122B5D641CE4B222F8FE
:1011F0001300BC42EDD3ED4D01270024ED1E05F197
:10120000010A3068295D02681AF8011004989047B5
:10121000E74999F80020103901EBC2012A5D641CEE
:10122000E4B241F82200BC42EBD399F800004D46ED
:1012300000EB4001DE488030012410F82100E0BBC3
:10124000306808210268049890472978474608EBDF
:101250008111888230680C210268049890472A78AE
:1012600001B207EB821002EB4203D14A01838032C4
:1012700002EB8302D278012A2BD1B0F9142002B9F3
:10128000F1B3524301FB0120B84608F069FA06F0B9
:101290009CFE08F049FA2A7808EB8217B887B7F95C
:1012A000180008F05DFA8146B7F9140008F058FA02
:1012B000494606F08CFEC14900E014E008F068FAE7
:1012C000BF4908F06FF908F02FFA2A7808EB82116D
:1012D000C887B9498031486B08B180F82040086C54
:1012E00008B180F820403068B046012102680498B7
:1012F000904787B2060CE86B4CF2186B68B300E0BD
:1013000014E007B1BEB1AF4805F0C2FCE96B8842FA
:1013100002D1AC4805F021FDE86B428B5A451CD048
:10132000A0F81AB0002105F0FCFB13E00021818732
:101330005A21C187CDE700214183012105F0F1FB4E
:10134000A04805F0A5FCE96B884203D000219D4828
:1013500005F0AAFCE86B80F82040D8F80000DFF820
:10136000689200210268D9F828009047C0B2029024
:10137000D8F80000002211468368D9F82800984761
:10138000D8F8000001210268049890478246D8F8F6
:1013900000000221026804989047C0B201901FFA31
:1013A0008AF9686F4FEA1A4AE8B1B9F1000F02D022
:1013B000BAF1000F31D08348A83005F069FC696F9D
:1013C000884203D17F48A83005F0C7FC686F428B84
:1013D0005A4508D0A0F81AB05FF0000105F0A1FB53
:1013E000686F80F820407448006F28B359EA0A01FA
:1013F00017D07448A83005F04BFC6F4D296F884218
:1014000003D17048A83005F0A8FC286F428B5A45DC
:1014100012D0A0F81AB0002109E000214183012177
:10142000DCE7654D418B39B100214183012105F095
:1014300078FB286F80F820405E4D0122002128684B
:1014400083686148806A9847286801210268049887
:101450009047804628680221026804989047C0B2ED
:10146000009055481FFA88F54FEA1848C06FE8B158
:1014700015B1B8F1000F34D05248A83005F008FC7F
:101480004D49C96F884203D14E48A83005F065FC2C
:10149000494AD06F438B5B4508D0A0F81AB00021B1
:1014A00005F03FFB4448C06F80F820404248806F01
:1014B00030B355EA080118D04248A83005F0E8FBDF
:1014C0003D49896F884203D13E48A83005F045FC6C
:1014D000394A906F438B5B4512D0A0F81AB00021B7
:1014E00008E0002141830121DAE7428B42B100216B
:1014F0004183012105F015FB2F48806F80F82040C3
:101500002C480021029A006883682F48806A984717
:1015100049EA0A0A4AEA050050EA08003AD02B498B
:10152000B1F8000101280AD08946022832D00121F1
:10153000264805F0C1FEB9F8000101282AD1DFF8DC
:10154000789099F8000018B14D46012809D019E0AB
:1015500055EA080516D0B9F802004D46A8B9012190
:1015600005E0BAF1000F0DD0688870B90021A868B5
:1015700006F0CFFA0021084604F036FBA8680021E7
:1015800080F82310B9F8021011B3B9F80210491EFF
:10159000A9F80210084D8035286890B3DDE90021D4
:1015A00011437DD00199062914D015E077B50708BD
:1015B00074E60020F4FF002004DF00200000344324
:1015C000C3F5484074E2002004E00020BCE00020A5
:1015D0001E21DDE7062A63D0824805F059FB296801
:1015E000884202D17F4805F0B8FB2868428B5A45F3
:1015F00007D0A0F81AB0002105F093FA286880F807
:101600002040DFF8E48100217B0698F8000000EB21
:101610004002764800EB82004FF00202417100D593
:101620004271730600D544718171FB0600D5827149
:10163000F30600D58471C171BB0600D5C271B30633
:1016400000D5C4710172FB0700D00272F30700D00D
:1016500004723B0600D50272330600D50472417253
:101660007B0700D54272730700D544728172BB07B5
:1016700000D58272B30700D58472C172390700D5D4
:10168000C272310700D5C472D8F83C10F1B3D8F853
:1016900020104379564A4E8B32F813309E4200E0B8
:1016A00098E002D04B8381F82040D8F82410837949
:1016B0004E8B32F813309E4202D04B8381F820408B
:1016C000D8F82810C3794E8B32F813309E4202D0DE
:1016D0004B8381F82040D8F82C10037A4E8B32F8D7
:1016E00013309E4202D04B8381F82040D8F830104E
:1016F000437A4E8B32F813309E4202D04B8381F8EE
:101700002040D8F83410837A4E8B00E011E032F894
:1017100013309E4202D04B8381F82040D8F8381015
:10172000C07A4B8B32F81000834202D0488381F894
:101730002040D8F8180008B180F82040D8F81C00E4
:1017400008B180F820402B48C06908B180F82040DB
:10175000686A08B180F82040A86B08B180F8204082
:10176000686C08B180F82040234D00212868026889
:1017700004989047C7B228680022114683680498ED
:10178000984728681E21026804989047174E012246
:10179000903E00217060286883680498984758B18B
:1017A00028681E21026804989047F06028683A462D
:1017B0000021836804989847D8F8480008B180F859
:1017C0002040D8F86000002801D080F8204005B003
:1017D000BDE8F08F418B00293FF413AF0021418316
:1017E000012109E71CE3002004DF0020F4E60020CB
:1017F0007CB5070804E00020F4FF002070B5064621
:101800000E4800244068472815D040F23F110020C0
:1018100000F0C4F900F02EFE4FF49635304600F08B
:10182000FFFD641CAC42F9D3BDE8704001220421E5
:10183000034800F03FB80021E9E7000034E0002051
:10184000000C014038B50121082000F0CDFE042035
:10185000ADF8000003208DF802001020134C8DF825
:10186000030069462046FFF70FFB012204212046B2
:1018700000F020F880200E4DADF8000069462846A3
:10188000FFF702FB4FF40044ADF8004069462846DC
:10189000FFF7FAFA01222146284600F00BF8012250
:1018A0008021284600F006F838BD0000000C0140F9
:1018B00000140140FFF740BB064B30B49B68203A50
:1018C000D2B21C68DB88534304EB430230BC00F007
:1018D00003B8000034E000202DE9F74F90460027C0
:1018E0000646019900F05AF91C4C31E000F0C2FDA7
:1018F00000254FF00C094FF0800A4FF0010B17E064
:10190000B0FBF9F1CA000AFA02F138F817202941B0
:10191000114201D10C2805D90BFA05F10A4203D175
:101920000C2801D9608800E0208800F079FD6D1C4A
:10193000A0688088A842E3D8012204210848FFF764
:10194000B9FF761CB6B23046019900F027F97F1C2A
:10195000A068C088B842C9D8BDE8FE8F34E0002036
:10196000000C0140704700002DE9F047194D8046FA
:101970009946686817460E460024472803D1A1F20D
:101980003F16704286B23146404600F007F9B9F181
:10199000000F1AD100F06EFD03E0288800F040FD32
:1019A000641CBC42F9D3BDE8F047012204210A4877
:1019B000FFF780BF288800F04DFD08F1010080B2DC
:1019C0008046314600F0EAF8641CBC42F2D3BDE820
:1019D000F087000034E00020000C0140024A138828
:1019E000038050880880704734E0002001488068F8
:1019F0007047000034E0002003484068472801D0C9
:101A0000012070470020704734E00020704700003C
:101A100070B52D4C0025218821F0380121802188C6
:101A200041F00801218000F057FD732000F07AFD9D
:101A3000FF21204600F02DFE8021204600F020FEF0
:101A40000028F9D10121204600F01AFE0028F9D023
:101A5000204600F01CFE6D1CEDB2052DE8D3FF21E1
:101A6000204600F016FE8021204600F009FE0028E6
:101A7000F9D10121204600F003FE0028F9D02046CC
:101A800000F005FE0546FF21204600F002FE802101
:101A9000204600F0F5FD0028F9D10121204600F094
:101AA000EFFD0028F9D0204600F0F1FDE9B240EA50
:101AB0000125012204210548FFF7FCFE208820F0C3
:101AC00038002080284670BD00380040000C0140DE
:101AD00030B587B00121082000F086FD01218C037C
:101AE000204600F069FD6010ADF8140003208DF869
:101AF000160018201D4D8DF8170005A92846FFF780
:101B0000C3F9ADF8144005A92846FFF7BDF96000F8
:101B1000ADF8140005A92846FFF7B6F9144C204685
:101B200000F084FD0021ADF800104FF48270ADF894
:101B30000200ADF804100220ADF806000120ADF857
:101B400008004002ADF80A00ADF80C100720ADF80F
:101B50000E10ADF810006946204600F09CFD0121F2
:101B6000204600F059FD07B030BD0000000C0140D8
:101B70000038004001B5BDF800000149488008BDAB
:101B800034E0002003B5BDF8001003480180BDF823
:101B9000041041800CBD000034E0002070B5054603
:101BA0000E480C464068472809D02946202000F0FE
:101BB0006BFC21462120BDE8704000F065BC210A85
:101BC000022000F061FCE1B2032000F05DFC002186
:101BD000062000F059FC29460720ECE734E00020FD
:101BE000014988607047000034E0002001B5BDF86D
:101BF00000000149088008BD34E000202DE9F05FB5
:101C0000FFF720FEFFF764FFFE48416847297CD0BC
:101C100041684FF48079A1F513424FF4E06B41F233
:101C2000300A40F23F1741F21808203A6ED041685E
:101C300040F20514A1F5A84240F2062540F6080638
:101C4000083A7DD04068A0F51341253979D10121AA
:101C5000002000F019FC4946012000F015FC59460F
:101C6000022000F011FC4146032000F00DFC002191
:101C7000042000F009FC291F082000F005FC0021C9
:101C8000092000F001FC00210A2000F0FDFB0021EA
:101C90000C2000F0F9FB00210D2000F0F5FB0021E5
:101CA0000F2000F0F1FB0021102000F0EDFB0021DF
:101CB000112000F0E9FB0021122000F0E5FB0021DB
:101CC000132000F0E1FB142006F020FF41F2B07178
:101CD000102000F0D9FB40F23711112000F0D4FBA6
:101CE000052006F013FFB91F122000F0CDFB0520E0
:101CF00006F00CFF4FF4E851132000F0C5FB132150
:101D0000292000F0C1FB052001E088E18FE006F00A
:101D1000FDFE0021202000F0B7FB0021212000F073
:101D2000B3FB0721302000F0AFFB40F2023131203D
:101D300000F0AAFB2146322000F0A6FB294601E074
:101D400077E26AE3352000F09FFB3146362000F051
:101D50009BFB2946372000F097FB40F204513820C6
:101D600000F092FB0721392000F08EFB21463C2039
:101D700000F08AFB31463D2000F086FB0021502018
:101D800000F082FBEF21512000F07EFB0021522069
:101D900000F07AFB3946532000F076FB4FF42741E0
:101DA000602000F071FB0121612000F06DFB00213B
:101DB0006A2000F069FB0021802000F065FB002113
:101DC000812000F061FB0021822000F05DFB0021FA
:101DD000832000F059FB0021842000F055FB0021F6
:101DE000852000F051FB1021902000F04DFB0021D8
:101DF000922000F049FB0321932000F045FB4FF4B3
:101E00008871952000F040FB0021972000F03CFBFA
:101E10000021982000F038FB4146032000F034FBFD
:101E200040F233110720BDE8F05F00F02DBB052024
:101E300006F06CFE4FF40041E52000F025FB012187
:101E4000002000F021FB4946012000F01DFB59460F
:101E5000022000F019FB5146032000F015FB002181
:101E6000042000F011FB40F20221082000F00CFBDE
:101E70000021092000F008FB00210A2000F004FBEB
:101E800000210C2000F000FB00210D2000F0FCFAE6
:101E900000210F2000F0F8FA0021102000F0F4FAE1
:101EA0000021112000F0F0FA0021122000F0ECFADD
:101EB0000021132000F0E8FA142006F027FE41F27A
:101EC000B071102000F0E0FA40F23711112000F05C
:101ED000DBFA052006F01AFE40F23911122000F05C
:101EE000D3FA052006F012FE4FF4E851132000F05B
:101EF000CBFA1321292000F0C7FA052006F006FED0
:101F00000021202000F0C0FA0021212000F0BCFABE
:101F10000621302000F0B8FA40F20111312000F023
:101F2000B3FA0321322000F0AFFA4FF48371352069
:101F300000F0AAFA40F60231362000F0A5FA40F28D
:101F40000231372000F0A0FA40F20771382000F08B
:101F50009BFA0721392000F097FA4FF4C0613C202A
:101F600000F092FA40F20B213D2000F08DFA0021A2
:101F7000502000F089FAEF21512000F085FA00216D
:101F8000522000F081FA3946532000F07DFA4FF4D8
:101F90001C51602000F078FA0121612000F074FAF1
:101FA00000216A2000F070FA0021802000F06CFA15
:101FB0000021812000F068FA0021822000F064FAFC
:101FC0000021832000F060FA0021842000F05CFAF8
:101FD0000021852000F058FA1021902000F054FADA
:101FE0000021922000F050FA0321932000F04CFAD7
:101FF0004FF48871952000F047FA0021972000F0F7
:1020000043FA01E034E000200021982000F03CFA7F
:102010004146032000F038FA40F2731102E7002134
:10202000EA2000F031FA2021EB2000F02DFA0C21FB
:10203000EC2000F029FAC421ED2000F025FA40211F
:10204000E82000F021FA3821E92000F01DFA0121F2
:10205000F12000F019FA1021F22000F015FAA32166
:10206000272000F011FA0121402000F00DFA002194
:10207000412000F009FA0021422000F005FA102169
:10208000432000F001FA0E21442000F0FDF9242144
:10209000452000F0F9F90421462000F0F5F950211F
:1020A000472000F0F1F90221482000F0EDF913215A
:1020B000492000F0E9F919214A2000F0E5F9192139
:1020C0004B2000F0E1F916214C2000F0DDF91B2136
:1020D000502000F0D9F93121512000F0D5F92F21FD
:1020E000522000F0D1F93F21532000F0CDF93F21DB
:1020F000542000F0C9F93E21552000F0C5F92F21E8
:10210000562000F0C1F97B21572000F0BDF90921CC
:10211000582000F0B9F90621592000F0B5F9062140
:102120005A2000F0B1F90C215B2000F0ADF91D211F
:102130005C2000F0A9F9CC215D2000F0A5F91B215D
:10214000084600F0A1F901211A2000F09DF92F2185
:10215000242000F099F95721252000F095F98621D7
:10216000232000F091F93621182000F08DF901218B
:10217000192000F089F90021012000F085F988215B
:102180001F2000F081F9022006F0C0FC80211F20F2
:1021900000F07AF9022006F0B9FC90211F2000F02F
:1021A00073F9022006F0B2FCD0211F2000F06CF978
:1021B000022006F0ABFC0521172000F065F9002194
:1021C000012000F061F90021022000F05DF90021FA
:1021D000032000F059F90121042000F055F93F21B6
:1021E000052000F051F90021062000F04DF90021F2
:1021F000072000F049F90021082000F045F9EF21FF
:10220000092000F041F92821162000F03DF90021B5
:10221000362000F039F90421362000F035F9382154
:10222000282000F031F9062006F070FC3C2128201F
:10223000F9E543F20801E32000F026F91221E72036
:1022400000F022F941F23121EF2000F01DF949465A
:10225000012000F019F95946022000F015F9514605
:10226000032000F011F90021042000F00DF940F2E4
:102270000221082000F008F90021092000F004F9EB
:1022800000210A2000F000F900210C2000F0FCF8E9
:1022900000210D2000F0F8F800210F2000F0F4F8E4
:1022A0000021102000F0F0F80021112000F0ECF8DF
:1022B0000021122000F0E8F80021132000F0E4F8DB
:1022C000142006F023FC0721112000F0DDF8052082
:1022D00006F01CFC41F2B021102000F0D5F80520DA
:1022E00006F014FC40F2BD11122000F0CDF80520DC
:1022F00006F00CFC4FF4A051132000F0C5F80E219D
:10230000292000F0C1F8052006F000FC0021202063
:1023100000F0BAF83946212000F0B6F80721302045
:1023200000F0B2F840F20231312000F0ADF8214661
:10233000322000F0A9F82946352000F0A5F83146F2
:10234000362000F0A1F82946372000F09DF840F231
:102350000451382000F098F80721392000F094F853
:1023600021463C2000F090F831463D2000F08CF8EA
:102370000021502000F088F8EF21512000F084F86F
:102380000021522000F080F83946532000F07CF8FC
:102390004FF42741602000F077F80121612000F020
:1023A00073F800216A2000F06FF80021802000F00F
:1023B0006BF80021812000F067F80021822000F0F6
:1023C00063F80021832000F05FF80021842000F0F2
:1023D0005BF80021852000F057F81021902000F0D4
:1023E00053F80021922000F04FF80321932000F0D1
:1023F0004BF84FF48871952000F046F800219720A3
:1024000000F042F80021982000F03EF841460320F9
:1024100000F03AF84FF4897104E5BDE8F09F000040
:1024200070B50B4D0446010A284600F032F98021B0
:10243000284600F025F90028F9D1E1B2284600F03D
:1024400028F98021284600F01BF90028F9D170BD39
:102450000038004010B5044600F00CF82046FFF7A5
:10246000DFFF0122BDE8104004210148FFF722BA36
:10247000000C014010B5222000F02EF8BDE81040FD
:10248000722000F04FB8000070B50C4600F024F840
:10249000722000F047F80E4D210A284600F0F9F8A6
:1024A0008021284600F0ECF80028F9D1E1B2284656
:1024B00000F0EFF88021284600F0E2F80028F9D17A
:1024C000BDE87040012204210248FFF7F3B9000083
:1024D00000380040000C014070B50546702000F047
:1024E00021F80E4C0021204600F0D3F88021204630
:1024F00000F0C6F80028F9D12946204600F0C9F8B6
:102500008021204600F0BCF80028F9D1BDE87040D9
:10251000012204210248FFF7CDB900000038004035
:10252000000C014010B50446002204210748FFF7C3
:10253000C1F92146064C204600F0ABF88021204628
:1025400000F09EF80028F9D110BD0000000C0140F9
:102550000038004070B50F23C47801780122F4B12F
:10256000144C2468457804F4E064C4F5E064240A5B
:10257000C4F10406E3408478B5401C402C4301F1CB
:10258000E021230181F80034007800F01F018A4027
:102590004009800000F1E020C0F8002170BD01F08A
:1025A0001F0082404809800000F1E020C0F880212F
:1025B00070BD00000CED00E0044A0029D16901D093
:1025C000014300E08143D1617047000000100240E8
:1025D000044A0029116901D0014300E081431161DF
:1025E0007047000000100240044A0029916901D0A0
:1025F000014300E0814391617047000000100240F8
:10260000044A0029D16801D0014300E08143D16030
:1026100070470000001002400029018802D041F0FC
:10262000400101E021F0400101807047114910B5DF
:1026300088420AD1841401212046FFF7E1FF204699
:10264000BDE810400021FFF7DBBF0B49884202D1F3
:102650000121041404E0094988420AD10121C4136C
:102660002046FFF7B5FF2046BDE810400021FFF7E8
:10267000AFBF10BD0030014000380040003C0040BA
:102680000246002012890A4200D00120704780894A
:1026900070478181704730B502884C8802F44153FD
:1026A0000A88CD8822438C882C4322430C892243FC
:1026B0004C8922438C892243CC8922431A430280CD
:1026C000828B22F400628283098A018230BD00007D
:1026D00038B500200090FFF791FA0020FFF798F935
:1026E0000146009045F20840094C814206D049F26B
:1026F0002530814202D0401F814203D16060FFF744
:102700007DFA01E04720606001480C30A06038BDD0
:1027100034E0002010B50021072000F01FF8002150
:10272000052000F01BF80021062000F017F800211A
:10273000032000F013F80021BDE81040042000F051
:102740000DB800000349044A31F8101052F8200077
:10275000FEF7EBBBD4CA070870E000207FB5044643
:1027600023480D46012150F8240040F00100FFF7F6
:102770003BFF04208DF80F001D4803A9103830F8E6
:102780001400ADF80C001B4850F82400FEF77CFB49
:10279000012D2CD11648403010F81410103810F8C4
:1027A0001400FEF75DFB1248203030F81400009052
:1027B00000208DF804000CB10C2000E008208DF8FA
:1027C000050001258DF806506846FEF711FB084804
:1027D000503010F814008DF808000F208DF8090013
:1027E0008DF80A008DF80B5002A8FFF7B3FE7FBDED
:1027F000E4CA070870E000200CB5002126480191CA
:102800000091026842F4803202604FF4A0630268D3
:1028100002F400320092019A521C0192009A12B9FD
:10282000019A9A42F3D10268920333D501210091B3
:102830001A490A6842F010020A600A6822F003028C
:102840000A600A6842F002020A6041684160416819
:102850004160416841F480614160416821F47C112C
:102860004160416841F4E8114160016841F08071C4
:10287000016001688901FCD5416821F003014160D4
:10288000416841F0020141604168C1F381010229C0
:10289000FAD10CBD00910CBD001002400020024096
:1028A0000F4810B5016841F00101016041680D4A0F
:1028B0001140416001680C4A11400160016821F437
:1028C00080210160416821F4FE0141604FF41F0145
:1028D0008160FFF791FF05494FF00060086010BD6F
:1028E000001002400000FFF8FFFFF6FE08ED00E0D8
:1028F0002DE9FE4F282005F071FB032100910523EF
:102900003B4A3CA105F02EFB8246282005F066FBE1
:102910001E2100910523364A39A105F023FB81468B
:10292000282005F05BFB3C2100910523304A3EA1A5
:1029300005F018FB8046282005F050FB4B21009144
:1029400005232B4A41A105F00DFB0746282005F081
:1029500045FB5A2100910523254A45A105F002FBBC
:102960000646282005F03AFBB42100910523204AB1
:1029700048A105F0F7FA0546282005F02FFB732142
:10298000009105231A4A4B4905F0ECFA04465146DA
:10299000174804F04EF94946154804F04AF94146F3
:1029A000134804F046F93946114804F042F931461B
:1029B0000F4804F03EF929460D4804F03AF9214643
:1029C0000B4804F036F9282005F008FB0849962347
:1029D000F7228DE80E0038492C234822096803F0BD
:1029E00063FC03B00146BDE8F04F014804F021B993
:1029F000CCE1002048656C702050616765000000E4
:102A000055736520746865206A6F79737469636BA8
:102A100020746F20776F726B2077697468204C4345
:102A200044204755490000002D55502F444F574E24
:102A300020746F206D6F7665206265747765656EB2
:102A400020636F6E74726F6C730000002D4C4546EE
:102A5000542F524947544820746F206D6F7665207B
:102A60006265747765656E2070616765730000004C
:102A70002D53454C20746F20696E746572616374C8
:102A800020776974682074686520636F6E74726F54
:102A90006C000000436F707972696768742053544A
:102AA0004D6963726F656C656374726F6E69637391
:102AB0000000000082B5070800DF00202DE9F04F7C
:102AC00087B00021FE4804F05DF8282005F086FA62
:102AD0000021FB4A0B460091A832FAA105F042FA08
:102AE0008046282005F07AFA1421F54A00910A233D
:102AF000A832FAA105F036FA0746382005F06EFA3A
:102B00002121EF4A00910A23A832F64905F03CF949
:102B1000F54CA060282005F061FA1421E84A0091E4
:102B20006423A832F1A105F01DFA0646382005F00D
:102B300055FA21210091E24AEA496423A8320C3176
:102B400005F022F9E060282005F048FADFF87093DC
:102B5000352309F1A8090A21CDF80090CDE9011328
:102B60003C239B22E4A105F05BF90546282005F0F3
:102B700035FA112100910F232A46E4A105F0F2F95C
:102B80000490282005F02AFA252100910F232A46D7
:102B9000E1A105F0E7F90590382005F01FFA6E2253
:102BA000CDE900524FF00F0ACDF808A0227809F5C0
:102BB000806B0BEB82110323DAA203F095FEA06178
:102BC000382005F00BFA23216E220095CDE9012172
:102BD000227803230BEB8211D2A2891C03F084FE1E
:102BE000E061282005F0FAF91422CD23CDF80090F9
:102BF000CDE90132AA236422CBA105F011F903909B
:102C0000282005F0EBF90523CDF800A0C8A1039A10
:102C100005F0A8F92062282005F0E0F921210091B3
:102C20000523C6A1039A05F09DF96062282005F0EE
:102C3000D5F9332100910523C3A1039A05F092F938
:102C4000A062282005F0CAF9452100910523C1A101
:102C5000039A05F087F9E062282005F0BFF95721B3
:102C600000910523BEA1039A05F07CF9206328207A
:102C700005F0B4F9692100910523BCA1039A05F080
:102C800071F96063282005F0A9F97B2100910523E3
:102C9000B9A1039A05F066F9A063302005F09EF90A
:102CA0008D2100910A23B7A1039A03F013FCB849C0
:102CB000E06341624CF218614183002103F031FF6F
:102CC0004846E16B03F0B5FF4146484603F0B1FFCB
:102CD0003146484603F0ADFF3946484603F0A9FFA8
:102CE0004846A16803F0A5FF2178A06804F011FF11
:102CF000A168A84848624846E16803F09AFF207836
:102D000009F5906600EB400016F82010E06804F02A
:102D100000FFA14804F5807700680169B86A884718
:102D2000C0067AD5282005F059F973230A21CDF879
:102D30000090CDE901133C23BE2298A105F070F864
:102D40008046282005F04AF91121009105234246CA
:102D500096A105F007F98246282005F03FF92521C4
:102D600000910523424692A105F0FCF881463820E7
:102D700005F034F90190B86A01F0C4FFDFF864B1DE
:102D800021230BF1180B42465BF820100F20009016
:102D9000019804F0F9FF2061382005F01FF9019037
:102DA000B86A01F0AFFF5BF82010232000902123C8
:102DB0004246019804F0E8FF60614146A6F5906044
:102DC00003F037FF5146A6F5906003F032FF494605
:102DD000A6F5906003F02DFFA6F59060216903F041
:102DE00028FFA6F59060616903F023FF207800EBCF
:102DF000400006EB80004178206904F08AFE2078CC
:102E000000EB400006EB80008178606904F081FEF1
:102E10002169684848626169486229482946A830A2
:102E200003F007FF26480499A83003F002FF244866
:102E30000599A83003F0FDFE2148A169A83003F0F0
:102E4000F8FE1F48E169A83003F0F3FE0021A069F5
:102E500003F067FE0021E06903F063FE4E4800685E
:102E60000169B86A88470221B1EB107F03D0C0F333
:102E70000360022813D1302005F0B0F8B221104AC7
:102E800000910A23A8324CA103F024FB01463861CB
:102E90000B48A83003F0CDFE39694C484862084819
:102EA0000399A83003F0C5FE0548216AA83003F055
:102EB000C0FE0348616AA83003F0BBFE004887E00B
:102EC000CCE10020436F6E66696775726174696F4B
:102ED0006E20616E64206465627567004D6F746F6B
:102EE00072000000A4B5070804DF00204374726C70
:102EF000206D6F6465000000506F77657220626F0F
:102F000061726420737461747573000044432042DD
:102F1000757320766F6C74004865617473696E6BAD
:102F200020542E00253364004661756C74730000D4
:102F30004F76657263757272656E74005265767550
:102F400070206661696C000053706565642066647A
:102F5000626B00005357206572726F7200000000B0
:102F6000556E64657220766F6C7400004F766572E2
:102F700020766F6C740000004F7665722074656D6A
:102F8000700000004661756C742061636B00000086
:102F9000ED4E0708E95B0708F4FF00204441432099
:102FA00053657474696E67730000000043683100F4
:102FB00043683200D9530708456E636F6465722019
:102FC000616C69676E6D656E740000004954070896
:102FD000A830A16A03F02DFE2048E16A03F029FE23
:102FE0001E48216B03F025FE1C48616B03F021FE97
:102FF0001A48A16B03F01DFE2078226A00EB400006
:1030000006EB800116484B7930F8133053838B79E7
:10301000626A30F813305383CB79A26A30F81330E8
:1030200053830B7AE26A30F8133053834B7A226B66
:1030300030F8133053838B7A626B30F8133053833C
:10304000C97AA26B30F811005083E16805484862E4
:1030500007B00248BDE8F04F03F07FBE74E20020E5
:103060007CB50708215B07082DE9F04F8BB02820BD
:1030700004F0B4FF00210B460091FB4AFBA104F0D1
:1030800071FF0790282004F0A9FFF74914230A22B2
:103090008DE80E005A239122F9A104F0C1FE0646E4
:1030A000F948FA4C4FF0050B00784FF01E09002844
:1030B0004FF0410A4FF028007BD004F08FFF0F2122
:1030C000009105233246F2A104F04CFF0746382058
:1030D00004F084FF0096EC49CDE901B94D46062382
:1030E000EFA26C3903F000FCEE49606441624020BD
:1030F00004F074FF3C210096CDE90115E249062356
:10310000E7A28C3904F094F8A064282004F066FF4C
:1031100075233246E4A1009504F024FF8046282060
:1031200004F05CFF3221009105233246DFA104F058
:1031300019FF0546382004F051FFD349CDE9006B53
:103140000623D7A26839CDF808A003F0CDFBD949F2
:10315000206541623946C44803F06BFDC248616C8A
:1031600003F067FDC048A16C03F063FD4146BE4813
:1031700003F05FFD2946BC4803F05BFDBA48216DB2
:1031800003F057FD0021A06C03F0CBFC302004F0CD
:1031900025FF782100912823B34AC7A103F09AF9AB
:1031A0002067302004F01AFF8C212823AE4A0091BA
:1031B00000E0DCE0C3A103F08DF9C549606741621E
:1031C0004CF218614183002103F0ABFCA648216F4B
:1031D00003F02FFDA448616F03F02BFD282004F0BD
:1031E000FDFEA1491423A0228DE80E005A2391224E
:1031F000B8A104F015FE0546A348017B843803906E
:1032000000294FF028007CD004F0E8FE0F21009147
:1032100005232A469EA104F0A5FE0890382004F05C
:10322000DDFE9949CDE9005B4F4606239CA22C396F
:10323000CDF8089003F058FBA849E06541624020B2
:1032400004F0CCFE3C21CDE90051062394A2029764
:10325000039903F0EDFF2066282004F0BFFE7523DC
:103260002A4691A1009704F07DFE8046282004F0B4
:10327000B5FE3221009105232A468CA104F072FE8E
:103280000746382004F0AAFE7F49CDE9005B0623FB
:1032900083A22839CDF808A003F026FB9049A06648
:1032A00041627148089903F0C4FC6F48E16D03F076
:1032B000C0FC6D48216E03F0BCFC41466A4803F037
:1032C000B8FC3946684803F0B4FC6748A16E03F0C7
:1032D000B0FC0021206E03F024FC302004F07EFEC0
:1032E00078210091BE23604A73A103F0F3F8A06730
:1032F000302004F073FE8C210091BE235A4A71A144
:1033000000E040E103F0E6F87649E06741624CF204
:1033100018614183002103F004FC302004F05EFEBC
:10332000A02100914423504A6FA103F0D3F8574FD6
:10333000803738604C48079903F07BFC31464A4897
:1033400003F077FC2946484803F073FC4648A16F18
:1033500003F06FFC4448E16F03F06BFC42483968AE
:1033600003F067FC4848017800297CD0D0E104F0E4
:1033700035FE0F2100910523324661A104F0F2FDD4
:103380000490402004F02AFE3F49CDE9006B06235B
:1033900043A29039CDF8089003F04AFF5C4D2064B9
:1033A0005C4F286800210268B86A9047C0B2039059
:1033B0002868002211468368B86A98472868D4F8BC
:1033C000408040210268B86A9047029028683F21F7
:1033D0000268B86A90470299C8E90E10286800216F
:1033E000039A8368B86A9847402004F0F7FD3C21AF
:1033F000CDE900612449062329A2CDF808908C3933
:1034000003F016FFA064282004F0E8FD752332467F
:1034100025A1CDF8009004F0A5FD0746282004F072
:10342000DDFD32210091052332463BA104F09AFDD7
:103430000546382004F0D2FD1349CDE9006B062380
:1034400017A27C39CDF808A003F04EFA47F6FF72B8
:103450000021E06403F018FA302004F0BFFD3C23A3
:10346000324632A166E03FE11CE300204475616C06
:1034700020636F6E74726F6C2070616E656C0000FB
:103480004D6F746F72203100F4E6002004DF0020DD
:103490004971207265662E2F5370656564000000C7
:1034A00025366400A55F070872706D0049642072BC
:1034B00065662E001D5E070853746172742F537485
:1034C0006F7000004661756C742061636B000000D2
:1034D000595307084D6F746F72203200416007081E
:1034E000E15E07089953070853746172742F53748F
:1034F0006F7020626F7468206D6F746F727300005C
:10350000546172676574204D6561737572656400FE
:10351000F4FF002004E0002052616D702064757299
:103520006174696F6E206D730000000045786563FB
:1035300000000000CDF800A002F0CCFF60657C48E0
:10354000049903F076FB7A48216C03F072FB78480B
:10355000A16C03F06EFB3946754803F06AFB2946FF
:10356000734803F066FB7248E16C03F062FB70483D
:10357000616D03F05EFB0021A06C03F0D2FA616D77
:103580006C48486202E604F029FD0F2105232A4613
:103590000091AFF2940104F0E5FC0890402004F0A3
:1035A0001DFD1E2105220095CDE901210623AFF264
:1035B0001012614903F03CFE604FA065DFF8808186
:1035C000386800210268D8F82800904700F0FF0B07
:1035D0003868012200218368D8F8280098473868A5
:1035E000D4F8589040210268D8F8280090470490F9
:1035F00038683F210268D8F8280090470499C9E943
:103600000E1038685A4600218368D8F82800984779
:10361000402004F0E3FC1E213C220095CDE901216D
:103620000623AFF28412039903F002FE20662820DD
:1036300004F0D4FC1E2175232A460091AFF29811A4
:1036400004F090FC8046282004F0C8FC32210523B9
:103650002A460091AFF2401104F084FC074638205E
:1036600004F0BCFC0522CDE900520623CDF808A0E9
:10367000AFF2D41230494C3103F036F947F6FF72FD
:103680000021606603F000F9302004F0A7FC3C2321
:103690002A46AFF26811CDF800A002F01BFFE066E9
:1036A0002348089903F0C5FA2148A16D03F0C1FA37
:1036B0001F48216E03F0BDFA41461D4803F0B9FAD8
:1036C00039461B4803F0B5FA1948616E03F0B1FAA8
:1036D0001748E16E03F0ADFA0021206E03F021FAE5
:1036E000E16E18484862F8E5007B88B9302004F0A4
:1036F00075FCB421009140230D4A13A102F0EAFEAB
:10370000014678600A4803F094FA796814484862E0
:10371000396814484862216F13484862A16F134802
:1037200048620BB00248BDE8F04F03F016BB000042
:103730001CE30020196107086CE60020F4FF00205C
:1037400004E0002065610708457865632073696DB2
:10375000756C74616E656F75732052616D70730066
:1037600061540708D14F0708CD570708D9580708F3
:103770002DE9F04F8BB0282004F030FC00210B46DF
:103780000091FE4AFEA104F0EDFB0390282004F016
:1037900025FC0A22F94BCDE900324FF0140ACDF88E
:1037A00008A05A239122FBA104F03AFB07462820E7
:1037B00004F014FC1E2100913C233A46F8A104F0C9
:1037C000D1FB0490282004F009FC412100913C2306
:1037D0003A46F4A104F0C6FB0590282004F0FEFB55
:1037E0000F21009105233A46EFA104F0BBFB0690A0
:1037F000402004F0F3FB1E2105220097CDE90121B2
:10380000DFF8B8B3EC4A06239BF8001002EBC101C5
:10381000EBA203F00DFD0BF18004DFF8A883064650
:10382000A060D8F8000004F1800540210268A86A71
:1038300090478146D8F800003F210268A86A904767
:10384000C6E90E90282004F0C9FB3221009105231F
:103850003A46DDA104F086FB0790382004F0BEFB59
:10386000412105220097CDE901215A46DFF848930E
:10387000127809F1100909EB82110623D0A2091D63
:1038800003F032F847F6FF720021E06002F0FCFF1F
:10389000302004F0A3FB412100915A233A46CEA1E7
:1038A00002F018FECE492061416201F0C3F92820E0
:1038B00004F094FBB14973230A228DE80E004B23D8
:1038C0006822C8A104F0ACFA0646282004F086FB62
:1038D0000A233246C6A1CDF800A004F043FB0890AD
:1038E000282004F07BFB232100910A233246C1A14A
:1038F00004F038FB0990382004F070FB51464FF07B
:10390000280A0096CDE901A15A460623127809EB50
:103910008211ABA2891D02F0E7FF6061382004F03C
:103920005DFB23210096CDE901A15A4606231278BA
:1039300009EB8211A2A2083102F0D6FFA0618F48E4
:10394000039903F076F98D48049903F072F98B48D6
:10395000059903F06EF93946884803F06AF98748FB
:10396000069903F066F98548A16803F062F9834877
:10397000079903F05EF98148E16803F05AF97F483E
:10398000216903F056F97D48696903F052F97B48D3
:10399000A96903F04EF97948E96903F04AF97748D3
:1039A000696A03F046F90021E86903F0BAF8734840
:1039B000296A03F03EF93146704803F03AF96F483E
:1039C000089903F036F96D48099903F032F96B480C
:1039D000616903F02EF96948A16903F02AF9D8F862
:1039E00000000169A86A884780072BD5282004F0C9
:1039F000F5FA32270A2332467FA1009704F0B2FA83
:103A00000546382004F0EAFACDE9006A02979BF8EF
:103A10000020062309EB821169A20A3102F064FF3B
:103A2000E0612946554803F004F95448E16903F080
:103A300000F947F6FF720021E06902F025FF616995
:103A40006E48486247F6FF752A460021606902F019
:103A50001BFF2A460021A06902F016FFD8F80000DB
:103A600001696748806A8847C0077DD0282004F034
:103A7000B5FA424973237D228DE80E004B23B42210
:103A800060A104F0CDF90546282004F0A7FA0E261F
:103A90000A232A465FA1009604F064FA03902820C6
:103AA00004F09CFA50232A465AA1009604F05AFAD0
:103AB0008246382004F092FA0A22CDE900524FF0F3
:103AC0001908CDF808809BF800104E4609EB8111CB
:103AD0005F46042351A20C3102F006FF2062382019
:103AE00004F07CFA5022CDE90052CDF808803978F4
:103AF000042306EB811149A20E3102F0F5FE60624B
:103B0000282004F06BFA4FF02C080A232A4638A12B
:103B1000CDF8008004F026FA8146282004F05EFAF1
:103B200050232A4633A1CDF8008004F01BFA8046CA
:103B3000382004F053FA0A22CDE900524FF0370B37
:103B4000CDF808B03978062306EB81111CA210319C
:103B500002F0CAFEA062382004F040FA5022CDE9FB
:103B60000052CDF808B000E09CE03978062306EB5F
:103B7000811113A2123102F0B7FE51E0C4E300201C
:103B8000537065656420636F6E74726F6C6C6572E0
:103B90000000000053657420706F696E74000000AF
:103BA00072706D006D7300005461726765742073EC
:103BB000706565640000000064E6002004DF0020FA
:103BC00025366400F4FF002052616D702064757228
:103BD0006174696F6E000000457865630000000045
:103BE000B95B0708504944204761696E73000000C3
:103BF0004B5000004B4900004B4400003151070876
:103C000004E00020466C757820776C2E2074756E69
:103C1000696E67004255538000000000253464003F
:103C2000E0622946254803F004F82448039903F08C
:103C300000F85146214802F0FCFF2048216A02F0BA
:103C4000F8FF1E48616A02F0F4FF0021606A02F08A
:103C500068FF4946194802F0ECFF4146174802F058
:103C6000E8FF1648A16A02F0E4FF1448E16A02F096
:103C7000E0FF4FF47A720021206A02F005FE47F659
:103C8000FF752A460021A06A02F0FEFD2A460021A7
:103C9000E06A02F0F9FD216A09484862A16A4862B7
:103CA000E16A4862616906484862A16948620BB0EE
:103CB0000248BDE8F04F03F050B80000C4E3002014
:103CC000315107082DE9F04F8BB0282004F086F918
:103CD00000210B460091FE4AFEA104F043F9039037
:103CE000282004F07BF987210091E623F84AFEA101
:103CF00004F038F90490282004F070F90A23DFF862
:103D0000D083CDE900834FF0140ACDF808A05A23E0
:103D10009122F7A104F084F80746282004F05EF908
:103D20000F21009105233A46F4A104F01BF9F54C4C
:103D30002063382004F052F91E2105220097CDE9B6
:103D40000121A4F1800508F502762978062306EB07
:103D50008111EDA2143102F0C7FD6063282004F048
:103D60003DF90F21009150233A46E8A104F0FAF8FA
:103D70000590382004F032F91E2150220097CDE939
:103D800001212978062306EB8111DFA2163102F00A
:103D9000ABFDA063282004F021F932210091052316
:103DA0003A46DBA104F0DEF8E063382004F016F9AF
:103DB000412105220097CDE901212978062306EB50
:103DC0008111D1A2183102F08FFD2064282004F067
:103DD00005F93221009150233A46CFA104F0C2F8F0
:103DE0000690382004F0FAF8412150220097CDE9DE
:103DF00001212978062306EB8111C3A21A3102F0B2
:103E000073FD6064282004F0E9F8844673200A22D8
:103E1000CDF80080CDE901204B236822BFA1604688
:103E200003F0FEFF8146282004F0D8F80A234A4612
:103E3000BEA1CDF800A004F095F80790382004F05A
:103E4000CDF84FF0280BCDE9009B8446CDF808A0B3
:103E50002878062306EB8011ABA260461C3102F0E5
:103E600043FDA064282004F0B9F8232100910A231F
:103E70004A46AFA104F076F80890382004F0AEF876
:103E80002321CDF80090CDE901B18446287806239E
:103E900006EB80119CA260461E3102F025FDE06415
:103EA000282004F09BF8844673207822CDF8008007
:103EB000CDE901204B2368229EA1604603F0B0FFAC
:103EC0008046282004F08AF80A23424697A1CDF8BC
:103ED00000A004F047F80990382004F07FF8CDE9FD
:103EE000008B8446CDF808A02878062306EB8011C5
:103EF00085A26046223102F0F7FCA065282004F07C
:103F00006DF8232100910A23424689A104F02AF882
:103F10000A90382004F062F82321CDF80080CDE922
:103F200001B184462878062306EB801176A260460C
:103F3000243102F0D9FCE065302004F04FF8732101
:103F40000091E623624A7FA103F098F8A06638202A
:103F500004F044F896210091E6235D4A7B4903F082
:103F600013FFE06600F066FE5948039902F061FE17
:103F70005748049902F05DFE3946554802F059FE53
:103F80005348216B02F055FE5148616B02F051FE1F
:103F90004F48059902F04DFE4D48A16B02F049FED5
:103FA0000021A06B02F0BDFD4948E16B02F041FE2B
:103FB0004748216C02F03DFE4548069902F039FE63
:103FC0004348616C02F035FE0021606C02F0A9FDEF
:103FD00004F1800041693E4802F02BFE04F18000AC
:103FE00081693B4802F025FE04F18000C169384830
:103FF00002F01FFE04F18000416A354802F019FE0C
:1040000004F180000021C06902F08BFD04F1800002
:10401000016A2F4802F00DFE287800EB400106F1FE
:10402000800000EB810049460779294802F001FE33
:104030002748079902F0FDFD2548A16C02F0F9FD23
:104040002348089902F0F5FD2148E16C02F0F1FDEA
:10405000A16C3F484862E16C3E4848623E480068B7
:10406000016904F18000806A884740072DD5282027
:1040700003F0B4FF4FF0320A0A234A4637A1CDF8C5
:1040800000A003F06FFF2065382003F0A7FFCDE903
:10409000009BCDF808A02978062306EB81111AA20F
:1040A000203102F021FC60650948216D02F0C1FD5C
:1040B0000748616D02F0BDFD47F6FF720021606D9B
:1040C00002F0E2FB616D2648486247F6FF7A49E05C
:1040D0006CE4002043757272656E7420636F6E74B9
:1040E000726F6C6C65727300496E707574000000BD
:1040F00053657420706F696E74730000497120728B
:1041000065662E0084DF00202536640049710000BA
:104110004964207265662E00496400004971205090
:104120004944204761696E73000000004B50000055
:104130004B490000496420504944204761696E732F
:10414000000000004C696E6B00000000FCB5070821
:10415000AD52070869520708F4FF00204B440000E5
:104160002152070852460021A06C02F08DFB5246F6
:104170000021E06C02F088FB41465D4802F059FDE9
:104180005B48099902F055FD5948A16D02F051FDB7
:1041900057480A9902F04DFD5548E16D02F049FD7E
:1041A0005448006801695448806A8847DFF84C9198
:1041B000000733D5282003F011FF32210A2342469D
:1041C0000091AFF2680103F0CDFE2066382003F0C5
:1041D00005FF3221CDF80080CDE901B12978062311
:1041E00006EB8111AFF2E002263102F07DFB606642
:1041F0003F48216E02F01DFD3D48616E02F019FD41
:1042000052460021606E02F03FFB002F55D0002186
:10421000606E02F086FC616EC1F8249056465246EC
:104220000021A06D02F030FB32460021E06D02F06B
:104230002BFB2F48A16E02F0FCFC2D48E16E02F032
:10424000F8FCA84628782E4D00EB400005EB8000D6
:10425000C178E06E03F05DFC01F048FDA66E726A65
:104260002AB196F8210010B139463046904786F8B9
:104270002C7027B30021A06D02F053FC0FB3002176
:10428000E06D02F04EFCE16E1E484862A16E1E48D1
:104290004862606B1D494162226C1D495162A26DEA
:1042A000C2F82490E26DC2F8249098F8001001EB57
:1042B000410115F8211031B114E00121A8E70121D5
:1042C000D9E70121DCE7002102F02BFC0948006856
:1042D00001690948806A8847800603D40021206C60
:1042E00002F01FFC0BB00248BDE8F04F02F035BDF4
:1042F0006CE40020F4FF002004E0002031510708A6
:10430000F4E60020D96107087151070861560708D3
:10431000CD5407082DE9F04FFF4887B0002500680D
:104320000169FE48806A8847064609200024B0EBF0
:10433000167F09D1282003F051FE0023F84AF9A185
:10434000009403F00FFE0546C6F30360092809D167
:10435000282003F043FE0023F14AF9A1009403F062
:1043600001FE05467006DFF8B8834FF028000BD534
:1043700003F034FE14210A22CDF80080CDE901219A
:104380005A239122F7A10AE003F028FE14210A2201
:10439000CDF80080CDE901215A239122F4A103F048
:1043A0003FFD0446282003F019FE0F21009105234C
:1043B0002246F0A103F0D6FD0390382003F00EFE54
:1043C0001E2105220094DFF8B4A3CDE90121DFF816
:1043D000A8939AF80020062309EB8211E8A228315D
:1043E00002F082FA0AF1800B5F46CBF870002820B9
:1043F00003F0F4FD0F21009150232246E1A103F0C8
:10440000B1FD0490382003F0E9FD1E2150220094F4
:10441000CDE901219AF80020062309EB8211D8A2E8
:104420002A3102F061FA786700F004FC2946BC48A2
:1044300002F0FFFB2146BA4802F0FBFBB8480399A3
:1044400002F0F7FBB648396F02F0F3FBB448049969
:1044500002F0EFFBB248796F02F0EBFB700659D522
:10446000282003F0BBFD3221009105232246C6A17E
:1044700003F078FD0390382003F0B0FD0521CDE96D
:104480000041412702979AF80020062309EB821188
:10449000BBA2303102F028FA5D4647F6FF720021D8
:1044A000CBF8780002F0F0F9282003F097FD3221D4
:1044B000009150232246B6A103F054FD0490382009
:1044C00003F08CFD5021CDE9004102979AF80010CD
:1044D000062309EB8111AAA2323102F005FA47F650
:1044E000FF720021E86702F0CFF98D48039902F0CE
:1044F000A0FB8B48A96F02F09CFB8948049902F04D
:1045000098FB8748E96F02F094FBA96FA2484862C4
:10451000E96F4862814C8248616902F08AFB8048F9
:10452000A16902F086FB7E48E16902F082FB7C48CB
:10453000616A02F07EFB0021E06902F0F2FA78483D
:10454000216A02F076FB0920B0EB167F7ED128208D
:1045500003F044FD73230A22CDF80080CDE9012346
:104560004B2340F227128DA103F05AFC0546282068
:1045700003F034FD4FF014080A232A468BA1CDF82E
:10458000008003F0EFFC0390382003F027FD502259
:10459000CDE90052CDF808809AF800104E4609EB9C
:1045A00081115746062376A2343102F09DF947F671
:1045B000FF720021206002F067F9282003F00EFD51
:1045C0004FF023090A232A467BA1CDF8009003F07F
:1045D000C9FC0490382003F001FD5022CDE90052BF
:1045E000CDF808903978062306EB811164A23631A4
:1045F00002F07AF96060282003F0F0FC4FF0320AF4
:104600000A232A466EA1CDF800A003F0ABFC05906A
:10461000382003F0E3FC5022CDE90052CDF808A089
:104620003978062306EB811155A2383102F05CF986
:10463000A060282003F0D2FCB4232A4662A1CDF862
:10464000008003F08FFC0690382000E0DCE003F0EF
:10465000C5FCE622CDE90052CDF808803978032365
:1046600006EB81115AA23A3102F03EF9E0602A4885
:10467000222100680268A06A9047421E0021E0687B
:1046800002F002F9282003F0A9FC8C232A4651A14C
:10469000CDF8008003F066FC8246282003F09EFCE3
:1046A0008C232A464CA1CDF8009003F05BFC3978AE
:1046B000804606EB811090F83A20A06A00F018FEC0
:1046C000E168464848622168454848626168454853
:1046D0004862A168444848625146114802F0A9FA6C
:1046E00041460F4802F0A5FA29460D4802F0A1FA0A
:1046F0000B48039902F09DFA0948216802F099FAE3
:104700000748049902F095FA0548616802F091FAA9
:10471000034805996AE00000F4FF002004E000204F
:1047200014E5002053656E736F726C6573732074AB
:10473000756E696E672053544F202620504C4C00F4
:1047400053656E736F726C6573732074756E696EEA
:10475000672053544F202620504C4C202841757818
:104760002900000053544F202620504C4C000000DC
:1047700053544F004731000074E6002004DF00204E
:104780002536640047320000504C4C204B5000004E
:10479000504C4C204B49000031510708526576209F
:1047A00075702074756E696E6700000044757261E3
:1047B00074696F6E00000000456E642073706400C1
:1047C000456E642049710000537461676500000004
:1047D000253364006D73000072706D00DD600708A2
:1047E000B1610708096207083162070802F021FA7F
:1047F0000C48A16802F01DFA0A48069902F019FA5D
:104800000848E16802F015FADBF8702006485062AB
:10481000DBF87410486207B00248BDE8F04F02F0C0
:104820009CBA000014E50020315107082DE9F04F33
:10483000D14887B0002400680169D048806A884761
:1048400006460A250027B5EB167F09D1282003F07C
:10485000C5FB0023CA4ACBA1009703F083FB0446A3
:10486000C6F303600A2809D1282003F0B7FB002310
:10487000C34ACCA1009703F075FB0446282003F03F
:10488000ADFBBF4BCDE9003514210291AA465A2356
:104890009122CEA103F0C4FA0546282003F09EFB26
:1048A0004FF00F0805232A46C9A1CDF8008003F078
:1048B00059FB8146382003F091FB1E21052200950B
:1048C000CDE90121C349DFF8B8B2062309780BF11D
:1048D000B80B0BEB8111C0A22C3102F005F8A74FE9
:1048E000803F3867282003F079FB50232A46BBA17C
:1048F000CDF8008003F036FB8046382003F06EFBD5
:104900001E2150220095CDE90121B2490623B2A211
:1049100009780BEB81112E3101F0E6FF786700F08A
:1049200089F92146964802F084F92946944802F014
:1049300080F94946924802F07CF99148396F02F0BB
:1049400078F941468E4802F074F98D48796F02F08B
:1049500070F98A4C8A48616902F06BF98848A1694C
:1049600002F067F98648E16902F063F98448616AF8
:1049700002F05FF90021E06902F0D3F88048216A73
:1049800002F057F9BAEB167F7ED1282003F026FB00
:104990007B4900917323CDE901A34B2340F22712F9
:1049A0008FA103F03DFA0546282003F017FB4FF0D6
:1049B00014080A232A468EA1CDF8008003F0D2FA0B
:1049C0000390382003F00AFB4FF05009CDE900595D
:1049D000803FCDF8088039785E460BEB81110623C5
:1049E0007DA2343101F080FF47F6FF720021206084
:1049F00001F04AFF282003F0F1FA4FF0230A0A23BE
:104A00002A467EA1CDF800A003F0ACFA049038202D
:104A100003F0E4FA8DE820063978062306EB8111CD
:104A20006DA2363101F060FF6060282003F0D6FAF5
:104A30004FF0320B0A232A4672A1CDF800B003F0E2
:104A400091FA0590382003F0C9FA8DE8200A3978E8
:104A5000062306EB811160A2383101F045FFA0600A
:104A6000282003F0BBFAB4232A4668A1CDF80080C1
:104A700003F078FA8346382003F0B0FAE622CDE955
:104A80000052CDF8088000E069E03978032306EB96
:104A9000811160A23A3101F027FFE06036482221FF
:104AA00000680268A06A9047421E0021E06801F099
:104AB000EBFE282003F092FA8C232A4656A1CDF86B
:104AC000008003F04FFA8146282003F087FA8C23F8
:104AD0002A4652A1CDF800A003F044FA3978804666
:104AE00006EB811090F83A20A06A00F001FCE16822
:104AF0004B48486220684B49416260684A494162BC
:104B0000A0684A49416249461D4802F092F8414670
:104B10001B4802F08EF82946194802F08AF8184816
:104B2000039902F086F81648216802F082F81448CA
:104B3000049902F07EF81248616802F07AF8104891
:104B4000059902F076F80E48A16802F072F859460D
:104B50000B4802F06EF80A48E16802F06AF807486C
:104B600033498038026F5162406F416207B0044898
:104B7000BDE8F04F02F0F1B8F4FF002004E000209F
:104B8000BCE5002053656E736F726C65737320749F
:104B9000756E696E672053544F202620434F524450
:104BA0004943000053656E736F726C6573732074B4
:104BB000756E696E672053544F202620434F524430
:104BC00049432028417578290000000053544F00C4
:104BD0004731000004DF0020253664004732000022
:104BE0005265762075702074756E696E67000000DE
:104BF0004475726174696F6E00000000456E642038
:104C000073706400456E64204971000053746167DD
:104C100065000000253364006D73000072706D0044
:104C2000DD600708B16107080962070831620708FB
:104C3000315107083EB5282003F0D0F9A0232249BE
:104C4000CDE90013142202925A2391221FA103F0EE
:104C5000E7F8204C6061282003F0C0F90F21009193
:104C600005231DA1626903F07DF9A061402003F0D6
:104C7000B5F962690521CDE900211E25A4F58072F0
:104C8000029519491278062301EBC20117A2091DEA
:104C900002F0CEFAE061302003F0A0F9412100914A
:104CA000052313A1626901F015FC2062282003F09E
:104CB00095F900953C2311A1626903F053F96062F4
:104CC000216A0F4848623EBDE0E000204D6F6E69EA
:104CD000746F720004E000204D6561737572656445
:104CE000207370656564000064E60020253664006A
:104CF00053746172742F53746F70000072706D0082
:104D00002950070870B531490024096809698847A6
:104D1000010E0E074FF009014FF00A024FF0020397
:104D20004FF001050ED0B1EB107F03D1C0F3036645
:104D30000A2E17D0B2EB107F15D1C0F30366092EEF
:104D400010D010E0B1EB107F00D10124B2EB107F46
:104D500000D10224B5EB107F02D0B3EB107F33D12A
:104D6000032431E00624B1EB107F05D1C0F30361C9
:104D700002290BD0012909D0C0F30361092906D10A
:104D8000B3EB107F02D0B5EB107F00D10424B2EB5F
:104D9000107F05D1C0F3036102290BD0012909D08E
:104DA000C0F303610A2906D1B3EB107F02D0B5EB43
:104DB000107F00D105240B21B1EB107F04D1C0F38B
:104DC0000360092800D10724204670BDF4FF0020AD
:104DD00010B5324801F08FFF3048A83001F08BFF4A
:104DE0002F4801F088FF2E48A83001F084FF2D489D
:104DF00001F081FF2B48A83001F07DFF2A4801F027
:104E00007AFF2A4900208860C8600861486188618B
:104E1000C861086248628862C86208634863886340
:104E2000C863086448648864C86408654865886520
:104E3000C865086648668866C86608674867886700
:104E4000C8678031086048608860C8600861486150
:104E50008861C861086248628862C8620863486302
:104E60008863C863086448648864C86408654865E2
:104E70008865C865086648668866C86608674867C2
:104E80008867C8678031086048608860C8600861CA
:104E900048618861C8610862486210BDCCE10020A9
:104EA0001CE300206CE40020BCE5002004DF0020AF
:104EB00010B5074807A102780B48521CFBF7FEF912
:104EC0000949BDE8104001F1200002F01ABA0000C3
:104ED00004DF00204D6F746F722073656C6563741E
:104EE00065643A20253164009CE0002003480721D6
:104EF0000068C2680248806A10470000F4FF002082
:104F000004E0002010B50C46FFF762FF072C23D207
:104F1000DFE804F004070A171A1D2000FDF7E8FC7B
:104F200004E0FDF7CBFD01E0FEF79EF80C4B58685E
:104F300001F092F95968BDE810400144094802F0B7
:104F4000E0B9FEF715FC07E0FEF7BCFE04E0FFF752
:104F5000E1F901E0FFF76AFCBDE81040FFF7A8BFE8
:104F600004DF0020BCE000202DE9F047814617480F
:104F70000E46144FDFF85080002400EB8615395D93
:104F8000832908D0D8F80000026848469047411CA1
:104F900001D025F81400641CE4B2202CEFD3D8F81B
:104FA000000004210268484690470849103941F83A
:104FB000360095F83A2031464846BDE8F04700F003
:104FC00097B9000008B60708F4FF002074E6002037
:104FD00070B5134C134D002120680268A86A9047F1
:104FE000C6B22068002211468368A86A98472068E4
:104FF0000621C268A86A90472068012200218368C0
:10500000A86A984720680621C268A86A9047206865
:10501000324600218368A86ABDE870401847000046
:10502000F4FF002004E000202DE9F05F3A4A3B4FF6
:105030003B4E1178A7F1800C01EB4105336817F85E
:10504000258002F580740CEB8110B8F1000F06D0BA
:1050500007EB8501C97859B1012955D10EE0828845
:105060002E485B68903850F83110A06A98474BE0A2
:10507000B0F91820B0F914101B6A43E0E3469246D9
:10508000B0F93E0004F007F8264A274B04F02EF84A
:105090000022264B03F078FE03F0EAFC0F469AF854
:1050A000001005460BEB8119B9F93C0003F0F3FF42
:1050B0002A463B4604F01AF803F0BEFF0FFA80F8C8
:1050C000B9F93E0003F0E7FF164A174B04F00EF85B
:1050D0000022164B03F058FE03F02AFD0F469AF803
:1050E000001005460BEB8110B0F93C0003F0D3FF34
:1050F0002A463B4603F0FAFF03F09EFF01B23068F8
:105100004246036AA06A984730680621C268A06ACE
:10511000BDE8F05F1047000004DF0020F4E6002047
:10512000F4FF00201F85EB51B81E09400080664047
:105130000B4B0A4609491B78008D01EB8311401A7D
:10514000C0F347010748415C832905D00648006841
:1051500083680648806A18477047000074E600209C
:1051600004DF002008B60708F4FF002004E0002058
:105170002DE9F041284E11F0FF052849307800EB69
:10518000400001EB8000057140D00021224C8034AA
:10519000A06D01F0C6FCC5B30021E06D01F0C1FCBB
:1051A000FDB11E4F3078803F07EB8010B0F91C1026
:1051B0004184C28B8284028CC284A06D01F048FAC3
:1051C000307807EB8010B0F92410E06D01F040FA60
:1051D000606E30B1317807EB8111B1F9261001F022
:1051E00037FAA06D012680F82060E06D80F820601D
:1051F000606E002807D06DB15FF0000101F091FCF6
:10520000606E80F82060BDE8F08101E00121BDE71B
:105210000121C2E70121F1E704DF0020F4E60020CC
:1052200070B50D46FFF784FF0D480E4A017801EB7B
:10523000410002EB8000007900280FD0084C803438
:10524000606E00280AD0803A02EB8111CD84294695
:1052500001F024FA606E012180F8201070BD00007A
:1052600004DF0020F4E6002010B50C46FFF760FFD5
:105270000C480D4A007800EB400102EB81010979EE
:1052800000290ED0A2F1800101EB80102146848418
:10529000044C8034E06D01F001FAE06D012180F8EA
:1052A000201010BD04DF0020F4E6002010B50C46ED
:1052B000FFF73EFF0C480D4A007800EB400102EB7F
:1052C0008101097900290ED0A2F1800101EB801043
:1052D00021464484044C8034A06D01F0DFF9A06DB8
:1052E000012180F8201010BD04DF0020F4E600202A
:1052F000F8B51546094A02EB8114094904F1380250
:1053000000920968931E121F8E692946B047E08EED
:1053100000EB40004000E086F8BD000074E600208D
:10532000F4FF002038B51546094A062302EB811226
:10533000B2F9361091FBF3F10BB2B2F938100091CB
:105340000449928E09684C692946A04738BD00007F
:1053500074E60020F4FF002070B50D4C0D4D0021C7
:1053600020680268A86A9047C6B2206800221146E9
:105370008368A86A984720680721C268A86A90478E
:105380002068324600218368A86ABDE8704018474B
:10539000F4FF002004E0002070B50D4C0D4D0021FD
:1053A00020680268A86A9047C6B2206801220021DE
:1053B0008368A86A984720680721C268A86A90474E
:1053C0002068324600218368A86ABDE8704018470B
:1053D000F4FF002004E000202DE9F041164A0546C4
:1053E00010461649007802F5807400EB400001EB8E
:1053F00080011369124E134FA06A9D420BD193F89E
:1054000030504D70FFF77EFC56F820000021425DC1
:105410003868C3690BE0526992F830508D70FFF71D
:1054200071FC56F820000121425D3868C369E06ACA
:10543000BDE8F0411847000004DF0020F4E600203A
:10544000DCB50708F4FF0020034808210068C268A3
:105450000248806A10470000F4FF002004E00020AA
:105460002DE9F041164C174D002120680268A86A0A
:105470009047C6B22068002211468368A86A984700
:10548000114F2068A7F11008BA884368D8F80010B7
:10549000A86A98472068012200218368A86A984773
:1054A0002068B7F84420D8F808104368A86A9847DD
:1054B0002068324600218368A86ABDE8F041184799
:1054C000F4FF002004E0002074E600202DE9F05FE6
:1054D0005D4C5E4ADFF878B12078A2F1800500EBE0
:1054E000400102EB810304F58076DB7805EB801048
:1054F000002B7DD0012B7CD1B0F93E0003F0CBFD19
:10550000544A554B03F0F2FD0022544B03F03CFC8F
:1055100003F0AEFA07462078884605EB8019B9F902
:105520003C0003F0B8FD3A46434603F0DFFD03F0CC
:1055300083FD0FFA80FAB9F93E0003F0ACFD454A4D
:10554000454B03F0D3FD0022444B03F01DFC03F058
:10555000EFFA07462078884605EB8010B0F93C004A
:1055600003F099FD3A46434603F0C0FD03F064FDA5
:1055700001B2DBF800005246036AB06A984720780F
:1055800005EB8010B0F93E0003F085FD314A324B47
:1055900003F0ACFD0022314B03F0F6FB03F0C8FA38
:1055A00006462078884605EB8017B7F93C0003F0E3
:1055B00072FD3246434603F099FD03F03DFDB8828B
:1055C000B7F93E0003F067FD224A234B03F08EFD3E
:1055D0000022224B03F0D8FB03F04AFA064620785B
:1055E0000F4605EB8014B4F93C0003F054FD01E0D4
:1055F00009E006E032463B4603F078FD03F01CFD6F
:105600002083BDE8F09F12F82110114A136841B1C0
:10561000B0F91820B0F914101B6AB06ABDE8F05F49
:10562000184719695F46B06A88478006E9D520782F
:10563000412105EB8010B0F9182038688368B06A02
:10564000BDE8F05F1847000004DF0020F4E600200A
:10565000F4FF00201F85EB51B81E09400080664012
:105660002DE9F05F534D544ADFF850A12878A2F19C
:10567000800400EB400102EB810105F5807BC978D5
:1056800004EB801000297CD001297BD1B0F93E00C9
:1056900003F001FD4A4A4B4B03F028FD00224A4B20
:1056A00003F072FB03F0E4F9064628780F4604EB9A
:1056B0008018B8F93C0003F0EEFC32463B4603F09C
:1056C00015FD03F0B9FC0FFA80F9B8F93E0003F0BC
:1056D000E2FC3B4A3B4B03F009FD00223A4B03F04E
:1056E00053FB03F025FA064628780F4604EB80109A
:1056F000B0F93C0003F0CFFC32463B4603F0F6FC29
:1057000003F09AFC01B2DAF800004A46036ADBF8BB
:1057100028009847287804EB8010B0F93E0003F089
:10572000BAFC274A274B03F0E1FC0022264B03F08A
:105730002BFB03F0FDF906462878884604EB80171A
:10574000B7F93C0003F0A7FC3246434603F0CEFC19
:1057500003F072FCB882B7F93E0003F09CFC184AD3
:10576000184B03F0C3FC0022174B03F00DFB03F0B2
:105770007FF9064628780F4604EB8014B4F93C0004
:1057800001E00BE008E003F086FC32463B4603F004
:10579000ADFC03F051FC2083BDE8F09FB0F9182068
:1057A000B0F91410DAF80000036ADBF82800BDE84D
:1057B000F05F184704DF0020F4E60020F4FF00202B
:1057C0001F85EB51B81E0940008066402DE9F84F57
:1057D0003B4C3C4D002120680268A86A9047C0B24B
:1057E00000902068002211468368A86A98473648CE
:1057F000A0F18006017821B1C07858B1012850D1BC
:105800000FE03148B2889038016820684368A86A80
:10581000984746E02068B6F91820B6F91410036AD4
:105820003DE0B6F93E0003F036FCDFF8A0A0DFF85B
:10583000A0B052465B4603F059FC0022254B03F012
:10584000A3FA03F015F907468846B6F93C0003F0C1
:1058500022FC3A46434603F049FC03F0EDFB0FFA05
:1058600080F9B6F93E0003F016FC52465B4603F0A1
:105870003DFC0022174B03F087FA03F059F9074665
:105880008846B6F93C0003F006FC3A46434603F06E
:105890002DFC03F0D1FB01B220684A46036AA86AD6
:1058A000984720680621C268A86A90472068009A35
:1058B00000218368A86A01B0BDE8F04F18470000D6
:1058C000F4FF002004E00020F4E600201F85EB51E7
:1058D000B81E0940008066402DE9F84F3C4C3D4D14
:1058E000002120680268A86A9047C0B20090206832
:1058F000012200218368A86A98473748A0F18006F2
:10590000017B21B1C07B60B1012852D110E0324847
:10591000B6F844209038816820684368A86A9847A0
:1059200047E02068B6F95820B6F95410036A3EE003
:10593000B6F97E007C3603F0AEFBDFF8A0A0DFF8FE
:10594000A0B052465B4603F0D1FB0022254B03F08A
:105950001BFA03F08DF807468846B6F9000003F0FD
:105960009AFB3A46434603F0C1FB03F065FB0FFA8E
:1059700080F9B6F9020003F08EFB52465B4603F055
:10598000B5FB0022174B03F0FFF903F0D1F80746EF
:105990008846B6F9000003F07EFB3A46434603F022
:1059A000A5FB03F049FB01B220684A46036AA86AD6
:1059B000984720680621C268A86A90472068009A24
:1059C00000218368A86A01B0BDE8F04F18470000C5
:1059D000F4FF002004E00020F4E600201F85EB51D6
:1059E000B81E0940008066402DE9F05F454C464AEC
:1059F0002078A2F1800500EB400102EB810105EB6C
:105A00008010C97829B101294AD1B0F91410E9B33D
:105A10004AE0A046B0F93E0003F03DFBDFF8EC9011
:105A2000DFF8ECA04A46534603F060FBDFF8E4B031
:105A300000225B4603F0A8F903F07AF8044698F8D0
:105A400000000F4605EB8016B6F93C0003F023FB7F
:105A500022463B4603F04AFB03F0EEFAB082B6F969
:105A60003E0003F018FB4A46534603F03FFB00227A
:105A70005B4603F089F902F0FBFF044698F800004A
:105A80000E4605EB8015B5F93C0000E00AE003F096
:105A900002FB2246334603F029FB03F0CDFA2883AC
:105AA000BDE8F09F028B3AB3B0F91800494300FB00
:105AB000001003F055FE02F088FA03F035FE21785D
:105AC00005EB8116B087B6F9180003F049FE0746CA
:105AD000B6F9140003F044FE394602F078FA0E4994
