:02000004080FE3
:1000000048EF012085020F085D521A00C1020F0857
:1000100091020F0893020F0895020F0800000000DC
:1000200000000000000000000000000097020F0820
:1000300099020F08000000009B020F089D020F08A4
:100040009F020F089F020F089F020F089F020F08D0
:100050009F020F089F020F089F020F089F020F08C0
:100060009F020F089F020F089F020F089F020F08B0
:100070009F020F089F020F089F020F089F020F08A0
:100080009F020F089F020F089F020F089F020F0890
:100090009F020F089F020F089F020F089F020F0880
:1000A0009F020F089F020F089F020F089F020F0870
:1000B0009F020F089F020F089F020F089F020F0860
:1000C0009F020F089F020F089F020F089F020F0850
:1000D0009F020F089F020F089F020F089F020F0840
:1000E0009F020F089F020F089F020F089F020F0830
:1000F0009F020F089F020F089F020F089F020F0820
:100100009F020F089F020F089F020F089F020F080F
:100110009F020F089F020F089F020F089F020F08FF
:100120009F020F089F020F089F020F089F020F08EF
:100130009F020F089F020F089F020F089F020F08DF
:100140009F020F089F020F089F020F089F020F08CF
:100150009F020F089F020F089F020F089F020F08BF
:100160009F020F089F020F089F020F089F020F08AF
:100170009F020F089F020F089F020F089F020F089F
:100180009F020F089F020F0800F002F800F06AF8C3
:100190000AA090E8000C82448344AAF10107DA45E2
:1001A00001D100F05FF8AFF2090EBAE80F0013F0CA
:1001B000010F18BFFB1A43F00103184780D7000056
:1001C000A0D70000103A24BF78C878C1FAD85207E7
:1001D00024BF30C830C144BF04680C6070470000C1
:1001E0000023002400250026103A28BF78C1FBD840
:1001F000520728BF30C148BF0B607047692900F023
:100200000181642900F0FE80752900F0FB806F29D0
:1002100000F09281782900F0B9810368DB0928BFDA
:1002200041F08001632900F0E683E32900F0F983BF
:10023000002070471FB509F0D7FB9DE8030000F0D0
:1002400051FC00F005FD04000020002108F05CFFD7
:10025000401C606000F0D4FA1FBD10B5002008F00B
:1002600055F810BD00F0CEFC1146FFF7E3FF08F093
:1002700039FF00F00FFD03B4FFF7EFFF03BC00F000
:10028000BBFC00000948804709480047FEE7FEE73D
:10029000FEE7FEE7FEE7FEE7FEE7FEE7FEE7FEE736
:1002A00004480549054A044B70470000DD290F0842
:1002B00089010F0870E8012048EF012048EF012074
:1002C00000B5FFB441464A4653465C4665463EB4D7
:1002D0000D496A460A600D4908600D4988473EBCD1
:1002E000884691469A46A346AC46FFBC00BD0648E8
:1002F00001688D463EBC884691469A46A346AC4668
:10030000FFBC044800BD0000F0FF0120F4FF012005
:1003100091010F08E4D10F080FB41CB5074B06AAD2
:100320007B4469460090059800F043FB0020694635
:1003300000F052FB1CBC5DF814FB0000B506000089
:1003400070B5044685690068C10601D5302600E015
:100350002026C00707D070BDD4E901213046904760
:10036000206A401C20626D1EF6D570BD70B5044633
:1003700085690078C00707D170BDD4E9012120202C
:100380009047206A401C20626D1EF6D570BD09683A
:100390004A0501D540B27047C905FCD500B2704787
:1003A00009684A0501D5C0B27047C905FCD580B2BD
:1003B000704770B50C460546012A05D0287880069E
:1003C00000D5EA69002302E0012305E05B1C9342AB
:1003D00002D2E05C0028F9D1A869E618C01AA86129
:1003E000286A184428622846FFF7AAFF04E0D5E9E6
:1003F000012114F8010B9047B442F8D32846FFF7C7
:10040000B5FF70BD2DE9F04106460024106875293E
:10041000314616A510D0FFF7BAFF002802DA404295
:1004200013A507E031688A0701D512A502E0490744
:1004300004D511A5012401E0FFF7B2FF00210A2233
:1004400006F1240709E0B0FBF2FCB0FBF2F302FB7B
:100450001C00303078541846491C0028F3D123463C
:100460002A463046BDE8F04100F045BA00000000E1
:100470002D0000002B000000200000002DE9FF5F90
:1004800015468A460446DFF8AC80F8440027D8E9D0
:1004900000103E46CDE9001010E03AF816106A460A
:1004A00002A800F0CAFA411C07D02178890603D5BA
:1004B000E269391891420DD80744761C20788006ED
:1004C00002D5E069B84205DDAE42E6DB3AF8160037
:1004D0000028E2D1A069C01BA0612046FFF730FFD1
:1004E000D8E90010CDE90010002017E03AF8181004
:1004F0006A4602A800F0A1FAB0F1FF3F81460BD096
:1005000000250DF1080B05E0D4E901211BF80500D9
:1005100090476D1C4D45F7D308F10100B04280466D
:10052000E4DB206A384420622046FFF71FFFBDE865
:10053000FF9F000066CD000070B50446214610689C
:10054000FFF72EFF002104F1240505E000F007026B
:100550003032C0086A54491C0028F7D120680023B3
:1005600008A2050708D500F02000084304D0E06980
:10057000012305A2401EE0612046BDE8704000F066
:10058000BAB90000000000003000000070B5044659
:100590000D4621461068FFF703FF2188090502D5A3
:1005A0000F4A7A4402E00E4A7A440E32002104F1E6
:1005B000240305E000F00F060009965D5E54491C17
:1005C0000028F7D120780023000704D5702D02D031
:1005D00009B1022311322046BDE8704000F08BB90A
:1005E00056CC00002DE9F05F894604464FF0000A22
:1005F000DFF874B1FB44C0F820A02046E1688847CA
:10060000002874D0252806D0D4E901219047206A1B
:10061000401C2062F1E700265F462046E1688847DB
:100620002028054607DB312D05D2781910F8200C5B
:1006300008B10643F1E7B00701D526F00406C4F877
:100640001CA00027C4F818A02A2D09D0284608F0BD
:1006500027FD38B304EB8708303DC8F8185019E07F
:1006600059F8041B204604EB87029161E168884732
:10067000012F054618D1E069002820DA26F020066F
:100680001DE0D8F8180000EB800005EB4000303882
:10069000C8F818002046E1688847054608F000FDC4
:1006A0000028EED1012F0AD02E2D08D12046E16876
:1006B00088477F1C0546022F46F02006C4DBA06950
:1006C000002803DA404246F00106A061F00701D09D
:1006D00026F010066C2D0BD0682D09D04C2D39D08A
:1006E0006A2D35D0742D35D07A2D33D016E038E010
:1006F000E1682F4620468847B842054609D16C2F4D
:1007000026D04FF48060E1680643204688470546BE
:1007100004E06C2F1AD04FF4807006430DB3A5F19E
:100720004100192802D8203546F400664A46294679
:10073000204626604E46FFF761FD80B101280BD0B0
:10074000F61D26F0070000F1080956E74020E4E70F
:100750008020D8E70020D6E706F104094DE72846B7
:1007600052E7206ABDE8F09F2CCC000010B5431C76
:1007700002E010F8011B71B18107FAD14FF001328C
:1007800002C88C1A8C4314EAC211F9D0C01A0A06A6
:1007900003D0C01E10BDC01A10BD0A0401D0801EB7
:1007A00010BD0902FCD0401E10BD4FF0000200B584
:1007B000134694469646203922BFA0E80C50A0E884
:1007C0000C50B1F12001BFF4F7AF090728BFA0E832
:1007D0000C5048BF0CC05DF804EB890028BF40F8FE
:1007E000042B08BF704748BF20F8022B11F0804F40
:1007F00018BF00F8012B7047704770477047000022
:1008000070B5064C7C44064D7D4403E020682044CE
:100810008047241DAC42F9D170BD000064D20000B5
:1008200064D200000048704740E80120004870474B
:1008300044E8012070B5064600F034F9056806F179
:100840000B0020F00704B4429CBF002070BD2B4673
:100850006A68BAB11068A04210D304F10801884256
:100860003CBF5068586007D3516810194160116847
:10087000091B016058601460101D70BD134652685A
:10088000002AE7D12146284600F018F90028DED1D9
:1008900070BD70B50446051F00F004F90068002C17
:1008A00014BF446870BD002C18BFAC423CBF20464A
:1008B0006468F8D301680A18AA4218BF456003D1DA
:1008C0002A6805461144016028684119A1421CBFED
:1008D0006C6070BD6168696021680844286070BD03
:1008E00010B500F0E3F8006810BD10B5044600F044
:1008F000DDF8046010BD2DE9F0470D46994692469B
:10090000044600F124080168880604D5E06921F056
:100910001001216000E00120A84201DD471B00E03A
:100920000027A1697A1902EB0900081AA061207852
:10093000C00602D42046FFF703FD002608E0D4E9F4
:1009400001211AF806009047206A401C761C20629C
:100950004E45F4DB2078C0060AD52046FFF7F0FCB0
:1009600006E0D4E9012130209047206A401C206233
:10097000381EA7F10107F4DC07E0D4E9012118F8DB
:1009800005009047206A401C2062281EA5F1010541
:10099000F3DC2046FFF7EAFC2078000602D50220AF
:1009A000BDE8F0870120FBE701694A1C0261087875
:1009B000704700B58FB0CDE901310021059105499F
:1009C0007944CDE9031011466846FFF70BFE0FB0DE
:1009D00000BD0000E5FFFFFF0A6802F8010B0A6096
:1009E000704710B5436913B1AFF3008001E0FFF722
:1009F000E0FC012010BD127800F124010A700022F1
:100A00004A700122EDE711684FF0FF32E9E710B5B7
:100A1000436913B1AFF3008001E0FFF72FFD012020
:100A200010BD128800F1240182840022C2840122B8
:100A3000EDE711684FF0FF32E9E770B516460C4656
:100A4000054600F027F8036893F80101012806D055
:100A5000FF2C0FD8185D68B101202C7070BDD3F841
:100A600007013246214603F2071303442846BDE836
:100A7000704018474FF0FF3070BD10B500F06EF8B1
:100A8000BDE8104000F064B800F080B8004870473E
:100A90000CE8012010B500F0DBF8001D10BD00BF10
:100AA000698600000048704714E80120004870473C
:100AB0000CE80120704770477047704738B504460E
:100AC0000A4600206946AFF30080002808BF38BD01
:100AD00002460099204600F0C3F8012038BD0120ED
:100AE00000F0FFB8F8B5AFF30080054600200C46D3
:100AF000102000BF0646A819A0420DD9324669460B
:100B00000020AFF30080070008BF00F0EAF800986B
:100B1000A04218BF0546C419FFF7C4FF0560074689
:100B2000F01D20F007004619284600F00AF8B442EC
:100B300008BFF8BDA21B31463868BDE8F84000F098
:100B40008FB800210160C0E9011070471020704784
:100B5000002801D000F050B87047000010B5002107
:100B600002A000F0A5F8012010BD00005349475035
:100B700056464E3A205075726520766972747561DA
:100B80006C20666E2063616C6C65640010B500F0CB
:100B90000EF8016919B100220261884701E08068FE
:100BA000804700F07DF8000010B500F079F870B5CE
:100BB00000F052F804680546A4B92020FFF73AFE79
:100BC000040011D0094900202C60C4E90001084943
:100BD000A1602073206160610649A06109B100F045
:100BE00087F8E061204670BD00F05AF80000000070
:100BF000A90B0F080000000001491820ABBEFEE75A
:100C0000260002007546FFF741FFAE460500694623
:100C1000534620F00700854618B020B5FFF740FB8B
:100C2000BDE820404FF000064FF000074FF00008ED
:100C30004FF0000B21F00701AC46ACE8C009ACE86E
:100C4000C009ACE8C009ACE8C0098D467047000097
:100C5000004870472CE801200048704748E8012010
:100C6000034640688C46002818BF88423CBF0346B4
:100C70004068F8D318681844884207D00CF1030084
:100C800020F00700001D411A521A0146081D0A6093
:100C9000FFF7FFBD0446AFF300802046FFF7EBFAF5
:100CA000002000F04BF8FFF7D8FA0120FFF7A4FF6F
:100CB00070B505460C460A2000E06D1C00F036F8C1
:100CC00035B128780028F8D102E0641C00F02EF835
:100CD00014B120780028F8D1BDE870400A2000F057
:100CE00025B810B500F032F8BDE81040FFF730BF6E
:100CF00010B58820FFF79EFD002801D0002101706B
:100D000010BD802902D808B1017809B100207047D0
:100D1000012100F8081B704718B100F10802914248
:100D200001D00020704700210170704708B5694666
:100D30008DF800000320ABBE08BD704710B500F071
:100D40006DF8BDE81040FFF703BF000010B50128A3
:100D500005D0002103A0FFF7ABFF012010BD09A1C2
:100D6000F8E7000053494752544D454D3A204F751E
:100D700074206F662068656170206D656D6F727993
:100D8000000000003A2048656170206D656D6F724B
:100D90007920636F72727570746564004FF0013C66
:100DA00050F8042B51F8043B9A4221D1A2EB0C03DA
:100DB000934313EACC1317D150F8042B51F8043B9A
:100DC0009A4215D1A2EB0C03934313EACC130BD137
:100DD00050F8042B51F8043B9A4209D1A2EB0C03C2
:100DE000934313EACC13DBD04FF00000704700BFF1
:100DF000D01A01BAB1FA81F101F0180122FA01F01A
:100E0000CB40C1F12001DBB2C0B2C01A2CFA01F311
:100E1000D11A914311EAC311E6D1704710B50021F0
:100E200002A0FFF745FF012010BD000053494741D4
:100E30004252543A2041626E6F726D616C2074654B
:100E4000726D696E6174696F6E00000030B51A4989
:100E50008379026853B30B6893430B600A1D1368D0
:100E60000468A343136002790A44136804682343A7
:100E70001360114A083213680468A3431360131DFA
:100E80001C680568AC431C604479102C05D02144D3
:100E90000A68006802430A6030BD11680468214393
:100EA0001160196800680143196030BD0079084479
:100EB00001689143016030BD003C0140F0B5002362
:100EC000012403270D6804FA03F21540954242D12C
:100ED000D0F800C05E0007FA06F52CEA050CC0F851
:100EE00000C091F804C0D0F800E00CFA06FC4CEA0F
:100EF0000E0CC0F800C091F804C0BCF1010F02D084
:100F0000BCF1020F1FD1D0F808C02CEA050CC0F8C4
:100F100008C091F805C0D0F808E00CFA06FC4CEACD
:100F20000E0CC0F808C0D0F804C02CEA020CC0F8BF
:100F300004C0426891F806C00CFA03FC1FFA8CFC4E
:100F400042EA0C024260C268AA43C260CA79C5681C
:100F5000B2402A43C2605B1C102BB3D3F0BD4B07D9
:100F6000DB0E9A40C90810B500EB8100016A0F241E
:100F70009C40A1430162016A1143016210BD024617
:100F8000002012690A4200D0012070470AB1018393
:100F900070474183704700002DE9F74FDFF8D4A177
:100FA00082B05446DFF8D0810298C4E90A01D8F82B
:100FB00000001546474601690298884706462946BB
:100FC0006E4806F097FAAAF580796D496B48C9F822
:100FD000045006F043FB6A496848A83106F03EFB1E
:100FE0006849664806F03AFB66496448A83106F04D
:100FF00035FB6549614806F031FB63495F48A8311C
:1010000006F02CFB61495D4806F028FB002589F8B5
:101010000050386829460268A06A9047C0B2009024
:101020003868002211468368A06A9847386803210F
:101030000268A06A9047C0B20127554C012824D00D
:10104000277000214F48A83005F0DCFE6570A770BE
:10105000AB46DAF82C00B946554628B3D8F800104C
:1010600047460A681C21904700F0FF0A38681D2196
:101070000268E86A9047C7B2A86A03F0E7FE454AEB
:101080000146002052F821100BE025700121D9E71C
:10109000524500D160700A5CBA4200D1A070401C79
:1010A000C0B20A5CFF2AF3D184F803B084F804B01C
:1010B00084F805B084F806B084F807B084F808B066
:1010C00084F809B084F80AB084F80BB0D8F80000AE
:1010D00001225F4683680021A86A9847D8F800007B
:1010E00003210268A86A9047C0B201283CD084F866
:1010F0000C9000BFD8F800000021009A8368A86A0D
:101100009847677384F80E90E77327746774A77421
:10111000E77427756775A775E775029800F04CF8B6
:1011200016491D48C1F80C010021144806F004FAC4
:101130000920B0EB167F19D0C6F30360092815D03B
:1011400000211148A83005F05DFE0A20B0EB167FA3
:101150000ED0C6F303600A280AD0002105B00B4860
:10116000BDE8F04F05F04EBE2773C3E70121E8E765
:101170000121F3E704E10120F4FF0120BCE101209B
:10118000CCE201201CE401206CE50120BCE601203A
:10119000F4E701205CB30F084D500F0810B5054C63
:1011A000204606F00DFA04F58270BDE8104006F006
:1011B000DBBF0000BCE1012070B5134C06460021E6
:1011C0002068026830469047C5B220680022114668
:1011D0008368304698470021304603F069FF206855
:1011E0000122002183683046984700280BD0012156
:1011F000304603F05DFF20682A46002183683046B0
:10120000BDE87040184770BDF4FF01202DE9F14F93
:10121000FF4D0527DFF8FC83FF4EDFF8009484B014
:10122000002405F1910A3068295D02681AF801105E
:101230000498904799F8003008EB83122B5D641CEA
:10124000E4B222F81300BC42EDD3F14D0127002493
:10125000ED1E05F1010A3068295D02681AF80110D7
:1012600004989047EB4999F80020103901EBC2012E
:101270002A5D641CE4B241F82200BC42EBD399F829
:1012800000004D4600EB4001E2488030012410F898
:101290002100E8BB3068082102680498904729784B
:1012A000474608EB8111888230680C210268049857
:1012B00090472A7800B207EB821102EB4203D54A2D
:1012C0000883803202EB8302D278012A35D1B1F94A
:1012D000142002B9F0B312FB02F110FB001000EE73
:1012E000100AB8EEC00A06F0B0FFBDEEC00A2878BA
:1012F00010EE101A07EB80108187B0F91810B0F9C2
:10130000140000EE101AF8EEC00A00EE100A00E019
:101310001DE0B8EEC00A06F09AFFDFEDC10A20EE2C
:10132000200ADFEDC00A297880EE201A07EB811130
:10133000BDEEC10A10EE100AC887B8498031486B6B
:1013400008B180F82040086C08B180F82040B04611
:10135000306800E01EE0026801210498904787B2DF
:10136000060CE86B4CF2186B50B307B1B6B1AE483F
:1013700005F0CEFDE96B884202D1AB4805F02DFEA9
:10138000E86B428B5A451BD0A0F81AB0002105F03B
:1013900008FD12E0002088875A20CDE70021418314
:1013A000012105F0FEFCA04805F0B2FDE96B884282
:1013B00003D000219C4805F0B7FDE86B80F8204081
:1013C000D8F80000DFF8649200210268D9F82800FC
:1013D0009047C0B20290D8F80000002211468368FE
:1013E000D9F828009847D8F800000121026804982D
:1013F00090478246D8F8000002210268049890477E
:10140000C0B201901FFA8AF9686F4FEA1A4AE0B138
:10141000B9F1000F02D0BAF1000F30D08248A830E5
:1014200005F076FD696F884203D17F48A83005F04A
:10143000D4FD686F428B5A4507D0A0F81AB000213E
:1014400005F0AFFC686F80F820407448006F28B347
:1014500059EA0A0117D07448A83005F059FD6F4DBC
:10146000296F884203D17048A83005F0B6FD286F77
:10147000428B5A4512D0A0F81AB0002109E0002191
:1014800041830121DCE7654D418B39B10021418366
:10149000012105F086FC286F80F820405E4D012276
:1014A0000021286883686148806A9847286801217C
:1014B00002680498904780462868022102680498D0
:1014C0009047C0B2009055481FFA88F54FEA184877
:1014D000C06FE8B115B1B8F1000F34D05248A83050
:1014E00005F016FD4D49C96F884203D14E48A8301A
:1014F00005F073FD494AD06F438B5B4508D0A0F8D7
:101500001AB0002105F04DFC4448C06F80F820401F
:101510004248806F30B355EA080118D04248A830DD
:1015200005F0F6FC3D49896F884203D13E48A8305A
:1015300005F053FD394A906F438B5B4512D0A0F8FC
:101540001AB0002108E0002141830121DAE7428B33
:1015500042B100214183012105F023FC2F48806F17
:1015600080F820402C480021029A006883682F48A8
:10157000806A984749EA0A0A4AEA050050EA0800E0
:101580003AD02B49B1F8000101280AD08946022837
:1015900032D00121264805F0CFFFB9F8000101281B
:1015A0002AD1DFF8789099F8000018B14D4601284B
:1015B00009D019E055EA080516D0B9F802004D46E1
:1015C000A8B9012105E0BAF1000F0DD0688870B903
:1015D0000021A86806F0DDFB0021084604F01EFC8F
:1015E000A868002180F82310B9F8021011B3B9F8E7
:1015F0000210491EA9F80210084D8035286890B3E2
:10160000DDE9002111437DD00199062914D015E0B0
:10161000F7B20F0874E70120F4FF012004E0012075
:1016200000003443C3F5484074E3012004E1012085
:10163000BCE101201E21DDE7062A63D0824805F0C7
:1016400067FC2968884202D17F4805F0C6FC2868FB
:10165000428B5A4507D0A0F81AB0002105F0A1FB33
:10166000286880F82040DFF8E48100217B0698F8A4
:10167000000000EB4002764800EB82004FF00202CF
:10168000417100D54271730600D544718171FB062A
:1016900000D58271F30600D58471C171BB0600D5F7
:1016A000C271B30600D5C4710172FB0700D002728B
:1016B000F30700D004723B0600D50272330600D552
:1016C000047241727B0700D54272730700D54472E1
:1016D0008172BB0700D58272B30700D58472C172D4
:1016E000390700D5C272310700D5C472D8F83C1052
:1016F000F1B3D8F8202043795649568B31F813308E
:101700009E4200E098E002D0538382F82040D8F84F
:10171000243082795E8B31F81220964202D05A83AF
:1017200083F82040D8F82820C379568B31F813303D
:101730009E4202D0538382F82040D8F82C20037AAE
:10174000568B31F813309E4202D0538382F82040EA
:10175000D8F83020437A568B31F813309E4202D0AD
:10176000538382F82040D8F83420837A568B00E0E7
:1017700011E031F813309E4202D0538382F82040AA
:10178000D8F83820C07A538B31F81000834202D049
:10179000508382F82040D8F8180008B180F8204023
:1017A000D8F81C0008B180F820402B48C06908B167
:1017B00080F82040686A08B180F82040A86B08B122
:1017C00080F82040686C08B180F82040234D00214B
:1017D0002868026804989047C7B22868002211461A
:1017E00083680498984728681E21026804989047E7
:1017F000174E0122903E002170602868836804988B
:10180000984758B128681E21026804989047F060F4
:1018100028683A460021836804989847D8F8480019
:1018200008B180F82040D8F86000002801D080F886
:10183000204005B0BDE8F08F418B00293FF413AF85
:1018400000214183012109E71CE4012004E001207B
:10185000F4E70120FCB20F0804E10120F4FF0120AD
:1018600070B506460E4800244068472815D040F25F
:101870003F11002000F0D2F900F044FE4FF49635FD
:10188000304600F00DFE641CAC42F9D3BDE8704058
:1018900001220421034800F03FB80021E9E70000DD
:1018A0007CE10120000402407CB50121022000F00F
:1018B000DBFE0420009002208DF8050001208DF849
:1018C000040000208DF80600114C8DF807006946D1
:1018D0002046FFF7F3FA01220421204600F01CF80D
:1018E00080200C4D009069462846FFF7E7FAE41483
:1018F000694628460094FFF7E1FA0122214628466E
:1019000000F00AF801228021284600F005F87CBD8D
:1019100000040240000C0240FFF738BB064B30B415
:101920009B68203AD2B21C68DB88534304EB430225
:1019300030BC00F003B800007CE101202DE9F74F36
:10194000904600270646019900F068F91C4C31E0EA
:1019500000F0D8FD00254FF00C094FF0800A4FF041
:10196000010B17E0B0FBF9F1CA000AFA02F138F8EE
:1019700017202941114201D10C2805D90BFA05F194
:101980000A4203D10C2801D9608800E0208800F0C9
:1019900087FD6D1CA0688088A842E3D8012204213D
:1019A0000848FFF7B9FF761CB6B23046019900F03F
:1019B00035F97F1CA068C088B842C9D8BDE8FE8F41
:1019C0007CE1012000040240704700002DE9F0474F
:1019D000194D80469946686817460E4600244728E8
:1019E00003D1A1F23F16704286B23146404600F064
:1019F00015F9B9F1000F1AD100F084FD03E0288831
:101A000000F04EFD641CBC42F9D3BDE8F047012252
:101A100004210A48FFF780BF288800F063FD08F121
:101A2000010080B28046314600F0F8F8641CBC42E8
:101A3000F2D3BDE8F08700007CE101200004024001
:101A4000024A138803805088088070477CE1012097
:101A500001488068704700007CE10120034840682D
:101A6000472801D001207047002070477CE1012009
:101A70007047000070B52D4C0025218821F03801F9
:101A80002180218841F00801218000F073FD73203E
:101A900000F09CFDFF21204600F077FE80212046CB
:101AA00000F06AFE0028F9D10121204600F064FE12
:101AB0000028F9D0204600F066FE6D1CEDB2052D21
:101AC000E8D3FF21204600F060FE8021204600F090
:101AD00053FE0028F9D1022007F009FB012120461E
:101AE00000F04AFE0028F9D0FF21204600F04DFE0C
:101AF0008021204600F040FE0028F9D1022007F0A6
:101B0000F6FA0121204600F037FE0028F9D02046E1
:101B100000F039FE0546012204210548FFF7FCFECE
:101B2000208820F038002080284670BD003C00400E
:101B30000004024070B588B00121042000F094FD3B
:101B40000121C80300F09CFD02258DF819504FF4C7
:101B500080608DF818500024244E05908DF81A40AE
:101B60008DF81B4005A93046FFF7A8F9E80205905B
:101B700005A93046FFF7A2F9A802059005A930464D
:101B8000FFF79CF906220A213046FFF7E8F9062202
:101B90000C213046FFF7E3F906220B213046FFF710
:101BA000DEF9134E304600F0A5FDADF800404FF4CD
:101BB0008270ADF802000120ADF808004002ADF8D7
:101BC0000A000720ADF80440ADF80C40ADF8100055
:101BD000ADF80650ADF80E406946304600F0D7FD2E
:101BE0000121304600F07CFD08B070BD00080240C5
:101BF000003C004001B5BDF800000149488008BD27
:101C00007CE1012003B5BDF8001003480180BDF858
:101C1000041041800CBD00007CE1012070B5054638
:101C20000E480C464068472809D02946202000F07D
:101C300073FC21462120BDE8704000F06DBC210AF4
:101C4000022000F069FCE1B2032000F065FC0021F5
:101C5000062000F061FC29460720ECE77CE101202A
:101C600001498860704700007CE1012001B5BDF8A2
:101C700000000149088008BD7CE101202DE9F05FEA
:101C8000FFF712FEFFF756FFFE48416847297CD058
:101C900041684FF48079A1F513424FF4E06B41F2B3
:101CA000300A40F23F1741F21808203A6ED04168DE
:101CB00040F20514A1F5A84240F2062540F60806B8
:101CC000083A7DD04068A0F51341253979D101212A
:101CD000002000F021FC4946012000F01DFC59467F
:101CE000022000F019FC4146032000F015FC002101
:101CF000042000F011FC291F082000F00DFC002139
:101D0000092000F009FC00210A2000F005FC002158
:101D10000C2000F001FC00210D2000F0FDFB002153
:101D20000F2000F0F9FB0021102000F0F5FB00214E
:101D3000112000F0F1FB0021122000F0EDFB00214A
:101D4000132000F0E9FB142007F0B2F941F2B07162
:101D5000102000F0E1FB40F23711112000F0DCFB15
:101D6000052007F0A5F9B91F122000F0D5FB0520CA
:101D700007F09EF94FF4E851132000F0CDFB13213A
:101D8000292000F0C9FB052001E088E18FE007F081
:101D90008FF90021202000F0BFFB0021212000F05E
:101DA000BBFB0721302000F0B7FB40F202313120AD
:101DB00000F0B2FB2146322000F0AEFB294601E0E4
:101DC00077E26AE3352000F0A7FB3146362000F0C9
:101DD000A3FB2946372000F09FFB40F20451382036
:101DE00000F09AFB0721392000F096FB21463C20A9
:101DF00000F092FB31463D2000F08EFB0021502088
:101E000000F08AFBEF21512000F086FB00215220D8
:101E100000F082FB3946532000F07EFB4FF427414F
:101E2000602000F079FB0121612000F075FB0021AA
:101E30006A2000F071FB0021802000F06DFB002182
:101E4000812000F069FB0021822000F065FB002169
:101E5000832000F061FB0021842000F05DFB002165
:101E6000852000F059FB1021902000F055FB002147
:101E7000922000F051FB0321932000F04DFB4FF422
:101E80008871952000F048FB0021972000F044FB6A
:101E90000021982000F040FB4146032000F03CFB6D
:101EA00040F233110720BDE8F05F00F035BB05209C
:101EB00007F0FEF84FF40041E52000F02DFB012172
:101EC000002000F029FB4946012000F025FB59467F
:101ED000022000F021FB5146032000F01DFB0021F1
:101EE000042000F019FB40F20221082000F014FB4E
:101EF0000021092000F010FB00210A2000F00CFB5B
:101F000000210C2000F008FB00210D2000F004FB54
:101F100000210F2000F000FB0021102000F0FCFA4F
:101F20000021112000F0F8FA0021122000F0F4FA4C
:101F30000021132000F0F0FA142007F0B9F841F264
:101F4000B071102000F0E8FA40F23711112000F0D3
:101F5000E3FA052007F0ACF840F23911122000F046
:101F6000DBFA052007F0A4F84FF4E851132000F045
:101F7000D3FA1321292000F0CFFA052007F098F8B2
:101F80000021202000F0C8FA0021212000F0C4FA2E
:101F90000621302000F0C0FA40F20111312000F09B
:101FA000BBFA0321322000F0B7FA4FF483713520D9
:101FB00000F0B2FA40F60231362000F0ADFA40F2FD
:101FC0000231372000F0A8FA40F20771382000F003
:101FD000A3FA0721392000F09FFA4FF4C0613C209A
:101FE00000F09AFA40F20B213D2000F095FA002112
:101FF000502000F091FAEF21512000F08DFA0021DD
:10200000522000F089FA3946532000F085FA4FF447
:102010001C51602000F080FA0121612000F07CFA60
:1020200000216A2000F078FA0021802000F074FA84
:102030000021812000F070FA0021822000F06CFA6B
:102040000021832000F068FA0021842000F064FA67
:102050000021852000F060FA1021902000F05CFA49
:102060000021922000F058FA0321932000F054FA46
:102070004FF48871952000F04FFA0021972000F06E
:102080004BFA01E07CE101200021982000F044FAA5
:102090004146032000F040FA40F2731102E70021AC
:1020A000EA2000F039FA2021EB2000F035FA0C216B
:1020B000EC2000F031FAC421ED2000F02DFA40218F
:1020C000E82000F029FA3821E92000F025FA012162
:1020D000F12000F021FA1021F22000F01DFAA321D6
:1020E000272000F019FA0121402000F015FA002104
:1020F000412000F011FA0021422000F00DFA1021D9
:10210000432000F009FA0E21442000F005FA2421B2
:10211000452000F001FA0421462000F0FDF950218D
:10212000472000F0F9F90221482000F0F5F91321C9
:10213000492000F0F1F919214A2000F0EDF91921A8
:102140004B2000F0E9F916214C2000F0E5F91B21A5
:10215000502000F0E1F93121512000F0DDF92F216C
:10216000522000F0D9F93F21532000F0D5F93F214A
:10217000542000F0D1F93E21552000F0CDF92F2157
:10218000562000F0C9F97B21572000F0C5F909213C
:10219000582000F0C1F90621592000F0BDF90621B0
:1021A0005A2000F0B9F90C215B2000F0B5F91D218F
:1021B0005C2000F0B1F9CC215D2000F0ADF91B21CD
:1021C000084600F0A9F901211A2000F0A5F92F21F5
:1021D000242000F0A1F95721252000F09DF9862147
:1021E000232000F099F93621182000F095F90121FB
:1021F000192000F091F90021012000F08DF98821CB
:102200001F2000F089F9022006F052FF80211F20D4
:1022100000F082F9022006F04BFF90211F2000F011
:102220007BF9022006F044FFD0211F2000F074F952
:10223000022006F03DFF0521172000F06DF9002176
:10224000012000F069F90021022000F065F9002169
:10225000032000F061F90121042000F05DF93F2125
:10226000052000F059F90021062000F055F9002161
:10227000072000F051F90021082000F04DF9EF216E
:10228000092000F049F92821162000F045F9002125
:10229000362000F041F90421362000F03DF93821C4
:1022A000282000F039F9062006F002FF3C21282002
:1022B000F9E543F20801E32000F02EF91221E720AE
:1022C00000F02AF941F23121EF2000F025F94946CA
:1022D000012000F021F95946022000F01DF9514675
:1022E000032000F019F90021042000F015F940F254
:1022F0000221082000F010F90021092000F00CF95B
:1023000000210A2000F008F900210C2000F004F957
:1023100000210D2000F000F900210F2000F0FCF852
:102320000021102000F0F8F80021112000F0F4F84E
:102330000021122000F0F0F80021132000F0ECF84A
:10234000142006F0B5FE0721112000F0E5F8052065
:1023500006F0AEFE41F2B021102000F0DDF80520BD
:1023600006F0A6FE40F2BD11122000F0D5F80520BF
:1023700006F09EFE4FF4A051132000F0CDF80E2180
:10238000292000F0C9F8052006F092FE0021202047
:1023900000F0C2F83946212000F0BEF807213020B5
:1023A00000F0BAF840F20231312000F0B5F82146D1
:1023B000322000F0B1F82946352000F0ADF8314662
:1023C000362000F0A9F82946372000F0A5F840F2A1
:1023D0000451382000F0A0F80721392000F09CF8C3
:1023E00021463C2000F098F831463D2000F094F85A
:1023F0000021502000F090F8EF21512000F08CF8DF
:102400000021522000F088F83946532000F084F86B
:102410004FF42741602000F07FF80121612000F097
:102420007BF800216A2000F077F80021802000F07E
:1024300073F80021812000F06FF80021822000F065
:102440006BF80021832000F067F80021842000F061
:1024500063F80021852000F05FF81021902000F043
:102460005BF80021922000F057F80321932000F040
:1024700053F84FF48871952000F04EF80021972012
:1024800000F04AF80021982000F046F84146032069
:1024900000F042F84FF4897104E5BDE8F09F0000B8
:1024A00070B50F4D0446010A284600F06EF98021F0
:1024B000284600F061F90028F9D1022006F017FE45
:1024C000E1B2284600F061F98021284600F054F975
:1024D0000028F9D1BDE87040022006F008BE0000D7
:1024E000003C004010B5044600F00CF82046FFF711
:1024F000D7FF0122BDE8104004210148FFF70CBAC4
:102500000004024010B5222000F034F8BDE810406D
:10251000722000F05BB8000070B50C4600F02AF89D
:10252000722000F053F8114D210A284600F02DF9D1
:102530008021284600F020F90028F9D1022006F079
:10254000D6FDE1B2284600F020F98021284600F0AF
:1025500013F90028F9D1022006F0C9FDBDE870404A
:10256000012204210248FFF7D7B90000003C0040D7
:102570000004024070B50546702000F027F8114CA9
:102580000021204600F001F98021204600F0F4F8F7
:102590000028F9D1022006F0AAFD2946204600F0C5
:1025A000F4F88021204600F0E7F80028F9D1022055
:1025B00006F09DFDBDE87040012204210248FFF7AE
:1025C000ABB90000003C00400004024010B50446D6
:1025D000002204210948FFF79FF92146084C2046B4
:1025E00000F0D3F88021204600F0C6F80028F9D189
:1025F000BDE81040022006F07ABD00000004024051
:10260000003C004030B50F22C47801780123FCB1B2
:10261000144C246801F1E02104F4E064C4F5E064A2
:10262000C4F30724C4F10405E2404478AC40857843
:10263000154025432A0181F80024007800F01F018D
:102640008B404009800000F1E020C0F8003130BD2F
:1026500001F01F0083404809800000F1E020C0F82D
:10266000803130BD0CED00E0044A0029116801D032
:10267000014300E0814311607047000030380240A0
:10268000044A0029116801D0014300E08143116030
:102690007047000040380240044A0029116801D008
:1026A000014300E081431160704700002038024080
:1026B000044A0029116801D0014300E08143116000
:1026C0007047000044380240044A0029116801D0D4
:1026D000014300E08143116070470000243802404C
:1026E0000029018802D041F0400101E021F04001C1
:1026F000018070471A4910B5884202D10121841423
:1027000024E01849884202D10121041404E016494A
:1027100088420AD10121C4132046FFF7BDFF20469D
:10272000BDE810400021FFF7B7BF1049884202D131
:10273000012144140AE00E49884202D101210C050E
:1027400004E00C4988420AD101214C052046FFF7DC
:10275000BBFF2046BDE810400021FFF7B5BF10BD0C
:102760000030014000380040003C0040003401408F
:1027700000500140005401400246002012890A42E4
:1027800000D001207047808970478181704730B543
:1027900002884C8802F441530A88CD8822438C88F1
:1027A0002C4322430C8922434C8922438C892243A7
:1027B000CC8922431A430280828B22F400628283F6
:1027C000098A018230BD000038B500200090FFF773
:1027D00055FA0020FFF74EF90146009045F20840F7
:1027E000094C814206D049F22530814202D0401F77
:1027F000814203D16060FFF741FA01E04720606049
:1028000001480C30A06038BD7CE1012010B50021EA
:10281000072000F01FF80021052000F01BF8002120
:10282000062000F017F80021032000F013F8002123
:10283000BDE81040042000F00DB800000349044A30
:1028400031F8101052F82000FEF799BB8CB60F0833
:102850005CE1012070B5044625480E4686B050F86C
:1028600024000121FFF700FF01218803FFF720FF6B
:102870001F4800258DF8105010388DF8135030F88F
:10288000140003901B4803A950F82400FEF716FB20
:10289000012E2BD11648403010F81410103810F8C3
:1028A000140000F029F81248203030F8140000908D
:1028B0008DF804500CB10C2000E008208DF80500C4
:1028C00001258DF806506846FEF7C0FA08485030DA
:1028D00010F814008DF808000F208DF809008DF80D
:1028E0000A008DF80B5002A8FFF78CFE06B070BDF1
:1028F0009CB60F085CE1012010B58A0721F00304A3
:102900000849130F21440F22D1F808489A409443F4
:10291000C1F80848D1F8082898400243C1F80828AF
:1029200010BD0000003001400CB500202749019087
:1029300000900A6842F480320A604FF4A0430A68AB
:1029400002F400320092019A521C0192009A12B9CC
:10295000019A9A42F3D10A68920334D5012000907B
:102960001A484030026842F08052026018480268FB
:1029700042F4404202601548083002680260026872
:1029800042F400420260026842F4A0520260031F57
:10299000104A1A600A6842F080720A600A6892015E
:1029A000FCD50D4A40F205711160016821F0030168
:1029B0000160016841F0020101600168C1F3810119
:1029C0000229FAD10CBD00900CBD00000038024075
:1029D0000070004008544007003C0240124810B507
:1029E000016841F4700101601048016841F0010183
:1029F00001600E4A00210832116002680C4B1A4037
:102A00000260031D0B4A1A60026822F480220260F1
:102A100006480C300160FFF787FF03494FF0006064
:102A20008039086010BD000088ED00E000380240E9
:102A3000FFFFF6FE103000242DE9FE4F282005F0A0
:102A40000DFC0321009105233B4A3CA105F0CAFB84
:102A50008246282005F002FC1E2100910523364AFB
:102A600039A105F0BFFB8146282005F0F7FB3C218A
:102A700000910523304A3EA105F0B4FB8046282092
:102A800005F0ECFB4B21009105232B4A41A105F0F9
:102A9000A9FB0746282005F0E1FB5A2100910523F8
:102AA000254A45A105F09EFB0646282005F0D6FBE9
:102AB000B42100910523204A48A105F093FB054667
:102AC000282005F0CBFB7321009105231A4A4B49BE
:102AD00005F088FB04465146174804F0EAF94946D8
:102AE000154804F0E6F94146134804F0E2F9394686
:102AF000114804F0DEF931460F4804F0DAF92946AE
:102B00000D4804F0D6F921460B4804F0D2F92820EC
:102B100005F0A4FB08499623F7228DE80E003849FA
:102B20002C234822096803F0FFFC03B00146BDE8EE
:102B3000F04F014804F0BDB9CCE2012048656C704B
:102B4000205061676500000055736520746865203A
:102B50006A6F79737469636B20746F20776F726B1F
:102B60002077697468204C43442047554900000091
:102B70002D55502F444F574E20746F206D6F766542
:102B8000206265747765656E20636F6E74726F6C1A
:102B9000730000002D4C4546542F5249475448209D
:102BA000746F206D6F7665206265747765656E2041
:102BB00070616765730000002D53454C20746F20D1
:102BC000696E7465726163742077697468207468D3
:102BD0006520636F6E74726F6C000000436F7079D4
:102BE00072696768742053544D6963726F656C65D0
:102BF0006374726F6E6963730000000002B30F08A4
:102C000000E001202DE9F04F87B00021FE4804F0DC
:102C1000F9F8282005F022FB0021FB4A0B46009121
:102C2000A832FAA105F0DEFA8046282005F016FB4E
:102C30001421F54A00910A23A832FAA105F0D2FA2C
:102C40000746382005F00AFB2121EF4A00910A23AC
:102C5000A832F64905F0D8F9F54CA060282005F017
:102C6000FDFA1421E84A00916423A832F1A105F08D
:102C7000B9FA0646382005F0F1FA21210091E24A1E
:102C8000EA496423A8320C3105F0BEF9E06028203F
:102C900005F0E4FADFF87093352309F1A8090A2159
:102CA000CDF80090CDE901133C239B22E4A105F06F
:102CB000F7F90546282005F0D1FA112100910F23DC
:102CC0002A46E4A105F08EFA0490282005F0C6FA01
:102CD000252100910F232A46E1A105F083FA0590F2
:102CE000382005F0BBFA6E22CDE900524FF00F0AF2
:102CF000CDF808A0227809F5806B0BEB8211032335
:102D0000DAA203F031FFA061382005F0A7FA2321F1
:102D10006E220095CDE90121227803230BEB82116D
:102D2000D2A2891C03F020FFE061282005F096FA6A
:102D30001422CD23CDF80090CDE90132AA236422DC
:102D4000CBA105F0ADF90390282005F087FA052303
:102D5000CDF800A0C8A1039A05F044FA206228200B
:102D600005F07CFA212100910523C6A1039A05F004
:102D700039FA6062282005F071FA332100910523A9
:102D8000C3A1039A05F02EFAA062282005F066FA86
:102D9000452100910523C1A1039A05F023FAE062C1
:102DA000282005F05BFA572100910523BEA1039A64
:102DB00005F018FA2063282005F050FA69210091E7
:102DC0000523BCA1039A05F00DFA6063282005F0E5
:102DD00045FA7B2100910523B9A1039A05F002FA77
:102DE000A063302005F03AFA8D2100910A23B7A1A3
:102DF000039A03F0AFFCB849E06341624CF21861FA
:102E00004183002103F0CDFF4846E16B04F051F807
:102E10004146484604F04DF83146484604F049F82A
:102E20003946484604F045F84846A16804F041F8A0
:102E30002178A06804F0ADFFA168A8484862484620
:102E4000E16804F036F8207809F5906600EB400060
:102E500016F82010E06804F09CFFA14804F5807784
:102E600000680169B86A8847C0067AD5282005F04D
:102E7000F5F973230A21CDF80090CDE901133C2325
:102E8000BE2298A105F00CF98046282005F0E6F94D
:102E9000112100910523424696A105F0A3F982462F
:102EA000282005F0DBF9252100910523424692A157
:102EB00005F098F98146382005F0D0F90190B86AFC
:102EC00001F0C4FFDFF864B121230BF1180B424677
:102ED0005BF820100F200090019805F095F8206114
:102EE000382005F0BBF90190B86A01F0AFFF5BF83C
:102EF00020102320009021234246019805F084F8F9
:102F000060614146A6F5906003F0D3FF5146A6F5F7
:102F1000906003F0CEFF4946A6F5906003F0C9FF2C
:102F2000A6F59060216903F0C4FFA6F59060616981
:102F300003F0BFFF207800EB400006EB80004178F3
:102F4000206904F026FF207800EB400006EB8000AB
:102F50008178606904F01DFF2169684848626169F1
:102F6000486229482946A83003F0A3FF264804995F
:102F7000A83003F09EFF24480599A83003F099FF7C
:102F80002148A169A83003F094FF1F48E169A830E7
:102F900003F08FFF0021A06903F003FF0021E06927
:102FA00003F0FFFE4E4800680169B86A88470221B5
:102FB000B1EB107F03D0C0F30360022813D130209F
:102FC00005F04CF9B221104A00910A23A8324CA115
:102FD00003F0C0FB014638610B48A83003F069FFDD
:102FE00039694C48486208480399A83003F061FFEA
:102FF0000548216AA83003F05CFF0348616AA830E5
:1030000003F057FF004887E0CCE20120436F6E6673
:10301000696775726174696F6E20616E64206465A2
:10302000627567004D6F746F7200000024B30F0863
:1030300004E001204374726C206D6F646500000031
:10304000506F77657220626F61726420737461746F
:103050007573000044432042757320766F6C7400D2
:103060004865617473696E6B20542E0025336400CB
:103070004661756C747300004F7665726375727289
:10308000656E74005265767570206661696C00002B
:103090005370656564206664626B00005357206559
:1030A00072726F7200000000556E64657220766F58
:1030B0006C7400004F76657220766F6C74000000AF
:1030C0004F7665722074656D700000004661756C06
:1030D000742061636B00000035500F081D5E0F08FF
:1030E000F4FF01204441432053657474696E677393
:1030F00000000000436831004368320049550F0862
:10310000456E636F64657220616C69676E6D656E94
:1031100074000000B9550F08A830A16A03F0C9FE79
:103120002048E16A03F0C5FE1E48216B03F0C1FE92
:103130001C48616B03F0BDFE1A48A16B03F0B9FE99
:103140002078226A00EB400006EB800116484B799C
:1031500030F8133053838B79626A30F8133053831D
:10316000CB79A26A30F8133053830B7AE26A30F8D5
:10317000133053834B7A226B30F8133053838B7A9E
:10318000626B30F813305383C97AA26B30F81100A8
:103190005083E1680548486207B00248BDE8F04F37
:1031A00003F01BBF74E30120FCB20F08555D0F084C
:1031B0002DE9F04F8BB0282005F050F800210B4688
:1031C0000091FB4AFBA105F00DF80790282005F0BF
:1031D00045F8F74914230A228DE80E005A2391225C
:1031E000F9A104F05DFF0646F948FA4C4FF0050BD3
:1031F00000784FF01E0900284FF0410A4FF02800D8
:103200007BD005F02BF80F21009105233246F2A167
:1032100004F0E8FF0746382005F020F80096EC4956
:10322000CDE901B94D460623EFA26C3903F09CFCB1
:10323000EE4960644162402005F010F83C210096A0
:10324000CDE90115E2490623E7A28C3904F030F9F3
:10325000A064282005F002F875233246E4A1009509
:1032600004F0C0FF8046282004F0F8FF32210091CE
:1032700005233246DFA104F0B5FF0546382004F0EF
:10328000EDFFD349CDE9006B0623D7A26839CDF80D
:1032900008A003F069FCD949206541623946C44859
:1032A00003F007FEC248616C03F003FEC048A16C46
:1032B00003F0FFFD4146BE4803F0FBFD2946BC4834
:1032C00003F0F7FDBA48216D03F0F3FD0021A06C77
:1032D00003F067FD302004F0C1FF7821009128231E
:1032E000B34AC7A103F036FA2067302004F0B6FFD6
:1032F0008C212823AE4A009100E0DCE0C3A103F05A
:1033000029FAC549606741624CF218614183002186
:1033100003F047FDA648216F03F0CBFDA448616F81
:1033200003F0C7FD282004F099FFA1491423A0222F
:103330008DE80E005A239122B8A104F0B1FE054693
:10334000A348017B8438039000294FF028007CD0EB
:1033500004F084FF0F21009105232A469EA104F06A
:1033600041FF0890382004F079FF9949CDE9005BCE
:103370004F4606239CA22C39CDF8089003F0F4FBAD
:10338000A849E0654162402004F068FF3C21CDE996
:103390000051062394A20297039904F089F820664D
:1033A000282004F05BFF75232A4691A1009704F0C2
:1033B00019FF8046282004F051FF32210091052397
:1033C0002A468CA104F00EFF0746382004F046FF81
:1033D0007F49CDE9005B062383A22839CDF808A0F8
:1033E00003F0C2FB9049A06641627148089903F05E
:1033F00060FD6F48E16D03F05CFD6D48216E03F0E8
:1034000058FD41466A4803F054FD3946684803F0C8
:1034100050FD6748A16E03F04CFD0021206E03F0C3
:10342000C0FC302004F01AFF78210091BE23604ACE
:1034300073A103F08FF9A067302004F00FFF8C21F7
:103440000091BE235A4A71A100E040E103F082F9E5
:103450007649E06741624CF218614183002103F034
:10346000A0FC302004F0FAFEA02100914423504A31
:103470006FA103F06FF9574F803738604C480799B8
:1034800003F017FD31464A4803F013FD294648482A
:1034900003F00FFD4648A16F03F00BFD4448E16FB8
:1034A00003F007FD4248396803F003FD48480178FE
:1034B00000297CD0D0E104F0D1FE0F21009105233A
:1034C000324661A104F08EFE0490402004F0C6FE56
:1034D0003F49CDE9006B062343A29039CDF808900F
:1034E00003F0E6FF5C4D20645C4F28680021026811
:1034F000B86A9047C0B203902868002211468368DA
:10350000B86A98472868D4F8408040210268B86AB1
:103510009047029028683F210268B86A9047029954
:10352000C8E90E1028680021039A8368B86A984792
:10353000402004F093FE3C21CDE90061244906239C
:1035400029A2CDF808908C3903F0B2FFA06428209E
:1035500004F084FE7523324625A1CDF8009004F0D6
:1035600041FE0746282004F079FE32210091052310
:1035700032463BA104F036FE0546382004F06EFECC
:103580001349CDE9006B062317A27C39CDF808A0BA
:1035900003F0EAFA47F6FF720021E06403F0B4FAA0
:1035A000302004F05BFE3C23324632A166E03FE16E
:1035B0001CE401204475616C20636F6E74726F6C43
:1035C0002070616E656C00004D6F746F7220310069
:1035D000F4E7012004E001204971207265662E2F76
:1035E000537065656400000025366400FD610F08B6
:1035F00072706D004964207265662E0051600F087C
:1036000053746172742F53746F7000004661756C4F
:10361000742061636B000000C9540F084D6F746F14
:1036200072203200AD620F0825610F0809550F089E
:1036300053746172742F53746F7020626F746820BA
:103640006D6F746F72730000546172676574204D02
:103650006561737572656400F4FF012004E1012067
:1036600052616D70206475726174696F6E206D7344
:10367000000000004578656300000000CDF800A060
:1036800003F068F860657C48049903F012FC7A48FE
:10369000216C03F00EFC7848A16C03F00AFC39465B
:1036A000754803F006FC2946734803F002FC724893
:1036B000E16C03F0FEFB7048616D03F0FAFB002142
:1036C000A06C03F06EFB616D6C48486202E604F08A
:1036D000C5FD0F2105232A460091AFF2940104F0A5
:1036E00081FD0890402004F0B9FD1E2105220095BF
:1036F000CDE901210623AFF21012614903F0D8FE93
:10370000604FA065DFF88081386800210268D8F832
:103710002800904700F0FF0B3868012200218368E1
:10372000D8F8280098473868D4F8589040210268A3
:10373000D8F828009047049038683F210268D8F8EC
:10374000280090470499C9E90E1038685A460021AC
:103750008368D8F828009847402004F07FFD1E2198
:103760003C220095CDE901210623AFF28412039992
:1037700003F09EFE2066282004F070FD1E217523B4
:103780002A460091AFF2981104F02CFD80462820C3
:1037900004F064FD322105232A460091AFF2401166
:1037A00004F020FD0746382004F058FD0522CDE93D
:1037B00000520623CDF808A0AFF2D41230494C31A4
:1037C00003F0D2F947F6FF720021606603F09CF91E
:1037D000302004F043FD3C232A46AFF26811CDF8B7
:1037E00000A002F0B7FFE0662348089903F061FBF0
:1037F0002148A16D03F05DFB1F48216E03F059FBCA
:1038000041461D4803F055FB39461B4803F051FB68
:103810001948616E03F04DFB1748E16E03F049FB58
:103820000021206E03F0BDFAE16E18484862F8E509
:10383000007B88B9302004F011FDB42100914023B1
:103840000D4A13A102F086FF014678600A4803F092
:1038500030FB796814484862396814484862216F1F
:1038600013484862A16F134848620BB00248BDE894
:10387000F04F03F0B2BB00001CE4012099630F0875
:103880006CE70120F4FF012004E10120E5630F084B
:10389000457865632073696D756C74616E656F75CD
:1038A000732052616D707300D1550F0819510F08C4
:1038B000B1590F08D55A0F082DE9F04F8BB02820C9
:1038C00004F0CCFC00210B460091FE4AFEA104F05E
:1038D00089FC0390282004F0C1FC0A22F94BCDE9B1
:1038E00000324FF0140ACDF808A05A239122FBA110
:1038F00004F0D6FB0746282004F0B0FC1E210091FE
:103900003C233A46F8A104F06DFC0490282004F012
:10391000A5FC412100913C233A46F4A104F062FC4D
:103920000590282004F09AFC0F21009105233A46C7
:10393000EFA104F057FC0690402004F08FFC1E21FC
:1039400005220097CDE90121DFF8B8B3EC4A062340
:103950009BF8001002EBC101EBA203F0A9FD0BF1F3
:103960008004DFF8A8830646A060D8F8000004F1C0
:10397000800540210268A86A90478146D8F8000077
:103980003F210268A86A9047C6E90E90282004F0FB
:1039900065FC3221009105233A46DDA104F022FCAA
:1039A0000790382004F05AFC412105220097CDE908
:1039B00001215A46DFF84893127809F1100909EB02
:1039C00082110623D0A2091D03F0CEF847F6FF723C
:1039D0000021E06003F098F8302004F03FFC412122
:1039E00000915A233A46CEA102F0B4FECE4920619E
:1039F000416201F0C3F9282004F030FCB14973237F
:103A00000A228DE80E004B236822C8A104F048FB6F
:103A10000646282004F022FC0A233246C6A1CDF82F
:103A200000A004F0DFFB0890282004F017FC2321FD
:103A300000910A233246C1A104F0D4FB099038203A
:103A400004F00CFC51464FF0280A0096CDE901A184
:103A50005A460623127809EB8211ABA2891D03F0A6
:103A600083F86061382004F0F9FB23210096CDE94A
:103A700001A15A460623127809EB8211A2A208314D
:103A800003F072F8A0618F48039903F012FA8D4891
:103A9000049903F00EFA8B48059903F00AFA3946A7
:103AA000884803F006FA8748069903F002FA854829
:103AB000A16803F0FEF98348079903F0FAF98148F9
:103AC000E16803F0F6F97F48216903F0F2F97D48D7
:103AD000696903F0EEF97B48A96903F0EAF97948CE
:103AE000E96903F0E6F97748696A03F0E2F9002131
:103AF000E86903F056F97348296A03F0DAF93146A8
:103B0000704803F0D6F96F48089903F0D2F96D4870
:103B1000099903F0CEF96B48616903F0CAF9694865
:103B2000A16903F0C6F9D8F800000169A86A8847BE
:103B300080072BD5282004F091FB32270A23324638
:103B40007FA1009704F04EFB0546382004F086FB69
:103B5000CDE9006A02979BF80020062309EB821149
:103B600069A20A3103F000F8E0612946554803F0E4
:103B7000A0F95448E16903F09CF947F6FF7200216F
:103B8000E06902F0C1FF61696E48486247F6FF755F
:103B90002A460021606902F0B7FF2A460021A06989
:103BA00002F0B2FFD8F8000001696748806A8847D0
:103BB000C0077DD0282004F051FB424973237D22A9
:103BC0008DE80E004B23B42260A104F069FA05468B
:103BD000282004F043FB0E260A232A465FA1009604
:103BE00004F000FB0390282004F038FB50232A4601
:103BF0005AA1009604F0F6FA8246382004F02EFB13
:103C00000A22CDE900524FF01908CDF808809BF840
:103C100000104E4609EB81115F46042351A20C317E
:103C200002F0A2FF2062382004F018FB5022CDE9F8
:103C30000052CDF808803978042306EB811149A29F
:103C40000E3102F091FF6062282004F007FB4FF074
:103C50002C080A232A4638A1CDF8008004F0C2FAC5
:103C60008146282004F0FAFA50232A4633A1CDF8E1
:103C7000008004F0B7FA8046382004F0EFFA0A22F8
:103C8000CDE900524FF0370BCDF808B03978062354
:103C900006EB81111CA2103102F066FFA0623820F1
:103CA00004F0DCFA5022CDE90052CDF808B000E073
:103CB0009CE03978062306EB811113A2123102F041
:103CC00053FF51E0C4E40120537065656420636FC5
:103CD0006E74726F6C6C6572000000005365742026
:103CE000706F696E7400000072706D006D7300007B
:103CF000546172676574207370656564000000002C
:103D000064E7012004E0012025366400F4FF01206F
:103D100052616D70206475726174696F6E0000008D
:103D20004578656300000000ED5D0F0850494420B0
:103D30004761696E730000004B5000004B49000062
:103D40004B44000099520F0804E10120466C75783D
:103D500020776C2E2074756E696E67004255538013
:103D60000000000025346400E0622946254803F085
:103D7000A0F82448039903F09CF85146214803F029
:103D800098F82048216A03F094F81E48616A03F00D
:103D900090F80021606A03F004F84946194803F0DE
:103DA00088F84146174803F084F81648A16A03F0E2
:103DB00080F81448E16A03F07CF84FF47A7200212D
:103DC000206A02F0A1FE47F6FF752A460021A06A8C
:103DD00002F09AFE2A460021E06A02F095FE216A6E
:103DE00009484862A16A4862E16A48626169064816
:103DF0004862A16948620BB00248BDE8F04F03F089
:103E0000ECB80000C4E4012099520F082DE9F04FEE
:103E10008BB0282004F022FA00210B460091FE4AC4
:103E2000FEA104F0DFF90390282004F017FA87219F
:103E30000091E623F84AFEA104F0D4F9049028206A
:103E400004F00CFA0A23DFF8D083CDE900834FF0A9
:103E5000140ACDF808A05A239122F7A104F020F902
:103E60000746282004F0FAF90F21009105233A466D
:103E7000F4A104F0B7F9F54C2063382004F0EEF912
:103E80001E2105220097CDE90121A4F1800508F546
:103E900002762978062306EB8111EDA2143102F097
:103EA00063FE6063282004F0D9F90F2100915023AC
:103EB0003A46E8A104F096F90590382004F0CEF9CE
:103EC0001E2150220097CDE901212978062306EB17
:103ED0008111DFA2163102F047FEA063282004F012
:103EE000BDF93221009105233A46DBA104F07AF9AD
:103EF000E063382004F0B2F9412105220097CDE9B2
:103F000001212978062306EB8111D1A2183102F094
:103F10002BFE2064282004F0A1F9322100915023C7
:103F20003A46CFA104F05EF90690382004F096F9E5
:103F3000412150220097CDE901212978062306EB83
:103F40008111C3A21A3102F00FFE6064282004F030
:103F500085F9844673200A22CDF80080CDE901203E
:103F60004B236822BFA1604604F09AF881462820BE
:103F700004F074F90A234A46BEA1CDF800A004F06B
:103F800031F90790382004F069F94FF0280BCDE99A
:103F9000009B8446CDF808A02878062306EB801104
:103FA000ABA260461C3102F0DFFDA064282004F0C3
:103FB00055F9232100910A234A46AFA104F012F9D2
:103FC0000890382004F04AF92321CDF80090CDE97B
:103FD00001B184462878062306EB80119CA2604636
:103FE0001E3102F0C1FDE064282004F037F9844658
:103FF00073207822CDF80080CDE901204B23682280
:104000009EA1604604F04CF88046282004F026F972
:104010000A23424697A1CDF800A004F0E3F80990E6
:10402000382004F01BF9CDE9008B8446CDF808A0B8
:104030002878062306EB801185A26046223102F023
:1040400093FDA065282004F009F9232100910A239B
:10405000424689A104F0C6F80A90382004F0FEF820
:104060002321CDF80080CDE901B1844628780623CC
:1040700006EB801176A26046243102F075FDE06502
:10408000302004F0EBF873210091E623624A7FA10F
:1040900003F034F9A066382004F0E0F8962100918E
:1040A000E6235D4A7B4903F0AFFFE06600F066FE61
:1040B0005948039902F0FDFE5748049902F0F9FEB1
:1040C0003946554802F0F5FE5348216B02F0F1FEE7
:1040D0005148616B02F0EDFE4F48059902F0E9FE90
:1040E0004D48A16B02F0E5FE0021A06B02F059FEE5
:1040F0004948E16B02F0DDFE4748216C02F0D9FE31
:104100004548069902F0D5FE4348616C02F0D1FEA5
:104110000021606C02F045FE04F1800041693E48D8
:1041200002F0C7FE04F1800081693B4802F0C1FE45
:1041300004F18000C169384802F0BBFE04F1800040
:10414000416A354802F0B5FE04F180000021C069E3
:1041500002F027FE04F18000016A2F4802F0A9FE58
:10416000287800EB400106F1800000EB8100494611
:104170000779294802F09DFE2748079902F099FE29
:104180002548A16C02F095FE2348089902F091FEA3
:104190002148E16C02F08DFEA16C3F484862E16C61
:1041A0003E4848623E480068016904F18000806A28
:1041B000884740072DD5282004F050F84FF0320AE8
:1041C0000A234A4637A1CDF800A004F00BF8206579
:1041D000382004F043F8CDE9009BCDF808A02978F9
:1041E000062306EB81111AA2203102F0BDFC6065A6
:1041F0000948216D02F05DFE0748616D02F059FE2D
:1042000047F6FF720021606D02F07EFC616D26486A
:10421000486247F6FF7A49E06CE501204375727207
:10422000656E7420636F6E74726F6C6C6572730070
:10423000496E70757400000053657420706F696E6C
:10424000747300004971207265662E0084E00120BD
:1042500025366400497100004964207265662E00AD
:1042600049640000497120504944204761696E73D8
:10427000000000004B5000004B49000049642050F2
:104280004944204761696E73000000004C696E6B01
:10429000000000007CB30F081D540F08D9530F080D
:1042A000F4FF01204B44000091530F0852460021B7
:1042B000A06C02F029FC52460021E06C02F024FCC4
:1042C00041465D4802F0F5FD5B48099902F0F1FDB9
:1042D0005948A16D02F0EDFD57480A9902F0E9FD39
:1042E0005548E16D02F0E5FD544800680169544805
:1042F000806A8847DFF84C91000733D5282003F007
:10430000ADFF32210A2342460091AFF2680103F06B
:1043100069FF2066382003F0A1FF3221CDF800802C
:10432000CDE901B12978062306EB8111AFF2E00255
:10433000263102F019FC60663F48216E02F0B9FD9B
:104340003D48616E02F0B5FD52460021606E02F0FC
:10435000DBFB002F55D00021606E02F022FD616E64
:10436000C1F82490564652460021A06D02F0CCFBC5
:1043700032460021E06D02F0C7FB2F48A16E02F02B
:1043800098FD2D48E16E02F094FDA84628782E4D48
:1043900000EB400005EB8000C178E06E03F0F9FC13
:1043A00001F0BEFDA66E726A2AB196F8210010B126
:1043B00039463046904786F82C7027B30021A06D0F
:1043C00002F0EFFC0FB30021E06D02F0EAFCE16EB9
:1043D0001E484862A16E1E484862606B1D494162DA
:1043E000226C1D495162A26DC2F82490E26DC2F8A0
:1043F000249098F8001001EB410115F8211031B11B
:1044000014E00121A8E70121D9E70121DCE700211F
:1044100002F0C7FC0948006801690948806A8847BA
:10442000800603D40021206C02F0BBFC0BB00248D4
:10443000BDE8F04F02F0D1BD6CE50120F4FF012092
:1044400004E1012099520F08F4E7012059640F0894
:10445000E1520F080D580F083D560F082DE9F04F97
:10446000FF4887B0002500680169FE48806A8847D8
:10447000064609200024B0EB167F09D1282003F05E
:10448000EDFE0023F84AF9A1009403F0ABFE0546C7
:10449000C6F30360092809D1282003F0DFFE0023BA
:1044A000F14AF9A1009403F09DFE05467006DFF87D
:1044B000B8834FF028000BD503F0D0FE14210A2258
:1044C000CDF80080CDE901215A239122F7A10AE01D
:1044D00003F0C4FE14210A22CDF80080CDE90121A9
:1044E0005A239122F4A103F0DBFD0446282003F0B7
:1044F000B5FE0F21009105232246F0A103F072FEC4
:104500000390382003F0AAFE1E2105220094DFF854
:10451000B4A3CDE90121DFF8A8939AF8002006237F
:1045200009EB8211E8A2283102F01EFB0AF1800B90
:104530005F46CBF87000282003F090FE0F21009119
:1045400050232246E1A103F04DFE0490382003F0F1
:1045500085FE1E2150220094CDE901219AF8002009
:10456000062309EB8211D8A22A3102F0FDFA7867FE
:1045700000F004FC2946BC4802F09BFC2146BA48E6
:1045800002F097FCB848039902F093FCB648396FE3
:1045900002F08FFCB448049902F08BFCB248796FAA
:1045A00002F087FC700659D5282003F057FE32210F
:1045B000009105232246C6A103F014FE0390382083
:1045C00003F04CFE0521CDE90041412702979AF8FE
:1045D0000020062309EB8211BBA2303102F0C4FA9D
:1045E0005D4647F6FF720021CBF8780002F08CFAA6
:1045F000282003F033FE3221009150232246B6A139
:1046000003F0F0FD0490382003F028FE5021CDE99E
:10461000004102979AF80010062309EB8111AAA223
:10462000323102F0A1FA47F6FF720021E86702F08A
:104630006BFA8D48039902F03CFC8B48A96F02F09D
:1046400038FC8948049902F034FC8748E96F02F08D
:1046500030FCA96FA2484862E96F4862814C8248E9
:10466000616902F026FC8048A16902F022FC7E48C4
:10467000E16902F01EFC7C48616A02F01AFC00212C
:10468000E06902F08EFB7848216A02F012FC0920F2
:10469000B0EB167F7ED1282003F0E0FD73230A22C1
:1046A000CDF80080CDE901234B2340F227128DA1E4
:1046B00003F0F6FC0546282003F0D0FD4FF0140867
:1046C0000A232A468BA1CDF8008003F08BFD0390CE
:1046D000382003F0C3FD5022CDE90052CDF8088008
:1046E0009AF800104E4609EB81115746062376A230
:1046F000343102F039FA47F6FF720021206002F0EF
:1047000003FA282003F0AAFD4FF023090A232A46C2
:104710007BA1CDF8009003F065FD0490382003F0F4
:104720009DFD5022CDE90052CDF80890397806233E
:1047300006EB811164A2363102F016FA606028207F
:1047400003F08CFD4FF0320A0A232A466EA1CDF801
:1047500000A003F047FD0590382003F07FFD5022B4
:10476000CDE90052CDF808A03978062306EB811177
:1047700055A2383102F0F8F9A060282003F06EFD50
:10478000B4232A4662A1CDF8008003F02BFD0690E9
:10479000382000E0DCE003F061FDE622CDE90052C4
:1047A000CDF808803978032306EB81115AA23A31FB
:1047B00002F0DAF9E0602A48222100680268A06A63
:1047C0009047421E0021E06802F09EF9282003F085
:1047D00045FD8C232A4651A1CDF8008003F002FD4F
:1047E0008246282003F03AFD8C232A464CA1CDF8BE
:1047F000009003F0F7FC3978804606EB811090F8C2
:104800003A20A06A00F02CFEE16846484862216820
:1048100045484862616845484862A1684448486222
:104820005146114802F045FB41460F4802F041FB5A
:1048300029460D4802F03DFB0B48039902F039FB75
:104840000948216802F035FB0748049902F031FB62
:104850000548616802F02DFB034805996AE00000F5
:10486000F4FF012004E1012014E6012053656E737A
:104870006F726C6573732074756E696E6720535424
:104880004F202620504C4C0053656E736F726C6540
:1048900073732074756E696E672053544F20262001
:1048A000504C4C20284175782900000053544F206B
:1048B0002620504C4C00000053544F00473100005C
:1048C00074E7012004E0012025366400473200002F
:1048D000504C4C204B500000504C4C204B49000099
:1048E00099520F085265762075702074756E696E46
:1048F000670000004475726174696F6E000000000B
:10490000456E642073706400456E64204971000038
:104910005374616765000000253364006D73000007
:1049200072706D005D630F0831640F0889640F08B1
:10493000B1640F0802F0BDFA0C48A16802F0B9FAA0
:104940000A48069902F0B5FA0848E16802F0B1FA9F
:10495000DBF8702006485062DBF87410486207B03C
:104960000248BDE8F04F02F038BB000014E6012019
:1049700099520F082DE9F04FD14887B00024006804
:104980000169D048806A884706460A250027B5EBAA
:10499000167F09D1282003F061FC0023CA4ACBA16D
:1049A000009703F01FFC0446C6F303600A2809D1F0
:1049B000282003F053FC0023C34ACCA1009703F046
:1049C00011FC0446282003F049FCBF4BCDE900351B
:1049D00014210291AA465A239122CEA103F060FB32
:1049E0000546282003F03AFC4FF00F0805232A461D
:1049F000C9A1CDF8008003F0F5FB8146382003F013
:104A00002DFC1E2105220095CDE90121C349DFF8C7
:104A1000B8B2062309780BF1B80B0BEB8111C0A2D9
:104A20002C3102F0A1F8A74F803F3867282003F00F
:104A300015FC50232A46BBA1CDF8008003F0D2FB21
:104A40008046382003F00AFC1E2150220095CDE953
:104A50000121B2490623B2A209780BEB81112E3154
:104A600002F082F8786700F089F92146964802F052
:104A700020FA2946944802F01CFA4946924802F06E
:104A800018FA9148396F02F014FA41468E4802F044
:104A900010FA8D48796F02F00CFA8A4C8A486169E5
:104AA00002F007FA8848A16902F003FA8648E16932
:104AB00002F0FFF98448616A02F0FBF90021E06925
:104AC00002F06FF98048216A02F0F3F9BAEB167F21
:104AD0007ED1282003F0C2FB7B4900917323CDE9EE
:104AE00001A34B2340F227128FA103F0D9FA054608
:104AF000282003F0B3FB4FF014080A232A468EA1A6
:104B0000CDF8008003F06EFB0390382003F0A6FB85
:104B10004FF05009CDE90059803FCDF80880397831
:104B20005E460BEB811106237DA2343102F01CF8A6
:104B300047F6FF720021206001F0E6FF282003F015
:104B40008DFB4FF0230A0A232A467EA1CDF800A050
:104B500003F048FB0490382003F080FB8DE820062A
:104B60003978062306EB81116DA2363101F0FCFF86
:104B70006060282003F072FB4FF0320B0A232A46B4
:104B800072A1CDF800B003F02DFB0590382003F0A2
:104B900065FB8DE8200A3978062306EB811160A2B7
:104BA000383101F0E1FFA060282003F057FBB42367
:104BB0002A4668A1CDF8008003F014FB8346382014
:104BC00003F04CFBE622CDE90052CDF8088000E06E
:104BD00069E03978032306EB811160A23A3101F0D4
:104BE000C3FFE0603648222100680268A06A90474F
:104BF000421E0021E06801F087FF282003F02EFB11
:104C00008C232A4656A1CDF8008003F0EBFA8146AA
:104C1000282003F023FB8C232A4652A1CDF800A0C4
:104C200003F0E0FA3978804606EB811090F83A20DC
:104C3000A06A00F015FCE1684B48486220684B49C7
:104C4000416260684A494162A0684A4941624946F6
:104C50001D4802F02EF941461B4802F02AF9294668
:104C6000194802F026F91848039902F022F916486B
:104C7000216802F01EF91448049902F01AF912484A
:104C8000616802F016F91048059902F012F90E4811
:104C9000A16802F00EF959460B4802F00AF90A48D9
:104CA000E16802F006F9074833498038026F516223
:104CB000406F416207B00448BDE8F04F02F08DB983
:104CC000F4FF012004E10120BCE6012053656E736E
:104CD0006F726C6573732074756E696E67205354C0
:104CE0004F202620434F52444943000053656E73C2
:104CF0006F726C6573732074756E696E67205354A0
:104D00004F202620434F524449432028417578299B
:104D10000000000053544F004731000004E0012020
:104D20002536640047320000526576207570207485
:104D3000756E696E670000004475726174696F6E0C
:104D400000000000456E642073706400456E6420AE
:104D500049710000537461676500000025336400E9
:104D60006D73000072706D005D630F0831640F0891
:104D700089640F08B1640F0899520F083EB52820C6
:104D800003F06CFAA0232249CDE900131422029209
:104D90005A2391221FA103F083F9204C606128203F
:104DA00003F05CFA0F21009105231DA1626903F055
:104DB00019FAA061402003F051FA62690521CDE99A
:104DC00000211E25A4F58072029519491278062348
:104DD00001EBC20117A2091D02F06AFBE06130205D
:104DE00003F03CFA41210091052313A1626901F00F
:104DF000B1FC2062282003F031FA00953C2311A178
:104E0000626903F0EFF96062216A0F4848623EBDB3
:104E1000E0E101204D6F6E69746F720004E10120C2
:104E20004D6561737572656420737065656400001B
:104E300064E701202536640053746172742F537443
:104E40006F70000072706D0071510F0870B53149BC
:104E50000024096809698847010E0E074FF009010F
:104E60004FF00A024FF002034FF001050ED0B1EBF4
:104E7000107F03D1C0F303660A2E17D0B2EB107F68
:104E800015D1C0F30366092E10D010E0B1EB107FEE
:104E900000D10124B2EB107F00D10224B5EB107FCA
:104EA00002D0B3EB107F33D1032431E00624B1EB01
:104EB000107F05D1C0F3036102290BD0012909D06D
:104EC000C0F30361092906D1B3EB107F02D0B5EB23
:104ED000107F00D10424B2EB107F05D1C0F3036131
:104EE00002290BD0012909D0C0F303610A2906D198
:104EF000B3EB107F02D0B5EB107F00D105240B215E
:104F0000B1EB107F04D1C0F30360092800D107245E
:104F1000204670BDF4FF012010B5324802F02BF896
:104F20003048A83002F027F82F4802F024F82E4825
:104F3000A83002F020F82D4802F01DF82B48A830C8
:104F400002F019F82A4802F016F82A490020886071
:104F5000C860086148618861C86108624862886207
:104F6000C862086348638863C863086448648864E7
:104F7000C864086548658865C865086648668866C7
:104F8000C866086748678867C867803108604860F6
:104F90008860C860086148618861C86108624862C9
:104FA0008862C862086348638863C86308644864A9
:104FB0008864C864086548658865C8650866486689
:104FC0008866C866086748678867C8678031086070
:104FD00048608860C860086148618861C86108628B
:104FE000486210BDCCE201201CE401206CE50120E8
:104FF000BCE6012004E0012010B5074807A10278B3
:105000000B48521CFBF788F90949BDE8104001F133
:10501000200002F0B6BA000004E001204D6F746F6A
:10502000722073656C65637465643A202531640091
:105030009CE10120034807210068C2680248806A99
:1050400010470000F4FF012004E1012010B50C46D8
:10505000FFF762FF072C23D2DFE804F004070A17EA
:105060001A1D2000FDF7E8FC04E0FDF7CBFD01E090
:10507000FEF79EF80C4B586801F02EFA5968BDE80F
:1050800010400144094802F07CBAFEF715FC07E025
:10509000FEF7BCFE04E0FFF7E1F901E0FFF76AFC70
:1050A000BDE81040FFF7A8BF04E00120BCE10120EB
:1050B0002DE9F047814617480E46144FDFF850801F
:1050C000002400EB8615395D7D2908D0D8F8000052
:1050D000026848469047411C01D025F81400641C22
:1050E000E4B2202CEFD3D8F800000421026848462F
:1050F00090470849103941F8360095F83A20314672
:105100004846BDE8F04700F0ABB9000088B30F088F
:10511000F4FF012074E7012070B5134C134D0021FA
:1051200020680268A86A9047C6B22068002211462B
:105130008368A86A984720680621C268A86A9047D1
:105140002068012200218368A86A98472068062108
:10515000C268A86A90472068324600218368A86A1E
:10516000BDE8704018470000F4FF012004E1012071
:105170002DE9F047414A424F424DA7F1800C2DEDF9
:10518000068B02F5807411782B6801EB41060CEB5D
:10519000811017F82680B8F1000F06D007EB8601C2
:1051A000C97859B1012960D10EE0828834485B6822
:1051B000903850F83110A06A984756E0B0F918209E
:1051C000B0F914101B6A4EE0E1469046B0F93E007B
:1051D00004F0EBF99FED2C8B53EC182B04F010FA34
:1051E0009FED2B9B53EC192B04F058F841EC100B5E
:1051F00003F0DAF998F80010B0EE40AA09EB811636
:10520000F0EE60AAB6F93C0004F0CFF953EC1A2B8B
:1052100004F0F6F904F09AF907B2B6F93E0004F08A
:10522000C4F953EC182B04F0EBF953EC192B04F0F0
:1052300035F841EC100B03F01BFA98F80010B0EEB3
:10524000408A09EB8110F0EE608AB0F93C0004F06E
:10525000ACF953EC182B04F0D3F904F077F901B250
:1052600028683A46036AA06A984728680621C268F7
:10527000A06ABDEC068BBDE8F047104704E00120B2
:10528000F4E70120F4FF01201F85EB51B81E09400F
:1052900000000000008066400D4B0C4A806A1B78BD
:1052A00002EB8312801A0B4A400852FA80F31B78F3
:1052B0007D2B09D0C0B2105C074A126893680A4679
:1052C00001460648806A18477047000074E70120CD
:1052D00004E0012088B30F08F4FF012004E101205D
:1052E0002DE9F041284E11F0FF052849307800EBF8
:1052F000400001EB8000057140D00021224C803439
:10530000A06D01F04EFDC5B30021E06D01F049FD37
:10531000FDB11E4F3078803F07EB8010B0F91C10B4
:105320004184C28B8284028CC284A06D01F0D0FAC9
:10533000307807EB8010B0F92410E06D01F0C8FA66
:10534000606E30B1317807EB8111B1F9261001F0B0
:10535000BFFAA06D012680F82060E06D80F8206023
:10536000606E002807D06DB15FF0000101F019FDFB
:10537000606E80F82060BDE8F08101E00121BDE7AA
:105380000121C2E70121F1E704E00120F4E7012057
:1053900070B50D46FFF780FF0D480E4A017801EB0E
:1053A000410002EB8000007900280FD0084C8034C7
:1053B000606E00280AD0803A02EB8111CD84294624
:1053C00001F0ACFA606E012180F8201070BD000081
:1053D00004E00120F4E7012010B50C46FFF75CFF64
:1053E0000C480D4A007800EB400102EB810109797D
:1053F00000290ED0A2F1800101EB801021468484A7
:10540000044C8034E06D01F089FAE06D012180F8F0
:10541000201010BD04E00120F4E7012010B50C4677
:10542000FFF73AFF0C480D4A007800EB400102EB11
:105430008101097900290ED0A2F1800101EB8010D1
:1054400021464484044C8034A06D01F067FAA06DBD
:10545000012180F8201010BD04E00120F4E70120B4
:10546000F8B51546094A02EB8114094904F13802DE
:1054700000920968931E121F8E692946B047E08E7C
:1054800000EB40004000E086F8BD000074E701201A
:10549000F4FF012038B51546094A062302EB8112B4
:1054A000B2F9361091FBF3F10BB2B2F9381000915A
:1054B0000449928E09684C692946A04738BD00000E
:1054C00074E70120F4FF012070B50D4C0D4D002153
:1054D00020680268A86A9047C6B220680022114678
:1054E0008368A86A984720680721C268A86A90471D
:1054F0002068324600218368A86ABDE870401847DA
:10550000F4FF012004E1012070B50D4C0D4D002188
:1055100020680268A86A9047C6B22068012200216C
:105520008368A86A984720680721C268A86A9047DC
:105530002068324600218368A86ABDE87040184799
:10554000F4FF012004E101202DE9F041164A05464F
:1055500010461649007802F5807400EB400001EB1C
:1055600080011369124E134FA06A9D420BD193F82C
:1055700030504D70FFF76AFC56F820000021425D64
:105580003868C3690BE0526992F830508D70FFF7AC
:105590005DFC56F820000121425D3868C369E06A6D
:1055A000BDE8F0411847000004E00120F4E70120C5
:1055B0005CB30F08F4FF0120034808210068C268AB
:1055C0000248806A10470000F4FF012004E1012036
:1055D0002DE9F041164C174D002120680268A86A99
:1055E0009047C6B22068002211468368A86A98478F
:1055F000114F2068A7F11008BA884368D8F8001046
:10560000A86A98472068012200218368A86A984701
:105610002068B7F84420D8F808104368A86A98476B
:105620002068324600218368A86ABDE8F041184727
:10563000F4FF012004E1012074E701202DE9F04787
:105640006B4C6C4ADFF8B091A2F180052DED068B12
:1056500004F58076207800EB400102EB810305EB36
:105660008010DB78002B7CD0012B7BD1B0F93E0081
:1056700003F09BFF9FED618B53EC182B03F0C0FFF1
:105680009FED609B53EC192B03F008FE41EC100BCF
:1056900002F08AFF2078B0EE40AA05EB8017F0EE0A
:1056A00060AAB7F93C0003F080FF53EC1A2B03F01B
:1056B000A7FF03F04BFF0FFA80F8B7F93E0003F0A5
:1056C00074FF53EC182B03F09BFF53EC192B03F0E2
:1056D000E5FD41EC100B02F0CBFF2078B0EE40AAC4
:1056E00005EB8010F0EE60AAB0F93C0003F05DFF1E
:1056F00053EC1A2B03F084FF03F028FF01B2D9F812
:1057000000004246036AB06A9847207805EB801093
:10571000B0F93E0003F049FF53EC182B03F070FF83
:1057200053EC192B03F0BAFD41EC100B02F0A0FF73
:105730002078B0EE40AA05EB8016F0EE60AAB6F92C
:105740003C0003F032FF53EC1A2B03F059FF03F037
:10575000FDFEB082B6F93E0003F027FF53EC182B94
:1057600001E020E01BE003F04BFF53EC192B03F0AA
:1057700095FD41EC100B02F017FF2078B0EE408A47
:1057800005EB8014F0EE608AB4F93C0003F00DFFE5
:1057900053EC182B03F034FF03F0D8FE2083BDEC4C
:1057A000068BBDE8F08712F82110134A136851B137
:1057B000B0F91820B0F914101B6AB06ABDEC068B62
:1057C000BDE8F047184719694F46B06A8847800618
:1057D000E5D52078412105EB8010B0F91820386814
:1057E0008368B06ABDEC068BBDE8F047184700003F
:1057F00004E00120F4E70120F4FF01201F85EB51B4
:10580000B81E094000000000008066402DE9F04706
:10581000604D614ADFF88481A2F180042DED068B92
:1058200005F58079287800EB400102EB810104EB5B
:105830008010C97800297CD001297BD1B0F93E00C5
:1058400003F0B3FE9FED568B53EC182B03F0D8FEFC
:105850009FED559B53EC192B03F020FD41EC100BF1
:1058600002F0A2FE2878B0EE40AA04EB8016F0EE1B
:1058700060AAB6F93C0003F098FE53EC1A2B03F033
:10588000BFFE03F063FE07B2B6F93E0003F08DFEE3
:1058900053EC182B03F0B4FE53EC192B03F0FEFC71
:1058A00041EC100B02F0E4FE2878B0EE40AA04EBC5
:1058B0008010F0EE60AAB0F93C0003F076FE53ECE5
:1058C0001A2B03F09DFE03F041FE01B2D8F8000050
:1058D0003A46036AD9F828009847287804EB8010E4
:1058E000B0F93E0003F061FE53EC182B03F088FE84
:1058F00053EC192B03F0D2FC41EC100B02F0B8FE74
:105900002878B0EE40AA04EB8016F0EE60AAB6F953
:105910003C0003F04AFE53EC1A2B03F071FE03F037
:1059200015FEB082B6F93E0003F03FFE53EC182B93
:1059300001E020E01BE003F063FE53EC192B03F0C1
:10594000ADFC41EC100B02F02FFE2878B0EE408A3F
:1059500004EB8014F0EE608AB4F93C0003F025FEFD
:1059600053EC182B03F04CFE03F0F0FD2083BDEC4C
:10597000068BBDE8F087B0F91820B0F91410D8F8FC
:105980000000036AD9F82800BDEC068BBDE8F0479B
:105990001847000004E00120F4E70120F4FF012093
:1059A0001F85EB51B81E09400000000000806640D2
:1059B0002DE9F041404C414D00212DED068B206832
:1059C0000268A86A904700F0FF082068002211468C
:1059D0008368A86A98473A48A0F18006017821B107
:1059E000C07858B1012857D10FE03548B2889038B7
:1059F000016820684368A86A98474DE02068B6F9B6
:105A00001820B6F91410036A44E0B6F93E0003F01A
:105A1000CCFD9FED2C9B53EC192B03F0F1FD9FED7A
:105A20002B8B53EC182B03F039FC41EC100B02F0DC
:105A3000BBFDB0EE40AAF0EE60AAB6F93C0003F060
:105A4000B4FD53EC1A2B03F0DBFD03F07FFD07B22E
:105A5000B6F93E0003F0A9FD53EC192B03F0D0FD7D
:105A600053EC182B03F01AFC41EC100B02F000FE73
:105A7000B0EE408AF0EE608AB6F93C0003F095FD86
:105A800053EC182B03F0BCFD03F060FD01B220685D
:105A90003A46036AA86A984720680621C268A86A3D
:105AA00090472068424600218368A86ABDEC068BB7
:105AB000BDE8F04118470000F4FF012004E1012097
:105AC000F4E701201F85EB51B81E094000000000DB
:105AD000008066402DE9F041414C424D00212DED02
