:020000040803EF
:1000000028700020850203085D521A00C10203080F
:100010009102030893020308950203080000000000
:10002000000000000000000000000000970203082C
:1000300099020308000000009B0203089D020308C8
:100040009F0203089F0203089F0203089F02030800
:100050009F0203089F0203089F0203089F020308F0
:100060009F0203089F0203089F0203089F020308E0
:100070009F0203089F0203089F0203089F020308D0
:100080009F0203089F0203089F0203089F020308C0
:100090009F0203089F0203089F0203089F020308B0
:1000A0009F0203089F0203089F0203089F020308A0
:1000B0009F0203089F0203089F0203089F02030890
:1000C0009F0203089F0203089F0203089F02030880
:1000D0009F0203089F0203089F0203089F02030870
:1000E0009F0203089F0203089F0203089F02030860
:1000F0009F0203089F0203089F0203089F02030850
:100100000000000000000000000000009F02030843
:100110009F0203089F0203089F0203089F0203082F
:100120009F0203089F0203089F0203089F0203081F
:100130009F0203089F020308000000000000000067
:100140009F0203089F0203089F02030800000000AB
:10015000000000000000000000000000000000009F
:1001600000000000000000009F0203089F02030837
:100170009F020308000000000000000000000000D3
:10018000000000009F02030800F002F800F06AF887
:100190000AA090E8000C82448344AAF10107DA45E2
:1001A00001D100F05FF8AFF2090EBAE80F0013F0CA
:1001B000010F18BFFB1A43F00103184738D700009E
:1001C00058D70000103A24BF78C878C1FAD852072F
:1001D00024BF30C830C144BF04680C6070470000C1
:1001E0000023002400250026103A28BF78C1FBD840
:1001F000520728BF30C148BF0B607047692900F023
:100200000181642900F0FE80752900F0FB806F29D0
:1002100000F09281782900F0B9810368DB0928BFDA
:1002200041F08001632900F0E683E32900F0F983BF
:10023000002070471FB509F0CFFB9DE8030000F0D8
:1002400051FC00F005FD04000020002108F054FFDF
:10025000401C606000F0D4FA1FBD10B5002008F00B
:100260005FF810BD00F0CEFC1146FFF7E3FF08F089
:100270003EFF00F00FFD03B4FFF7EFFF03BC00F0FB
:10028000BBFC00000948804709480047FEE7FEE73D
:10029000FEE7FEE7FEE7FEE7FEE7FEE7FEE7FEE736
:1002A00004480549054A044B70470000D529030856
:1002B0008901030858680020287000202870002059
:1002C00000B5FFB441464A4653465C4665463EB4D7
:1002D0000D496A460A600D4908600D4988473EBCD1
:1002E000884691469A46A346AC46FFBC00BD0648E8
:1002F00001688D463EBC884691469A46A346AC4668
:10030000FFBC044800BD0000F07F0020F47F002007
:100310009101030898D103080FB41CB5074B06AA36
:100320007B4469460090059800F043FB0020694635
:1003300000F052FB1CBC5DF814FB0000B506000089
:1003400070B5044685690068C10601D5302600E015
:100350002026C00707D070BDD4E901213046904760
:10036000206A401C20626D1EF6D570BD70B5044633
:1003700085690078C00707D170BDD4E9012120202C
:100380009047206A401C20626D1EF6D570BD09683A
:100390004A0501D540B27047C905FCD500B2704787
:1003A00009684A0501D5C0B27047C905FCD580B2BD
:1003B000704770B50C460546012A05D0287880069E
:1003C00000D5EA69002302E0012305E05B1C9342AB
:1003D00002D2E05C0028F9D1A869E618C01AA86129
:1003E000286A184428622846FFF7AAFF04E0D5E9E6
:1003F000012114F8010B9047B442F8D32846FFF7C7
:10040000B5FF70BD2DE9F04106460024106875293E
:10041000314616A510D0FFF7BAFF002802DA404295
:1004200013A507E031688A0701D512A502E0490744
:1004300004D511A5012401E0FFF7B2FF00210A2233
:1004400006F1240709E0B0FBF2FCB0FBF2F302FB7B
:100450001C00303078541846491C0028F3D123463C
:100460002A463046BDE8F04100F045BA00000000E1
:100470002D0000002B000000200000002DE9FF5F90
:1004800015468A460446DFF8AC80F8440027D8E9D0
:1004900000103E46CDE9001010E03AF816106A460A
:1004A00002A800F0CAFA411C07D02178890603D5BA
:1004B000E269391891420DD80744761C20788006ED
:1004C00002D5E069B84205DDAE42E6DB3AF8160037
:1004D0000028E2D1A069C01BA0612046FFF730FFD1
:1004E000D8E90010CDE90010002017E03AF8181004
:1004F0006A4602A800F0A1FAB0F1FF3F81460BD096
:1005000000250DF1080B05E0D4E901211BF80500D9
:1005100090476D1C4D45F7D308F10100B04280466D
:10052000E4DB206A384420622046FFF71FFFBDE865
:10053000FF9F00001ACD000070B5044621461068E8
:10054000FFF72EFF002104F1240505E000F007026B
:100550003032C0086A54491C0028F7D120680023B3
:1005600008A2050708D500F02000084304D0E06980
:10057000012305A2401EE0612046BDE8704000F066
:10058000BAB90000000000003000000070B5044659
:100590000D4621461068FFF703FF2188090502D5A3
:1005A0000F4A7A4402E00E4A7A440E32002104F1E6
:1005B000240305E000F00F060009965D5E54491C17
:1005C0000028F7D120780023000704D5702D02D031
:1005D00009B1022311322046BDE8704000F08BB90A
:1005E0000ACC00002DE9F05F894604464FF0000A6E
:1005F000DFF874B1FB44C0F820A02046E1688847CA
:10060000002874D0252806D0D4E901219047206A1B
:10061000401C2062F1E700265F462046E1688847DB
:100620002028054607DB312D05D2781910F8200C5B
:1006300008B10643F1E7B00701D526F00406C4F877
:100640001CA00027C4F818A02A2D09D0284608F0BD
:100650002FFD38B304EB8708303DC8F8185019E077
:1006600059F8041B204604EB87029161E168884732
:10067000012F054618D1E069002820DA26F020066F
:100680001DE0D8F8180000EB800005EB4000303882
:10069000C8F818002046E1688847054608F008FDBC
:1006A0000028EED1012F0AD02E2D08D12046E16876
:1006B00088477F1C0546022F46F02006C4DBA06950
:1006C000002803DA404246F00106A061F00701D09D
:1006D00026F010066C2D0BD0682D09D04C2D39D08A
:1006E0006A2D35D0742D35D07A2D33D016E038E010
:1006F000E1682F4620468847B842054609D16C2F4D
:1007000026D04FF48060E1680643204688470546BE
:1007100004E06C2F1AD04FF4807006430DB3A5F19E
:100720004100192802D8203546F400664A46294679
:10073000204626604E46FFF761FD80B101280BD0B0
:10074000F61D26F0070000F1080956E74020E4E70F
:100750008020D8E70020D6E706F104094DE72846B7
:1007600052E7206ABDE8F09FE0CB000010B5431CC3
:1007700002E010F8011B71B18107FAD14FF001328C
:1007800002C88C1A8C4314EAC211F9D0C01A0A06A6
:1007900003D0C01E10BDC01A10BD0A0401D0801EB7
:1007A00010BD0902FCD0401E10BD4FF0000200B584
:1007B000134694469646203922BFA0E80C50A0E884
:1007C0000C50B1F12001BFF4F7AF090728BFA0E832
:1007D0000C5048BF0CC05DF804EB890028BF40F8FE
:1007E000042B08BF704748BF20F8022B11F0804F40
:1007F00018BF00F8012B7047704770477047000022
:1008000070B5064C7C44064D7D4403E020682044CE
:100810008047241DAC42F9D170BD00001CD20000FD
:100820001CD20000004870472C6800200048704728
:100830003068002070B5064600F034F9056806F10E
:100840000B0020F00704B4429CBF002070BD2B4673
:100850006A68BAB11068A04210D304F10801884256
:100860003CBF5068586007D3516810194160116847
:10087000091B016058601460101D70BD134652685A
:10088000002AE7D12146284600F018F90028DED1D9
:1008900070BD70B50446051F00F004F90068002C17
:1008A00014BF446870BD002C18BFAC423CBF20464A
:1008B0006468F8D301680A18AA4218BF456003D1DA
:1008C0002A6805461144016028684119A1421CBFED
:1008D0006C6070BD6168696021680844286070BD03
:1008E00010B500F0E3F8006810BD10B5044600F044
:1008F000DDF8046010BD2DE9F0470D46994692469B
:10090000044600F124080168880604D5E06921F056
:100910001001216000E00120A84201DD471B00E03A
:100920000027A1697A1902EB0900081AA061207852
:10093000C00602D42046FFF703FD002608E0D4E9F4
:1009400001211AF806009047206A401C761C20629C
:100950004E45F4DB2078C0060AD52046FFF7F0FCB0
:1009600006E0D4E9012130209047206A401C206233
:10097000381EA7F10107F4DC07E0D4E9012118F8DB
:1009800005009047206A401C2062281EA5F1010541
:10099000F3DC2046FFF7EAFC2078000602D50220AF
:1009A000BDE8F0870120FBE701694A1C0261087875
:1009B000704700B58FB0CDE901310021059105499F
:1009C0007944CDE9031011466846FFF70BFE0FB0DE
:1009D00000BD0000E5FFFFFF0A6802F8010B0A6096
:1009E000704710B5436913B1AFF3008001E0FFF722
:1009F000E0FC012010BD127800F124010A700022F1
:100A00004A700122EDE711684FF0FF32E9E710B5B7
:100A1000436913B1AFF3008001E0FFF72FFD012020
:100A200010BD128800F1240182840022C2840122B8
:100A3000EDE711684FF0FF32E9E770B516460C4656
:100A4000054600F027F8036893F80101012806D055
:100A5000FF2C0FD8185D68B101202C7070BDD3F841
:100A600007013246214603F2071303442846BDE836
:100A7000704018474FF0FF3070BD10B500F06EF8B1
:100A8000BDE8104000F064B800F080B8004870473E
:100A9000F867002010B500F0DBF8001D10BD00BFA6
:100AA00059860000004870470068002000487047E1
:100AB000F8670020704770477047704738B50446A4
:100AC0000A4600206946AFF30080002808BF38BD01
:100AD00002460099204600F0C3F8012038BD0120ED
:100AE00000F0FFB8F8B5AFF30080054600200C46D3
:100AF000102000BF0646A819A0420DD9324669460B
:100B00000020AFF30080070008BF00F0EAF800986B
:100B1000A04218BF0546C419FFF7C4FF0560074689
:100B2000F01D20F007004619284600F00AF8B442EC
:100B300008BFF8BDA21B31463868BDE8F84000F098
:100B40008FB800210160C0E9011070471020704784
:100B5000002801D000F050B87047000010B5002107
:100B600002A000F0A5F8012010BD00005349475035
:100B700056464E3A205075726520766972747561DA
:100B80006C20666E2063616C6C65640010B500F0CB
:100B90000EF8016919B100220261884701E08068FE
:100BA000804700F07DF8000010B500F079F870B5CE
:100BB00000F052F804680546A4B92020FFF73AFE79
:100BC000040011D0094900202C60C4E90001084943
:100BD000A1602073206160610649A06109B100F045
:100BE00087F8E061204670BD00F05AF80000000070
:100BF000A90B03080000000001491820ABBEFEE766
:100C0000260002007546FFF741FFAE460500694623
:100C1000534620F00700854618B020B5FFF740FB8B
:100C2000BDE820404FF000064FF000074FF00008ED
:100C30004FF0000B21F00701AC46ACE8C009ACE86E
:100C4000C009ACE8C009ACE8C0098D467047000097
:100C5000004870471868002000487047346800203A
:100C6000034640688C46002818BF88423CBF0346B4
:100C70004068F8D318681844884207D00CF1030084
:100C800020F00700001D411A521A0146081D0A6093
:100C9000FFF7FFBD0446AFF300802046FFF7EBFAF5
:100CA000002000F04BF8FFF7D8FA0120FFF7A4FF6F
:100CB00070B505460C460A2000E06D1C00F036F8C1
:100CC00035B128780028F8D102E0641C00F02EF835
:100CD00014B120780028F8D1BDE870400A2000F057
:100CE00025B810B500F032F8BDE81040FFF730BF6E
:100CF00010B58820FFF79EFD002801D0002101706B
:100D000010BD802902D808B1017809B100207047D0
:100D1000012100F8081B704718B100F10802914248
:100D200001D00020704700210170704708B5694666
:100D30008DF800000320ABBE08BD704710B500F071
:100D40006DF8BDE81040FFF703BF000010B50128A3
:100D500005D0002103A0FFF7ABFF012010BD09A1C2
:100D6000F8E7000053494752544D454D3A204F751E
:100D700074206F662068656170206D656D6F727993
:100D8000000000003A2048656170206D656D6F724B
:100D90007920636F72727570746564004FF0013C66
:100DA00050F8042B51F8043B9A4221D1A2EB0C03DA
:100DB000934313EACC1317D150F8042B51F8043B9A
:100DC0009A4215D1A2EB0C03934313EACC130BD137
:100DD00050F8042B51F8043B9A4209D1A2EB0C03C2
:100DE000934313EACC13DBD04FF00000704700BFF1
:100DF000D01A01BAB1FA81F101F0180122FA01F01A
:100E0000CB40C1F12001DBB2C0B2C01A2CFA01F311
:100E1000D11A914311EAC311E6D1704710B50021F0
:100E200002A0FFF745FF012010BD000053494741D4
:100E30004252543A2041626E6F726D616C2074654B
:100E4000726D696E6174696F6E000000F0B50268C2
:100E5000867902F01F040121384B01FA04F422F0D4
:100E60001F05002E63D0364A1544D5F80064A6430A
:100E7000C5F80064056825F01F041444D4F8046420
:100E800005F01F0501FA05F5AE43C4F804640568D2
:100E9000047925F01F061E443444266805F01F051A
:100EA00001FA05F52E432660056825F01F04144459
:100EB000D4F8086405F01F0501FA05F5AE43C4F83F
:100EC0000864046824F01F051544D5F80C6404F088
:100ED0001F0701FA07F4A643C5F80C644479102CE7
:100EE0000BD0026822F01F0018442044036802F06F
:100EF0001F0291400B430360F0BD046824F01F0300
:100F00001344D3F8085404F01F0401FA04F42543F1
:100F1000C3F80854036823F01F001044D0F80C24D1
:100F200003F01F0399400A43C0F80C24F0BD007978
:100F3000E91808440168A1430160F0BD00040140C4
:100F400000000140F0B50022012603240D6806FAD6
:100F500002F31D409D422BD10D79012D01D0022DB0
:100F600013D18768550004FA05FC27EA0C0787604F
:100F70004F79AF4085682F43876085889D43858082
:100F800085888B7993401D4385800568570004FA56
:100F900007F39D4305600D79D0F800C0BD4045EAD8
:100FA0000C050560C5689D43CB79BB402B43C360EE
:100FB000521C102ACAD3F0BD4B07DB0E9A40C90859
:100FC00010B500EB8100016A0F249C40A14301622F
:100FD000016A1143016210BD02460020128A0A42D2
:100FE00000D0012070470AB18161704701857047C8
:100FF0002DE9F74FDFF8D4A182B05446DFF8D08155
:101000000298C4E90A01D8F800001546474601696C
:1010100002988847064629466E4806F075FAAAF5F2
:1010200080796D496B48C9F8045006F021FB6A4984
:101030006848A83106F01CFB6849664806F018FBB2
:1010400066496448A83106F013FB6549614806F01B
:101050000FFB63495F48A83106F00AFB61495D4810
:1010600006F006FB002589F800503868294602681A
:10107000A06A9047C0B20090386800221146836889
:10108000A06A9847386803210268A06A9047C0B2F6
:101090000127554C012824D0277000214F48A83043
:1010A00005F0BAFE6570A770AB46DAF82C00B946B9
:1010B000554628B3D8F8001047460A681C219047C7
:1010C00000F0FF0A38681D210268E86A9047C7B23D
:1010D000A86A03F0C3FE454A0146002052F82110D9
:1010E0000BE025700121D9E7524500D160700A5C00
:1010F000BA4200D1A070401CC0B20A5CFF2AF3D1F2
:1011000084F803B084F804B084F805B084F806B01D
:1011100084F807B084F808B084F809B084F80AB0FD
:1011200084F80BB0D8F8000001225F4683680021E4
:10113000A86A9847D8F8000003210268A86A904777
:10114000C0B201283CD084F80C9000BFD8F8000051
:101150000021009A8368A86A9847677384F80E9004
:10116000E77327746774A774E77427756775A775A5
:10117000E775029800F04CF816491D48C1F80C01BB
:101180000021144806F0E2F90920B0EB167F19D0CF
:10119000C6F30360092815D000211148A83005F0D6
:1011A0003BFE0A20B0EB167F0ED0C6F303600A2880
:1011B0000AD0002105B00B48BDE8F04F05F02CBE69
:1011C0002773C3E70121E8E70121F3E70461002069
:1011D000F47F0020A8610020B8620020086400208D
:1011E00058650020A8660020E06700204CB3030883
:1011F0005D50030810B5054C204606F0EBF904F5E8
:101200008270BDE8104006F0B9BF0000A861002060
:1012100070B5134C0646002120680268304690479E
:10122000C5B22068002211468368304698470021E5
:10123000304603F045FF20680122002183683046D4
:10124000984700280BD00121304603F039FF206871
:101250002A46002183683046BDE87040184770BDBB
:10126000F47F00202DE9F14FFF4D0527DFF8FC83C7
:10127000FF4EDFF8009484B0002405F1910A306835
:10128000295D02681AF801100498904799F8003017
:1012900008EB83122B5D641CE4B222F81300BC42FD
:1012A000EDD3F14D01270024ED1E05F1010A306850
:1012B000295D02681AF8011004989047EB4999F8E3
:1012C0000020103901EBC2012A5D641CE4B241F830
:1012D0002200BC42EBD399F800004D4600EB4001E0
:1012E000E2488030012410F82100E8BB3068082172
:1012F0000268049890472978474608EB8111888254
:1013000030680C210268049890472A7800B207EBF5
:10131000821102EB4203D54A0883803202EB83023A
:10132000D278012A35D1B1F9142002B9F0B312FBF9
:1013300002F110FB001000EE100AB8EEC00A06F031
:101340008EFFBDEEC00A287810EE101A07EB801051
:101350008187B0F91810B0F9140000EE101AF8EEF9
:10136000C00A00EE100A00E01DE0B8EEC00A06F068
:1013700078FFDFEDC10A20EE200ADFEDC00A2978F0
:1013800080EE201A07EB8111BDEEC10A10EE100AA3
:10139000C887B8498031486B08B180F82040086C94
:1013A00008B180F82040B046306800E01EE00268D6
:1013B00001210498904787B2060CE86B4CF2186B39
:1013C00050B307B1B6B1AE4805F0ACFDE96B884249
:1013D00002D1AB4805F00BFEE86B428B5A451BD09F
:1013E000A0F81AB0002105F0E6FC12E00020888782
:1013F0005A20CDE700214183012105F0DCFCA04803
:1014000005F090FDE96B884203D000219C4805F06F
:1014100095FDE86B80F82040D8F80000DFF8649272
:1014200000210268D9F828009047C0B20290D8F88D
:101430000000002211468368D9F828009847D8F8A0
:10144000000001210268049890478246D8F8000005
:101450000221026804989047C0B201901FFA8AF9ED
:10146000686F4FEA1A4AE0B1B9F1000F02D0BAF141
:10147000000F30D08248A83005F054FD696F8842D3
:1014800003D17F48A83005F0B2FD686F428B5A4502
:1014900007D0A0F81AB0002105F08DFC686F80F825
:1014A00020407448006F28B359EA0A0117D07448E5
:1014B000A83005F037FD6F4D296F884203D1704881
:1014C000A83005F094FD286F428B5A4512D0A0F841
:1014D0001AB0002109E0002141830121DCE7654DBC
:1014E000418B39B100214183012105F064FC286F53
:1014F00080F820405E4D0122002128688368614801
:10150000806A9847286801210268049890478046BD
:1015100028680221026804989047C0B2009055489C
:101520001FFA88F54FEA1848C06FE8B115B1B8F155
:10153000000F34D05248A83005F0F4FC4D49C96F73
:10154000884203D14E48A83005F051FD494AD06F7A
:10155000438B5B4508D0A0F81AB0002105F02BFCA6
:101560004448C06F80F820404248806F30B355EA4D
:10157000080118D04248A83005F0D4FC3D49896FD5
:10158000884203D13E48A83005F031FD394A906FBA
:10159000438B5B4512D0A0F81AB0002108E000216F
:1015A00041830121DAE7428B42B1002141830121CD
:1015B00005F001FC2F48806F80F820402C48002166
:1015C000029A006883682F48806A984749EA0A0AA5
:1015D0004AEA050050EA08003AD02B49B1F8000168
:1015E00001280AD08946022832D00121264805F078
:1015F000ADFFB9F8000101282AD1DFF8789099F8F9
:10160000000018B14D46012809D019E055EA080537
:1016100016D0B9F802004D46A8B9012105E0BAF18B
:10162000000F0DD0688870B90021A86806F0BBFBD8
:101630000021084604F0FAFBA868002180F8231076
:10164000B9F8021011B3B9F80210491EA9F8021036
:10165000084D8035286890B3DDE9002111437DD025
:101660000199062914D015E0E7B20308606700204D
:10167000F47F00200460002000003443C3F548409C
:101680006063002004610020A86100201E21DDE7C6
:10169000062A63D0824805F045FC2968884202D1B9
:1016A0007F4805F0A4FC2868428B5A4507D0A0F873
:1016B0001AB0002105F07FFB286880F82040DFF891
:1016C000E48100217B0698F8000000EB4002764898
:1016D00000EB82004FF00202417100D542717306A7
:1016E00000D544718171FB0600D58271F30600D5E7
:1016F0008471C171BB0600D5C271B30600D5C47137
:101700000172FB0700D00272F30700D004723B069F
:1017100000D50272330600D5047241727B0700D5F2
:101720004272730700D544728172BB0700D5827282
:10173000B30700D58472C172390700D5C272310770
:1017400000D5C472D8F83C10F1B3D8F82020437902
:101750005649568B31F813309E4200E098E002D093
:10176000538382F82040D8F8243082795E8B31F898
:101770001220964202D05A8383F82040D8F82820BD
:10178000C379568B31F813309E4202D0538382F8CE
:101790002040D8F82C20037A568B31F813309E4223
:1017A00002D0538382F82040D8F83020437A568BF9
:1017B00031F813309E4202D0538382F82040D8F88B
:1017C0003420837A568B00E011E031F813309E42CA
:1017D00002D0538382F82040D8F83820C07A538B47
:1017E00031F81000834202D0508382F82040D8F8AC
:1017F000180008B180F82040D8F81C0008B180F823
:1018000020402B48C06908B180F82040686A08B1C0
:1018100080F82040A86B08B180F82040686C08B1BF
:1018200080F82040234D00212868026804989047E2
:10183000C7B2286800221146836804989847286830
:101840001E21026804989047174E0122903E002105
:101850007060286883680498984758B128681E21EA
:10186000026804989047F06028683A46002183682F
:1018700004989847D8F8480008B180F82040D8F874
:101880006000002801D080F8204005B0BDE8F08F4E
:10189000418B00293FF413AF00214183012109E767
:1018A0000864002004600020E0670020ECB2030818
:1018B00004610020F47F002070B506461148002422
:1018C000406847281CD040F23F11002000F0B4FAD5
:1018D00000F022FE4FF49635304600F0F3FD641C14
:1018E000AC42F9D3084C8021204600F027FF0028A5
:1018F000F9D1BDE8704001221146044800F026B835
:101900000021E2E734610020003800400010004868
:101910001CB50121480500F0A1FE032101208DF82E
:10192000051000908DF8040000208DF80600064C8C
:101930008DF8070069462046FFF704FB0122114697
:10194000204600F003F81CBD00100048FFF74BBB19
:10195000203AD3B2084A30B45468472C03D1A1F2DC
:101960003F11494289B292681468D2885A4304EB05
:10197000420230BC00F002B8346100202DE9F74F7C
:10198000904600270646019900F056FA1C4C31E0BB
:1019900000F0C2FD00254FF00C094FF0800A4FF017
:1019A000010B17E0B0FBF9F1CA000AFA02F138F8AE
:1019B00017202941114201D10C2805D90BFA05F154
:1019C0000A4203D10C2801D9608800E0208800F089
:1019D00079FD6D1CA0688088A842E3D801221146D9
:1019E0000848FFF7B3FF761CF6B23046019900F0C5
:1019F00023FA7F1CA068C088B842C9D8BDE8FE8F12
:101A000034610020001000482DE9F74F82B0002615
:101A100004469246ADF80060ADF8046001A968463E
:101A200000F092F8A0462046039900F005FA49F22A
:101A3000203945F2084B1D4D31E06968494502D017
:101A40006968594501D100F067FD00240127B740BE
:101A50000DE000BF3AF81400384202D1BDF804008E
:101A600001E0BDF8000000F02DFD641CE4B2A868A0
:101A70008088A042EED86968494502D06968594516
:101A800004D1012211460A48FFF760FF08F1010066
:101A9000C0B28046039900F0CFF9761CF6B2A86870
:101AA000C088B042C9D805B0BDE8F08F34610020CD
:101AB000001000482DE9F047204D8A469946696894
:101AC000164680460024AAF23F104742472907D015
:101AD0005146404600F0B0F9B9F1000F02D027E0BE
:101AE000B9B2F6E700F018FD03E0288800F0EAFC40
:101AF000641CB442F9D3124C8021204600F01EFE33
:101B00000028F9D1BDE8F047012211460D48FFF742
:101B10001DBF288800F0F0FC08F1010000F0FF086C
:101B20006868472808D05146404600F085F9641C93
:101B3000B442EED3BDE8F087B9B2F5E734610020D6
:101B40000038004000100048024A13880380508883
:101B500008807047346100200148806870470000A9
:101B600034610020012070472DE9FF4F81B0A1F2C0
:101B70003F11DDF838801F4602EB080084B248426E
:101B800080B200900026E0B2009900F055F949F2C9
:101B9000203A45F2084BDFF888902DE04168514526
:101BA00003D0D9F80410594506D141F208010320A9
:101BB00000F0BCFC00F0B0FC002507E006FB07517C
:101BC000019830F8110000F07DFC6D1CBD42F5D38A
:101BD000D9F804204846524502D04168594504D1FD
:101BE000012211460F48FFF7B1FE641EA4B2E0B215
:101BF000009900F021F9761C46454846CED342684C
:101C0000524502D04168594507D105B041F218014B
:101C1000BDE8F04F032000F089BC05B0BDE8F08FAF
:101C2000346100200010004870B53D4C002521882B
:101C300021F038012180218841F0080121803949B3
:101C4000496847294AD000F099FC732000F0BCFC99
:101C5000FF21204600F0C2FD8021204600F06EFDED
:101C60000028F9D10121204600F068FD0028F9D0B4
:101C7000204600F0A9FD6D1CEDB2052DE8D3FF2133
:101C8000204600F0ABFD8021204600F057FD0028E3
:101C9000F9D10121204600F051FD0028F9D0FF21A3
:101CA000204600F09BFD8021204600F047FD0028E3
:101CB000F9D10121204600F041FD0028F9D020464D
:101CC00000F043FD0546012211461748FFF73EFE8E
:101CD000208820F038002080284670BD00F04EFC9F
:101CE000732000F071FC05E00221204600F026FD83
:101CF0000028F9D08021204600F020FD0028F3D1F3
:101D0000FF21204600F06AFD0121204600F016FD6B
:101D10000028F9D02046BDE8704000F055BD000015
:101D20000038004034610020001000482DE9F041E7
:101D300088B001214FF4880000F090FC012144F2AA
:101D4000010000F0AFFC01218F03384600F092FC47
:101D500003208DF8190002268DF818600024DFF8A2
:101D6000A4807D118DF81A4005958DF81B4005A9BA
:101D70004046FFF7E7F80597234F05A93846FFF7D8
:101D8000E1F8A801059005A93846FFF7DBF8052220
:101D900009214046FFF710F905220E213846FFF7CA
:101DA0000BF905220F213846FFF706F9174F384681
:101DB00000F09AFCADF800404FF48270ADF80200DC
:101DC0004FF4E060ADF804000120ADF808000820F1
:101DD000ADF80C000720ADF81000ADF80660ADF8C6
:101DE0000A50ADF80E406946384600F0B0FCE900F4
:101DF000384600F0EBFC0121384600F06BFC08B0DF
:101E0000BDE8F0810014004800040048003800409C
:101E100001B5BDF800000149488008BD34610020CB
:101E200003B5BDF8001003480180BDF804104180DF
:101E30000CBD00003461002070B505460E480C460C
:101E40004068472809D02946202000F06FFB214632
:101E50002120BDE8704000F069BB0021062000F0A1
:101E600065FB2946072000F061FB210A022000F0F3
:101E70005DFBE1B20320ECE734610020014988609A
:101E8000704700003461002001B5BDF80000014931
:101E9000088008BD346100202DE9F05FFFF738FDB0
:101EA000FFF744FFFE4C60684FF48076A0F51341C5
:101EB0004FF4E06741F2300840F2022940F2023A62
:101EC00040F23F154FF4887B203908D06068A0F5B8
:101ED000A84108397ED0606847287CD0EBE2052015
:101EE00007F0EDF84FF40041E52000F01FFB012161
:101EF000002000F01BFB3146012000F017FB3946A3
:101F0000022000F013FB4146032000F00FFB0021EC
:101F1000042000F00BFB4946082000F007FB0021DD
:101F2000092000F003FB00210A2000F0FFFA002145
:101F30000C2000F0FBFA00210D2000F0F7FA002140
:101F40000F2000F0F3FA0021102000F0EFFA00213A
:101F5000112000F0EBFA0021122000F0E7FA002136
:101F6000132000F0E3FA142007F0A9F841F2B07151
:101F7000102000F0DBFA40F23711112000F0D6FA01
:101F8000052007F09CF840F23911122000F0CEFA3B
:101F9000052007F094F84FF4E851132000F0C6FA3A
:101FA0001321292000F0C2FA052007F088F800214B
:101FB000202000F0BBFA0021212000F0B7FA062112
:101FC000302000F0B3FA40F20111312000F0AEFAF7
:101FD000032101E079E074E1322000F0A7FA4FF428
:101FE0008371352000F0A2FA40F60231362000F06D
:101FF0009DFA5146372000F099FA40F207713820D7
:1020000000F094FA0721392000F090FA4FF4C061F3
:102010003C2000F08BFA40F20B213D2000F086FAC4
:102020000021502000F082FAEF21512000F07EFACA
:102030000021522000F07AFA2946532000F076FA67
:102040004FF41C51602000F071FA0121612000F072
:102050006DFA00216A2000F069FA0021802000F06A
:1020600065FA0021812000F061FA0021822000F051
:102070005DFA0021832000F059FA0021842000F04D
:1020800055FA0021852000F051FA1021902000F02F
:102090004DFA0021922000F049FA0321932000F02C
:1020A00045FA5946952000F041FA0021972000F0AA
:1020B0003DFA0021982000F039FA41F2180103207E
:1020C00000F034FA40F27311F9E043F20801E32022
:1020D00000F02CFA1221E72000F028FA41F2312119
:1020E000EF2000F023FA3146012000F01FFA3946B4
:1020F000022000F01BFA4146032000F017FA0021ED
:10210000042000F013FA4946082000F00FFA0021DD
:10211000092000F00BFA00210A2000F007FA002144
:102120000C2000F003FA00210D2000F0FFF900213F
:102130000F2000F0FBF90021102000F0F7F900213A
:10214000112000F0F3F90021122000F0EFF9002136
:10215000132000F0EBF9142006F0B1FF0721112045
:1021600000F0E4F9052006F0AAFF41F2B0211020AA
:1021700000F0DCF9052006F0A2FF40F2BD111220AC
:1021800000F0D4F9052006F09AFF4FF4A051132077
:1021900000F0CCF90E21292000F0C8F9052006F046
:1021A0008EFF0021202000F0C1F92946212000F0F7
:1021B000BDF90721302000F0B9F95146312000F077
:1021C000B5F940F205163146322000F0AFF940F281
:1021D00006273946352000F0A9F940F6080841469F
:1021E000362000F0A3F93946372000F09FF940F27D
:1021F0000451382000F09AF90721392000F096F9AF
:1022000031463C2000F092F941463D2000F08EF925
:102210000021502000F08AF9EF21512000F086F9CA
:102220000021522000F082F92946532000F07EF967
:102230004FF42741602000F079F90121612000F07E
:1022400075F900216A2000F071F90021802000F06A
:102250006DF90021812000F069F90021822000F051
:1022600065F90021832000F061F90021842000F04D
:102270005DF90021852000F059F91021902000F02F
:1022800055F90021922000F051F90321932000F02C
:102290004DF95946952000F049F90021972001E0B9
:1022A0003461002000F042F90021982000F03EF94E
:1022B00041F21801032000F039F94FF48971072029
:1022C000F7E00021EA2000F031F92021EB2000F0B6
:1022D0002DF90C21EC2000F029F9C421ED2000F0AB
:1022E00025F94021E82000F021F93821E92000F00B
:1022F0001DF90121F12000F019F91021F22000F060
:1023000015F9A321272000F011F90121402000F048
:102310000DF90021412000F009F90021422000F0D0
:1023200005F91021432000F001F90E21442000F0AE
:10233000FDF82421452000F0F9F80421462000F0A2
:10234000F5F85021472000F0F1F80221482000F074
:10235000EDF81321492000F0E9F819214A2000F096
:10236000E5F819214B2000F0E1F816214C2000F08F
:10237000DDF81B21502000F0D9F83121512000F068
:10238000D5F82F21522000F0D1F83F21532000F042
:10239000CDF83F21542000F0C9F83E21552000F02F
:1023A000C5F82F21562000F0C1F87B21572000F0FE
:1023B000BDF80921582000F0B9F80621592000F095
:1023C000B5F806215A2000F0B1F80C215B2000F08E
:1023D000ADF81D215C2000F0A9F8CC215D2000F0B3
:1023E000A5F81B21084600F0A1F801211A2000F0F1
:1023F0009DF82F21242000F099F85721252000F086
:1024000095F88621232000F091F83621182000F05D
:102410008DF80121192000F089F806211C2000F018
:1024200085F806211D2000F081F890211F2000F082
:102430007DF80121272000F079F80A2006F03FFE00
:102440000521172000F072F80921362000F06EF8FF
:102450003821282000F06AF83C2006F030FE3C21AC
:10246000282000F063F80021012000F05FF800212F
:10247000022000F05BF80021032000F057F8012152
:10248000042000F053F83F21052000F04FF8002110
:10249000062000F04BF80021072000F047F800214B
:1024A000082000F043F8EF21092000F03FF8E02178
:1024B000162000F03BF80248A060BDE8F09F000045
:1024C0004061002070B50B4D0446010A284600F01B
:1024D00085F98021284600F031F90028F9D1E1B2D0
:1024E000284600F07BF98021284600F027F90028D3
:1024F000F9D170BD0038004010B5044600F00CF86A
:102500002046FFF7DFFF0122BDE8104011460148D9
:10251000FFF71CBA0010004810B5222000F02EF87A
:10252000BDE81040722000F04FB8000070B50C46B6
:1025300000F024F8722000F047F80E4D210A2846DA
:1025400000F04CF98021284600F0F8F80028F9D175
:10255000E1B2284600F042F98021284600F0EEF86A
:102560000028F9D1BDE87040012211460248FFF76A
:10257000EDB90000003800400010004870B5054675
:10258000702000F021F80E4C0021204600F026F9C2
:102590008021204600F0D2F80028F9D129462046B3
:1025A00000F01CF98021204600F0C8F80028F9D17D
:1025B000BDE87040012211460248FFF7C7B900008C
:1025C000003800400010004810B5044600220121E8
:1025D0000748FFF7BBF92146064C204600F0FEF8FD
:1025E0008021204600F0AAF80028F9D110BD000093
:1025F000001000480038004070B50F23C4780178FF
:102600000122F4B1144C2468457804F4E064C4F564
:10261000E064240AC4F10406E3408478B5401C4019
:102620002C4301F1E021230181F80034007800F00F
:102630001F018A404009800000F1E020C0F800211D
:1026400070BD01F01F0082404809800000F1E020C9
:10265000C0F8802170BD00000CED00E0044A0029A4
:10266000516901D0014300E081435161704700008E
:1026700000100240044A0029D16901D0014300E062
:102680008143D1617047000000100240044A0029D4
:10269000116901D0014300E08143116170470000DE
:1026A00000100240044A0029916901D0014300E072
:1026B000814391617047000000100240044A0029E4
:1026C000D16801D0014300E08143D1607047000030
:1026D000001002400029018802D041F0400101E0D1
:1026E00021F0400101807047114910B588420AD19C
:1026F000841401212046FFF7E1FF2046BDE8104089
:102700000021FFF7DBBF0B49884202D101210414ED
:1027100004E0094988420AD10121C4132046FFF789
:10272000B5FF2046BDE810400021FFF7AFBF10BD48
:102730000030014000380040003C004002460020CC
:1027400012890A4200D0012070478089704730B555
:102750004A88B2F5827F1ED0828822F470638A880C
:102760001A43828002880C8902F44153CA888D89F9
:1027700022434C892C43CD892C4322430C884D881D
:102780002C4322431A430280828B22F4006282830C
:10279000098A018230BD02880C8902F44153CA883B
:1027A0008D8922434C892C43CD892C4322430C88AC
:1027B00044F4827422431A430280828822F47063B4
:1027C0008A881A438280DFE7007B7047828822F480
:1027D0008052828082880A438280704701737047EA
:1027E00038B500200090FFF757FB0020FFF71CFAD8
:1027F0000146009045F20840074C814204D049F25E
:102800002030814200D047206060FFF745FB02483E
:102810000C30A06038BD00003461002010B50021EC
:10282000062000F025F80021042000F021F8002106
:10283000052000F01DF80021022000F019F8002109
:10284000BDE81040032000F013B8000048B1401E5E
:102850000549C0B2054A31F8101052F82000FEF7C1
:10286000BBBBFF207047000050C803086461002014
:1028700070B586B00D46002848D0401EC4B224482A
:10288000012150F82400FFF7E9FE01210846FFF777
:1028900009FF00268DF8106002208DF813001C48F7
:1028A00003A90C3830F8140003901A4850F824009B
:1028B000FEF748FB012D29D115483238015D801FF4
:1028C000005D00F029F812481830012C30F814008F
:1028D00000908DF8046001D0082000E00C208DF8F5
:1028E000050001258DF806506846FEF7AFFA084846
:1028F0002C38005D8DF808000F208DF809008DF848
:102900000A008DF80B5002A8FFF776FE06B070BDE6
:102910005CC803086461002010B58A0721F0030435
:102920000649130F21440F228C689A4094438C600F
:102930008A68984002438A6010BD00000000014090
:102940000CB50021214801910091026842F48032C7
:1029500002604FF4A043026802F400320092019A30
:10296000521C0192009A12B9019A9A42F3D102685C
:10297000920329D50121164A009112211160416864
:10298000416041684160416841F480614160416853
:1029900021F47C114160416841F4E8114160016813
:1029A00041F08071016001688901FCD5416821F026
:1029B00003014160416841F0020141604168C1F397
:1029C00081010229FAD10CBD00910CBD001002401A
:1029D00000200240174810B5016841F47001016001
:1029E000154C206840F001002060606813490840E1
:1029F00060602068124908402060206820F4802030
:102A00002060606820F4FE006060E06A20F00F0043
:102A1000E062206B0B49084020630020A060FFF7B4
:102A20008FFF0449E00380390860606940F040008E
:102A3000606110BD88ED00E0001002400CC07FF81E
:102A4000FFFFF6FECCFC00FF2DE9FE4F282005F02D
:102A50000FFC0321009105233B4A3CA105F0CCFB70
:102A60008246282005F004FC1E2100910523364AE9
:102A700039A105F0C1FB8146282005F0F9FB3C2176
:102A800000910523304A3EA105F0B6FB8046282080
:102A900005F0EEFB4B21009105232B4A41A105F0E7
:102AA000ABFB0746282005F0E3FB5A2100910523E4
:102AB000254A45A105F0A0FB0646282005F0D8FBD5
:102AC000B42100910523204A48A105F095FB054655
:102AD000282005F0CDFB7321009105231A4A4B49AC
:102AE00005F08AFB04465146174804F0ECF94946C4
:102AF000154804F0E8F94146134804F0E4F9394672
:102B0000114804F0E0F931460F4804F0DCF9294699
:102B10000D4804F0D8F921460B4804F0D4F92820D8
:102B200005F0A6FB08499623F7228DE80E003849E8
:102B30002C234822096803F0FFFC03B00146BDE8DE
:102B4000F04F014804F0BFB9B862002048656C70CE
:102B5000205061676500000055736520746865202A
:102B60006A6F79737469636B20746F20776F726B0F
:102B70002077697468204C43442047554900000081
:102B80002D55502F444F574E20746F206D6F766532
:102B9000206265747765656E20636F6E74726F6C0A
:102BA000730000002D4C4546542F5249475448208D
:102BB000746F206D6F7665206265747765656E2031
:102BC00070616765730000002D53454C20746F20C1
:102BD000696E7465726163742077697468207468C3
:102BE0006520636F6E74726F6C000000436F7079C4
:102BF00072696768742053544D6963726F656C65C0
:102C00006374726F6E69637300000000F2B20308B0
:102C1000006000202DE9F04F87B00021FE4804F04D
:102C2000FBF8282005F024FB0021FB4A0B4600910D
:102C3000A832FAA105F0E0FA8046282005F018FB3A
:102C40001421F54A00910A23A832FAA105F0D4FA1A
:102C50000746382005F00CFB2121EF4A00910A239A
:102C6000A832F64905F0DAF9F54CA060282005F005
:102C7000FFFA1421E84A00916423A832F1A105F07B
:102C8000BBFA0646382005F0F3FA21210091E24A0A
:102C9000EA496423A8320C3105F0C0F9E06028202D
:102CA00005F0E6FADFF87093352309F1A8090A2147
:102CB000CDF80090CDE901133C239B22E4A105F05F
:102CC000F9F90546282005F0D3FA112100910F23C8
:102CD0002A46E4A105F090FA0490282005F0C8FAED
:102CE000252100910F232A46E1A105F085FA0590E0
:102CF000382005F0BDFA6E22CDE900524FF00F0AE0
:102D0000CDF808A0227809F5806B0BEB8211032324
:102D1000DAA203F031FFA061382005F0A9FA2321DF
:102D20006E220095CDE90121227803230BEB82115D
:102D3000D2A2891C03F020FFE061282005F098FA58
:102D40001422CD23CDF80090CDE90132AA236422CC
:102D5000CBA105F0AFF90390282005F089FA0523EF
:102D6000CDF800A0C8A1039A05F046FA20622820F9
:102D700005F07EFA212100910523C6A1039A05F0F2
:102D80003BFA6062282005F073FA33210091052395
:102D9000C3A1039A05F030FAA062282005F068FA72
:102DA000452100910523C1A1039A05F025FAE062AF
:102DB000282005F05DFA572100910523BEA1039A52
:102DC00005F01AFA2063282005F052FA69210091D3
:102DD0000523BCA1039A05F00FFA6063282005F0D3
:102DE00047FA7B2100910523B9A1039A05F004FA63
:102DF000A063302005F03CFA8D2100910A23B7A191
:102E0000039A03F0AFFCB849E06341624CF21861E9
:102E10004183002103F0CFFF4846E16B04F053F8F3
:102E20004146484604F04FF83146484604F04BF816
:102E30003946484604F047F84846A16804F043F88C
:102E40002178A06804F0AFFFA168A848486248460E
:102E5000E16804F038F8207809F5906600EB40004E
:102E600016F82010E06804F09EFFA14804F5807772
:102E700000680169B86A8847C0067AD5282005F03D
:102E8000F7F973230A21CDF80090CDE901133C2313
:102E9000BE2298A105F00EF98046282005F0E8F939
:102EA000112100910523424696A105F0A5F982461D
:102EB000282005F0DDF9252100910523424692A145
:102EC00005F09AF98146382005F0D2F90190B86AE8
:102ED00001F0C4FFDFF864B121230BF1180B424667
:102EE0005BF820100F200090019805F097F8206102
:102EF000382005F0BDF90190B86A01F0AFFF5BF82A
:102F000020102320009021234246019805F086F8E6
:102F100060614146A6F5906003F0D5FF5146A6F5E5
:102F2000906003F0D0FF4946A6F5906003F0CBFF18
:102F3000A6F59060216903F0C6FFA6F5906061696F
:102F400003F0C1FF207800EB400006EB80004178E1
:102F5000206904F028FF207800EB400006EB800099
:102F60008178606904F01FFF2169684848626169DF
:102F7000486229482946A83003F0A5FF264804994D
:102F8000A83003F0A0FF24480599A83003F09BFF68
:102F90002148A169A83003F096FF1F48E169A830D5
:102FA00003F091FF0021A06903F005FF0021E06913
:102FB00003F001FF4E4800680169B86A88470221A2
:102FC000B1EB107F03D0C0F30360022813D130208F
:102FD00005F04EF9B221104A00910A23A8324CA103
:102FE00003F0C0FB014638610B48A83003F06BFFCB
:102FF00039694C48486208480399A83003F063FFD8
:103000000548216AA83003F05EFF0348616AA830D2
:1030100003F059FF004887E0B8620020436F6E66F6
:10302000696775726174696F6E20616E6420646592
:10303000627567004D6F746F7200000014B303086F
:10304000046000204374726C206D6F6465000000A2
:10305000506F77657220626F61726420737461745F
:103060007573000044432042757320766F6C7400C2
:103070004865617473696E6B20542E0025336400BB
:103080004661756C747300004F7665726375727279
:10309000656E74005265767570206661696C00001B
:1030A0005370656564206664626B00005357206549
:1030B00072726F7200000000556E64657220766F48
:1030C0006C7400004F76657220766F6C740000009F
:1030D0004F7665722074656D700000004661756CF6
:1030E000742061636B000000455003082D5E0308E7
:1030F000F47F00204441432053657474696E677304
:10310000000000004368310043683200595503084D
:10311000456E636F64657220616C69676E6D656E84
:1031200074000000C9550308A830A16A03F0CBFE63
:103130002048E16A03F0C7FE1E48216B03F0C3FE7E
:103140001C48616B03F0BFFE1A48A16B03F0BBFE85
:103150002078226A00EB400006EB800116484B798C
:1031600030F8133053838B79626A30F8133053830D
:10317000CB79A26A30F8133053830B7AE26A30F8C5
:10318000133053834B7A226B30F8133053838B7A8E
:10319000626B30F813305383C97AA26B30F8110098
:1031A0005083E1680548486207B00248BDE8F04F27
:1031B00003F01DBF60630020ECB20308655D0308E7
:1031C0002DE9F04F8BB0282005F052F800210B4676
:1031D0000091FB4AFBA105F00FF80790282005F0AD
:1031E00047F8F74914230A228DE80E005A2391224A
:1031F000F9A104F05FFF0646F948FA4C4FF0050BC1
:1032000000784FF01E0900284FF0410A4FF02800C7
:103210007BD005F02DF80F21009105233246F2A155
:1032200004F0EAFF0746382005F022F80096EC4942
:10323000CDE901B94D460623EFA26C3903F09CFCA1
:10324000EE4960644162402005F012F83C2100968E
:10325000CDE90115E2490623E7A28C3904F032F9E1
:10326000A064282005F004F875233246E4A10095F7
:1032700004F0C2FF8046282004F0FAFF32210091BA
:1032800005233246DFA104F0B7FF0546382004F0DD
:10329000EFFFD349CDE9006B0623D7A26839CDF8FB
:1032A00008A003F069FCD949206541623946C44849
:1032B00003F009FEC248616C03F005FEC048A16C32
:1032C00003F001FE4146BE4803F0FDFD2946BC481F
:1032D00003F0F9FDBA48216D03F0F5FD0021A06C63
:1032E00003F069FD302004F0C3FF7821009128230A
:1032F000B34AC7A103F036FA2067302004F0B8FFC4
:103300008C212823AE4A009100E0DCE0C3A103F049
:1033100029FAC549606741624CF218614183002176
:1033200003F049FDA648216F03F0CDFDA448616F6D
:1033300003F0C9FD282004F09BFFA1491423A0221B
:103340008DE80E005A239122B8A104F0B3FE054681
:10335000A348017B8438039000294FF028007CD0DB
:1033600004F086FF0F21009105232A469EA104F058
:1033700043FF0890382004F07BFF9949CDE9005BBA
:103380004F4606239CA22C39CDF8089003F0F4FB9D
:10339000A849E0654162402004F06AFF3C21CDE984
:1033A0000051062394A20297039904F08BF820663B
:1033B000282004F05DFF75232A4691A1009704F0B0
:1033C0001BFF8046282004F053FF32210091052383
:1033D0002A468CA104F010FF0746382004F048FF6D
:1033E0007F49CDE9005B062383A22839CDF808A0E8
:1033F00003F0C2FB9049A06641627148089903F04E
:1034000062FD6F48E16D03F05EFD6D48216E03F0D3
:103410005AFD41466A4803F056FD3946684803F0B4
:1034200052FD6748A16E03F04EFD0021206E03F0AF
:10343000C2FC302004F01CFF78210091BE23604ABA
:1034400073A103F08FF9A067302004F011FF8C21E5
:103450000091BE235A4A71A100E040E103F082F9D5
:103460007649E06741624CF218614183002103F024
:10347000A2FC302004F0FCFEA02100914423504A1D
:103480006FA103F06FF9574F803738604C480799A8
:1034900003F019FD31464A4803F015FD2946484816
:1034A00003F011FD4648A16F03F00DFD4448E16FA4
:1034B00003F009FD4248396803F005FD48480178EA
:1034C00000297CD0D0E104F0D3FE0F210091052328
:1034D000324661A104F090FE0490402004F0C8FE42
:1034E0003F49CDE9006B062343A29039CDF80890FF
:1034F00003F0E8FF5C4D20645C4F286800210268FF
:10350000B86A9047C0B203902868002211468368C9
:10351000B86A98472868D4F8408040210268B86AA1
:103520009047029028683F210268B86A9047029944
:10353000C8E90E1028680021039A8368B86A984782
:10354000402004F095FE3C21CDE90061244906238A
:1035500029A2CDF808908C3903F0B4FFA06428208C
:1035600004F086FE7523324625A1CDF8009004F0C4
:1035700043FE0746282004F07BFE322100910523FC
:1035800032463BA104F038FE0546382004F070FEB8
:103590001349CDE9006B062317A27C39CDF808A0AA
:1035A00003F0EAFA47F6FF720021E06403F0B4FA90
:1035B000302004F05DFE3C23324632A166E03FE15C
:1035C000086400204475616C20636F6E74726F6CC8
:1035D0002070616E656C00004D6F746F7220310059
:1035E000E0670020046000204971207265662E2F7C
:1035F0005370656564000000253664000D620308A1
:1036000072706D004964207265662E006160030867
:1036100053746172742F53746F7000004661756C3F
:10362000742061636B000000D95403084D6F746F00
:1036300072203200BD620308356103081955030882
:1036400053746172742F53746F7020626F746820AA
:103650006D6F746F72730000546172676574204DF2
:103660006561737572656400F47F00200461002059
:1036700052616D70206475726174696F6E206D7334
:10368000000000004578656300000000CDF800A050
:1036900003F068F860657C48049903F014FC7A48EC
:1036A000216C03F010FC7848A16C03F00CFC394647
:1036B000754803F008FC2946734803F004FC72487F
:1036C000E16C03F000FC7048616D03F0FCFB00212D
:1036D000A06C03F070FB616D6C48486202E604F078
:1036E000C7FD0F2105232A460091AFF2940104F093
:1036F00083FD0890402004F0BBFD1E2105220095AB
:10370000CDE901210623AFF21012614903F0DAFE80
:10371000604FA065DFF88081386800210268D8F822
:103720002800904700F0FF0B3868012200218368D1
:10373000D8F8280098473868D4F858904021026893
:10374000D8F828009047049038683F210268D8F8DC
:10375000280090470499C9E90E1038685A4600219C
:103760008368D8F828009847402004F081FD1E2186
:103770003C220095CDE901210623AFF28412039982
:1037800003F0A0FE2066282004F072FD1E217523A0
:103790002A460091AFF2981104F02EFD80462820B1
:1037A00004F066FD322105232A460091AFF2401154
:1037B00004F022FD0746382004F05AFD0522CDE929
:1037C00000520623CDF808A0AFF2D41230494C3194
:1037D00003F0D2F947F6FF720021606603F09CF90E
:1037E000302004F045FD3C232A46AFF26811CDF8A5
:1037F00000A002F0B7FFE0662348089903F063FBDE
:103800002148A16D03F05FFB1F48216E03F05BFBB5
:1038100041461D4803F057FB39461B4803F053FB54
:103820001948616E03F04FFB1748E16E03F04BFB44
:103830000021206E03F0BFFAE16E18484862F8E5F7
:10384000007B88B9302004F013FDB421009140239F
:103850000D4A13A102F086FF014678600A4803F082
:1038600032FB796814484862396814484862216F0D
:1038700013484862A16F134848620BB00248BDE884
:10388000F04F03F0B4BB000008640020A9630308F4
:1038900058670020F47F002004610020F5630308CE
:1038A000457865632073696D756C74616E656F75BD
:1038B000732052616D707300E155030829510308AC
:1038C000C1590308E55A03082DE9F04F8BB02820B1
:1038D00004F0CEFC00210B460091FE4AFEA104F04C
:1038E0008BFC0390282004F0C3FC0A22F94BCDE99D
:1038F00000324FF0140ACDF808A05A239122FBA100
:1039000004F0D8FB0746282004F0B2FC1E210091E9
:103910003C233A46F8A104F06FFC0490282004F000
:10392000A7FC412100913C233A46F4A104F064FC39
:103930000590282004F09CFC0F21009105233A46B5
:10394000EFA104F059FC0690402004F091FC1E21E8
:1039500005220097CDE90121DFF8B8B3EC4A062330
:103960009BF8001002EBC101EBA203F0ABFD0BF1E1
:103970008004DFF8A8830646A060D8F8000004F1B0
:10398000800540210268A86A90478146D8F8000067
:103990003F210268A86A9047C6E90E90282004F0EB
:1039A00067FC3221009105233A46DDA104F024FC96
:1039B0000790382004F05CFC412105220097CDE9F6
:1039C00001215A46DFF84893127809F1100909EBF2
:1039D00082110623D0A2091D03F0CEF847F6FF722C
:1039E0000021E06003F098F8302004F041FC412110
:1039F00000915A233A46CEA102F0B4FECE4920618E
:103A0000416201F0C3F9282004F032FCB14973236C
:103A10000A228DE80E004B236822C8A104F04AFB5D
:103A20000646282004F024FC0A233246C6A1CDF81D
:103A300000A004F0E1FB0890282004F019FC2321E9
:103A400000910A233246C1A104F0D6FB0990382028
:103A500004F00EFC51464FF0280A0096CDE901A172
:103A60005A460623127809EB8211ABA2891D03F096
:103A700083F86061382004F0FBFB23210096CDE938
:103A800001A15A460623127809EB8211A2A208313D
:103A900003F072F8A0618F48039903F014FA8D487F
:103AA000049903F010FA8B48059903F00CFA394693
:103AB000884803F008FA8748069903F004FA854815
:103AC000A16803F000FA8348079903F0FCF98148E4
:103AD000E16803F0F8F97F48216903F0F4F97D48C3
:103AE000696903F0F0F97B48A96903F0ECF97948BA
:103AF000E96903F0E8F97748696A03F0E4F900211D
:103B0000E86903F058F97348296A03F0DCF9314693
:103B1000704803F0D8F96F48089903F0D4F96D485C
:103B2000099903F0D0F96B48616903F0CCF9694851
:103B3000A16903F0C8F9D8F800000169A86A8847AC
:103B400080072BD5282004F093FB32270A23324626
:103B50007FA1009704F050FB0546382004F088FB55
:103B6000CDE9006A02979BF80020062309EB821139
:103B700069A20A3103F000F8E0612946554803F0D4
:103B8000A2F95448E16903F09EF947F6FF7200215B
:103B9000E06902F0C1FF61696E48486247F6FF754F
:103BA0002A460021606902F0B7FF2A460021A06979
:103BB00002F0B2FFD8F8000001696748806A8847C0
:103BC000C0077DD0282004F053FB424973237D2297
:103BD0008DE80E004B23B42260A104F06BFA054679
:103BE000282004F045FB0E260A232A465FA10096F2
:103BF00004F002FB0390282004F03AFB50232A46ED
:103C00005AA1009604F0F8FA8246382004F030FBFE
:103C10000A22CDE900524FF01908CDF808809BF830
:103C200000104E4609EB81115F46042351A20C316E
:103C300002F0A2FF2062382004F01AFB5022CDE9E6
:103C40000052CDF808803978042306EB811149A28F
:103C50000E3102F091FF6062282004F009FB4FF062
:103C60002C080A232A4638A1CDF8008004F0C4FAB3
:103C70008146282004F0FCFA50232A4633A1CDF8CF
:103C8000008004F0B9FA8046382004F0F1FA0A22E4
:103C9000CDE900524FF0370BCDF808B03978062344
:103CA00006EB81111CA2103102F066FFA0623820E1
:103CB00004F0DEFA5022CDE90052CDF808B000E061
:103CC0009CE03978062306EB811113A2123102F031
:103CD00053FF51E0B0640020537065656420636F4A
:103CE0006E74726F6C6C6572000000005365742016
:103CF000706F696E7400000072706D006D7300006B
:103D0000546172676574207370656564000000001B
:103D1000506700200460002025366400F47F0020F6
:103D200052616D70206475726174696F6E0000007D
:103D30004578656300000000FD5D0308504944209C
:103D40004761696E730000004B5000004B49000052
:103D50004B440000A952030804610020466C7578AA
:103D600020776C2E2074756E696E67004255538003
:103D70000000000025346400E0622946254803F075
:103D8000A2F82448039903F09EF85146214803F015
:103D90009AF82048216A03F096F81E48616A03F0F9
:103DA00092F80021606A03F006F84946194803F0CA
:103DB0008AF84146174803F086F81648A16A03F0CE
:103DC00082F81448E16A03F07EF84FF47A72002119
:103DD000206A02F0A1FE47F6FF752A460021A06A7C
:103DE00002F09AFE2A460021E06A02F095FE216A5E
:103DF00009484862A16A4862E16A48626169064806
:103E00004862A16948620BB00248BDE8F04F03F078
:103E1000EEB80000B0640020A95203082DE9F04F6D
:103E20008BB0282004F024FA00210B460091FE4AB2
:103E3000FEA104F0E1F90390282004F019FA87218B
:103E40000091E623F84AFEA104F0D6F90490282058
:103E500004F00EFA0A23DFF8D083CDE900834FF097
:103E6000140ACDF808A05A239122F7A104F022F9F0
:103E70000746282004F0FCF90F21009105233A465B
:103E8000F4A104F0B9F9F54C2063382004F0F0F9FE
:103E90001E2105220097CDE90121A4F1800508F536
:103EA00002762978062306EB8111EDA2143102F087
:103EB00063FE6063282004F0DBF90F21009150239A
:103EC0003A46E8A104F098F90590382004F0D0F9BA
:103ED0001E2150220097CDE901212978062306EB07
:103EE0008111DFA2163102F047FEA063282004F002
:103EF000BFF93221009105233A46DBA104F07CF999
:103F0000E063382004F0B4F9412105220097CDE99F
:103F100001212978062306EB8111D1A2183102F084
:103F20002BFE2064282004F0A3F9322100915023B5
:103F30003A46CFA104F060F90690382004F098F9D1
:103F4000412150220097CDE901212978062306EB73
:103F50008111C3A21A3102F00FFE6064282004F020
:103F600087F9844673200A22CDF80080CDE901202C
:103F70004B236822BFA1604604F09CF881462820AC
:103F800004F076F90A234A46BEA1CDF800A004F059
:103F900033F90790382004F06BF94FF0280BCDE986
:103FA000009B8446CDF808A02878062306EB8011F4
:103FB000ABA260461C3102F0DFFDA064282004F0B3
:103FC00057F9232100910A234A46AFA104F014F9BE
:103FD0000890382004F04CF92321CDF80090CDE969
:103FE00001B184462878062306EB80119CA2604626
:103FF0001E3102F0C1FDE064282004F039F9844646
:1040000073207822CDF80080CDE901204B2368226F
:104010009EA1604604F04EF88046282004F028F95E
:104020000A23424697A1CDF800A004F0E5F80990D4
:10403000382004F01DF9CDE9008B8446CDF808A0A6
:104040002878062306EB801185A26046223102F013
:1040500093FDA065282004F00BF9232100910A2389
:10406000424689A104F0C8F80A90382004F000F90B
:104070002321CDF80080CDE901B1844628780623BC
:1040800006EB801176A26046243102F075FDE065F2
:10409000302004F0EDF873210091E623624A7FA1FD
:1040A00003F036F9A066382004F0E2F8962100917A
:1040B000E6235D4A7B4903F0B1FFE06600F066FE4F
:1040C0005948039902F0FFFE5748049902F0FBFE9D
:1040D0003946554802F0F7FE5348216B02F0F3FED3
:1040E0005148616B02F0EFFE4F48059902F0EBFE7C
:1040F0004D48A16B02F0E7FE0021A06B02F05BFED1
:104100004948E16B02F0DFFE4748216C02F0DBFE1C
:104110004548069902F0D7FE4348616C02F0D3FE91
:104120000021606C02F047FE04F1800041693E48C6
:1041300002F0C9FE04F1800081693B4802F0C3FE31
:1041400004F18000C169384802F0BDFE04F180002E
:10415000416A354802F0B7FE04F180000021C069D1
:1041600002F029FE04F18000016A2F4802F0ABFE44
:10417000287800EB400106F1800000EB8100494601
:104180000779294802F09FFE2748079902F09BFE15
:104190002548A16C02F097FE2348089902F093FE8F
:1041A0002148E16C02F08FFEA16C3F484862E16C4F
:1041B0003E4848623E480068016904F18000806A18
:1041C000884740072DD5282004F052F84FF0320AD6
:1041D0000A234A4637A1CDF800A004F00DF8206567
:1041E000382004F045F8CDE9009BCDF808A02978E7
:1041F000062306EB81111AA2203102F0BDFC606596
:104200000948216D02F05FFE0748616D02F05BFE18
:1042100047F6FF720021606D02F07EFC616D26485A
:10422000486247F6FF7A49E058650020437572728C
:10423000656E7420636F6E74726F6C6C6572730060
:10424000496E70757400000053657420706F696E5C
:10425000747300004971207265662E00846000202E
:1042600025366400497100004964207265662E009D
:1042700049640000497120504944204761696E73C8
:10428000000000004B5000004B49000049642050E2
:104290004944204761696E73000000004C696E6BF1
:1042A000000000006CB303082D540308E953030811
:1042B000F47F00204B440000A15303085246002124
:1042C000A06C02F029FC52460021E06C02F024FCB4
:1042D00041465D4802F0F7FD5B48099902F0F3FDA5
:1042E0005948A16D02F0EFFD57480A9902F0EBFD25
:1042F0005548E16D02F0E7FD5448006801695448F3
:10430000806A8847DFF84C91000733D5282003F0F6
:10431000AFFF32210A2342460091AFF2680103F059
:104320006BFF2066382003F0A3FF3221CDF8008018
:10433000CDE901B12978062306EB8111AFF2E00245
:10434000263102F019FC60663F48216E02F0BBFD89
:104350003D48616E02F0B7FD52460021606E02F0EA
:10436000DBFB002F55D00021606E02F024FD616E52
:10437000C1F82490564652460021A06D02F0CCFBB5
:1043800032460021E06D02F0C7FB2F48A16E02F01B
:104390009AFD2D48E16E02F096FDA84628782E4D34
:1043A00000EB400005EB8000C178E06E03F0FBFC01
:1043B00001F0BEFDA66E726A2AB196F8210010B116
:1043C00039463046904786F82C7027B30021A06DFF
:1043D00002F0F1FC0FB30021E06D02F0ECFCE16EA5
:1043E0001E484862A16E1E484862606B1D494162CA
:1043F000226C1D495162A26DC2F82490E26DC2F890
:10440000249098F8001001EB410115F8211031B10A
:1044100014E00121A8E70121D9E70121DCE700210F
:1044200002F0C9FC0948006801690948806A8847A8
:10443000800603D40021206C02F0BDFC0BB00248C2
:10444000BDE8F04F02F0D3BD58650020F47F002096
:1044500004610020A9520308E06700206964030892
:10446000F15203081D5803084D5603082DE9F04F7B
:10447000FF4887B0002500680169FE48806A8847C8
:10448000064609200024B0EB167F09D1282003F04E
:10449000EFFE0023F84AF9A1009403F0ADFE0546B3
:1044A000C6F30360092809D1282003F0E1FE0023A8
:1044B000F14AF9A1009403F09FFE05467006DFF86B
:1044C000B8834FF028000BD503F0D2FE14210A2246
:1044D000CDF80080CDE901215A239122F7A10AE00D
:1044E00003F0C6FE14210A22CDF80080CDE9012197
:1044F0005A239122F4A103F0DDFD0446282003F0A5
:10450000B7FE0F21009105232246F0A103F074FEAF
:104510000390382003F0ACFE1E2105220094DFF842
:10452000B4A3CDE90121DFF8A8939AF8002006236F
:1045300009EB8211E8A2283102F01EFB0AF1800B80
:104540005F46CBF87000282003F092FE0F21009107
:1045500050232246E1A103F04FFE0490382003F0DF
:1045600087FE1E2150220094CDE901219AF80020F7
:10457000062309EB8211D8A22A3102F0FDFA7867EE
:1045800000F004FC2946BC4802F09DFC2146BA48D4
:1045900002F099FCB848039902F095FCB648396FCF
:1045A00002F091FCB448049902F08DFCB248796F96
:1045B00002F089FC700659D5282003F059FE3221FB
:1045C000009105232246C6A103F016FE0390382071
:1045D00003F04EFE0521CDE90041412702979AF8EC
:1045E0000020062309EB8211BBA2303102F0C4FA8D
:1045F0005D4647F6FF720021CBF8780002F08CFA96
:10460000282003F035FE3221009150232246B6A126
:1046100003F0F2FD0490382003F02AFE5021CDE98A
:10462000004102979AF80010062309EB8111AAA213
:10463000323102F0A1FA47F6FF720021E86702F07A
:104640006BFA8D48039902F03EFC8B48A96F02F08B
:104650003AFC8948049902F036FC8748E96F02F079
:1046600032FCA96FA2484862E96F4862814C8248D7
:10467000616902F028FC8048A16902F024FC7E48B0
:10468000E16902F020FC7C48616A02F01CFC002118
:10469000E06902F090FB7848216A02F014FC0920DE
:1046A000B0EB167F7ED1282003F0E2FD73230A22AF
:1046B000CDF80080CDE901234B2340F227128DA1D4
:1046C00003F0F8FC0546282003F0D2FD4FF0140853
:1046D0000A232A468BA1CDF8008003F08DFD0390BC
:1046E000382003F0C5FD5022CDE90052CDF80880F6
:1046F0009AF800104E4609EB81115746062376A220
:10470000343102F039FA47F6FF720021206002F0DE
:1047100003FA282003F0ACFD4FF023090A232A46B0
:104720007BA1CDF8009003F067FD0490382003F0E2
:104730009FFD5022CDE90052CDF80890397806232C
:1047400006EB811164A2363102F016FA606028206F
:1047500003F08EFD4FF0320A0A232A466EA1CDF8EF
:1047600000A003F049FD0590382003F081FD5022A0
:10477000CDE90052CDF808A03978062306EB811167
:1047800055A2383102F0F8F9A060282003F070FD3E
:10479000B4232A4662A1CDF8008003F02DFD0690D7
:1047A000382000E0DCE003F063FDE622CDE90052B2
:1047B000CDF808803978032306EB81115AA23A31EB
:1047C00002F0DAF9E0602A48222100680268A06A53
:1047D0009047421E0021E06802F09EF9282003F075
:1047E00047FD8C232A4651A1CDF8008003F004FD3B
:1047F0008246282003F03CFD8C232A464CA1CDF8AC
:10480000009003F0F9FC3978804606EB811090F8AF
:104810003A20A06A00F02CFEE16846484862216810
:1048200045484862616845484862A1684448486212
:104830005146114802F047FB41460F4802F043FB46
:1048400029460D4802F03FFB0B48039902F03BFB61
:104850000948216802F037FB0748049902F033FB4E
:104860000548616802F02FFB034805996AE00000E3
:10487000F47F0020046100200066002053656E7301
:104880006F726C6573732074756E696E6720535414
:104890004F202620504C4C0053656E736F726C6530
:1048A00073732074756E696E672053544F202620F1
:1048B000504C4C20284175782900000053544F205B
:1048C0002620504C4C00000053544F00473100004C
:1048D0006067002004600020253664004732000035
:1048E000504C4C204B500000504C4C204B49000089
:1048F000A95203085265762075702074756E696E32
:10490000670000004475726174696F6E00000000FA
:10491000456E642073706400456E64204971000028
:104920005374616765000000253364006D730000F7
:1049300072706D006D630308416403089964030895
:10494000C164030802F0BFFA0C48A16802F0BBFA88
:104950000A48069902F0B7FA0848E16802F0B3FA8B
:10496000DBF8702006485062DBF87410486207B02C
:104970000248BDE8F04F02F03ABB0000006600209C
:10498000A95203082DE9F04FD14887B000240068F0
:104990000169D048806A884706460A250027B5EB9A
:1049A000167F09D1282003F063FC0023CA4ACBA15B
:1049B000009703F021FC0446C6F303600A2809D1DE
:1049C000282003F055FC0023C34ACCA1009703F034
:1049D00013FC0446282003F04BFCBF4BCDE9003507
:1049E00014210291AA465A239122CEA103F062FB20
:1049F0000546282003F03CFC4FF00F0805232A460B
:104A0000C9A1CDF8008003F0F7FB8146382003F000
:104A10002FFC1E2105220095CDE90121C349DFF8B5
:104A2000B8B2062309780BF1B80B0BEB8111C0A2C9
:104A30002C3102F0A1F8A74F803F3867282003F0FF
:104A400017FC50232A46BBA1CDF8008003F0D4FB0D
:104A50008046382003F00CFC1E2150220095CDE941
:104A60000121B2490623B2A209780BEB81112E3144
:104A700002F082F8786700F089F92146964802F042
:104A800022FA2946944802F01EFA4946924802F05A
:104A90001AFA9148396F02F016FA41468E4802F030
:104AA00012FA8D48796F02F00EFA8A4C8A486169D1
:104AB00002F009FA8848A16902F005FA8648E1691E
:104AC00002F001FA8448616A02F0FDF90021E06910
:104AD00002F071F98048216A02F0F5F9BAEB167F0D
:104AE0007ED1282003F0C4FB7B4900917323CDE9DC
:104AF00001A34B2340F227128FA103F0DBFA0546F6
:104B0000282003F0B5FB4FF014080A232A468EA193
:104B1000CDF8008003F070FB0390382003F0A8FB71
:104B20004FF05009CDE90059803FCDF80880397821
:104B30005E460BEB811106237DA2343102F01CF896
:104B400047F6FF720021206001F0E6FF282003F005
:104B50008FFB4FF0230A0A232A467EA1CDF800A03E
:104B600003F04AFB0490382003F082FB8DE8200616
:104B70003978062306EB81116DA2363101F0FCFF76
:104B80006060282003F074FB4FF0320B0A232A46A2
:104B900072A1CDF800B003F02FFB0590382003F090
:104BA00067FB8DE8200A3978062306EB811160A2A5
:104BB000383101F0E1FFA060282003F059FBB42355
:104BC0002A4668A1CDF8008003F016FB8346382002
:104BD00003F04EFBE622CDE90052CDF8088000E05C
:104BE00069E03978032306EB811160A23A3101F0C4
:104BF000C3FFE0603648222100680268A06A90473F
:104C0000421E0021E06801F087FF282003F030FBFE
:104C10008C232A4656A1CDF8008003F0EDFA814698
:104C2000282003F025FB8C232A4652A1CDF800A0B2
:104C300003F0E2FA3978804606EB811090F83A20CA
:104C4000A06A00F015FCE1684B48486220684B49B7
:104C5000416260684A494162A0684A4941624946E6
:104C60001D4802F030F941461B4802F02CF9294654
:104C7000194802F028F91848039902F024F9164857
:104C8000216802F020F91448049902F01CF9124836
:104C9000616802F018F91048059902F014F90E48FD
:104CA000A16802F010F959460B4802F00CF90A48C5
:104CB000E16802F008F9074833498038026F516211
:104CC000406F416207B00448BDE8F04F02F08FB971
:104CD000F47F002004610020A866002053656E73F5
:104CE0006F726C6573732074756E696E67205354B0
:104CF0004F202620434F52444943000053656E73B2
:104D00006F726C6573732074756E696E672053548F
:104D10004F202620434F524449432028417578298B
:104D20000000000053544F00473100000460002091
:104D30002536640047320000526576207570207475
:104D4000756E696E670000004475726174696F6EFC
:104D500000000000456E642073706400456E64209E
:104D600049710000537461676500000025336400D9
:104D70006D73000072706D006D6303084164030879
:104D800099640308C1640308A95203083EB52820AA
:104D900003F06EFAA0232249CDE9001314220292F7
:104DA0005A2391221FA103F085F9204C606128202D
:104DB00003F05EFA0F21009105231DA1626903F043
:104DC0001BFAA061402003F053FA62690521CDE986
:104DD00000211E25A4F58072029519491278062338
:104DE00001EBC20117A2091D02F06CFBE06130204B
:104DF00003F03EFA41210091052313A1626901F0FD
:104E0000B1FC2062282003F033FA00953C2311A165
:104E1000626903F0F1F96062216A0F4848623EBDA1
:104E2000CC6100204D6F6E69746F720004610020C8
:104E30004D6561737572656420737065656400000B
:104E4000506700202536640053746172742F5374C8
:104E50006F70000072706D008151030870B53149A8
:104E60000024096809698847010E0E074FF00901FF
:104E70004FF00A024FF002034FF001050ED0B1EBE4
:104E8000107F03D1C0F303660A2E17D0B2EB107F58
:104E900015D1C0F30366092E10D010E0B1EB107FDE
:104EA00000D10124B2EB107F00D10224B5EB107FBA
:104EB00002D0B3EB107F33D1032431E00624B1EBF1
:104EC000107F05D1C0F3036102290BD0012909D05D
:104ED000C0F30361092906D1B3EB107F02D0B5EB13
:104EE000107F00D10424B2EB107F05D1C0F3036121
:104EF00002290BD0012909D0C0F303610A2906D188
:104F0000B3EB107F02D0B5EB107F00D105240B214D
:104F1000B1EB107F04D1C0F30360092800D107244E
:104F2000204670BDF47F002010B5324802F02DF805
:104F30003048A83002F029F82F4802F026F82E4811
:104F4000A83002F022F82D4802F01FF82B48A830B4
:104F500002F01BF82A4802F018F82A49002088605D
:104F6000C860086148618861C861086248628862F7
:104F7000C862086348638863C863086448648864D7
:104F8000C864086548658865C865086648668866B7
:104F9000C866086748678867C867803108604860E6
:104FA0008860C860086148618861C86108624862B9
:104FB0008862C862086348638863C8630864486499
:104FC0008864C864086548658865C8650866486679
:104FD0008866C866086748678867C8678031086060
:104FE00048608860C860086148618861C86108627B
:104FF000486210BDB8620020086400205865002097
:10500000A86600200460002010B5074807A10278B8
:105010000B48521CFBF780F90949BDE8104001F12B
:10502000200002F0B8BA0000046000204D6F746FD9
:10503000722073656C65637465643A202531640081
:1050400088610020034807210068C2680248806A1E
:1050500010470000F47F00200461002010B50C46CA
:10506000FFF762FF072C23D2DFE804F004070A17DA
:105070001A1D2000FDF7E8FC04E0FDF7CBFD01E080
:10508000FEF79EF80C4B586801F02EFA5968BDE8FF
:1050900010400144094802F07EBAFEF715FC07E013
:1050A000FEF7BCFE04E0FFF7E1F901E0FFF76AFC60
:1050B000BDE81040FFF7A8BF04600020A8610020F1
:1050C0002DE9F047814617480E46144FDFF850800F
:1050D000002400EB8615395D832908D0D8F800003C
:1050E000026848469047411C01D025F81400641C12
:1050F000E4B2202CEFD3D8F800000421026848461F
:1051000090470849103941F8360095F83A20314661
:105110004846BDE8F04700F0ABB9000078B303089B
:10512000F47F00206067002070B5134C134D002100
:1051300020680268A86A9047C6B22068002211461B
:105140008368A86A984720680621C268A86A9047C1
:105150002068012200218368A86A984720680621F8
:10516000C268A86A90472068324600218368A86A0E
:10517000BDE8704018470000F47F00200461002063
:105180002DE9F047414A424F424DA7F1800C2DEDE9
:10519000068B02F5807411782B6801EB41060CEB4D
:1051A000811017F82680B8F1000F06D007EB8601B2
:1051B000C97859B1012960D10EE0828834485B6812
:1051C000903850F83110A06A984756E0B0F918208E
:1051D000B0F914101B6A4EE0E1469046B0F93E006B
:1051E00004F0DBF99FED2C8B53EC182B04F000FA44
:1051F0009FED2B9B53EC192B04F048F841EC100B5E
:1052000003F0DAF998F80010B0EE40AA09EB811625
:10521000F0EE60AAB6F93C0004F0BFF953EC1A2B8B
:1052200004F0E6F904F08AF907B2B6F93E0004F09A
:10523000B4F953EC182B04F0DBF953EC192B04F000
:1052400025F841EC100B03F01BFA98F80010B0EEB3
:10525000408A09EB8110F0EE608AB0F93C0004F05E
:105260009CF953EC182B04F0C3F904F067F901B270
:1052700028683A46036AA06A984728680621C268E7
:10528000A06ABDEC068BBDE8F04710470460002023
:10529000E0670020F47F00201F85EB51B81E094015
:1052A00000000000008066400D4B0C4A806A1B78AD
:1052B00002EB8312801A0B4A400852FA80F31B78E3
:1052C000832B09D0C0B2105C074A126893680A4663
:1052D00001460648806A1847704700006067002052
:1052E0000460002078B30308F47F002004610020EC
:1052F0002DE9F041284E11F0FF052849307800EBE8
:10530000400001EB8000057140D00021224C803428
:10531000A06D01F050FDC5B30021E06D01F04BFD23
:10532000FDB11E4F3078803F07EB8010B0F91C10A4
:105330004184C28B8284028CC284A06D01F0D0FAB9
:10534000307807EB8010B0F92410E06D01F0C8FA56
:10535000606E30B1317807EB8111B1F9261001F0A0
:10536000BFFAA06D012680F82060E06D80F8206013
:10537000606E002807D06DB15FF0000101F01BFDE9
:10538000606E80F82060BDE8F08101E00121BDE79A
:105390000121C2E70121F1E704600020E06700205D
:1053A00070B50D46FFF780FF0D480E4A017801EBFE
:1053B000410002EB8000007900280FD0084C8034B7
:1053C000606E00280AD0803A02EB8111CD84294614
:1053D00001F0ACFA606E012180F8201070BD000071
:1053E00004600020E067002010B50C46FFF75CFF6A
:1053F0000C480D4A007800EB400102EB810109796D
:1054000000290ED0A2F1800101EB80102146848496
:10541000044C8034E06D01F089FAE06D012180F8E0
:10542000201010BD04600020E067002010B50C467D
:10543000FFF73AFF0C480D4A007800EB400102EB01
:105440008101097900290ED0A2F1800101EB8010C1
:1054500021464484044C8034A06D01F067FAA06DAD
:10546000012180F8201010BD04600020E0670020BA
:10547000F8B51546094A02EB8114094904F13802CE
:1054800000920968931E121F8E692946B047E08E6C
:1054900000EB40004000E086F8BD0000606700209F
:1054A000F47F002038B51546094A062302EB811225
:1054B000B2F9361091FBF3F10BB2B2F9381000914A
:1054C0000449928E09684C692946A04738BD0000FE
:1054D00060670020F47F002070B50D4C0D4D002159
:1054E00020680268A86A9047C6B220680022114668
:1054F0008368A86A984720680721C268A86A90470D
:105500002068324600218368A86ABDE870401847C9
:10551000F47F00200461002070B50D4C0D4D00217A
:1055200020680268A86A9047C6B22068012200215C
:105530008368A86A984720680721C268A86A9047CC
:105540002068324600218368A86ABDE87040184789
:10555000F47F0020046100202DE9F041164A054641
:1055600010461649007802F5807400EB400001EB0C
:1055700080011369124E134FA06A9D420BD193F81C
:1055800030504D70FFF76AFC56F820000021425D54
:105590003868C3690BE0526992F830508D70FFF79C
:1055A0005DFC56F820000121425D3868C369E06A5D
:1055B000BDE8F0411847000004600020E0670020CB
:1055C0004CB30308F47F0020034808210068C26838
:1055D0000248806A10470000F47F00200461002028
:1055E0002DE9F041164C174D002120680268A86A89
:1055F0009047C6B22068002211468368A86A98477F
:10560000114F2068A7F11008BA884368D8F8001035
:10561000A86A98472068012200218368A86A9847F1
:105620002068B7F84420D8F808104368A86A98475B
:105630002068324600218368A86ABDE8F041184717
:10564000F47F002004610020606700202DE9F0470E
:105650006B4C6C4ADFF8B091A2F180052DED068B02
:1056600004F58076207800EB400102EB810305EB26
:105670008010DB78002B7CD0012B7BD1B0F93E0071
:1056800003F08BFF9FED618B53EC182B03F0B0FF01
:105690009FED609B53EC192B03F0F8FD41EC100BD0
:1056A00002F08AFF2078B0EE40AA05EB8017F0EEFA
:1056B00060AAB7F93C0003F070FF53EC1A2B03F01B
:1056C00097FF03F03BFF0FFA80F8B7F93E0003F0B5
:1056D00064FF53EC182B03F08BFF53EC192B03F0F2
:1056E000D5FD41EC100B02F0CBFF2078B0EE40AAC4
:1056F00005EB8010F0EE60AAB0F93C0003F04DFF1E
:1057000053EC1A2B03F074FF03F018FF01B2D9F821
:1057100000004246036AB06A9847207805EB801083
:10572000B0F93E0003F039FF53EC182B03F060FF93
:1057300053EC192B03F0AAFD41EC100B02F0A0FF73
:105740002078B0EE40AA05EB8016F0EE60AAB6F91C
:105750003C0003F022FF53EC1A2B03F049FF03F047
:10576000EDFEB082B6F93E0003F017FF53EC182BA4
:1057700001E020E01BE003F03BFF53EC192B03F0AA
:1057800085FD41EC100B02F017FF2078B0EE408A47
:1057900005EB8014F0EE608AB4F93C0003F0FDFEE6
:1057A00053EC182B03F024FF03F0C8FE2083BDEC5C
:1057B000068BBDE8F08712F82110134A136851B127
:1057C000B0F91820B0F914101B6AB06ABDEC068B52
:1057D000BDE8F047184719694F46B06A8847800608
:1057E000E5D52078412105EB8010B0F91820386804
:1057F0008368B06ABDEC068BBDE8F047184700002F
:1058000004600020E0670020F47F00201F85EB513A
:10581000B81E094000000000008066402DE9F047F6
:10582000604D614ADFF88481A2F180042DED068B82
:1058300005F58079287800EB400102EB810104EB4B
:105840008010C97800297CD001297BD1B0F93E00B5
:1058500003F0A3FE9FED568B53EC182B03F0C8FE0C
:105860009FED559B53EC192B03F010FD41EC100BF1
:1058700002F0A2FE2878B0EE40AA04EB8016F0EE0B
:1058800060AAB6F93C0003F088FE53EC1A2B03F033
:10589000AFFE03F053FE07B2B6F93E0003F07DFE03
:1058A00053EC182B03F0A4FE53EC192B03F0EEFC81
:1058B00041EC100B02F0E4FE2878B0EE40AA04EBB5
:1058C0008010F0EE60AAB0F93C0003F066FE53ECE5
:1058D0001A2B03F08DFE03F031FE01B2D8F8000060
:1058E0003A46036AD9F828009847287804EB8010D4
:1058F000B0F93E0003F051FE53EC182B03F078FE94
:1059000053EC192B03F0C2FC41EC100B02F0B8FE73
:105910002878B0EE40AA04EB8016F0EE60AAB6F943
:105920003C0003F03AFE53EC1A2B03F061FE03F047
:1059300005FEB082B6F93E0003F02FFE53EC182BA3
:1059400001E020E01BE003F053FE53EC192B03F0C1
:105950009DFC41EC100B02F02FFE2878B0EE408A3F
:1059600004EB8014F0EE608AB4F93C0003F015FEFD
:1059700053EC182B03F03CFE03F0E0FD2083BDEC5C
:10598000068BBDE8F087B0F91820B0F91410D8F8EC
:105990000000036AD9F82800BDEC068BBDE8F0478B
:1059A0001847000004600020E0670020F47F00201A
:1059B0001F85EB51B81E09400000000000806640C2
:1059C0002DE9F041404C414D00212DED068B206822
:1059D0000268A86A904700F0FF082068002211467C
:1059E0008368A86A98473A48A0F18006017821B1F7
:1059F000C07858B1012857D10FE03548B2889038A7
:105A0000016820684368A86A98474DE02068B6F9A5
:105A10001820B6F91410036A44E0B6F93E0003F00A
:105A2000BCFD9FED2C9B53EC192B03F0E1FD9FED8A
:105A30002B8B53EC182B03F029FC41EC100B02F0DC
:105A4000BBFDB0EE40AAF0EE60AAB6F93C0003F050
:105A5000A4FD53EC1A2B03F0CBFD03F06FFD07B24E
:105A6000B6F93E0003F099FD53EC192B03F0C0FD8D
:105A700053EC182B03F00AFC41EC100B02F000FE73
:105A8000B0EE408AF0EE608AB6F93C0003F085FD86
:105A900053EC182B03F0ACFD03F050FD01B220686D
:105AA0003A46036AA86A984720680621C268A86A2D
:105AB00090472068424600218368A86ABDEC068BA7
:105AC000BDE8F04118470000F47F00200461002089
:105AD000E06700201F85EB51B81E09400000000060
