:020000040807EB
:10000000A0ED0120850207085D521A00C102070811
:1000100091020708930207089502070800000000F4
:100020000000000000000000000000009702070828
:1000300099020708000000009B0207089D020708BC
:100040009F0207089F0207089F0207089F020708F0
:100050009F0207089F0207089F0207089F020708E0
:100060009F0207089F0207089F0207089F020708D0
:100070009F0207089F0207089F0207089F020708C0
:100080009F0207089F0207089F0207089F020708B0
:100090009F0207089F0207089F0207089F020708A0
:1000A0009F0207089F0207089F0207089F02070890
:1000B0009F0207089F0207089F0207089F02070880
:1000C0009F0207089F0207089F0207089F02070870
:1000D0009F0207089F0207089F0207089F02070860
:1000E0009F0207089F0207089F0207089F02070850
:1000F0009F0207089F0207089F0207089F02070840
:100100009F0207089F0207089F0207089F0207082F
:100110009F0207089F0207089F0207089F0207081F
:100120009F0207089F0207089F0207089F0207080F
:100130009F0207089F0207089F0207089F020708FF
:100140009F0207089F0207089F0207089F020708EF
:100150009F0207089F0207089F0207089F020708DF
:100160009F0207089F0207089F0207089F020708CF
:100170009F0207089F0207089F0207089F020708BF
:100180009F0207089F02070800F002F800F06AF8D3
:100190000AA090E8000C82448344AAF10107DA45E2
:1001A00001D100F05FF8AFF2090EBAE80F0013F0CA
:1001B000010F18BFFB1A43F001031847C8BC000029
:1001C000E8BC0000103A24BF78C878C1FAD85207BA
:1001D00024BF30C830C144BF04680C6070470000C1
:1001E0000023002400250026103A28BF78C1FBD840
:1001F000520728BF30C148BF0B607047692900F023
:100200000181642900F0FE80752900F0FB806F29D0
:1002100000F09281782900F0B9810368DB0928BFDA
:1002200041F08001632900F0E683E32900F0F983BF
:10023000002070471FB507F0DDFE9DE8030000F0C9
:1002400051FC00F005FD04000020002107F062FAD7
:10025000401C606000F0D4FA1FBD10B5002006F00D
:1002600073FB10BD00F0CEFC1146FFF7E3FF07F073
:100270004BFA00F00FFD03B4FFF7EFFF03BC00F0F3
:10028000BBFC00000948804709480047FEE7FEE73D
:10029000FEE7FEE7FEE7FEE7FEE7FEE7FEE7FEE736
:1002A00004480549054A044B70470000D12107085E
:1002B00089010708C8E60120A0ED0120A0ED01207A
:1002C00000B5FFB441464A4653465C4665463EB4D7
:1002D0000D496A460A600D4908600D4988473EBCD1
:1002E000884691469A46A346AC46FFBC00BD0648E8
:1002F00001688D463EBC884691469A46A346AC4668
:10030000FFBC044800BD0000F0FF0120F4FF012005
:100310009101070834B707080FB41CB5074B06AAAC
:100320007B4469460090059800F043FB0020694635
:1003300000F052FB1CBC5DF814FB0000B506000089
:1003400070B5044685690068C10601D5302600E015
:100350002026C00707D070BDD4E901213046904760
:10036000206A401C20626D1EF6D570BD70B5044633
:1003700085690078C00707D170BDD4E9012120202C
:100380009047206A401C20626D1EF6D570BD09683A
:100390004A0501D540B27047C905FCD500B2704787
:1003A00009684A0501D5C0B27047C905FCD580B2BD
:1003B000704770B50C460546012A05D0287880069E
:1003C00000D5EA69002302E0012305E05B1C9342AB
:1003D00002D2E05C0028F9D1A869E618C01AA86129
:1003E000286A184428622846FFF7AAFF04E0D5E9E6
:1003F000012114F8010B9047B442F8D32846FFF7C7
:10040000B5FF70BD2DE9F04106460024106875293E
:10041000314616A510D0FFF7BAFF002802DA404295
:1004200013A507E031688A0701D512A502E0490744
:1004300004D511A5012401E0FFF7B2FF00210A2233
:1004400006F1240709E0B0FBF2FCB0FBF2F302FB7B
:100450001C00303078541846491C0028F3D123463C
:100460002A463046BDE8F04100F045BA00000000E1
:100470002D0000002B000000200000002DE9FF5F90
:1004800015468A460446DFF8AC80F8440027D8E9D0
:1004900000103E46CDE9001010E03AF816106A460A
:1004A00002A800F0CAFA411C07D02178890603D5BA
:1004B000E269391891420DD80744761C20788006ED
:1004C00002D5E069B84205DDAE42E6DB3AF8160037
:1004D0000028E2D1A069C01BA0612046FFF730FFD1
:1004E000D8E90010CDE90010002017E03AF8181004
:1004F0006A4602A800F0A1FAB0F1FF3F81460BD096
:1005000000250DF1080B05E0D4E901211BF80500D9
:1005100090476D1C4D45F7D308F10100B04280466D
:10052000E4DB206A384420622046FFF71FFFBDE865
:10053000FF9F0000B6B2000070B504462146106867
:10054000FFF72EFF002104F1240505E000F007026B
:100550003032C0086A54491C0028F7D120680023B3
:1005600008A2050708D500F02000084304D0E06980
:10057000012305A2401EE0612046BDE8704000F066
:10058000BAB90000000000003000000070B5044659
:100590000D4621461068FFF703FF2188090502D5A3
:1005A0000F4A7A4402E00E4A7A440E32002104F1E6
:1005B000240305E000F00F060009965D5E54491C17
:1005C0000028F7D120780023000704D5702D02D031
:1005D00009B1022311322046BDE8704000F08BB90A
:1005E000A6B100002DE9F05F894604464FF0000AED
:1005F000DFF874B1FB44C0F820A02046E1688847CA
:10060000002874D0252806D0D4E901219047206A1B
:10061000401C2062F1E700265F462046E1688847DB
:100620002028054607DB312D05D2781910F8200C5B
:1006300008B10643F1E7B00701D526F00406C4F877
:100640001CA00027C4F818A02A2D09D0284607F0BE
:1006500039F838B304EB8708303DC8F8185019E072
:1006600059F8041B204604EB87029161E168884732
:10067000012F054618D1E069002820DA26F020066F
:100680001DE0D8F8180000EB800005EB4000303882
:10069000C8F818002046E1688847054607F012F8B8
:1006A0000028EED1012F0AD02E2D08D12046E16876
:1006B00088477F1C0546022F46F02006C4DBA06950
:1006C000002803DA404246F00106A061F00701D09D
:1006D00026F010066C2D0BD0682D09D04C2D39D08A
:1006E0006A2D35D0742D35D07A2D33D016E038E010
:1006F000E1682F4620468847B842054609D16C2F4D
:1007000026D04FF48060E1680643204688470546BE
:1007100004E06C2F1AD04FF4807006430DB3A5F19E
:100720004100192802D8203546F400664A46294679
:10073000204626604E46FFF761FD80B101280BD0B0
:10074000F61D26F0070000F1080956E74020E4E70F
:100750008020D8E70020D6E706F104094DE72846B7
:1007600052E7206ABDE8F09F7CB1000010B5431C41
:1007700002E010F8011B71B18107FAD14FF001328C
:1007800002C88C1A8C4314EAC211F9D0C01A0A06A6
:1007900003D0C01E10BDC01A10BD0A0401D0801EB7
:1007A00010BD0902FCD0401E10BD4FF0000200B584
:1007B000134694469646203922BFA0E80C50A0E884
:1007C0000C50B1F12001BFF4F7AF090728BFA0E832
:1007D0000C5048BF0CC05DF804EB890028BF40F8FE
:1007E000042B08BF704748BF20F8022B11F0804F40
:1007F00018BF00F8012B7047704770477047000022
:1008000070B5064C7C44064D7D4403E020682044CE
:100810008047241DAC42F9D170BD0000ACB7000088
:10082000ACB70000004870479CE6012000487047C4
:10083000A0E6012070B5064600F034F9056806F11F
:100840000B0020F00704B4429CBF002070BD2B4673
:100850006A68BAB11068A04210D304F10801884256
:100860003CBF5068586007D3516810194160116847
:10087000091B016058601460101D70BD134652685A
:10088000002AE7D12146284600F018F90028DED1D9
:1008900070BD70B50446051F00F004F90068002C17
:1008A00014BF446870BD002C18BFAC423CBF20464A
:1008B0006468F8D301680A18AA4218BF456003D1DA
:1008C0002A6805461144016028684119A1421CBFED
:1008D0006C6070BD6168696021680844286070BD03
:1008E00010B500F0E3F8006810BD10B5044600F044
:1008F000DDF8046010BD2DE9F0470D46994692469B
:10090000044600F124080168880604D5E06921F056
:100910001001216000E00120A84201DD471B00E03A
:100920000027A1697A1902EB0900081AA061207852
:10093000C00602D42046FFF703FD002608E0D4E9F4
:1009400001211AF806009047206A401C761C20629C
:100950004E45F4DB2078C0060AD52046FFF7F0FCB0
:1009600006E0D4E9012130209047206A401C206233
:10097000381EA7F10107F4DC07E0D4E9012118F8DB
:1009800005009047206A401C2062281EA5F1010541
:10099000F3DC2046FFF7EAFC2078000602D50220AF
:1009A000BDE8F0870120FBE701694A1C0261087875
:1009B000704700B58FB0CDE901310021059105499F
:1009C0007944CDE9031011466846FFF70BFE0FB0DE
:1009D00000BD0000E5FFFFFF0A6802F8010B0A6096
:1009E000704710B5436913B1AFF3008001E0FFF722
:1009F000E0FC012010BD127800F124010A700022F1
:100A00004A700122EDE711684FF0FF32E9E710B5B7
:100A1000436913B1AFF3008001E0FFF72FFD012020
:100A200010BD128800F1240182840022C2840122B8
:100A3000EDE711684FF0FF32E9E770B516460C4656
:100A4000054600F027F8036893F80101012806D055
:100A5000FF2C0FD8185D68B101202C7070BDD3F841
:100A600007013246214603F2071303442846BDE836
:100A7000704018474FF0FF3070BD10B500F06EF8B1
:100A8000BDE8104000F064B800F080B8004870473E
:100A900068E6012010B500F0DBF8001D10BD00BFB6
:100AA000756C00000048704770E6012000487047F0
:100AB00068E60120704770477047704738B50446B4
:100AC0000A4600206946AFF30080002808BF38BD01
:100AD00002460099204600F0C3F8012038BD0120ED
:100AE00000F0FFB8F8B5AFF30080054600200C46D3
:100AF000102000BF0646A819A0420DD9324669460B
:100B00000020AFF30080070008BF00F0EAF800986B
:100B1000A04218BF0546C419FFF7C4FF0560074689
:100B2000F01D20F007004619284600F00AF8B442EC
:100B300008BFF8BDA21B31463868BDE8F84000F098
:100B40008FB800210160C0E9011070471020704784
:100B5000002801D000F050B87047000010B5002107
:100B600002A000F0A5F8012010BD00005349475035
:100B700056464E3A205075726520766972747561DA
:100B80006C20666E2063616C6C65640010B500F0CB
:100B90000EF8016919B100220261884701E08068FE
:100BA000804700F07DF8000010B500F079F870B5CE
:100BB00000F052F804680546A4B92020FFF73AFE79
:100BC000040011D0094900202C60C4E90001084943
:100BD000A1602073206160610649A06109B100F045
:100BE00087F8E061204670BD00F05AF80000000070
:100BF000A90B07080000000001491820ABBEFEE762
:100C0000260002007546FFF741FFAE460500694623
:100C1000534620F00700854618B020B5FFF740FB8B
:100C2000BDE820404FF000064FF000074FF00008ED
:100C30004FF0000B21F00701AC46ACE8C009ACE86E
:100C4000C009ACE8C009ACE8C0098D467047000097
:100C50000048704788E6012000487047A4E601205C
:100C6000034640688C46002818BF88423CBF0346B4
:100C70004068F8D318681844884207D00CF1030084
:100C800020F00700001D411A521A0146081D0A6093
:100C9000FFF7FFBD0446AFF300802046FFF7EBFAF5
:100CA000002000F04BF8FFF7D8FA0120FFF7A4FF6F
:100CB00070B505460C460A2000E06D1C00F036F8C1
:100CC00035B128780028F8D102E0641C00F02EF835
:100CD00014B120780028F8D1BDE870400A2000F057
:100CE00025B810B500F032F8BDE81040FFF730BF6E
:100CF00010B58820FFF79EFD002801D0002101706B
:100D000010BD802902D808B1017809B100207047D0
:100D1000012100F8081B704718B100F10802914248
:100D200001D00020704700210170704708B5694666
:100D30008DF800000320ABBE08BD704710B500F071
:100D40006DF8BDE81040FFF703BF000010B50128A3
:100D500005D0002103A0FFF7ABFF012010BD09A1C2
:100D6000F8E7000053494752544D454D3A204F751E
:100D700074206F662068656170206D656D6F727993
:100D8000000000003A2048656170206D656D6F724B
:100D90007920636F72727570746564004FF0013C66
:100DA00050F8042B51F8043B9A4221D1A2EB0C03DA
:100DB000934313EACC1317D150F8042B51F8043B9A
:100DC0009A4215D1A2EB0C03934313EACC130BD137
:100DD00050F8042B51F8043B9A4209D1A2EB0C03C2
:100DE000934313EACC13DBD04FF00000704700BFF1
:100DF000D01A01BAB1FA81F101F0180122FA01F01A
:100E0000CB40C1F12001DBB2C0B2C01A2CFA01F311
:100E1000D11A914311EAC311E6D1704710B50021F0
:100E200002A0FFF745FF012010BD000053494741D4
:100E30004252543A2041626E6F726D616C2074654B
:100E4000726D696E6174696F6E0000008000A0F1C0
:100E5000C0400029016802D041F0010101E0024ACE
:100E60001140016070470000FEFF0F008100A1F1FA
:100E7000C04148B143F2D200C1F800006FF07040A9
:100E80004860C1F8040170474FF0204243F2DB0094
:100E90001060F3E730B501688A00A2F1C042136820
:100EA0003F490B40D0E901142143D0E903452C43CD
:100EB00021434469214384692143C4692143046A6D
:100EC0002143446A2143846A2143C46A2143046B59
:100ED0002143446B2143194311608168082907D1DC
:100EE00001688900A1F1C0410A6842F040020A602D
:100EF000416BB1F5801F15D1016899B14FF02041C8
:100F00004A680B6822F4700243F480130B600B688C
:100F100043F480730B60836B224C1B8A04EB0353F6
:100F200013434B60816BD1E9002342EA03128B68C3
:100F30008C891B0243EA04431A430B8A42EA035298
:100F40000B7D896942EA03620A4301688900A1F1C5
:100F5000C0414A60816AB1F5804F08D000686FF0E7
:100F600070418000A0F1C040C0F8041130BD01689C
:100F70008A00A2F1C042D2F804310B490B40C16B88
:100F8000D1E9000440EA04108C688D89240244EA07
:100F900005448969204308431843C2F8040130BD61
:100FA0008000E7FF0000F0FF0000F0CF02460020C5
:100FB00092690A4200D001207047000010B5026813
:100FC00022F0010202600268124B1A40D1E901349A
:100FD00042EA0422134303600A6822F0706202614D
:100FE000026842F00102026000228260C2600B6966
:100FF0008A691A438260826842F400428260CA6849
:101000000368134303604268034B49691A40114364
:10101000416010BDFFE0CF00FF7FFF07406AC0B214
:10102000704781627047000070B54468049DC1F349
:101030000901044E41EA0241194334402943214346
:10104000416070BD009800FCF0B500230124032727
:101050000D6804FA03F21540954242D1D0F800C061
:101060005E0007FA06F52CEA050CC0F800C091F8FE
:1010700004C0D0F800E00CFA06FC4CEA0E0CC0F8F4
:1010800000C091F804C0BCF1010F02D0BCF1020F06
:101090001FD1D0F808C02CEA050CC0F808C091F8A0
:1010A00005C0D0F808E00CFA06FC4CEA0E0CC0F8BB
:1010B00008C0D0F804C02CEA020CC0F804C0426892
:1010C00091F806C00CFA03FC1FFA8CFC42EA0C02F1
:1010D0004260C268AA43C260CA79C568B2402A4366
:1010E000C2605B1C102BB3D3F0BD4B07DB0E9A40E4
:1010F000C90810B500EB8100016A0F249C40A14390
:101100000162016A1143016210BD000000B587B0A1
:1011100000F04AF8224800900020019084210290BB
:10112000CDE903010590069069461E48FFF746FF8A
:10113000002000F09DF8412000F09AF802214120A3
:1011400000F0C4F8412000F093F80321412000F0A2
:10115000BDF8402000F08CF80921402000F0B6F8DE
:10116000482000F085F80021482000F0AFF860200A
:1011700000F07EF80021602000F0A8F8642000F064
:1011800077F83E21642000F0A1F8682000F070F8A4
:101190003E21682000F09AF807B0002000BD000052
:1011A00052528000006000407CB501210C062046B0
:1011B00000F074FD0121092000F058FD0121880391
:1011C00000F084FD0121204600F074FD002120463E
:1011D00000F070FD2013009002208DF804008DF8BF
:1011E00005000125114E8DF8065000248DF80740AA
:1011F00069463046FFF728FF68030090694630468D
:10120000FFF722FF04220C213046FFF76EFF042275
:101210000D213046FFF769FF8DF8044000958DF8E9
:10122000074069460248FFF70FFF7CBD000C0240F3
:101230000000024010B5102000F01AF8C0F344017D
:101240001F2913D0810601D4012010BD010701D44C
:10125000022010BD410701D4032010BD810701D435
:10126000042010BDC00601D4052010BD002010BD13
:1012700038B504464FF40050134D0090002301226E
:1012800084212846FFF7D0FE21462846FFF7C9FEF5
:101290002C4640212046FFF789FE0028F9D04FF464
:1012A000105000904FF00073012284212046FFF778
:1012B000BBFE04212046FFF779FE0028F9D0204626
:1012C000BDE83840FFF7AABE00600040F8B505460B
:1012D0004FF40050194C0E46C302009001228421A5
:1012E0002046FFF7A1FE02212046FFF75FFE0028FF
:1012F000F9D029462046FFF794FE80212046FFF7CB
:1013000055FE0028F9D000254FF0007301228421FA
:1013100020460095FFF788FE31462046FFF781FE04
:101320000748056042F2107103E045600268521CF4
:10133000026002688A42F8D3F8BD000000600040F5
:10134000ECE001202DE9F05F594CDFF868A18346FD
:10135000C4E91601DAF800001646574601695846F6
:10136000884705463146544804F0E4FB304603F014
:10137000D3FB8119504804F024FC50494E4804F036
:101380008DFC4E494C48A83104F088FC4C494A4831
:1013900004F084FC4A494848A83104F07FFC4949DC
:1013A000454804F07BFC47494348A83104F076FCEB
:1013B000A4F1800000260670386803210268A06D41
:1013C0009047C0B2404F4FF00109012824D087F860
:1013D000009000213A4804F035F87E7087F80290BA
:1013E000E06DB04638B3DAF800105646A1460A68F8
:1013F0001C219047C4B230681D210268D9F85C00F6
:101400009047C6B2D9F8580002F044FD2F4A014671
:10141000002052F821100BE03E700121DAE7A242D1
:1014200000D178700A5CB24200D1B870401CC0B2E2
:101430000A5CFF2AF3D187F8038087F8048087F8D5
:10144000058087F8068087F8078087F8088087F886
:10145000098087F80A8087F80B80584600F048F822
:1014600015491B48C1F80C010021134804F084FB06
:101470000920B0EB157F16D0C5F30360092812D000
:101480000021104803F0DEFF0A20B0EB157F0CD0DE
:10149000C5F303600A2808D00021BDE8F05F0948C1
:1014A000A83003F0CFBF0121EBE70121F5E70000F1
:1014B00084E00120F4FF01201CE101202CE2012046
:1014C0007CE30120CCE401205CE601205C99070864
:1014D0002940070810B5054C204604F091FB04F59F
:1014E0008270BDE8104005F05DB900001CE10120EC
:1014F000002102F0BDBD00002DE9F14FC54D0527CB
:10150000C54EDFF81893DFF81883002405F1850A2B
:101510003068295D02681AF801100098904798F821
:10152000003009EB83122B5D641CE4B222F8130037
:10153000BC42EDD3B74D01270024DFF8E4A2ED1E35
:1015400005F1010B0AF1E00A3068295D02681BF819
:1015500001100098904798F800200AEBC2012A5D1C
:10156000641CE4B241F82200BC42EDD3454698F831
:101570000000DFF8A88200EB400108F140084FF0BE
:10158000000A18F821000124E8BB3068082102682D
:101590000098904729784F4609EB8111888230687E
:1015A0000C210268009890472A7800B207EB82115C
:1015B00002EB420308EB83020883D278012A35D17B
:1015C000B1F9142002B9E8B312FB02F110FB0010CC
:1015D00000EE100AB8EEC00A05F055F9BDEEC00ADB
:1015E000287810EE101A07EB80108187B0F91810D8
:1015F000B0F9140000EE101AF8EEC00A00EE100A5E
:10160000B8EEC00A00E019E005F03FF9DFED850A09
:1016100020EE200ADFED840A297880EE201A07EBFD
:101620008111BDEEC10A10EE100AC887686E08B1BC
:1016300080F82040286F08B180F8204030680121F0
:10164000026800E027E00098904786B2070C56EA4F
:10165000070008D07548B0F80001012803D0012127
:10166000724804F089FA686B58B306B1BFB170488C
:1016700003F06EFF696B884202D16D4803F0CDFF25
:10168000686B4CF21861428B8A421AD04183002168
:1016900003F0A7FE12E0A1F83CA05A20C5E7002104
:1016A0004183012103F09DFE614803F051FF696B06
:1016B000884203D000215E4803F056FF686B80F833
:1016C00020402878514600EB400208EB8200730668
:1016D00080F805A04FF0020200D542717B0600D5CC
:1016E00044718171F30600D58271FB0600D58471C7
:1016F000C171B30600D5C271BB0600D5C4710172B9
:10170000F30700D00272FB0700D00472330600D545
:1017100002723B0600D504724172730700D5427213
:101720007B0700D544728172B30700D58272BB0774
:1017300000D58472C172310700D5C272390700D555
:10174000C472696BF1B33349AA694379491D568B59
:1017500031F813309E4202D0538382F82040EA6968
:101760008379568B31F813309E4202D0538382F82E
:1017700020402A6AC379568B31F813309E4202D03A
:10178000538382F820406A6A037A568B31F813300B
:101790009E4202D0538382F82040AA6A437A568B35
:1017A00031F813309E4202D0538382F82040EA6A17
:1017B000837A568B31F813309E4202D0538382F8DD
:1017C000204000E009E02A6BC07A538B31F810000A
:1017D000834202D0508382F82040286908B180F803
:1017E0002040686908B180F820400D488030C06C06
:1017F00008B180F82040686D08B180F82040A86EDC
:1018000008B180F82040686F002801D080F820409F
:10181000BDE8F88F03990708F4FF01201CE60120BA
:1018200004E0012000003443C3F548401CE10120DE
:10183000D4E2012030B50546002440F23F11204695
:1018400000F0F4F94FF0C041222008804FF49630A8
:101850004D80641C8442FBD330BD00007CB5012167
:10186000782000F003FA4CF23370009002208DF8DB
:1018700004008DF8050000208DF80600404C8DF81E
:10188000070069462046FFF7DFFB0C2200212046B7
:10189000FFF72BFC0C2201212046FFF726FC0C222F
:1018A00004212046FFF721FC0C2205212046FFF7EA
:1018B0001CFC0C2208212046FFF717FC0C220921F2
:1018C0002046FFF712FC0C220A212046FFF70DFCF0
:1018D0000C220E212046FFF708FC0C220F21204687
:1018E000FFF703FC4FF68070264D009069462846AE
:1018F000FFF7AAFB0C2207212846FFF7F6FB0C2274
:1019000008212846FFF7F1FB0C2209212846FFF7A2
:10191000ECFB0C220A212846FFF7E7FB0C220B21E7
:101920002846FFF7E2FB0C2211462846FFF7DDFBB5
:101930000C220D212846FFF7D8FB0C220E21284649
:10194000FFF7D3FB0C220F212846FFF7CEFB012027
:101950000D4D009069462846FFF776FB0C220021CA
:101960002846FFF7C2FB8020009069462046FFF71B
:101970006BFB0C2207212046FFF7B7FB7CBD000064
:10198000000C02400010024000140240064B10B44C
:101990005B68203AD2B21C68DB88534304EB4302F5
:1019A00010BC00F003B80000F4E001202DE9F04382
:1019B000904689460026054600F038F94FF0C047AA
:1019C000184C29E02220388000201BE00C23B1FBBA
:1019D000F3F34FEAC30C802303FA0CF338F816C074
:1019E000034113EA0C0F01D10C2906D901238340CE
:1019F0001CEA030F03D10C2901D9618800E021887A
:101A00007980401C91888142E0D86D1CADB2494676
:101A1000284600F00BF9761C6268D088B042D1D815
:101A2000BDE8F083F4E001202DE9FC430024894661
:101A300005461746ADF80040ADF8044001A96846D8
:101A400000F092F84946284600F0F0F84FF0C04800
:101A5000144E21E022204346A8F800000020012275
:101A6000A2400DE037F810C01CEA020F02D1BDF809
:101A700004C001E0BDF800C0A3F802C0401CC0B221
:101A8000B1F804C08445EDD86D1CEDB24946284636
:101A900000F0CCF8641CE4B27168C888A042D9D8C0
:101AA000BDE8FC83F4E001202DE9F0479846174695
:101AB0008A460646002400F0B9F8222110484FF06B
:101AC000C045B8F1000F02D08946804614E0298055
:101AD00002E001886980641CBC42FAD3BDE8F0874B
:101AE000A5F80090B8F800006880761CB6B25146A0
:101AF000304600F09BF8641CBC42F1D3EEE70000D6
:101B0000F4E0012000B5012197B0084600F0BAF8D2
:101B100004201090032011900720129001201390B0
:101B2000149000201590169008210090CDE9010135
:101B30001021CDE90310059009020690CDE90701B7
:101B400009900A900B900C900D9010A80E900F9099
:101B50000020FFF78BF96846FFF79CF90121002070
:101B6000FFF774F917B000BD024A1388038050884C
:101B700008807047F4E00120014840687047000089
:101B8000F4E00120012070472DE9F04F8046099FC5
:101B9000A1F23F11D01985B2484280B28346014676
:101BA0001E460024284600F041F84FF0C0494FF08F
:101BB000220A1DE041F20801032000F051F84A46D4
:101BC000A9F800A0002005E004FB060338F8131074
:101BD0005180401CB042F7D341F21801032000F0BD
:101BE0003FF86D1EADB25946284600F01FF8641C40
:101BF000BC42DFD3BDE8F08F4FF0C0410880488879
:101C00007047000001B5BDF800000149488008BDDB
:101C1000F4E0012003B5BDF8001003480180BDF8D1
:101C2000041041800CBD0000F4E001200B4600B51B
:101C30000146202000F014F8194621205DF804EB3D
:101C400000F00EB80149486070470000F4E0012040
:101C500001B5BDF800000149088008BDF4E001208D
:101C60004FF0C0421080518070470000044A0029A4
:101C7000116801D0014300E081431160704700000A
:101C800030380240044A0029116801D0014300E0C5
:101C9000814311607047000038380240044A00292F
:101CA000116801D0014300E08143116070470000DA
:101CB00040380240044A0029116801D0014300E085
:101CC000814311607047000020380240044A002917
:101CD000116801D0014300E08143116070470000AA
:101CE000443802402DE9F84F00200090FFF7B6FD80
:101CF000FFF708FF052005F0EDFC0020FFF77CFF53
:101D0000A0F513414FF480764FF4E06740F20223D0
:101D100041F2B07540F2371840F239194FF4E85AE1
:101D200040F2023B41F218040090203902D0491FD2
:101D30007DD0DAE14FF40041E520FFF791FF01216A
:101D40000020FFF78DFF31460120FFF789FF39465C
:101D50000220FFF785FF41F230010320FFF780FFEB
:101D600000210420FFF77CFF19460820FFF778FFC9
:101D700000210920FFF774FF00210A20FFF770FF00
:101D800000210C20FFF76CFF00210D20FFF768FFFA
:101D900000210F20FFF764FF00211020FFF760FFF4
:101DA00000211120FFF75CFF00211220FFF758FFF0
:101DB00000211320FFF754FF142005F08BFC294667
:101DC0001020FFF74DFF41461120FFF749FF052086
:101DD00005F080FC49461220FFF742FF052005F080
:101DE00079FC51461320FFF73BFF13212920FFF711
:101DF00037FF052005F06EFC00212020FFF730FFA3
:101E000000212120FFF72CFF06213020FFF728FFBB
:101E100040F201113120FFF723FF03213220FFF7A9
:101E20001FFF4FF483713520FFF71AFF00E071E0C8
:101E300040F602313620FFF713FF59463720FFF7EF
:101E40000FFF40F207713820FFF70AFF0721392002
:101E5000FFF706FF4FF4C0613C20FFF701FF40F29F
:101E60000B213D20FFF7FCFE00215020FFF7F8FE7C
:101E7000EF215120FFF7F4FE00215220FFF7F0FE82
:101E800040F23F115320FFF7EBFE4FF41C5160204E
:101E9000FFF7E6FE01216120FFF7E2FE00216A2044
:101EA000FFF7DEFE00218020FFF7DAFE002181200F
:101EB000FFF7D6FE00218220FFF7D2FE002183200B
:101EC000FFF7CEFE00218420FFF7CAFE0021852007
:101ED000FFF7C6FE10219020FFF7C2FE00219220DE
:101EE000FFF7BEFE03219320FFF7BAFE4FF488717F
:101EF0009520FFF7B5FE00219720FFF7B1FE0021E6
:101F00009820FFF7ADFE21460320FFF7A9FE40F21F
:101F10007311E7E001210020FFF7A2FE3146012006
:101F2000FFF79EFE39460220FFF79AFE2146032066
:101F3000FFF796FE00210420FFF792FE19460820C5
:101F4000FFF78EFE00210920FFF78AFE00210A20FC
:101F5000FFF786FE00210C20FFF782FE00210D20F6
:101F6000FFF77EFE00210F20FFF77AFE00211020F0
:101F7000FFF776FE00211120FFF772FE00211220EC
:101F8000FFF76EFE00211320FFF76AFE142005F014
:101F9000A1FB29461020FFF763FE41461120FFF701
:101FA0005FFE052005F096FB49461220FFF758FE1C
:101FB000052005F08FFB51461320FFF751FE13213A
:101FC0002920FFF74DFE052005F084FB002120208D
:101FD000FFF746FE00212120FFF742FE07213020B7
:101FE000FFF73EFE59463120FFF73AFE40F2051357
:101FF00019463220FFF734FE40F2062529463520E7
:10200000FFF72EFE40F6080631463620FFF728FE81
:1020100029463720FFF724FE40F204513820FFF70D
:102020001FFE07213920FFF71BFE19463C20FFF752
:1020300017FE31463D20FFF713FE00215020FFF729
:102040000FFEEF215120FFF70BFE00215220FFF77A
:1020500007FE40F23F115320FFF702FE4FF42741E5
:102060006020FFF7FDFD01216120FFF7F9FD002150
:102070006A20FFF7F5FD00218020FFF7F1FD002128
:102080008120FFF7EDFD00218220FFF7E9FD00210F
:102090008320FFF7E5FD00218420FFF7E1FD00210B
:1020A0008520FFF7DDFD10219020FFF7D9FD0021ED
:1020B0009220FFF7D5FD03219320FFF7D1FD4FF4C8
:1020C00088719520FFF7CCFD00219720FFF7C8FD10
:1020D00000219820FFF7C4FD21460320FFF7C0FD33
:1020E00040F233110720FFF7BBFD0348A0F10801C0
:1020F0004860BDE8F88F0000FCE00120FFF706B85B
:102100001CB500202E49019000900A6842F48032EC
:102110000A604FF4A0430A6802F400320092019A68
:10212000521C0192009A12B9019A9A42F3D10A689C
:10213000920342D50120009021484030026842F0CD
:10214000805202601F48026842F4404202601C4A0A
:10215000083213681360136843F400431360136874
:1021600043F4A0531360141F174B23600B6843F014
:1021700080730B600B689B01FCD5016841F48031D2
:1021800001604168C903FCD5016841F40031016078
:1021900041688903FCD50D4940F20570086010685C
:1021A00020F003001060106840F00200106010681A
:1021B000C0F381000228FAD11CBD00901CBD0000B4
:1021C0000038024000700040085A4077003C02404E
:1021D000124810B5016841F47001016010480168AF
:1021E00041F0010101600E4A0021083211600268CD
:1021F0000C4B1A400260031D0B4A1A60026822F45D
:102200008022026006480C300160FFF779FF034925
:102210004FF000608039086010BD000088ED00E0DC
:1022200000380240FFFFF6FE103000242DE9FE4F7B
:10223000282004F031FB0321009105233B4A3CA1F7
:1022400004F0EEFA8246282004F026FB1E210091BD
:102250000523364A39A104F0E3FA8146282004F028
:102260001BFB3C2100910523304A3EA104F0D8FA23
:102270008046282004F010FB4B21009105232B4AB7
:1022800041A104F0CDFA0746282004F005FB5A21AD
:1022900000910523254A45A104F0C2FA06462820EC
:1022A00004F0FAFAB42100910523204A48A104F071
:1022B000B7FA0546282004F0EFFA732100910523B0
:1022C0001A4A4B4904F0ACFA04465146174803F049
:1022D00010F94946154803F00CF94146134803F03C
:1022E00008F93946114803F004F931460F4803F064
:1022F00000F929460D4803F0FCF821460B4803F08D
:10230000F8F8282004F0C8FA08499623F7228DE847
:102310000E0038492C234822096802F025FC03B03E
:102320000146BDE8F04F014803F0E3B82CE201207C
:1023300048656C702050616765000000557365202A
:10234000746865206A6F79737469636B20746F2099
:10235000776F726B2077697468204C43442047552F
:10236000490000002D55502F444F574E20746F20C8
:102370006D6F7665206265747765656E20636F6E3C
:1023800074726F6C730000002D4C4546542F5249F7
:1023900047544820746F206D6F76652062657477AE
:1023A00065656E2070616765730000002D53454CB4
:1023B00020746F20696E746572616374207769742C
:1023C000682074686520636F6E74726F6C00000023
:1023D000436F707972696768742053544D696372F2
:1023E0006F656C656374726F6E69637300000000E3
:1023F0000E99070800E001202DE9F04F87B0002179
:10240000FE4803F01FF8282004F046FA0021FB4A9A
:102410000B460091A832FAA104F002FA07462820E0
:1024200004F03AFAF54A4FF0140B0A23A832FAA145
:10243000CDF800B004F0F4F90546382004F02CFA89
:102440002121EE4A00910A23A832F64904F0FCF853
:10245000F54C6060282004F01FFADFF8A0833523D4
:1024600008F1A8080A21CDF80080CDE901133C232A
:102470009B22EEA104F034F90646282004F00CFA61
:10248000112100910F233246EDA104F0C9F9049007
:10249000282004F001FA252100910F233246EBA1F8
:1024A00004F0BEF90590382004F0F6F96E22CDE96B
:1024B00000624FF00F09CDF80890227808F5527AA3
:1024C0000AEB82110323E4A202F06EFE20613820A1
:1024D00004F0E2F923216E220096CDE90121227851
:1024E00003230AEB8211DCA2891C02F05DFE60610D
:1024F000282004F0D1F9CD23CDE90083CDF808B030
:10250000AA236422D5A104F0EBF80390282004F05C
:10251000C3F90523CDF80090D2A1039A04F080F905
:10252000A061282004F0B8F9212100910523D0A151
:10253000039A04F075F9E061282004F0ADF9332125
:1025400000910523CDA1039A04F06AF920622820A6
:1025500004F0A2F9452100910523CBA1039A04F0D0
:102560005FF96062282004F097F957210091052354
:10257000C8A1039A04F054F9A062282004F08CF951
:10258000692100910523C6A1039A04F049F9E0628C
:10259000282004F081F97B2100910523C3A1039A2F
:1025A00004F03EF92063302004F076F98D2100918B
:1025B0000A23C1A1039A02F0EDFBC24960634162A4
:1025C0004CF218614183002102F00BFF4046616B21
:1025D00002F08FFF3946404602F08BFF2946404605
:1025E00002F087FF4046616802F083FF207808F51B
:1025F000627700EB400017F82010606803F0E9FEF6
:10260000B14804F1800500680169A86D8847C006DB
:102610007BD5282004F040F973230A21CDF80080EF
:10262000CDE901133C23BE22A8A104F059F880464D
:10263000282004F031F91121009105234246A7A179
:1026400004F0EEF88246282004F026F925210091B6
:1026500005234246A2A104F0E3F88146382004F0A5
:102660001BF90446A86D01F015FCDFF8B8B1212371
:102670000BF10C0B42465BF820100F200090204617
:1026800003F0E2FF684CA060382004F005F90190E7
:10269000A86D01F0FFFB5BF82010232000902123A0
:1026A0004246019803F0D0FFE0604146A7F5627012
:1026B00002F01FFF5146A7F5627002F01AFF49466B
:1026C000A7F5627002F015FFA7F56270A16802F02D
:1026D00010FFA7F56270E16802F00BFF207800EBB5
:1026E000400007EB80004178A06803F072FE20787C
:1026F00000EB400007EB80008178E06803F069FEA2
:10270000A16878484862E16848623C483146A83090
:1027100002F0EFFE39480499A83002F0EAFE37488B
:102720000599A83002F0E5FE3F4C3448A8302169F5
:1027300002F0DFFE31486169A83002F0DAFE0021C4
:10274000206902F04EFE0021606902F04AFE5E48F8
:1027500000680169A86D88470221B1EB107F03D0A2
:10276000C0F30360022813D1302004F095F8B221A1
:10277000224A00910A23A8325BA102F00BFB01461A
:1027800028641E48A83002F0B4FE296C5B484862F9
:102790001A480399A83002F0ACFE1848A169A83085
:1027A00002F0A7FE1548E169A83002F0A2FE134826
:1027B000216AA83002F09DFE1048616AA83002F03C
:1027C00098FE0E48A16AA83002F093FE0B48E16A19
:1027D000A83002F08EFE0948216BA83002F089FE75
:1027E0002078A26900EB400007EB80010D484B798F
:1027F000283830F8133053838B7981E02CE20120A4
:10280000436F6E66696775726174696F6E20616E81
:1028100064206465627567004374726C206D6F6438
:10282000650000003099070804E00120506F7765CB
:102830007220626F6172642073746174757300003A
:1028400044432042757320766F6C74004865617450
:1028500073696E6B20542E00253364004661756CDD
:10286000747300004F76657263757272656E7400E2
:102870005265767570206661696C000053706565FD
:1028800064206664626B00005357206572726F7239
:1028900000000000556E64657220766F6C74000055
:1028A0004F76657220766F6C740000004F7665720B
:1028B0002074656D700000004661756C7420616362
:1028C0006B00000011400708F4FF01204441432041
:1028D00053657474696E67730000000043683100CB
:1028E000436832002D440708456E636F64657220AB
:1028F000616C69676E6D656E740000009D44070829
:10290000E26930F813305383CB79226A30F8133000
:1029100053830B7A626A30F8133053834B7AA26A7E
:1029200030F8133053838B7AE26A30F813305383D4
:10293000C97A226B30F811005083616803484862FD
:1029400007B00348BDE8F04F02F067BE55480708DE
:10295000D4E201202DE9F04F89B0282003F09CFF3C
:1029600000210B460091FE4AFEA103F059FF03909F
:10297000282003F091FFFA494FF0140A0A238DE84A
:102980000A045A239122FCA103F0AAFE074628203C
:1029900003F082FF1E2100913C233A46F9A103F087
:1029A0003FFF0490282003F077FF412100913C2352
:1029B0003A46F5A103F034FF0590282003F06CFFA0
:1029C0000F21009105233A46F0A103F029FF834629
:1029D000402003F061FF1E2105220097CDE901216F
:1029E000EE490623A1F1E004227801EBC201ECA23A
:1029F00003F07EF8DFF8AC830646A063D8F8000049
:102A000004F1800540210268A86D90478146D8F8FE
:102A100000003F210268A86D9047C6E90E9028206B
:102A200003F03AFF3221009105233A46DEA103F07C
:102A3000F7FE0690382003F02FFF41210522009772
:102A4000CDE90121DFF870932278062309EB82118A
:102A5000D3A2091D02F0A8FB47F6FF720021E06334
:102A600002F072FB302003F017FF412100915A233E
:102A70003A46D2A102F08EF9D2492064416201F0B7
:102A8000A1F9282003F008FFB54973230A228DE835
:102A90000E004B236822CCA103F022FE064628201C
:102AA00003F0FAFE0A233246CAA1CDF800A003F0D3
:102AB000B7FE0790282003F0EFFE232100910A23A0
:102AC0003246C5A103F0ACFE0890382003F0E4FEC6
:102AD00051464FF0280A0096CDE901A1227806233D
:102AE00009EB8211AEA2891D02F05EFB6064382002
:102AF00003F0D2FE23210096CDE901A1227806231E
:102B000009EB8211A6A2083102F04EFBA0649448A2
:102B1000039902F0EEFC9248049902F0EAFC904816
:102B2000059902F0E6FC39468D4802F0E2FC594670
:102B30008B4802F0DEFC8A48A16B02F0DAFC884880
:102B4000069902F0D6FC8648E16B02F0D2FC84487C
:102B5000216C02F0CEFC8248696C02F0CAFC80480D
:102B6000A96C02F0C6FC7E48E96C02F0C2FC7C480D
:102B7000696D02F0BEFC0021E86C02F032FC78487E
:102B8000296D02F0B6FC3146754802F0B2FC74487B
:102B9000079902F0AEFC7248089902F0AAFC70484E
:102BA000616C02F0A6FC6E48A16C02F0A2FCD8F8A1
:102BB00000000169A86D884780072AD5282003F006
:102BC0006BFE32270A23324684A1009703F028FEC9
:102BD0000546382003F060FECDE9006A02972278AE
:102BE000062309EB82116EA20A3102F0DDFAE064DD
:102BF00029465B4802F07DFC5948E16C02F079FC03
:102C000047F6FF720021E06C02F09EFA616C744896
:102C1000486247F6FF752A460021606C02F094FA7C
:102C20002A460021A06C02F08FFAD8F80000016952
:102C30005A486038806D8847C0077DD0282003F04F
:102C40002BFE474973237D228DE80E004B23B422CF
:102C500064A103F045FD0546282003F01DFE0E2665
:102C60000A232A4663A1009603F0DAFD8346282052
:102C700003F012FE50232A465EA1009603F0D0FD19
:102C80008246382003F008FE0A22CDE900521927B7
:102C9000029721784E4609EB8111042357A20C318B
:102CA00002F082FA2065382003F0F6FD5022CDE9CB
:102CB000005202972178042306EB81114FA20E31B6
:102CC00002F072FA6065282003F0E6FD2C270A2343
:102CD0002A4640A1009703F0A3FD8046282003F078
:102CE000DBFD50232A463CA1009703F099FD0746DF
:102CF000382003F0D1FD0A22CDE900524FF0370908
:102D0000CDF808902178062306EB811124A210311A
:102D100002F04AFAA065382003F0BEFD5022CDE94A
:102D20000052CDF808902178062306EB81111CA2F1
:102D3000123102F039FA00E092E0E06529460848D5
:102D400002F0D7FB5946064802F0D3FB514604482F
:102D500002F0CFFB0248216D02F0CBFB00484FE0B0
:102D60007CE30120537065656420636F6E74726F3D
:102D70006C6C65720000000053657420706F696EA2
:102D80007400000072706D006D7300005461726712
:102D9000657420737065656400000000E4E0012044
:102DA00025366400F4FF012052616D702064757255
:102DB0006174696F6E0000001CE601204578656350
:102DC00000000000ED480708504944204761696E43
:102DD000730000004B5000004B4900004B440000C2
:102DE00001420708466C757820776C2E2074756E4A
:102DF000696E67004255538000000000253464006E
:102E0000616D02F076FB0021606D02F0EAFA414646
:102E1000194802F06EFB3946174802F06AFB164863
:102E2000A16D02F066FB1448E16D02F062FB4FF405
:102E30007A720021206D02F087F947F6FF752A4665
:102E40000021A06D02F080F92A460021E06D02F019
:102E50007BF9216D09484862A16D4862E16D4862C5
:102E6000616C06484862A16C486209B00248BDE83E
:102E7000F04F02F0D2BB00007CE3012001420708C2
:102E80002DE9F04F8BB0282003F006FD00210B4602
:102E90000091FE4AFEA103F0C3FC0390282003F03A
:102EA000FBFC87210091E623F84AFEA103F0B8FC61
:102EB0000490282003F0F0FC4FF00A09F34DCDE90F
:102EC00000594FF014085A239122F8A1CDF8088038
:102ED00003F006FC0646282003F0DEFC0F210091DB
:102EE00005233246F4A103F09BFCF54C2066382004
:102EF00003F0D2FC1E2105220096CDE901212278A3
:102F000005F5FC7101EB82110623EEA2143102F0EB
:102F10004BF96066282003F0BFFC0F21009150237D
:102F20003246E9A103F07CFC0590382003F0B4FCA4
:102F30001E2150270096CDE90171227805F5FC711C
:102F400001EB82110623DFA2163102F02DF9A066F3
:102F5000282003F0A1FC4FF0320B05233246DBA101
:102F6000CDF800B003F05CFCE066382003F094FC80
:102F7000412105220096CDE90121227805F5FC7159
:102F800001EB82110623CFA2183102F00DF9206760
:102F9000282003F081FC3221009150233246CDA13C
:102FA00003F03EFC0690382003F076FC41210096A9
:102FB000CDE90171227805F5FC7101EB8211062340
:102FC000C0A21A3102F0F0F86067282003F064FC18
:102FD00073220095CDE901924B236822BEA103F034
:102FE0007FFB0746282003F057FC0A233A46BEA180
:102FF000CDF8008003F014FC0790382003F04CFC5F
:103000004FF02809CDE90079CDF80880227805F540
:10301000FC7101EB82110623AAA21C3102F0C4F854
:10302000A067282003F038FC4FF0230A0A233A4611
:10303000AEA1CDF800A003F0F3FB0890382003F018
:103040002BFC8DE88006227805F5FC7101EB8211DE
:1030500006239CA21E3102F0A7F8E067282003F0A7
:103060001BFC732178220095CDE901214B236822B6
:103070009FA103F035FB0546282003F00DFC0A2331
:103080002A4699A1CDF8008003F0CAFB09903820A8
:1030900003F002FCCDE90059CDF808809849227868
:1030A000062301EB821187A2223102F07DF804F1A0
:1030B0008008C8F80800282003F0EEFB0A232A46FF
:1030C0008AA1CDF800A003F0ABFB0A90382003F0F2
:1030D000E3FB8DE820068A492278062301EB821162
:1030E00078A2243102F060F84146C860302003F035
:1030F000D3FB73210091E623644A82A102F01EFCF7
:1031000041468861382003F0C7FB96210091E623F1
:103110005E4A7E4903F098FA4146C86100F052FECB
:103120005A48039902F0E5F95848049902F0E1F988
:103130003146564802F0DDF95448216E02F0D9F9C3
:103140005248616E02F0D5F95048059902F0D1F964
:103150004E48A16E02F0CDF90021A06E02F041F9B7
:103160004A48E16E02F0C5F94848216F02F0C1F902
:103170004648069902F0BDF94448616F02F0B9F97A
:103180000021606F02F02DF94046416C3F4802F08B
:10319000B0F94046816C3D4802F0ABF94046C16C45
:1031A0003A4802F0A6F94046416D384802F0A1F9CC
:1031B00040460021C06C02F014F94046016D3348CE
:1031C00002F097F9207800EB40014D48403000EBC9
:1031D0008100394606792D4802F08BF92B48079972
:1031E00002F087F92948A16F02F083F9274808996E
:1031F00002F07FF92548E16F02F07BF9A16F4448A6
:103200004862E16F434848624348006801694046AC
:10321000806D8847400747F6FF7A2CD5282003F0B9
:103220003BFB0A233A463DA1CDF800B003F0F8FA83
:10323000C8F800004446382003F02EFB204A8DE8F1
:10324000800A2F491278062301EB82111DA220313A
:1032500001F0AAFF60600D48216802F04AF90B48AE
:10326000616802F046F952460021606801F06CFF87
:1032700061682B484862124F544652460021B86F8D
:1032800001F062FF22460021F86F4BE024E40120A8
:1032900043757272656E7420636F6E74726F6C6CBE
:1032A00065727300496E7075740000005365742078
:1032B000706F696E747300004971207265662E002C
:1032C00004E0012025366400497100004964207241
:1032D00065662E004964000049712050494420472A
:1032E00061696E73000000004B5000004B49000004
:1032F000496420504944204761696E730000000012
:103300001CE601204C696E6B000000007C990708E8
:10331000814307083D430708F4FF01204B440000A8
:10332000F542070801F010FF29465D4802F0E1F878
:103330005B48099902F0DDF844465948D8F808106E
:1033400002F0D7F856480A9902F0D3F85448E168D9
:1033500002F0CFF8534800680169A06D8847DFF894
:103360004881000731D5282003F096FA0A232A461F
:10337000AFF25801CDF800B003F052FA20613820C6
:1033800003F08AFA8DE8200A48493A78062301EBCF
:103390008211AFF2D002263101F006FF6061404891
:1033A000216902F0A6F83E48616902F0A2F852468F
:1033B0000021606901F0C8FE002E56D0002160692E
:1033C00002F00FF86169C1F8248055465246002189
:1033D000A06801F0B9FE2A460021E06801F0B4FEC1
:1033E0002F48A16902F085F82D48E16902F081F8C3
:1033F0003878DFF8B89000EB400109F1400909EB9B
:103400008100C178E06902F0E4FF01F087FAA56964
:103410006A6A2AB195F8210010B1314628469047D2
:1034200085F82C601EB30021A06801F0DAFF06B316
:103430000021E06801F0D5FFE1691D484862A169FB
:103440001C484862786E1C4941623A6F1B495162C0
:10345000A268C2F82480E268C2F82480397801EBBF
:10346000410219F8221031B113E00121A7E701212F
:10347000DAE70121DDE7002101F0B3FF0948006828
:103480000169A06D8847800603D40021386F01F0E0
:10349000A8FF0BB00248BDE8F04F02F0BEB8000034
:1034A00024E40120F4FF0120014207081CE601206A
:1034B000A14A070845420708F1450708B54407082F
:1034C0002DE9F04FFF4887B000270068FE4C0169E6
:1034D000A06D8847064609200025B0EB167F09D16C
:1034E000282003F0D9F90023F84AF9A1009503F048
:1034F00097F90746C6F30360092809D1282003F08D
:10350000CBF90023F14AF9A1009503F089F90746A8
:103510007006DFF8B8B34FF028000BD503F0BCF904
:1035200014210A22CDF800B0CDE901215A239122BD
:10353000F7A10AE003F0B0F914210A22CDF800B097
:10354000CDE901215A239122F4A103F0C9F80546DF
:10355000282003F0A1F94FF00F0A05232A46F0A115
:10356000CDF800A003F05CF90390382003F094F943
:103570001E210522DFF850930095CDE90121A9F124
:103580008009DFF8A08399F80020062308EB821158
:10359000E5A2283101F008FE2062282003F07CF922
:1035A00050232A46E1A1CDF800A003F039F9049098
:1035B000382003F071F91E214FF0500A0095CDE933
:1035C00001A199F80020062308EB8211D6A22A3126
:1035D00001F0EAFD606200F0F5FB3946BB4801F0FE
:1035E00088FF2946B94801F084FFB848039901F0E3
:1035F00080FFB648216A01F07CFFB448049901F0CD
:1036000078FFB248616A01F074FF700658D528202F
:1036100003F042F93221009105232A46C4A103F0A8
:10362000FFF80390382003F037F941210522009577
:10363000CDE9012199F80010474608EB81110623D6
:10364000B9A2303101F0B0FD47F6FF720021A0624F
:1036500001F07AFD282003F01FF932210091502358
:103660002A46B5A103F0DCF80490382003F014F9E1
:1036700041210095CDE901A199F80010062307EB3F
:103680008111A9A2323101F08FFD47F6FF720021AE
:10369000E06201F059FD8D48039901F02AFF8B4843
:1036A000A16A01F026FF8948049901F022FF8748AA
:1036B000E16A01F01EFFA16AA1484862E16A48621E
:1036C0008248616C01F015FF8048A16C01F011FF88
:1036D0007E48E16C01F00DFF7C48616D01F009FF4F
:1036E0000021E06C01F07DFE7848216D01F001FFC2
:1036F0000920B0EB167F7DD1282003F0CDF873238D
:103700000A21CDF800B0CDE901134B2340F2271276
:103710008CA102F0E5FF0546282003F0BDF8142631
:103720000A232A468BA1009603F07AF803903820EA
:1037300003F0B2F8CDE9005A0296474699F8001016
:10374000C84607EB8111062377A2343101F02CFD26
:1037500047F6FF720021206301F0F6FC282003F0F9
:103760009BF84FF023090A232A467DA1CDF800904B
:1037700003F056F88346382003F08EF8CDE9005A5E
:10378000CDF8089098F80010062307EB811166A287
:10379000363101F009FD6063282003F07DF8322105
:1037A00000910A232A4670A103F03AF804903820C9
:1037B00003F072F832210095CDE901A198F80010CC
:1037C000062307EB811158A2383101F0EDFCA0630C
:1037D000282003F061F8B4232A4665A1009603F07F
:1037E0001FF80590382003F057F8E621CDE9005185
:1037F000029600E0D4E098F80010032307EB811153
:103800005DA23A3101F0D0FCE0632E48222100682D
:103810000268A06D9047421E0021E06B01F094FC0D
:10382000282003F039F88C232A4654A1009602F090
:10383000F7FF8246282003F02FF88C232A4650A158
:10384000CDF8009002F0ECFF98F80010064607EB68
:10385000811090F83A20A06D00F0B4FDE16B49486A
:103860004862216B48484862616B48484862A16BD6
:10387000474848625146154801F03BFE314613481F
:1038800001F037FE2946114801F033FE0F48039935
:1038900001F02FFE0D48216B01F02BFE59460B481D
:1038A00001F027FE0948616B01F023FE07480499E7
:1038B00001F01FFE0548A16B01F01BFE03480599AE
:1038C00068E00000F4FF012084E00120CCE4012046
:1038D00053656E736F726C6573732074756E696E69
:1038E000672053544F202620504C4C0053656E7374
:1038F0006F726C6573732074756E696E67205354B4
:103900004F202620504C4C2028417578290000007B
:1039100053544F202620504C4C00000053544F006D
:10392000473100001CE601202536640047320000C4
:10393000504C4C204B500000504C4C204B49000048
:10394000014207085265762075702074756E696EA5
:10395000670000004475726174696F6E00000000BA
:10396000456E642073706400456E642049710000E8
:103970005374616765000000253364006D730000B7
:1039800072706D00414A07087D4A0708D14A07084E
:10399000F54A070801F0ADFD0748E16B01F0A9FD0C
:1039A000216A06484862616A486207B00248BDE879
:1039B000F04F01F032BE0000CCE4012001420708C4
:1039C0002DE9F04FD148DFF8488387B00068002523
:1039D0000169D8F85800884707460A240026B4EB46
:1039E000177F09D1282002F057FF0023C94ACAA136
:1039F000009602F015FF0546C7F303600A2809D1B7
:103A0000282002F049FF0023C24ACBA1009602F011
:103A100007FF0546282002F03FFFBE4BCDE90034EA
:103A200014210291A3465A239122CDA102F058FEFF
:103A30000646282002F030FF0F2100910523324670
:103A4000C8A102F0EDFE8146382002F025FF1E21BC
:103A500005220096CDE90121AD49DFF8B8A28039F1
:103A60000AF1A80A097806230AEB8111BEA22C31BB
:103A700001F09AFBC8F820004446282002F00CFF11
:103A80000F21009150233246B8A102F0C9FE8046B2
:103A9000382002F001FF1E2150220096CDE90121BD
:103AA0009B4906238039B0A209780AEB81112E3197
:103AB00001F07AFB606200F085F92946954801F033
:103AC00018FD3146934801F014FD4946914801F034
:103AD00010FD9048216A01F00CFD41468D4801F02F
:103AE00008FD8C48616A01F004FD8A48616C01F0B0
:103AF00000FD8848A16C01F0FCFC8648E16C01F0F7
:103B0000F8FC8448616D01F0F4FC0021E06C01F0E8
:103B100068FC8048216D01F0ECFCBBEB177F7DD188
:103B2000282002F0B9FE7B4A00927323CDE901B34D
:103B30004B2340F227128EA102F0D2FD0546282029
:103B400002F0AAFE4FF014080A232A468CA1CDF8F1
:103B5000008002F065FE0390382002F09DFE4FF0D9
:103B600050096B4FCDE90059803FCDF80880397876
:103B700056460AEB811106237BA2343101F014FB77
:103B800047F6FF720021206301F0DEFA282002F0E0
:103B900083FE4FF0230A0A232A467CA1CDF800A019
:103BA00002F03EFE8346382002F076FE8DE82006C5
:103BB0003978062306EB81116BA2363101F0F4FA55
:103BC0006063282002F068FE322100910A232A4611
:103BD00070A102F025FE0490382002F05DFE322133
:103BE0000095CDE901913978062306EB81115EA29B
:103BF000383101F0D9FAA063282002F04DFEB42339
:103C00002A4666A1CDF8008002F00AFE0590382011
:103C100002F042FEE622CDF8088000E06BE0CDE93C
:103C200000523978032306EB81115EA23A3101F08C
:103C3000BBFAE0633548222100680268A06D904716
:103C4000421E0021E06B01F07FFA282002F024FEE2
:103C50008C232A4654A1CDF8008002F0E1FD814674
:103C6000282002F019FE8C232A4650A1CDF800A08E
:103C700002F0D6FD3978804606EB811090F83A20A4
:103C8000A06D00F09FFBE16B49484862216B4948F9
:103C90004862616B48484862A16B4848486249469F
:103CA0001C4801F026FC41461A4801F022FC294636
:103CB000184801F01EFC1748039901F01AFC15483A
:103CC000216B01F016FC5946124801F012FC114814
:103CD000616B01F00EFC0F48049901F00AFC0D48DD
:103CE000A16B01F006FC0B48059901F002FC0948A4
:103CF000E16B01F0FEFB216A31484862616A48626B
:103D000007B00448BDE8F04F01F087BCF4FF012084
:103D100084E0012074E5012053656E736F726C6559
:103D200073732074756E696E672053544F2026207C
:103D3000434F52444943000053656E736F726C6584
:103D400073732074756E696E672053544F2026205C
:103D5000434F524449432028417578290000000010
:103D600053544F00473100002536640047320000AD
:103D70005265762075702074756E696E670000005C
:103D80004475726174696F6E00000000456E6420B6
:103D900073706400456E642049710000537461675C
:103DA00065000000253364006D73000072706D00C3
:103DB000414A07087D4A0708D14A0708F54A07081B
:103DC000014207083EB5282002F066FDA0232349E2
:103DD000CDE90013142202925A23912220A102F06D
:103DE0007FFC214C6064282002F056FD0F210091D9
:103DF00005231EA1626C02F013FDA064402002F0B6
:103E00004BFD0521626CCDE9002104F160011E2506
:103E1000A1F1E00202951278062301EBC20117A27C
:103E2000091D01F065FEE064302002F035FD4121FE
:103E30000091052312A1626C00F0ACFF20652820E0
:103E400002F02AFD00953C2310A1626C02F0E8FC10
:103E50006065216D0E4848623EBD000040E10120D2
:103E60004D6F6E69746F720084E001204D6561735F
:103E700075726564207370656564000025366400A2
:103E800053746172742F53746F70000072706D0000
:103E9000D940070870B53149002409680969884785
:103EA000010E0E074FF009014FF00A024FF0020316
:103EB0004FF001050ED0B1EB107F03D1C0F30366C4
:103EC0000A2E17D0B2EB107F15D1C0F30366092E6E
:103ED00010D010E0B1EB107F00D10124B2EB107FC5
:103EE00000D10224B5EB107F02D0B3EB107F33D1A9
:103EF000032431E00624B1EB107F05D1C0F3036148
:103F000002290BD0012909D0C0F30361092906D188
:103F1000B3EB107F02D0B5EB107F00D10424B2EBDD
:103F2000107F05D1C0F3036102290BD0012909D00C
:103F3000C0F303610A2906D1B3EB107F02D0B5EBC1
:103F4000107F00D105240B21B1EB107F04D1C0F309
:103F50000360092800D10724204670BDF4FF01202A
:103F600010B5274801F027FB2548A83001F023FBB6
:103F7000244801F020FB2348A83001F01CFB224814
:103F800001F019FB2048A83001F015FB1F49002063
:103F900048608860C860086148618861C8610862DB
:103FA00048628862C862086348638863C8630864BB
:103FB00048648864C864086548658865C86508669B
:103FC00048668866C866086748678867C86780313A
:103FD000086048608860C860086148618861C8619D
:103FE000086248628862C862086348638863C8637D
:103FF000086448648864C8640865486510BD0000AA
:104000002CE201207CE30120CCE4012004E001202B
:10401000034807210068C2680248806D104700000D
:10402000F4FF012084E0012010B50C46FFF798FF53
:10403000062C1CD2DFE804F003070B0F1317BDE8B2
:104040001040FEF7F3B8BDE81040FEF7D5B9BDE863
:104050001040FEF77FBCBDE81040FEF711BFBDE881
:104060001040FFF72DBABDE81040FFF7A9BC10BD06
:104070002DE9F047814616480E46134FDFF84C8075
:10408000002400EB8615395D7D2908D0D8F80000A2
:10409000026848469047411C01D025F81400641C72
:1040A000E4B2202CEFD3D8F800000421026848467F
:1040B0009047084941F8360095F83A20314648467D
:1040C000BDE8F04700F07EB988990708F4FF0120A9
:1040D0001CE60120E4E001202DE9F047414A424F6F
:1040E000424DA7F1400C2DED068B02F180041178B2
:1040F0002B6801EB41060CEB811017F82680B8F114
:10410000000F06D007EB8601C97859B1012960D1AB
:104110000EE0828833485B68E03050F83110A06DC3
:10412000984756E0B0F91820B0F914101B6A4EE019
:10413000E1469046B0F93E0003F03DFD9FED2C8B2B
:1041400053EC182B03F062FD9FED2B9B53EC192BC6
:1041500003F0AAFB41EC100B02F042FD98F80010AE
:10416000B0EE40AA09EB8116F0EE60AAB6F93C0069
:1041700003F021FD53EC1A2B03F048FD03F0ECFC97
:1041800007B2B6F93E0003F016FD53EC182B03F00E
:104190003DFD53EC192B03F087FB41EC100B02F0B3
:1041A00083FD98F80010B0EE408A09EB8110F0EE24
:1041B000608AB0F93C0003F0FEFC53EC182B03F0CE
:1041C00025FD03F0C9FC01B228683A46036AA06DD8
:1041D000984728680621C268A06DBDEC068BBDE833
:1041E000F047104704E001205CE60120F4FF0120C5
:1041F0001F85EB51B81E094000000000008066409A
:104200000D4B0C4A806A1B7802EB8312801A0B4A12
:10421000400852FA80F31B787D2B0AD0C0B2105CA4
:10422000074A126893680A46014603488030806D49
:10423000184770471CE6012004E001208899070810
:10424000F4FF01202DE9F041284E11F0FF05284927
:10425000307800EB400001EB8000057140D0002178
:10426000224C8034A06801F0BCF8C5B30021E0689E
:1042700001F0B7F8FDB11E4F3078403F07EB8010DA
:10428000B0F91C104184C28B8284028CC284A06865
:1042900000F03EFE307807EB8010B0F92410E068A3
:1042A00000F036FE606930B1317807EB8111B1F969
:1042B000261000F02DFEA068012680F82060E0683E
:1042C00080F820606069002807D06DB15FF00001C0
:1042D00001F087F8606980F82060BDE8F08101E0B6
:1042E0000121BDE70121C2E70121F1E704E001203E
:1042F0005CE6012070B50D46FFF782FF0D480E4ABF
:10430000017801EB410002EB8000007900280FD01A
:10431000084C8034606900280AD0403A02EB8111D1
:10432000CD84294600F01AFE6069012180F8201032
:1043300070BD000004E001205CE6012010B50C46D1
:10434000FFF75EFF0C480D4A007800EB400102EBDE
:104350008101097900290ED0A2F1400101EB801002
:1043600021468484044C8034E06800F0F7FDE06866
:10437000012180F8201010BD04E001205CE601203E
:1043800010B50C46FFF73CFF0C480D4A007800EBD7
:10439000400102EB8101097900290ED0A2F1400110
:1043A00001EB801021464484044C8034A06800F066
:1043B000D5FDA068012180F8201010BD04E0012087
:1043C0005CE60120F8B51546094A02EB811409495B
:1043D00004F1380200920968931E121F8E69294663
:1043E000B047E08E00EB40004000E086F8BD0000E2
:1043F0001CE60120F4FF012038B51546094A0623C2
:1044000002EB8112B2F9361091FBF3F10BB2B2F963
:10441000381000910449928E09684C692946A047DA
:1044200038BD00001CE60120F4FF01202DE9F04119
:10443000164A054610461649007802F1800400EB42
:10444000400001EB80019368124E134FA06D9D4216
:104450000BD193F830504D70FFF71CFD56F820003B
:104460000021425D3868C3690BE0D26892F8305091
:104470008D70FFF70FFD56F820000121425D38686E
:10448000C369E06DBDE8F0411847000004E0012079
:104490005CE601205C990708F4FF0120034808212D
:1044A0000068C2680248806D10470000F4FF0120D8
:1044B00084E001202DE9F047464D4749DFF81C9183
:1044C000A1F140062DED068B05F18004287800EB64
:1044D000400201EB820306EB8010DB78002B4FD00B
:1044E000012B72D1B046B0F93E0003F064FB9FEDA2
:1044F0003C8B53EC182B03F089FB9FED3B9B53EC5B
:10450000192B03F0D1F941EC100B02F069FB29786B
:10451000B0EE40AA08EB8117F0EE60AAB7F93C00B4
:1045200003F049FB53EC1A2B03F070FB03F014FB70
:1045300006B2B7F93E0003F03EFB53EC182B03F034
:1045400065FB53EC192B03F0AFF941EC100B02F0B3
:10455000ABFB2978B0EE408A08EB8110F0EE608A60
:10456000B0F93C0003F027FB53EC182B03F04EFB93
:1045700003F0F2FA01B2D9F800003246036A09E00A
:1045800011F82210154A136851B1B0F91820B0F98A
:1045900014101B6AA06DBDEC068BBDE8F0471847F0
:1045A00019694F46A06D884780060ED528784121AD
:1045B00006EB8010B0F9182038688368A06DBDEC58
:1045C000068BBDE8F0471847FFE7BDEC068BBDE85A
:1045D000F087000004E001205CE60120F4FF0120E8
:1045E0001F85EB51B81E09400000000000806640A6
:1045F0002DE9F0473A4D3B4ADFF8EC80A2F1400448
:104600002DED068B05F18009287800EB400102EBC7
:10461000810104EB8010C978002954D001295AD1B6
:10462000B0F93E0003F0C7FA9FED309B53EC192B15
:1046300003F0ECFA9FED2F8B53EC182B03F034F9B9
:1046400041EC100B02F0CCFA2878B0EE40AA04EB53
:104650008017F0EE60AAB7F93C0003F0ACFA53EC17
:104660001A2B03F0D3FA03F077FA06B2B7F93E003B
:1046700003F0A1FA53EC192B03F0C8FA53EC182BF2
:1046800003F012F941EC100B02F00EFB2878B0EEAB
:10469000408A04EB8010F0EE608AB0F93C0003F031
:1046A0008AFA53EC182B03F0B1FA03F055FA01B271
:1046B000D8F800003246036AD9F85800BDEC068BE2
:1046C000BDE8F0471847B0F91820B0F91410D8F831
:1046D0000000036AF0E7BDEC068BBDE8F087000040
:1046E00004E001205CE60120F4FF01201F85EB516E
:1046F000B81E0940000000000080664070B54D4CB7
:104700004D4A2DED068BA2F14005207800EB4001CB
:1047100002EB810105EB8010C97831B101294CD140
:10472000B0F9141000294BD04CE0B0F93E0003F072
:1047300042FA9FED429B53EC192B03F067FA9FED71
:10474000418B53EC182B03F0AFF841EC100B02F047
:10475000ABFA2078B0EE40AA05EB8016F0EE60AA26
:10476000B6F93C0003F027FA53EC1A2B03F04EFA8B
:1047700003F0F2F9B082B6F93E0003F01CFA53ECF4
:10478000192B03F043FA53EC182B03F08DF841EC8E
:10479000100B02F025FA2078B0EE408A05EB801469
:1047A000F0EE608AB4F93C0003F005FA53EC182BE4
:1047B00003F02CFA03F0D0F92083BDEC068B70BD1A
:1047C000028B8AB311FB01F1008B10FB001000EE8D
:1047D000100AB8EEC00A02F056F8BDEEC00A207802
:1047E00010EE101A05EB80108187B0F91810B0F99F
:1047F000140000EE101AF8EEC00A00EE100AB8EE2F
:10480000C00A02F042F8DFED110A217820EE200AFA
:10481000DFED0F0A05EB811180EE201ABDEEC10A13
:1048200010EE100AC887C8E7FFE7002181875A21E8
:10483000C187C2E704E001205CE601201F85EB513F
:10484000B81E0940000000000080664000003443AC
:10485000C3F548402DE9F041204D224E05F180047A
:104860002978686801EB41021D4990F8300001F891
:104870002200012807D001211B4800F0E3FD306829
:104880000122836825E0306802210268A06D90470C
:10489000C0B930680921C268A06D904730682921ED
:1048A0000268A06D90470E4F2978403F07EB8111B9
:1048B000888230682A210268A06D9047297807EB2A
:1048C000811108830021084800F0BCFD30680022F7
:1048D0008368A06DBDE8F0410321184704E0012082
:1048E0005CE60120F4FF01207CE30120094808492F
:1048F000007801EB80118A880649E03151F83010C8
:1049000005480068436803488030806D1847000000
:104910001CE6012004E00120F4FF01202DE9F04114
:104920003B4C3C4F04252078A7F1400600EB4000AB
:1049300007EB800047F6FF78C07810B1012836D128
:104940003EE035A1206E01F066FF35A1E06E01F07A
:1049500062FF2178606E06EB811202F1140180F88B
:1049600033508162216F18322F4E81F833508A62A2
:1049700045464246314600F0E7FB2A463146206F65
:1049800000F0E2FB207800EB400017F8200050B95F
:104990002648006801691E488030806D884780067F
:1049A00001D4002100E00121206F00F01AFD616EAA
:1049B000012081F82000216F81F82000BDE8F081FE
:1049C0001BA1206E01F027FF1BA1E06E01F023FF69
:1049D0002178606E06EB811202F13C0180F83350C1
:1049E0008162236F891C424683F83350996200210B
:1049F00000F0AAFB40F267120021206F00F0A4FB38
:104A0000207800EB400017F820000028CBD1C8E741
:104A100004E001205CE601204971207265662E00E9
:104A20004964207265662E000180FFFFF4FF0120BB
:104A3000416D702E202020004570732E4465670064
:104A400008460D4910B50B4A09780B4C02EB811250
:104A500080345087C2B2A06DFFF7B4FC216B0120F7
:104A600081F82000616B81F82000A16B81F82000A3
:104A700010BD00001CE6012004E001200748064AA2
:104A8000007802EB801291860146044892F83A20A1
:104A90008030806DFFF7B0BC1CE6012004E00120EF
:104AA000094910B508488039084A0978C06901EBFE
:104AB000410102EB810190F83000C870FFF71EFE43
:104AC000BDE81040FFF72ABF84E001205CE601202A
:104AD0000748064A007802EB8012D1860146044856
:104AE00092F83A208030806DFFF786BC1CE60120EA
:104AF00004E001200748064A007802EB8012118783
:104B00000146044892F83A208030806DFFF774BC6B
:104B10001CE6012004E00120014600200A5C401C44
:104B2000C0B2002AFAD17047F8B50446406A00289E
:104B3000204615D001F050FA0646204601F02AFA28
:104B40000546204601F0C5F90746204601F0C1F9A7
:104B500081B200963A0C2B46606A00F053FBF8BD18
:104B6000BDE8F84001F01DBA2DE9F04106AD1E4642
:104B700017460C4695E80E0000F03AFC054607483B
:104B8000286032463946284601F0FDF96C6214B1BE
:104B9000012085F820002846BDE8F081B0B807085C
:104BA00001F075BE10B5002400F0E9F800B1012451
:104BB000204610BD70B5426A0D4604464AB194F8CD
:104BC0002C0030B12DB994F8210010B100212046FD
:104BD000904784F82C5070BD70B500240546052917
:104BE00006D10021FFF7E6FF284601F091F90124E4
:104BF000284600F0C4F800B10124204670BD2DE91C
:104C0000FC5F0646C069C1888588891D8CB2B06A80
:104C1000FBF7ACFD4543ED1DA9B22246304601F03D
:104C2000B2F9304601F055F985B2304601F051F93C
:104C3000040C304601F0D0F9801E87B2304601F0F6
:104C4000A9F9801E1FFA80F8B6F81A90304601F0D4
:104C5000C3F90190304601F09DF98346304601F0DA
:104C600038F98246304601F034F94FEA1A4180B2F1
:104C7000CDF800905A46019B00F062FB304600F0F0
:104C80007EF840B3304601F024F9801C85B23046EE
:104C900001F01FF90014801C84B2B6F81A90304657
:104CA00001F09AF9401E82B2CDF80090A4F10109FA
:104CB000681E1FFA89F180B2012300F01FFBB6F8CD
:104CC0001AA0304601F066F9801E82B21FFA89F1FF
:104CD000CDF800A011E0708B0090601C81B205EB54
:104CE000080080B201233A4600F008FB708B009068
:104CF00008F1020082B2E01981B20023284600F0D8
:104D0000FDFA708B00903B4642462146284600F053
:104D100017FB308B0090F81E82B2A01C814681B236
:104D2000A81C80B2012300F0E9FA96F8210008B12E
:104D30001F2000E0308B0090A8F1020082B2BF1E5D
:104D4000641C681CBBB2A1B280B200F0F9FAB26A6E
:104D5000ED1C02B01FFA89F1A8B2BDE8F05F00F0C7
:104D60002DBB10B504460020052907D1012120469E
:104D7000FFF720FF204601F0CBF8012010BD90F88E
:104D80002C1021B190F8210008B1012070470020BB
:104D90007047000070B51C4616460D462246314647
:104DA000049B00F025FB084901600021416280F866
:104DB0002C100446012100F014FB0121A5622046BD
:104DC00084F8201070BD0000D4B8070801F05FBD62
:104DD00010B5C36A0C4603B911A390F83310062925
:104DE00019D2DFE801F0180303070B0F00F063F896
:104DF00002460AE000F05FF882B206E000F05BF8DD
:104E000002B202E000F057F8C2B22046BDE81040FE
:104E10001946FBF781BA00F04EF842B2F5E7000000
:104E20002564000070B50E460446002500F0A4FD80
:104E300028B3A06A10B3012E02D0022E1ED10DE0BD
:104E400094F83200218EFF280144218602D0401CB4
:104E500084F83200204600F05DF90CE094F832004E
:104E6000218EFF280144218602D0401C84F83200A4
:104E7000204600F006F8204601F04AF801252846B1
:104E800070BD10B5034600F016F80146B3F93000C6
:104E9000B3F93420091A8A4206DD8010188693F887
:104EA0003200800883F8320093F83300BDE81040E8
:104EB000184600F02DB890F83310806A06290DD2FC
:104EC000DFE801F00C030305070A0068704700885B
:104ED0007047B0F9000070470078704790F9000003
:104EE000704770B50E460446002500F045FD00B140
:104EF0000125052E08D194F8230038B1002084F84C
:104F00002300204601F004F8284670BD0120F6E792
:104F100010B50346806A00281FD0B3F934208A42B6
:104F20001BDCB3F936208A4217DB93F83320022AC0
:104F300004D0042A04D049B2017002E0016000E00C
:104F40000180586A002808D01846FFF7B4FF5A6A53
:104F50000146BDE810401846104710BD10B5034685
:104F6000806A002814D09A8E8A4211D8DA8E8A423A
:104F70000ED393F833200170586A002808D01846E1
:104F8000FFF799FF5A6A0146BDE8104018461047DE
:104F900010BD2DE9F0418AB00446202101A8FBF79D
:104FA00004FC658B204601F017F88046204600F08F
:104FB000F1FF0646204600F08CFF0746204600F031
:104FC00088FF390C80B243463246009500F0B8F9AC
:104FD000258B204601F000F8C01E87B2204600F065
:104FE00078FF0646204600F074FF3114891C801CAF
:104FF00089B280B201233A46009500F07FF994F817
:105000002100A0B1204600F0E7FF801E87B22046B5
:1050100000F0C0FF801E86B2204600F05AFF054611
:10502000204600F056FF1F210091291414E0258B23
:10503000204600F0D1FF801E87B2204600F0AAFF74
:10504000801E86B2204600F044FF8046204600F0D5
:1050500040FF4FEA28410095491C401C89B280B2AC
:105060003B46324600F06CF9204600F085FC50B11A
:1050700094F8210038B14FF6E070ADF80000BDF8AB
:105080000000FCF7BFFD94F8220038B947F6FF7026
:10509000ADF80000BDF80000FCF7B4FDA06A0028E0
:1050A00012D001A92046FFF793FE204600F011FF21
:1050B0000546204600F00DFF2914891CC01C89B24A
:1050C00080B201AA00F07AF90AB0BDE8F08170B5AB
:1050D0000E460446002500F04FFCC8B1A06AB0B1EE
:1050E00000200121012E02D0022E10D106E02186DF
:1050F00084F83200204600F00DF805E0218684F89F
:1051000032002046FFF7BDFE204600F001FF0125DA
:10511000284670BD10B50346FFF7CDFE0146B3F932
:105120003000B3F9362001448A4206DA801018862E
:1051300093F83200800883F8320093F83300BDE81A
:1051400010401846FFF7E4BE8186C2867047000013
:105150002DE9F04106AC1D4617460E4694E80E00B8
:1051600000F014FC0F4901600221044680F833105E
:105170000121C4E90A670186C069C1888088091DC8
:1051800068438AB2401D81B2204600F0FCFE48F21E
:105190000101A186891EE186002120466162BDE8E9
:1051A000F0810000FCB807082DE9F04106AC1D466F
:1051B00017460E4694E80E0000F0E8FB0F49016028
:1051C0000421044680F833100121C4E90A670186EE
:1051D000C069C1888088091D68438AB2401D81B2B8
:1051E000204600F0D0FE48F20101A186891EE1862A
:1051F000002120466162BDE8F0810000FCB807088C
:1052000001F045BB38B5049C0094FCF7BDFC38BDEB
:105210002DE9FC410F461249DDF820801C46098823
:105220001600A1EB0000A0F1010085B216D001A983
:105230006846FCF799FC4046FCF70AFD07E0384653
:10524000791C8FB2002332462946FCF72DFC641EE0
:10525000A4B2F4D2BDF80000FCF7FAFCBDE8FC8172
:1052600006E1012010B5FCF73DFD4FF6FF74204626
:10527000FCF7E0FA2046FCF7C5FCBDE81040002032
:10528000FCF7E6BC2DE9F04190460E460446054683
:10529000FCF778FC184F012803D13888001B401E0A
:1052A00085B2FCF769FC808839882044884221D87F
:1052B000FCF762FC8088062804D1FCF75DFCC088FE
:1052C000082806D0424629463046BDE8F041FCF7A2
:1052D0005DBBFCF751FC0468FCF74EFC8188A8F12B
:1052E0002000414304EB4102F0B22946BDE8F04101
:1052F000FCF79ABBBDE8F08106E101202DE9FC41F5
:105300000E460E49984614460988089F081A401E02
:1053100085B201A96846FCF727FC3846FCF798FCE3
:1053200034B1641EA2B2434629463046FCF7BCFBAA
:10533000BDF80000FCF78CFCBDE8FC8106E1012013
:105340002DE9FC4188461C49089F1C460988150028
:10535000A1EB0000A0F1010086B22BD0002C29D0D7
:1053600001A96846FCF700FC3846FCF771FC6F1E8B
:10537000BAB2002331464046FCF796FB08EB040026
:10538000401EBAB280B200233146FCF78DFB601E8E
:1053900082B2012331464046FCF786FB701B401C5D
:1053A00081B2012322464046FCF77EFBBDF8000097
:1053B000FCF74EFCBDE8FC8106E1012070B5144607
:1053C0000E46054609E031462846FFF75BFFFCF72D
:1053D000D3FB8088641C284485B22278002AF2D14D
:1053E00070BD80F82210002901D180F8211070478B
:1053F0002DE9FF411F46944600240D4606462346EC
:105400003A46614601A8009400F04AFD024629464A
:10541000304600F01DFE0449016080F8224080F80B
:10542000214004B0BDE8F08120B9070801F02FBA8F
:1054300000224274002904D090F82120002A00D0D4
:105440004174704780F82110002900D141747047E1
:1054500000F0A7BD70B50C4600F0D2FD0546094826
:10546000286054B1204600F0B7FD0246A08921898A
:10547000401A81B2284600F086FD012085F82100FF
:10548000284670BD44B907082DE9F04186B00F46A3
:10549000DDE90C4580461E46114602A800F0F6FCE8
:1054A0000246334639464046CDE9004500F0FCFD52
:1054B00003490160012180F8211006B0BDE8F081A8
:1054C00044B9070810B500F015FE03490160012139
:1054D00080F8211010BD000044B9070870B50D46D2
:1054E000044600F025FE95F8210084F821002046AE
:1054F00070BD002909D0B0F8A620202A05D200EB03
:105500008203521CA0F8A6205962704770B50C4661
:10551000054600F01DF801684A69214690470028B9
:1055200007D1012C06D0022C03D1284600F075F8D3
:10553000012070BD284600F08BF8F9E710B50B4646
:1055400000F006F801688A69BDE810401946104766
:10555000B0F8A620B0F8A4108A4203D900EB81006D
:10556000406A70470020704770B50446B0F8A60046
:105570000E46B0421ED92046FFF7EAFF002580F80C
:1055800021502046FFF7E4FF00F0C2FCA4F8A4601D
:105590002046FFF7DDFF80F8215090F822200121FE
:1055A0000AB180F821102046FFF7D2FFBDE8704015
:1055B00000F0AEBC70BD70B50546002408E005EBF8
:1055C0008400406A10B1016849688847641CE4B2ED
:1055D000B5F8A600A042F2D8002025F8A40F6880F4
:1055E00070BD70B5054690F8200010B1284600F057
:1055F0008FFCB5F8A60000280ED0002408E005EBCB
:105600008400406A90F8201009B100F081FC641C0D
:10561000B5F8A600A042F2DC70BD30B4B0F8A630F8
:10562000002B13D0B0F8A4100A46491C8B4200D8B6
:1056300000218A4206D000EB8104646A94F822407B
:10564000002CF2D030BC89B2FFF78EBF30BC70475F
:1056500030B4B0F8A620002A12D0B0F8A4100B463F
:1056600001B91146491E8B4206D000EB8104646AE1
:1056700094F82240002CF3D030BC89B2FFF774BFFD
:1056800030BC704770B5044600F08BFCB4F8A6003F
:1056900000280BD0002505E004EB8500406A00F0EF
:1056A00037FC6D1CB4F8A600A842F5DC70BD70B5DF
:1056B0000C460546FFF74CFF01680A6921469047F2
:1056C000002807D1012C06D0022C03D12846FFF771
:1056D000A4FF012070BD2846FFF7BAFFF9E70000DC
:1056E00010B5FFF7B7FE044901600021A0F8A4102F
:1056F000A0F8A610417410BD68B9070870470020D3
:10570000704770B504460020052911D194F82C008B
:1057100078B10025626A2AB194F8210010B12946B7
:1057200020469047204684F82C5000F0F1FB0120E1
:1057300070BD0125EEE700002DE9F8430446C0697D
:10574000C1888688091D8DB2A06AFBF70FF8401C3E
:1057500046430936B1B22A46204600F014FC658B58
:10576000204600F039FC8046204600F013FC064637
:10577000204600F0AEFB0746204600F0AAFB390C9D
:1057800080B2434632460095FFF7DAFD94F82C00CC
:10579000002820460CD000F09CFB0546204600F077
:1057A00098FB2914491C001D89B280B260A20BE04D
:1057B00000F08FFB0546204600F08BFB2914491CA6
:1057C000001D89B280B25BA2FFF7F8FDE069258B6E
:1057D000C788204600F07DFB0646204600F079FB96
:1057E0003114891CC01C89B280B201233A4600954D
:1057F000FFF784FDE069258BC088401C87B22046F6
:1058000000F067FB0646204600F063FBE1690123D8
:105810003A46898800950844801D1FFA80FC3014A0
:10582000801C81B26046FFF769FDE069258BC08866
:10583000401C87B2204600F04CFB0646204600F094
:1058400048FBE16901233A46898800950844401DD8
:105850001FFA80FC3014801C81B26046FFF74EFDB9
:10586000658B204600F0B8FB001F87B2E069808896
:10587000C01C86B2204600F02CFB8046204600F07B
:1058800028FB4FEA2841891C801C89B280B23B4624
:1058900032460095FFF754FD94F82100A0B1204650
:1058A00000F09AFB801E87B2204600F073FB801E3A
:1058B00086B2204600F00DFB0546204600F009FBAD
:1058C0001F210091291414E0258B204600F084FB51
:1058D000801E87B2204600F05DFB801E86B2204607
:1058E00000F0F7FA8046204600F0F3FA4FEA28412C
:1058F0000095491C401C89B280B23B463246FFF7F6
:105900001FFD2046A56A00F0E4FA0646204600F096
:10591000E0FAE1692A4689880844C01D83B2301440
:10592000801C81B21846BDE8F843FFF747BD000070
:1059300078000000200000000020704770B51C4671
:1059400016460D4622463146049BFFF751FD084995
:1059500001600021416280F82C1004460121FFF70C
:1059600040FD0121A562204684F8201070BD000092
:105970008CB9070800F08BBF90F8231021B190F884
:10598000210008B1012070470020704710B5FFF7D3
:105990002FFD044605482060002084F823000121E3
:1059A0002046FFF71EFD204610BD0000B4B90708D1
:1059B00000F06DBF70B50E4604460025FFF7DCFF12
:1059C00038B3A06A20B3012E02D0022E20D10EE0FF
:1059D00094F83210208EFF2908442086084602D011
:1059E000401C84F83200204600F06AF80DE094F87C
:1059F0003210208EFF2908442086084602D0401C21
:105A000084F83200204600F006F8204600F080FAC4
:105A10000125284670BD10B50346FFF74CFA014634
:105A2000B3F930009A6B091A8A4206DD8010188695
:105A300093F83200800883F83200BDE81040184621
:105A4000AFF3008010B50346806A002812D09A6B2D
:105A50008A420FDCDA6B8A420CDB0160586A00284C
:105A600008D01846FFF727FA5A6A0146BDE81040E9
:105A70001846104710BD70B50E4604460025FFF7C6
:105A80007BFFD8B1A06AC0B1012E02D0022E14D182
:105A900008E001202086002084F83200204600F033
:105AA0000FF807E001202086002084F8320020460D
:105AB000FFF7B1FF204600F02BFA0125284670BD04
:105AC00010B50346FFF7F7F90146B3F93000DA6B7A
:105AD00001448A4206DA8010188693F83200800862
