:020000040801F1
:10800000603B0020DD8101085D521A0011820108E9
:108010000000000000000000000000000000000060
:10802000000000000000000000000000E9810108DD
:108030000000000000000000EB810108ED81010854
:10804000EF810108EF810108EF810108EF8101084C
:10805000EF810108EF810108EF810108EF8101083C
:10806000EF810108EF810108EF810108EF8101082C
:10807000EF810108EF810108EF810108EF8101081C
:10808000EF810108EF81010800000000EF81010885
:10809000EF810108EF810108EF810108EF810108FC
:1080A000EF810108EF810108EF810108EF810108EC
:1080B000EF81010800000000EF81010800000000CE
:1080C00000F002F800F07BF80CA030C80838241843
:1080D0002D18A246671EAB4654465D46AC4201D100
:1080E00000F06DF87E460F3E0FCCB64601263342B7
:1080F00000D0FB1AA246AB4633431847F86C000089
:10810000186D0000103A02D378C878C1FAD8520727
:1081100001D330C830C101D504680C60704700003D
:108120000023002400250026103A01D378C1FBD893
:10813000520700D330C100D50B60704710B56929D4
:1081400002D100F007F910BD642902D100F002F954
:1081500010BD752902D100F0FDF810BD6F2902D1C4
:1081600000F08CF910BD782902D100F0AFF910BDF4
:108170000368DB0901D380231943632902D100F08E
:1081800079FC10BDE32902D100F08BFC10BD00206A
:1081900010BD1FB50098019900F0F7FC00F0A6FD96
:1081A00004000020002104F0DDFB401C606000F0B2
:1081B0006FFB1FBD10B5002004F045FB10BD00F0A3
:1081C00075FD1146FFF7E5FF04F0C6FB00F0B0FDBA
:1081D00003B4FFF7EFFF03BC00F062FD07488047E0
:1081E00007480047FEE7FEE7FEE7FEE7FEE7FEE79B
:1081F00004480549054A044B70470000D59C010816
:10820000C180010898340020603B00205C3B0020C6
:1082100000B5FFB441464A4653465C4665463EB407
:108220000D496A460A600D4908600D4988473EBC01
:10823000884691469A46A346AC46FFBC00BD064818
:1082400001688D463EBC884691469A46A346AC4698
:10825000FFBC044800BD0000F03F0020F43F0020B8
:10826000C980010830E801080FB41CB5074B06AA05
:108270007B4469460090059800F0D9FB00206946D0
:1082800000F0E8FB1CBC08BC04B01847E107000084
:1082900070B5044685690068C10601D5302600E046
:1082A0002026C00707D070BD62683046A16890479D
:1082B000206A401C20626D1EF6D570BD70B5044664
:1082C00085690078C00707D170BD6268A168202069
:1082D0009047206A401C20626D1EF6D570BD09686B
:1082E0004A0501D540B27047C905FCD500B27047B8
:1082F00009684A0501D5C0B27047C905FCD580B2EE
:10830000704770B50C460546012A05D028788006CE
:1083100000D5EA69002302E0012305E05B1C9342DB
:1083200002D2E05C0028F9D1A869E618C01AA86159
:10833000286AC01828622846FFF7AAFF04E06A6886
:108340002078A968641C9047B442F8D32846FFF708
:10835000B5FF70BDF7B5002575291068009914A602
:1083600011D0FFF7BCFF002802DA404211A608E056
:10837000009909688A0701D50FA602E0490704D5CC
:108380000EA6012501E0FFF7B3FF009F002424376C
:1083900004E000F0B8FB30313955641C0028F8D1F6
:1083A0002B4632462146009800F0E3FAFEBD00005D
:1083B000000000002D0000002B0000002000000045
:1083C000F7B50446154686B02B487844002703C805
:1083D0003E460090019111E007986A467100415AAB
:1083E00002A800F06AFB411C07D02178890603D55A
:1083F000E269391891420ED83F18761C2078800621
:1084000002D5E069B84206DDAE42E5DB07987100AF
:10841000405A0028E0D1A069C01BA0612046FFF7A8
:1084200037FF154878445A3803C80090002001915E
:1084300016E041006A460798415A02A800F03DFB49
:108440000590401C0AD0002505E0626802A8A168DA
:10845000405D90476D1C05988542F6D30498401CFA
:10846000B0420490E5DB206AC01920622046FFF785
:1084700025FF09B0F0BD00007264000070B504462D
:1084800021461068FFF734FF00212546243505E01A
:108490004207C008520F30326A54491C0028F7D1F5
:1084A0002068002307A2050708D520252840084397
:1084B00004D0E069012304A2401EE061204600F0E0
:1084C00058FA70BD000000003000000070B504468E
:1084D0000D4621461068FFF70BFF2188090502D5DC
:1084E0000F4A7A4402E00E4A7A440E3223460021B3
:1084F000243305E006070009360F965D5E54491CDB
:108500000028F7D120780023000705D5702D03D06F
:10851000002901D002231132204600F02AFA70BD52
:1085200062630000F3B50446002081B0206220465B
:10853000E1688847002872D0252802D06268A168C7
:10854000ABE0594F00267F442046E1688847202849
:10855000054608DB312D06D278192038007800282E
:1085600001D00643F0E7B00701D504208643002080
:10857000E0610746A0612A2D0AD0284604F0D6F90A
:10858000002827D0B8000019303D0090856119E01F
:108590000298BA00121902C8916102902046E1685F
:1085A0008847012F054617D1E06900281FDA2020EF
:1085B00086431CE000980A218069484300994019CD
:1085C000303888612046E1688847054604F0AEF9F6
:1085D0000028EFD1012F0AD02E2D08D12046E168C6
:1085E00088470546202006437F1C022FC3DBA06975
:1085F000002803DA4042A06101200643F00701D0C1
:10860000102086436C2D0BD0682D09D04C2D3CD00A
:108610006A2D38D0742D38D07A2D36D016E040E04F
:10862000E1682F4620468847B842054609D16C2F9D
:1086300029D001208002E16806432046884705468C
:1086400004E06C2F1DD0FF2001300643002D28D000
:1086500028464138192803D80120C0020643203596
:10866000204626602946029A1646FFF767FD002835
:1086700010D001280BD0F61DF008C0000830029081
:1086800055E74020E1E78020D5E70020D3E7361DFD
:1086900002964CE762682846A1689047206A401C11
:1086A00044E7206AFEBD00002663000030B5441C8C
:1086B00003E00178401C00290DD08107F9D10B4B54
:1086C000DD0104C8D11A91432940FAD0001B0A06E3
:1086D00003D0C01E30BD001B30BD0A0401D0801E77
:1086E00030BD0902FCD0401E30BD00000101010177
:1086F00001E004C0091F0429FBD28B0701D50280C9
:10870000801CC90700D00270704700290BD0C30736
:1087100002D00270401C491E022904D3830702D5EF
:108720000280801C891EE3E70022EEE70022DFE7DB
:10873000002203098B422CD3030A8B4211D300235E
:108740009C464EE003460B433CD4002243088B4238
:1087500031D303098B421CD3030A8B4201D39446C5
:108760003FE0C3098B4201D3CB01C01A52418309B8
:108770008B4201D38B01C01A524143098B4201D372
:108780004B01C01A524103098B4201D30B01C01A9D
:108790005241C3088B4201D3CB00C01A5241830817
:1087A0008B4201D38B00C01A524143088B4201D344
:1087B0004B00C01A5241411A00D2014652411046A4
:1087C00070475DE0CA0F00D04942031000D3404219
:1087D000534000229C4603098B422DD3030A8B424F
:1087E00012D3FC22890112BA030A8B420CD38901ED
:1087F00092118B4208D3890192118B4204D38901D3
:108800003AD0921100E08909C3098B4201D3CB0110
:10881000C01A524183098B4201D38B01C01A5241C5
:1088200043098B4201D34B01C01A524103098B42C9
:1088300001D30B01C01A5241C3088B4201D3CB00B4
:10884000C01A524183088B4201D38B00C01A524197
:10885000D9D243088B4201D34B00C01A5241411A6E
:1088600000D20146634652415B10104601D340429C
:10887000002B00D54942704763465B1000D340424D
:1088800001B50020C046C04602BD70477047704722
:1088900070B5064C7C44064D7D4403E02068001909
:1088A0008047241DAC42F9D170BD00008C660000E9
:1088B0008C6600000048704768340020004870470C
:1088C0006C34002070B5064600F042F90568304669
:1088D0000B30C408E400B44201D8002070BD6868C1
:1088E0002A46002818D00168A14211D30B46214620
:1088F00008318B4208D3436801194B6003681B1B86
:108900000B605160046001E041685160001D70BD62
:10891000024640680028E6D12146284600F020F9AA
:108920000028DCD170BD70B50446051F00F010F9B9
:108930000068002C1AD0446801E020466468002CCE
:1089400001D0AC42F9D301680A18AA4204D12A68BE
:1089500005468918016000E0456028684119A14278
:1089600005D16168696021684018286070BD6C603D
:1089700070BDFFB504460D4681B0243000902168DB
:10898000880604D51022E0699143216000E00120AF
:10899000A84201DD471B00E000270498A1697A196D
:1089A0001018081AA0612078C00602D42046FFF7EC
:1089B0006FFC002608E003986268A168805D90471C
:1089C000206A401C761C206204988642F3DB2078E3
:1089D000C0060AD52046FFF75BFC06E06268A16886
:1089E00030209047206A401C206238467F1E0028B5
:1089F000F4DC07E000986268A168405D9047206A57
:108A0000401C206228466D1E0028F3DC2046FFF73C
:108A100055FC2078000602D5022005B0F0BD0120EB
:108A2000FBE7000001694A1C02610878704700B545
:108A30008FB002910021059105490193794403917A
:108A4000114604906846FFF76DFD0FB000BD0000B1
:108A5000E5FFFFFF0A681070521C0A60704710B5EE
:108A60004369002B02D0C046C04601E0FFF749FC35
:108A7000012010BD1278014624310A7000224A708C
:108A80000122ECE711680022D243E8E710B5436900
:108A9000002B02D0C046C04601E0FFF791FC012048
:108AA00010BD12880146243182840022C284012232
:108AB000ECE711680022D243E8E770B516460C4691
:108AC000054600F03DF80368FF200230C05C012835
:108AD00007D0FF2C0ED8185D00280BD001202C7079
:108AE00070BDFF333246214608331868C318284644
:108AF000984770BD0020C04370BD10B500F080F8ED
:108B000000F077F810BD01468008081A0209101815
:108B1000020A1018020C1018C00882001218520025
:108B2000891A01E0401C0A390A29FBD2704710B5A6
:108B300000F07EF810BD000000487047343400207B
:108B400010B500F0D3F8001D10BD00BF193E0000A5
:108B5000004870473C3400207047704770477047AA
:108B600038B504460A4600206946C046C04600287B
:108B700005D002462046009900F0C0F8012038BD1B
:108B800010B5012000F0FCF810BDF8B5C046C04695
:108B9000054600200C461020C0460646A819A042F3
:108BA0000DD9324669460020C046C046070001D1B3
:108BB00000F0E6F80098A04200D00546C419FFF77F
:108BC000C7FFF61D07460560F008C0004619284695
:108BD00000F008F8B44204D031463868A21B00F017
:108BE0008DF8F8BD00210160416080607047102061
:108BF000704710B5002801D000F052F810BD0000F9
:108C000010B5002102A000F0A1F8012010BD000065
:108C10005349475056464E3A205075726520766942
:108C2000727475616C20666E2063616C6C656400A3
:108C300010B500F00EF80169002903D0002202618E
:108C4000884701E08068804700F078F810B500F0B0
:108C500075F870B500F04EF804680546002C15D183
:108C60002020FFF72FFE040012D0002009492C60BD
:108C700003C4094921602071A060E06007492061B8
:108C8000083C002901D000F081F8E061204670BD69
:108C900000F054F8000000004D8C010800000000B6
:108CA00001491820ABBEFEE7260002007546FFF71B
:108CB00043FFAE46050069465346C008C0008546DE
:108CC00018B020B5FFF794FA60BC00274908B646F3
:108CD0000026C0C5C0C5C0C5C0C5C0C5C0C5C0C5CB
:108CE000C0C5403D49008D467047000000487047B0
:108CF00054340020004870477034002010B50346FB
:108D0000406801E003464068002801D08842F9D35A
:108D10001868C3188B4206D0CB1CD808C000001DB1
:108D2000411A521A0146081D0A60FFF7FCFD10BDEA
:108D30000446C046C0462046FFF74AFA002000F02D
:108D40004DF8FFF737FA0120FFF7AAFF70B5054687
:108D50000C460A2000E06D1C00F039F8002D06D00A
:108D600028780028F7D102E0641C00F030F8002CCD
:108D700002D020780028F7D10A2000F028F870BD32
:108D800010B500F031F8FFF734FF10BD10B58820A2
:108D9000FFF798FD002801D00021017010BD802947
:108DA00004D8002802D00178002901D000207047A3
:108DB0000121017008307047002803D002460832B4
:108DC000914201D00020704700210170704708B522
:108DD000694608700320ABBE08BD704710B500F0AF
:108DE0006FF8FFF706FF10BD10B5012805D0002170
:108DF00003A0FFF7ABFF012010BD09A1F8E70000B9
:108E000053494752544D454D3A204F7574206F6673
:108E10002068656170206D656D6F727900000000DB
:108E20003A2048656170206D656D6F727920636FBF
:108E30007272757074656400024670B50A439207D9
:108E40002AD11E4DEE0104C808C9541B9443344076
:108E500017D0D0B2D9B2401A2106014310D190B236
:108E600099B2401A210401430AD110021902000AE2
:108E7000090A401A2102014302D1100E190E401AAC
:108E800070BD9A42DFD010BA19BA884201D90120C8
:108E900070BD0020C04370BD02780B78401C491C97
:108EA000002A09D09A4207D102780B78401C491C4D
:108EB000002A01D09A42EFD0D01A70BD0101010101
:108EC00010B5002102A0FFF741FF012010BD0000F6
:108ED000534947414252543A2041626E6F726D616C
:108EE0006C207465726D696E6174696F6E0000004C
:108EF00010B5837918490268002B26D00B6893437C
:108F00000B604A6803689A434A60027952181368F2
:108F10000468234313608A6803689A438A60CA68B6
:108F200003689A43CA604279102A05D051180A682A
:108F3000006802430A6010BD8A6803681A438A60A9
:108F4000CA6800680243CA6010BD00794018016811
:108F50009143016010BD000000040140F0B5002203
:108F6000012423460D6893401D409D422AD10D796E
:108F7000012D01D0022D12D1876855000326AE4085
:108F8000B74387604E79AE4085682E4386608588FA
:108F90009D43858085888B7993401D438580066835
:108FA00055000323AB409E4306600E790768AE4030
:108FB0003E430660C6689E43C660CB79AB40C56839
:108FC0002B43C360521C102ACBD3F0BD4B07DB0EE2
:108FD0009A40C90810B589000818016A0F249C40FE
:108FE000A1430162016A1143016210BD0246128A67
:108FF00000200A4200D00120704781617047002A9A
:1090000001D081617047018570470000F7B53A4D86
:1090100000983A4EA967686730681446016900985D
:1090200088472146364802F0C0FC204601F036FE53
:109030000119334802F000FD3249314802F069FD60
:1090400030492F48A83102F064FD2F492C4802F026
:1090500060FD00242C70306803210268686F90471F
:109060002949C0B220310F460122C83701281ED03D
:109070003A70254800234B7043747C70BA70A86F17
:10908000002824D031680A681C219047C5B2306896
:109090001D2102681848806F9047C6B21648406F7D
:1090A00001F080FC0021194A800010580CE03C704F
:1090B00001204870E1E7AA4200D17970425CB242D7
:1090C00000D1B970491CC9B2425CFF2AF3D1FC70CF
:1090D0003C717C71BC71FC713C727C72BC72FC7224
:1090E000009800F023F8074809491038C1600021B2
:1090F000034802F07FFCFEBD00300020F43F00205A
:10910000E0300020F031002040330020E0C90108A9
:10911000C1AA010810B5044C204602F0ACFCE01DC9
:10912000FD3003F0DDFA10BDE030002010B5002165
:1091300001F0DAFC10BD0000F1B505278A4D8B4E19
:1091400000248948295D6D30415C306802680098D0
:1091500090470146864802789301864A9A182B5D0B
:10916000641C5B00E4B2D152BC42EAD37E4E0125BE
:109170000024F61E07467C48315D801E415C7B481A
:1091800000680268009890473978CA0078497C31B5
:109190005118325D641C9200E4B28850AC42EAD3AC
:1091A00072480121006802680098904784B2050C5B
:1091B0002046284307D070480088012803D00121A9
:1091C0006E4802F017FC386B012600282CD0002CCA
:1091D00001D0002D14D06848B83002F034FA396B51
:1091E000884203D16448B83002F092FA386B64497F
:1091F000428B8A4218D04183002102F06EF910E0C0
:1092000000214183012102F068F95B48B83002F087
:109210001AFA396B884204D057480021B83002F05E
:109220001EFA386B2030067038780C225043514AB1
:10923000002140328018630602224171002B00DABF
:1092400042716B0600D546718171E30600D58271CB
:10925000EB0600D58671C171A30600D5C271AB06BD
:1092600000D5C6710172E30700D00272EB0700D08F
:109270000672230600D502722B0600D506724172D3
:10928000630700D542726B0700D546728172A3074F
:1092900000D58272AB0700D58672C172210700D556
:1092A000C272290700D5C672396B002947D04179AF
:1092B0007A694B002C49548B491DCB5A9C4202D0F1
:1092C0005383203216708479BA696400538B0C5B27
:1092D000A34202D0548320321670C479FA69640024
:1092E000538B0C5BA34202D0548320321670047A55
:1092F0003A6A6400538B0C5BA34202D05483203241
:109300001670447A7A6A6400538B0C5BA34202D0D5
:10931000548320321670847ABA6A6400538B0C5BD3
:10932000A34202D0548320321670C07AFA6A4000F9
:10933000538B085A834202D0508320321670F8684B
:10934000002801D0203006703869002801D0203074
:109350000670B86E002801D020300670386D0028E5
:1093600001D020300670F8BD93C90108F43F0020F9
:1093700000300020E8330020E0310020E030002001
:1093800018C6000070B5002406462146204600F0AD
:1093900051F900F097FA4B25AD02304600F079FA0A
:1093A000641CAC42F9D301224021024800F01EF8AF
:1093B00070BD0000001000481CB50121480500F0F8
:1093C000F9FA4020009001206946487108718871BF
:1093D0000020054CC8712046FFF7C0FD0122402146
:1093E000204600F003F81CBD0010004810B5FFF740
:1093F00006FE10BD203AD3B2FF224032511A10B5FA
:10940000054A89B252681468D2885A435200A21899
:1094100000F004F810BD0000B8300020F7B582B0AD
:1094200000260090039900F005F91C4D2FE000F094
:1094300049FA00241AE00C213846FFF779F9C100F7
:1094400080208840204104997200895A084201D145
:109450000C2F05D90120A040014203D10C2F01D9C6
:10946000688800E0288800F014FA641C686887881F
:10947000A742E0D8012240210948FFF7B7FF009832
:109480000399401C80B2009000F0D4F8761C686804
:10949000C088B042CBD805B0F0BD0000B830002085
:1094A0000010004870470000FFB50546FF2040301F
:1094B000401A80B281B0014602901E461746002431
:1094C000284600F0B7F830000F4E19D100F0FAF935
:1094D00003E0308800F0DDF9641CBC42F9D30122BE
:1094E00040210A48FFF782FF05B0F0BD308800F048
:1094F000D9F96D1CADB22846029900F09BF8641CA6
:10950000BC42F3D3F0E70000B83000200010004860
:10951000024A13880380508808807047B8300020C2
:109520000148406870470000B830002001207047B3
:10953000F0B5092087B00121800400F03BFA012139
:109540002E4800F04FFA0826032168460096417124
:109550000227077100248471C47169462848FFF707
:10956000FDFCF002009069462648FFF7F7FC300347
:10957000009069462348FFF7F1FC04200090012584
:109580006846457105718471C47169461C48FFF7CE
:10959000E5FC04211A48FFF730FD0022032118489A
:1095A000FFF714FD01220E211648FFF70FFD0122DF
:1095B0000F211448FFF70AFD134800F035FA6846FA
:1095C000FF21048105314181072109028181C78181
:1095D0000582690241828682C4820721018302A931
:1095E000094800F049FA2903074800F071FA0121FF
:1095F000054800F00FFA07B0F0BD000001100000B0
:1096000000040048001000480030014001B56846E1
:1096100000880149488008BDB830002003B569467C
:109620000988034801806946898841800CBD000093
:10963000B830002070B50C460546090A022000F03B
:1096400049F9E1B2032000F045F90021062000F0BD
:1096500041F92946072000F03DF970BD01494860F5
:1096600070470000B830002001B568460088014905
:10967000088008BDB830002010B50021EA2000F0B5
:1096800029F92021EB2000F025F90C21EC2000F035
:1096900021F9C421ED2000F01DF94021E82000F05F
:1096A00019F93821E92000F015F90121F12000F025
:1096B00011F91021F22000F00DF9A321272000F06C
:1096C00009F90121402000F005F90021412000F0B6
:1096D00001F90021422000F0FDF81021432000F0A4
:1096E000F9F80E21442000F0F5F82421452000F07F
:1096F000F1F80421462000F0EDF85021472000F059
:10970000E9F80221482000F0E5F81321492000F093
:10971000E1F819214A2000F0DDF819214B2000F072
:10972000D9F816214C2000F0D5F81B21502000F06C
:10973000D1F83121512000F0CDF82F21522000F036
:10974000C9F83F21532000F0C5F83F21542000F014
:10975000C1F83E21552000F0BDF82F21562000F021
:10976000B9F87B21572000F0B5F80921582000F006
:10977000B1F80621592000F0ADF806215A2000F07A
:10978000A9F80C215B2000F0A5F81D215C2000F059
:10979000A1F8CC215D2000F09DF81B21084600F0C7
:1097A00099F801211A2000F095F82F21242000F0CB
:1097B00091F85721252000F08DF88621232000F014
:1097C00089F83621182000F085F80121192000F0D1
:1097D00081F80021012000F07DF888211F2000F091
:1097E00079F8022003F0AAF880211F2000F072F817
:1097F000022003F0A3F890211F2000F06BF8022054
:1098000003F09CF8D0211F2000F064F8022003F040
:1098100095F80521172000F05DF80021012000F0E7
:1098200059F80021022000F055F80021032000F033
:1098300051F80121042000F04DF83F21052000F0EF
:1098400049F80021062000F045F80021072000F02B
:1098500041F80021082000F03DF8EF21092000F038
:1098600039F82821162000F035F80021362000F0C4
:1098700031F80421362000F02DF83821282000F09E
:1098800029F8062003F05AF83C21282000F022F89D
:1098900010BD10B50446000A00F0A2F9E0B200F0D5
:1098A0009FF910BD10B5044600F00CF82046FFF7F4
:1098B000F0FF012240210248FFF798FD10BD000093
:1098C0000010004810B5222000F01AF8722000F0B5
:1098D0002BF810BD10B50C4600F012F8722000F005
:1098E00023F8200A00F07CF9E0B200F079F90122B7
:1098F00040210248FFF77AFD10BD0000001000482B
:1099000010B50446702000F00FF8002000F068F950
:10991000204600F065F9012240210248FFF766FD6C
:1099200010BD00000010004870B50546002240211F
:109930000A48FFF75BFD0A4C0221204600F094F82C
:109940000128F9D12946204600F0CCF88021204694
:1099500000F08AF80028F9D170BD0000001000481E
:109960000030014030B5837801210278002B15D0FA
:1099700094080E4BA400E41823689207D50EFF222A
:10998000AA40934342789207120EAA401A432260DB
:109990000078C006C00E8140054804E0D006C00E25
:1099A000814003488030016030BD000000E400E0E9
:1099B00000E100E0044A0029516901D0014300E0C0
:1099C000814351617047000000100240044A0029A1
:1099D000116901D0014300E081431161704700002B
:1099E00000100240044A0029916901D0014300E0BF
:1099F000814391617047000000100240044A002931
:109A0000D16801D0014300E08143D160704700007C
:109A10000010024040220029018801D0114300E0DB
:109A200091430180704700000D4910B5884209D16B
:109A3000841401212046FFF7E1FF00212046FFF7B3
:109A4000DDFF10BD07498842FBD1041401212046E7
:109A5000FFF7BCFF00212046FFF7B8FF10BD000054
:109A600000300140003800400246128900200A42BE
:109A700000D001207047000030B50388C122920158
:109A800013400A88CC890D892243CC882C43224379
:109A90004C8922438C8922431A4302808288094BD5
:109AA0001A408B88134383800A8A02820288042327
:109AB00049889A4311430180818B034A1140818375
:109AC00030BD0000FFF00000FFF70000007B704792
:109AD0008288034B1A40828082880A4382807047C2
:109AE000FFEF00000173704710B5FFF765FCFFF74B
:109AF0001FFDFFF7C1FD024801460839486010BD4F
:109B0000C030002010B50021052000F01FF8002112
:109B1000032000F01BF80021042000F017F80021BA
:109B2000012000F013F80021022000F00FF810BD12
:109B300010B5044A4100515A034A80001058FFF7FB
:109B400055FA10BDF4CC0108A0300020F3B505464D
:109B50008600214885B080590121FFF72BFF0121A4
:109B60000846FFF73FFF0027684607730221C173CD
:109B700019486C000C38005B0290184802A9805903
:109B8000FFF7ECF90698012823D113483030015D26
:109B90000C38005D00F03EF80F481830005B009074
:109BA00068460771002D01D0082000E00C206946AE
:109BB0004871012568468571FFF79AF906483C30DF
:109BC000015D6846017403214174857404A8FFF7A0
:109BD000C9FE07B0F0BD000000CD0108A030002094
:109BE00070B50B4C054602212046FFF73DFF0128CA
:109BF000F9D129462046FFF775FF01212046FFF7DE
:109C000033FF0128F9D12046FFF760FF70BD000047
:109C1000003001408A07130F10B50F229A408C08BC
:109C20000549A40061188C6894438C608A68984048
:109C300002438A6010BD0000000001401CB50021F5
:109C4000224801910091026801231B041A4302601B
:109C50005B000522120304681C400094019C641CF4
:109C60000194009C002C02D1019C9442F3D1026823
:109C7000920328D501210091154A112111604168F4
:109C800041604168416041687F22D2039143416055
:109C90004168112212041143416001680122120639
:109CA0001143016001688901FCD541688908890078
:109CB0004160416802221143416041680907890FF0
:109CC0000229FAD11CBD00911CBD00000010024009
:109CD0000020024010B5164C206801210843206086
:109CE000606814490840606020681349084020609B
:109CF0002068012189048843206060683F210904AD
:109D000088436060E06A00090001E062206BFF2187
:109D1000543188432063606B40084000606300203A
:109D2000A060FFF78BFF606940210843606110BDB0
:109D3000001002400CB8FFF8FFFFF6FEF0B585B04A
:109D4000282002F049FD032100910523324A33A166
:109D500002F008FD0190282002F03EFD1E21009136
:109D600005232D4A30A102F0FDFC0290282002F0CC
:109D700033FD3C2100910523274A35A102F0F2FC76
:109D80000390282002F028FD4B2100910523224A50
:109D900038A102F0E7FC0746282002F01DFD5A21F9
:109DA000009105231C4A3CA102F0DCFC0646282059
:109DB00002F012FDB42100910523174A3FA102F0E1
:109DC000D1FC0546282002F007FD732100910523F0
:109DD000114A424902F0C6FC04460F48019901F0BD
:109DE00002FC0D48029901F0FEFB0B48039901F0BB
:109DF000FAFB3946084801F0F6FB3146064801F007
:109E0000F2FB2946044801F0EEFB2146024801F02E
:109E1000EAFB05B0F0BD0000F031002048656C7031
:109E200020506167650000005573652074686520E7
:109E30006A6F79737469636B20746F20776F726BCC
:109E40002077697468204C4344204755490000003E
:109E50002D55502F444F574E20746F206D6F7665EF
:109E6000206265747765656E20636F6E74726F6CC7
:109E7000730000002D4C4546542F5249475448204A
:109E8000746F206D6F7665206265747765656E20EE
:109E900070616765730000002D53454C20746F207E
:109EA000696E746572616374207769746820746880
:109EB0006520636F6E74726F6C000000436F707981
:109EC00072696768742053544D6963726F656C657D
:109ED0006374726F6E696373000000009EC90108AD
:109EE000F0B5F54887B00021212211544174282093
:109EF00002F072FC0021F04A0B460091A832EFA15B
:109F000002F030FC0646282002F066FCEA4F3522BB
:109F10000A21A837029201913C2300979B22EDA1D0
:109F200002F078FB0546282002F056FC1121009132
:109F30000F232A46ECA102F015FC0490282002F021
:109F40004BFC252100910F232A46EAA102F00AFCCE
:109F50000590382002F040FC0F216E22E84C00955D
:109F600001920291217803238A01E6495118E6A261
:109F700001F0A6F9E060382002F02EFC23216E22C9
:109F8000009501920291217803238A01DD4951183D
:109F9000DDA2891C01F094F92061282002F01CFC4C
:109FA0001421CD2201920291AA2300976422D7A105
:109FB00002F030FB0390282002F00EFC0F210091EC
:109FC0000523D4A1039A02F0CDFB6061282002F0A2
:109FD00003FC212100910523D1A1039A02F0C2FBC9
:109FE000A061282002F0F8FB332100910523CFA1C6
:109FF000039A02F0B7FBE061282002F0EDFB452157
:10A0000000910523CCA1039A02F0ACFB206228202A
:10A0100002F0E2FB572100910523CAA1039A02F046
:10A02000A1FB6062282002F0D7FB69210091052383
:10A03000C7A1039A02F096FBA062282002F0CCFB95
:10A040007B2100910523C5A1039A02F08BFBE062FE
:10A05000302002F0C1FB8D2100910A23C2A1039A96
:10A0600000F028FFC34920634162C34941830021B6
:10A0700001F033FA3846216B01F0B5FA3146384623
:10A0800001F0B1FABD4800680169606F8847C006F9
:10A0900077D5282002F0A0FB73220A2102920191B9
:10A0A0003C230097BE22B6A102F0B4FA064628204F
:10A0B00002F092FB1121009105233246B4A102F077
:10A0C00051FB0190282002F087FB252100910523F8
:10A0D0003246B0A102F046FB0746382002F07CFB76
:10A0E0000290606F00F05EFC8100AB482123415874
:10A0F0000F2000903246029802F036FA6060382055
:10A1000002F06AFB0290606F00F04CFC8100A248F4
:10A1100021234158232000903246029802F024FA6D
:10A12000A06065483146A83001F05DFA62480199A7
:10A13000A83001F058FA60483946A83001F053FAC7
:10A140005D486168A83001F04EFA5B48A168A8300C
:10A1500001F049FA20786B4E0C21484340368019B3
:10A160004178606802F0ADF820780C2148438019EE
:10A170008178A06802F0A5F8616888484862A16803
:10A1800048624D482946A83001F02DFA4A48049902
:10A19000A83001F028FA48480599A83001F023FAC0
:10A1A0004548E168A83001F01EFA43482169A8300B
:10A1B00001F019FA0021E06801F08FF9002120690F
:10A1C00001F08BF96D4800680169606F8847010FE5
:10A1D000022903D00001000F022813D1302002F021
:10A1E000FBFAB221344A00910A23A8326CA100F094
:10A1F00061FE0146E0653048A83001F0F4F9E16DF8
:10A200006C4848622C480399A83001F0ECF92A48C0
:10A210006169A83001F0E7F92748A169A83001F089
:10A22000E2F92548E169A83001F0DDF92248216A08
:10A23000A83001F0D8F92048616AA83001F0D3F9BC
:10A240001D48A16AA83001F0CEF91B48E16AA83088
:10A2500001F0C9F921780C2041432A486269403055
:10A260000918487943004C482838C35A53838B79DE
:10A27000A2695B00C35A5383CA79E3695200825AC8
:10A280005A830B7A226A5B00C35A53834B7A626A01
:10A290005B00C35A53838B7AA26A5B00C35A538311
:10A2A000C97AE26A4900405A50830348A83001F055
:10A2B0002FFA07B0F0BD0000F0310020436F6E664A
:10A2C000696775726174696F6E20616E6420646580
:10A2D00062756700506F77657220626F61726420EB
:10A2E0007374617475730000444320427573207663
:10A2F0006F6C74004865617473696E6B20542E0036
:10A3000000300020E8330020253364004661756C7E
:10A31000747300004F76657263757272656E7400B7
:10A320005265767570206661696C000053706565D2
:10A3300064206664626B00005357206572726F720E
:10A3400000000000556E64657220766F6C7400002A
:10A350004F76657220766F6C740000004F766572E0
:10A360002074656D700000004661756C7420616337
:10A370006B000000A9AA010818C60000F43F0020E5
:10A380004441432053657474696E67730000000094
:10A390004368310043683200C0C90108F1AB0108CD
:10A3A000456E636F64657220616C69676E6D656E82
:10A3B0007400000059AC0108F0B58BB0282002F001
:10A3C0000BFA00210B460091FD4AFEA102F0CAF9EA
:10A3D0000390282002F000FAF94914230A226C465F
:10A3E0000EC45A239122FCA102F014F9074628203A
:10A3F00002F0F2F91E2100913C233A46F9A102F045
:10A40000B1F90490282002F0E7F9412100913C23A2
:10A410003A46F5A102F0A6F90590282002F0DCF9F1
:10A420000F21009105233A46F0A102F09BF9069016
:10A43000402002F0D1F90522F04C1E210192009734
:10A44000029121782246C9007C3289180623ECA2A9
:10A4500001F08AFA05466063EA4840210068026814
:10A46000606F90470646E7483F2100680268606FCA
:10A470009047AE63E863282002F0AEF932210091E4
:10A4800005233A46E0A102F06DF90790382002F06A
:10A49000A3F9412105220097019202912178C84D2C
:10A4A0008901A83549190623D5A2091D00F008FF26
:10A4B000D94A0021A06300F0D5FE302002F08CF9CB
:10A4C000412100915A233A46D4A100F0F3FCD5492A
:10A4D000E063416200F000FA282002F07DF90646B0
:10A4E00073220A21B6480292019100904B23682200
:10A4F000CDA1304602F08EF80646282002F06CF915
:10A50000142100910A233246CAA102F02BF90890C7
:10A51000282002F061F9232100910A233246C6A1C6
:10A5200002F020F90990382002F056F984461420F0
:10A53000282100960191029020780623800141197C
:10A54000AFA26046891D00F0BBFE2064382002F0F7
:10A5500043F9844623202821009601910290207817
:10A56000062380014119A6A26046083100F0A8FE2A
:10A5700060649348039901F036F89148049901F01A
:10A5800032F88F48059901F02EF839468C4801F0D1
:10A590002AF88B48069901F026F88948616B01F08A
:10A5A00022F88748079901F01EF88548A16B01F051
:10A5B0001AF88348E16B01F016F88148216E01F02A
:10A5C00012F87F48616E01F00EF87D48A16E01F02F
:10A5D0000AF87B48216F01F006F80021A06E00F018
:10A5E0007CFF7748E16E00F0FEFF3146744800F0D2
:10A5F000FAFF7348089900F0F6FF7148099900F0D6
:10A60000F2FF6F48216C00F0EEFF6D48616C00F0C6
:10A61000EAFF7C4800680169606F884780072BD596
:10A62000282002F0D9F8322100910A23324683A172
:10A6300002F098F80746382002F0CEF8322128229E
:10A6400000960192029121780623890149196CA292
:10A650000A3100F035FEA0643946594800F0C3FFC6
:10A660005748A16C00F0BFFF6B4A0021A06C00F0BE
:10A67000F9FD216C72484862674E00213246206C19
:10A6800000F0F0FD32460021606C00F0EBFD5D480B
:10A6900000680169606F8847C0077DD0282002F0FC
:10A6A0009BF8474973237D226E460EC64B23B42286
:10A6B00064A101F0AFFF0646282002F08DF80E27B6
:10A6C0000A23324663A1009702F04CF80390282039
:10A6D00002F082F8502332465EA1009702F042F861
:10A6E0000490382002F078F819270A210297009682
:10A6F0000191217804238901491958A20C3100F0F5
:10A70000DFFDE064382002F067F8502102970096E0
:10A710000191217804238901491950A20E3100F0DA
:10A72000CFFD2065282002F057F82C270A23324657
:10A7300040A1009702F016F80590282002F04CF88E
:10A74000502332463CA1009702F00CF8074638200F
:10A7500002F042F837210A220096019202912178F4
:10A7600006238901491926A2103100F0A9FD606570
:10A77000382002F031F837215022009601920291E0
:10A7800021780623890149191DA2123100F098FD94
:10A79000A06531460A4800E08EE000F024FF08483A
:10A7A000039900F020FF0648049900F01CFF0448BC
:10A7B000E16C00F018FF0248216D00F014FF4FE03B
:10A7C00040330020537065656420636F6E74726F50
:10A7D0006C6C65720000000053657420706F696EC8
:10A7E0007400000072706D006D7300005461726738
:10A7F00065742073706565640000000000300020FF
:10A8000025366400F43F002052616D70206475723B
:10A810006174696F6E000000FF7F0000457865631A
:10A820000000000071AC0108504944204761696E86
:10A83000730000004B5000004B4900004B440000E7
:10A8400081AB0108466C757820776C2E2074756E8C
:10A85000696E670042555380000000002534640093
:10A860000021206D00F039FE1848059900F0BBFE6C
:10A870003946164800F0B7FE1448616D00F0B3FE8B
:10A880001248A16D00F0AFFE7D22D2000021E06CE5
:10A8900000F0E8FC0E4D00212A46606D00F0E2FC5D
:10A8A0002A460021A06D00F0DDFCE16C09484862F9
:10A8B000616D4862A16D4862216C06484862616C16
:10A8C0004862024800F024FF0BB0F0BD4033002086
:10A8D000FF7F000081AB01083EB5282001F07CFF1E
:10A8E0001422A02321490193029200915A2391221C
:10A8F0001FA101F08FFE204C2066282001F06CFF84
:10A900000F21009105231DA1226E01F02BFF60662F
:10A91000402001F061FF226E1E2505210092029564
:10A92000019121782246C9007C328918062317A29A
:10A93000091D01F019F8A066302001F04DFF4121FA
:10A940000091052312A1226E00F0B4FAE0662820DF
:10A9500001F042FF00953C2310A1226E01F002FF9E
:10A960002067E16E0E4848623EBD000004310020C1
:10A970004D6F6E69746F7200003000204D65617319
:10A980007572656420737065656400002536640027
:10A9900053746172742F53746F70000072706D0085
:10A9A00049AB010810B5274900240968096988479F
:10A9B000010E090703D0010F09290DD010E0000F87
:10A9C000092800D101240A2800D10224012801D03D
:10A9D000022835D1032433E00201120F0A2A05D0E0
:10A9E0000A2904D10201120F092A00D106240929DB
:10A9F00005D10201120F022A09D0012A07D0020153
:10AA0000120F092A04D1022901D0012900D10424FE
:10AA10000A2905D10201120F022A09D0012A07D002
:10AA20000201120F0A2A04D1022901D0012900D102
:10AA300005240B2904D10001000F092800D10724A7
:10AA4000204610BDF43F002010B5144800F02BFE46
:10AA50001248A83000F027FE114800F024FE1148EB
:10AA6000002141608160C160016141618161C1611A
:10AA7000016241628162C162016341638163C163BA
:10AA8000016441648164C164016541658165C1659A
:10AA9000016641668166C166016710BDF031002024
:10AAA0004033002000300020034807210068C268BE
:10AAB0000248406F10470000F43F002000300020A3
:10AAC00010B50C46FFF7C0FF002C06D0012C07D0B4
:10AAD000022C01D1FFF770FC10BDFFF72FF910BD5C
:10AAE000FFF7FEF910BD0000F3B50E4688011349CB
:10AAF0000024114F81B045181148015D822907D00B
:10AB00003868026801989047411C01D06100685282
:10AB1000641CE4B2202CEFD3386804210268019849
:10AB20009047084AF1005050688F3146C2B20198F0
:10AB300000F046F8FEBD0000F43F0020E83300209E
:10AB400000CA01087C30002070B50A4C0A4A2078FF
:10AB50000A4D810189188A88C00021467C31095834
:10AB600028684368606F984728680621C268606F4C
:10AB7000904770BD00300020E8330020F43F0020F3
:10AB800030B40A46018D0A480A4C03789B011B1910
:10AB9000C91AC9050B0E0849C95C822905D0074BA3
:10ABA000406F1B689B6830BC184730BC7047000082
:10ABB00000300020E833002000CA0108F43F0020E4
:10ABC000F8B515468A010849541822463832074913
:10ABD00000920968931E8E69121F2946B047E08EC5
:10ABE00006214843E086F8BDE8330020F43F00200A
:10ABF000F8B5154C034625462878144F0C214843D8
:10AC0000C1196268124E686F93420CD1128ED5B290
:10AC10004D70FFF7C7FE800030580021425D0D489F
:10AC20000068C3690CE0A268128ED5B28D70FFF780
:10AC3000B9FE800030580121425D06480068C369B2
:10AC4000A06F9847F8BD0000003000202834002095
:10AC5000E0C90108F43F0020034808210068C268E9
:10AC60000248406F10470000F43F002000300020F1
:10AC70000748084B01788A01D218C90003467C3383
:10AC80005958054B92881B68406F5B681847000055
:10AC900000300020E8330020F43F0020014600206F
:10ACA0000A5C401CC0B2002AFAD1704710B50024DB
:10ACB00000F0F4F8002800D00124204610BD70B543
:10ACC0000446426A20340D46002A09D0217B00291F
:10ACD00006D0002D04D16178002901D000219047D1
:10ACE000257370BD70B500240546052906D10021E5
:10ACF000FFF7E5FF284601F04FF80124284600F051
:10AD0000CDF8002800D00124204670BDF0B50546DE
:10AD1000C06987B0C1888688891D8CB2A86AFDF792
:10AD2000C5FC4643F61DB1B22246284601F070F834
:10AD3000284601F00CF800906846008886B2284644
:10AD400001F005F800906846408884B2284601F07A
:10AD50008DF8801E87B2284601F061F8801E80B20F
:10AD60000390688B0090284601F080F802902846F6
:10AD700001F055F80190284600F0E9FF05902846BB
:10AD800000F0E5FF04906846C08A029B81B26846E5
:10AD9000008A019A80B200F051FB284600F07EF84C
:10ADA000002827D0284600F0D2FF0090684600888F
:10ADB000801C86B2284600F0CAFF00906846408892
:10ADC000801C84B2688B0090284601F04FF8401E2A
:10ADD00082B2601E81B20190701E80B2012300F029
:10ADE0000BFB688B0090284601F019F8801E82B298
:10ADF000019810E0688B0090601C81B203980123D9
:10AE0000301880B23A4600F0F7FA688B0090039849
:10AE1000801C82B2E01981B20023304600F0ECFAC7
:10AE2000688B00903B4621463046039A00F006FBB3
:10AE3000288B0090F81E82B2A01C81B20190B01C39
:10AE400080B2012300F0D8FA2120405D002801D013
:10AE50001F2000E0288B00900398BF1E801E82B246
:10AE6000641C701CBBB2A1B280B200F0E7FA01987A
:10AE7000F61C81B2AA6AB0B200F01CFB07B0F0BDAC
:10AE800010B504460020052907D101212046FFF70F
:10AE900016FF204600F080FF012010BD2030017B0E
:10AEA000002904D04078002801D0012070470020FC
:10AEB0007047000070B51C4616460D4622463146C6
:10AEC000049B00F011FB0849016000210646203672
:10AED000416231730446012100F0FFFA0120A562AE
:10AEE0003070204670BD00008CE8010810B501F0FC
:10AEF0006EFC10BD70B5C46A0D46002C00D111A4C3
:10AF00003321095C0B0001F07BFC06180404080CDB
:10AF1000101800F05FF802460AE000F05BF882B219
:10AF200006E000F057F802B202E000F053F8C2B2B7
:10AF300021462846FDF798F970BD00F04BF842B263
:10AF4000F6E700002564000070B50E4604460025B3
:10AF500000F04DFC002824D0A06A002820D0204614
:10AF60002030012E02D0022E1AD10BE0228E817CDD
:10AF700052182286FF2901D0491C8174204600F016
:10AF80005AF90AE0228E817C52182286FF2901D0CC
:10AF9000491C8174204600F006F8204600F0FCFEB3
:10AFA0000125284670BD10B5044600F013F8302284
:10AFB000A25E3423811AE35E204620308B4204DDFA
:10AFC00092102286827C92088274C07C204600F017
:10AFD00031F810BD00B533210A5C816A130001F01D
:10AFE0000FFC060D040406080B0D086800BD088858
:10AFF00000BD0020085E00BD087800BD0020085696
:10B0000000BD70B50C460646002500F0F0FB002898
:10B0100000D00125052C09D134462034E0780028E1
:10B0200006D00020E070304600F0B6FE284670BD25
:10B030000120F7E710B50446806A00281DD03422AD
:10B04000A25E8A4219DC3622A25E8A4215DB3322D6
:10B05000125D022A04D0042A04D049B2017002E031
:10B06000016000E00180606A002806D02046FFF7FA
:10B07000B1FF0146626A2046904710BDF0B58FB01F
:10B080000446202105A8FDF751FB658B204600F002
:10B09000EDFE0746204600F0C2FE0646204600F0C0
:10B0A00056FE0290204600F052FE0490009568463D
:10B0B00040893B4681B26846008A324680B200F041
:10B0C000BDF9258B204600F0D1FEC01E86B2204679
:10B0D00000F03DFE0190204600F039FE03900095FF
:10B0E0006846C0880123801C81B268468089324648
:10B0F000801C80B200F080F9254620356878002851
:10B100001DD0204600F0B2FE801E86B2204600F020
:10B1100086FE801E87B2204600F019FE029020466F
:10B1200000F015FE01901F200090684640893346CC
:10B13000401C81B268468088401C80B21DE0268B8E
:10B14000204600F093FE801E80B20490204600F05E
:10B1500066FE801E87B2204600F0F9FD0290204670
:10B1600000F0F5FD0190009668464089049B401C64
:10B1700081B268468088401C80B23A4600F05EF991
:10B18000204600F034FB002809D06878002806D05B
:10B190001F21C943684601800088FEF737FAA87866
:10B1A000002805D11049684601800088FEF72EFA74
:10B1B000A06A002816D005A92046FFF79BFE20466E
:10B1C00000F0C5FD0190204600F0C1FD00906846EA
:10B1D000C08805AA801C81B268460088C01C80B265
:10B1E00000F068F90FB0F0BDFF7F000070B50E46AB
:10B1F0000446002500F0FBFA00281AD0A06A0028B7
:10B2000016D02046002101222030012E02D0022E2D
:10B210000ED105E022868174204600F00CF804E08F
:10B22000228681742046FFF7BEFE204600F0B4FD62
:10B230000125284670BD10B50446FFF7CBFE30222D
:10B24000A25E36238118E35E204620308B4204DA6A
:10B2500092102286827C92088274C07C2046FFF77E
:10B26000E9FE10BD8186C28670470000F8B51D4614
:10B2700017460E4606AC0ECC00F0C4FA0E4901602B
:10B28000044602212030C174E7620121A6622186B2
:10B29000E069C1888088091D68438AB2401D81B277
:10B2A000204600F0B5FD0549A186891EE1860021F2
:10B2B00020466162F8BD0000B4E80108018000008A
:10B2C000F8B51D4617460E4606AC0ECC00F09AFAAD
:10B2D0000E490160044604212030C174E762012157
:10B2E000A6622186E069C1888088091D68438AB208
:10B2F000401D81B2204600F08BFD0549A186891EC4
:10B30000E186002120466162F8BD0000B4E8010832
:10B310000180000010B501F05AFA10BDFEB50F46CD
:10B3200011491C4609881646081A401E85B2002A93
:10B3300018D001A96846FEF7EBF80898FEF794F9D3
:10B3400007E03846791C8FB2002332462946FEF7C3
:10B35000ABF82046641EA4B20028F2D168460088EB
:10B36000FEF782F9FEBD0000CA30002010B5FEF7DE
:10B37000BBFB054C2046FEF705F82046FEF746F9D4
:10B380000020FEF771F910BDFFFF0000F7B50E4673
:10B3900004460546FEF7CAF8164F012803D138883F
:10B3A000001B401E85B2FEF7BBF880883988001963
:10B3B00088420ED8FEF7B4F88088062804D1FEF73C
:10B3C000AFF8C088082805D029463046029AFEF713
:10B3D00011F8FEBDFEF7A4F80468FEF7A1F8818815
:10B3E00002982038414348002218F0B22946FEF75F
:10B3F00059F8FEBDCA300020FFB50E460E4983B095
:10B4000009881446081A401E85B201A968460C9F97
:10B41000FEF77EF83846FEF727F9002C06D0641EAA
:10B42000A2B229463046069BFEF73EF868460088E1
:10B43000FEF71AF907B0F0BDCA300020FFB51C496D
:10B4400083B009880C9F081A401E1C46154686B218
:10B45000002A2BD0002C29D001A96846FEF758F805
:10B460003846FEF701F96F1EBAB200233146049840
:10B47000FEF71AF80498BAB20019401E80B20023F1
:10B480003146FEF711F8601E82B20123314604985E
:10B49000FEF70AF8701B401C81B201232246049873
:10B4A000FEF702F868460088FEF7DEF807B0F0BD48
:10B4B000CA30002070B514460E46054609E03146F4
:10B4C0002846FFF763FFFEF72BF88088401985B206
:10B4D000641C2278002AF2D170BD203081700029CE
:10B4E00000D1417070470000F0B585B01F4694460A
:10B4F00000240D46064623463A46614601A80094BC
:10B5000000F00CFC02462946304600F0F1FC0449EC
:10B510000160014620318C704C7005B0F0BD000018
:10B52000D8E8010810B501F052F910BD00224274AC
:10B53000002904D02122125C002A00D041747047F7
:10B5400010B500F073FC10BD70B50C4600F0A6FC01
:10B5500005460A482860002C0AD0204600F086FCE8
:10B56000A1892289891A024689B2284600F050FC36
:10B57000012121204155284670BD0000FCE801084A
:10B58000FFB585B00F461E46114602A80F9D0E9CC2
:10B5900000F0B6FB02460094334639460195059803
:10B5A00000F0D4FC03490122016021210A5409B0B2
:10B5B000F0BD0000FCE8010810B500F0EBFC034909
:10B5C0000122016021210A5410BD0000FCE801089D
:10B5D00070B50D46044600F0FBFC2035697821204B
:10B5E0000155204670BD10B500290AD002468032B0
:10B5F0001346D28C202A04D294002018521CDA84DC
:10B60000416210BD70B50C46054600F01CF801689B
:10B610004A6921469047002807D1012C06D0022C08
:10B6200003D1284600F074F8012070BD284600F0D0
:10B6300088F8F9E710B50B4600F005F801688A694B
:10B640001946904710BD01468031CA8C898C8A42C8
:10B6500003D989000818406A704700207047F8B580
:10B66000064604468036F08C0F46B8421AD920466A
:10B67000FFF7E9FF0025203045702046FFF7E3FF84
:10B6800000F08AFBB7842046FFF7DDFF20304570CD
:10B6900082780121002A00D041702046FFF7D3FFB5
:10B6A00000F07AFBF8BD70B50024054606468035EB
:10B6B00009E0A0008019406A002802D001684968AA
:10B6C0008847641CE4B2E88CA042F2D80020A88429
:10B6D000E88470BD70B5044620300078002802D0A0
:10B6E000204600F059FB26468036F08C00280ED00C
:10B6F000002509E0A8000019406A2021095C002902
:10B7000001D000F049FB6D1CF08CA842F2DC70BD4A
:10B7100010B501468031CA8C002A11D0898C0B46A5
:10B72000491C8A4200D800218B4206D08C00241884
:10B73000646A2034A478002CF2D089B2FFF78FFF1E
:10B7400010BD10B501468031CB8C002B11D0898CF7
:10B750000A46002900D11946491E8A4206D08C00AB
:10B760002418646A2034A478002CF2D089B2FFF740
:10B7700076FF10BD70B5044600F058FB26468036B3
:10B78000F08C00280AD0002505E0A8000019406AC6
:10B7900000F002FB6D1CF08CA842F6DC70BD70B5A9
:10B7A0000C460546FFF74FFF01680A69214690479E
:10B7B000002807D1012C06D0022C03D12846FFF720
:10B7C000A7FF012070BD2846FFF7BBFFF9E7000087
:10B7D00010B5FFF7B9FE044901600021024680322E
:10B7E0009184D184417410BD20E901087047203054
:10B7F000C178002904D04078002801D0012070478A
:10B800000020704710B5FFF76FFE04460548206022
:10B8100000212320015501212046FFF75EFE20462E
:10B8200010BD000044E9010810B500F0D0FF10BDC4
:10B8300070B50E4604460025FFF7D9FF002826D034
:10B84000A06A002822D020462030012E02D0022EED
:10B850001CD10CE0218E827C89182186817CFF29F5
:10B8600001D0491C8174204600F067F80BE0218E5E
:10B87000827C89182186817CFF2901D0491C817432
:10B88000204600F006F8204600F086FA01252846FA
:10B8900070BD10B50446FFF79DFB01463020205EC9
:10B8A000A26B091A8A4206DD8010224620862032C9
:10B8B000907C80089074204600F001F810BD10B50F
:10B8C0000446806A002810D0A26B8A420DDCE26B2D
:10B8D0008A420ADB0160606A002806D02046FFF732
:10B8E00079FB0146626A2046904710BD70B50E464E
:10B8F00004460025FFF77BFF00281CD0A06A002823
:10B9000018D020462030012E02D0022E12D107E09E
:10B910000121218600218174204600F00EF806E006
:10B9200001212186002181742046FFF7B2FF2046C5
:10B9300000F032FA0125284670BD10B50446FFF725
:10B9400049FB01463020205EE26B09188A4206DA84
:10B950008010224620862032907C800890742046F9
:10B96000FFF7ADFF10BD0000FEB508AF70CF6F460A
:10B9700070C7FFF77BFC03490160034981630349FA
:10B98000C163FEBD68E901086179FEFF3F420F0017
:10B9900010B500F01CFF10BD10B50C4600F022F8E9
:10B9A00001684A692146904710BD10B5903000F0FB
:10B9B000D3FE10BD70B50C46054600F013F80168C3
:10B9C0008A6921469047002807D1032C06D0042C11
:10B9D00003D1284600F035F8012070BD284600F05C
:10B9E0007DF8F9E7FF210131095A890008188030F4
:10B9F000006E704770B5C41D0546F93460880E4668
:10BA0000B04218D92846FFF7EDFF0021FFF78EFD61
:10BA100026802846FFF7E6FF0121FFF787FD28462D
:10BA2000FFF7E0FF012120300170E268002A02D018
:10BA300031462846904770BD10B5B83000F08CFEF6
:10BA400010BD10B5C11DF9314A88002A12D00988ED
:10BA50000B46491C8A4200D800218B4207D08C003B
:10BA600024188034246E20346478002CF1D089B2FC
:10BA7000FFF7C0FF10BD70B504460546B030007832
:10BA80009035002805D0284600F0D0F9284600F06F
:10BA900083F9D8202546005DB835002805D0284612
:10BAA00000F0C4F9284600F077F92020005D002856
:10BAB00002D0204600F070F9E01DF930418800887E
:10BAC00081420AD9800000198030006E002804D01D
:10BAD0002046FFF787FFFFF7FDFD70BD10B5C11DC4
:10BAE000F9314B88002B13D009880A46002901D070
:10BAF000491E00E0591E8A4207D08C002418803469
:10BB0000246E20346478002CF0D089B2FFF772FFE5
:10BB100010BD10B500290AD0C31DF9335A88082A70
:10BB200005D294002018E024521C5A80015110BD07
:10BB3000704710B50C46FFF755FF01680A692146AA
:10BB4000904710BDFFB59DB00446154611461AA892
:10BB5000279E00F0D5F82699009102460196002113
:10BB60002046209BFFF70CFD5D4901602430FFF764
:10BB700023FD2430FFF720FD2430FFF71DFD243086
:10BB800000F002FE283000F0FFFD04464C3055491D
:10BB90000B9001600021B83C4160FFF7E7FBE01D1E
:10BBA000F93000210F9041800F984F4F0180288974
:10BBB000A9880022401A83B2F8881146801C80B2FE
:10BBC00000901AA800F0AAF81F2102460091474BE6
:10BBD0000197214602A8FFF7D3FC014620464830D2
:10BBE0000D90FFF7F5FC0D9800F0D6F82889A9888C
:10BBF000401A83B26889E988411AF088091A801CC2
:10BC0000891E80B20AB2009000211AA800F086F8BE
:10BC10000246269800900196214602A8209BFFF735
:10BC2000AFFC014620466C300E90FFF7D1FC0E9819
:10BC300000F0B2F86889E988471A0E9800F016F902
:10BC40003F1A0D9800F012F9381A87B22889A9888E
:10BC5000401A85B20D9800F009F902B22B46002176
:10BC60001AA8009700F05AF80246204800900023D6
:10BC70002146019602A8FFF783FC014620462430A6
:10BC80000546FFF7A5FC284600F086F80120009045
:10BC9000034610A80D9A1E9900F064FD0146204647
:10BCA000903000F083FD00200090012310A110A827
:10BCB0000E9A00F057FD01462046B83000F076FDA0
:10BCC00020462021E030FCF731FD0B9D00F0BAFC4E
:10BCD0006C600F980021C160204621B0F0BD0000CB
:10BCE0008CE9010858EA0108C0300020FFFF00007D
:10BCF0002000000001490160704700008CE9010844
:10BD0000054A02608A888280CA88C2800A890281C4
:10BD10004989418170470000B0E9010830B5054DFF
:10BD2000039C05608180C280C9180181111941817D
:10BD300030BD0000B0E901080349016000218180A5
:10BD4000C180018141817047B0E9010870471CB58D
:10BD50000446002000906069002812D0FFF7F7FF2A
:10BD60000090684600882189411868460180606912
:10BD7000FFF7EDFF01906846C08861894118684669
:10BD800003E02189684601806189418000981CBDDB
:10BD90000020704700207047F0B5044685B00021B0
:10BDA00020300170204600F066F8002813D0E069CA
:10BDB000002801D0FDF752FC618B68460180218B81
:10BDC000818081880088FDF729FC206881682046F1
:10BDD000884705B0F0BDE0896189268B401A85B29D
:10BDE000A0892189401A87B22046FFF7B0FF019051
:10BDF0002046FFF7ACFF049000966846C0882B46AB
:10BE000081B26846008A3A4680B2FFF787FAE0E7D7
:10BE100003895918818141898918C18170478189B5
:10BE20000089081A80B2704700207047F0B585B0CD
:10BE30000746048B00F01AF806463846FFF7EFFF76
:10BE400005463846FFF783FF01903846FFF77FFF2E
:10BE5000049000946846C088334681B26846008AE0
:10BE60002A4680B2FFF75AFA05B0F0BDC189408971
:10BE7000081A80B2704710B504464069002808D0FF
:10BE8000FFF7F9FF002806D0607C002803D00120CE
:10BE900010BD607C10BD002010BD00000A4610B52A
:10BEA000124902C0FFF748FF041F00202081608173
:10BEB000A081E08101216174217420210855204670
:10BEC0001A30811E6261FDF723FBFDF729FBE0615B
:10BED0006069002807D0408B60836069008B2083F5
:10BEE0006069C069E061204610BD0000C0E901083A
:10BEF0000B4610B5144902C0FFF71EFF041F9088BF
:10BF00002081D08860811089A0815089E081012042
:10BF10006074207400212020015520461A30811EB3
:10BF20006361FDF7F5FAFDF7FBFAE061606900284F
:10BF300007D0408B60836069008B20836069C06993
:10BF4000E061204610BD0000C0E90108F8B50F46C9
:10BF50000F49069E079D02C0FFF7EEFE041F908862
:10BF60002081D08860811089A0815089E0810120E2
:10BF7000607420740021202067610155638326834B
:10BF8000FDF7CEFAE061002D00D0E5612046F8BD56
:10BF9000C0E9010810B50D4902C0FFF7CDFE041F2E
:10BFA000002020816081A081E081012161742174E1
:10BFB00020210855606120461A30811EFDF7A8FA3D
:10BFC000FDF7AEFAE061204610BD0000C0E90108AF
:10BFD0008B688360CB68C3600A7C02744A7C4274BD
:10BFE0004A6942610A8B02834A8B4283CA692031C3
:10BFF000C2610A7820210A54704710B50024FFF767
:10C00000F6FB002800D00124204610BD70B50C4678
:10C0100006460025FFF7EBFB002800D00125052C84
:10C0200009D134462034E078002806D00020E070A2
:10C030003046FFF7B1FE284670BD0120F7E7F0B5A6
:10C04000816A87B0044600290ED0E069C2888688DC
:10C05000121D95B20846FCF729FB4643761DB1B286
:10C060002A462046FFF7D4FE658B2046FFF7FEFEEA
:10C0700007462046FFF7D3FE06462046FFF767FE39
:10C0800001902046FFF763FE049000956846C08843
:10C090003B4681B26846008A324680B2FFF7CEF94D
:10C0A000258B2046FFF7E2FEC01E86B22046FFF732
:10C0B0004EFE01902046FFF74AFE03900095684629
:10C0C000C0880123801C81B2684680893246801C6A
:10C0D00080B2FFF791F925462035687800281DD0F9
:10C0E0002046FFF7C3FE801E86B22046FFF797FE6C
:10C0F000801E87B22046FFF72AFE02902046FFF7F7
:10C1000026FE01901F200090684640893346401C5F
:10C1100081B268468088401C80B21DE0268B204694
:10C12000FFF7A4FE801E80B204902046FFF777FE42
:10C13000801E87B22046FFF70AFE02902046FFF7D6
:10C1400006FE0190009668464089049B401C81B21F
:10C1500068468088401C80B23A46FFF76FF9204657
:10C16000FFF745FB002809D06878002806D01F217A
:10C17000C943684601800088FDF748FA2046FFF76A
:10C18000E6FD02902046FFF7E2FD019068464089F7
:10C19000A26A801C81B268468088C01C80B2FFF70A
:10C1A00089F907B0F0BD0123202281621354426A4D
:10C1B000002A00D01047704710B50024FFF717FB86
:10C1C000002800D00124204610BD000070B51C4698
:10C1D00016460D4622463146049BFFF713FB0446E4
:10C1E000044820600020606229462046FFF7DBFFFC
:10C1F000204670BDE4E9010810B500F0E8FA10BD72
:10C2000010B50024FFF7F3FA002800D001242046DF
:10C2100010BD70B50E4604460025FFF7E8FA002869
:10C220001BD0012E02D0022E16D109E0208E00284C
:10C2300000D1608E401E81B2204600F042F80FE02F
:10C24000618E208E491E884201D1002101E0401CF0
:10C2500081B2204600F035F80125052E03D000E01C
:10C260000125284670BD20462030C178002905D020
:10C270000021C1702046FFF78FFDF1E70121F8E7AB
:10C2800010B5044600206086E06A002812D110BD77
:10C29000FCF70CFAA18E884206D9618EE06A89000B
:10C2A0004058FCF703FAA086608E401C80B260867E
:10C2B000FF28ECD8618EE06A890040580028E7D159
:10C2C00010BD428E8A4208D9002A06D00186C26A71
:10C2D000890051580268D26910477047F0B504468A
:10C2E000C06987B0C1888088091D8AB2A18E491CA7
:10C2F00048430A3081B22046FFF78AFD658B20460D
:10C30000FFF7B4FD07462046FFF789FD06462046A5
:10C31000FFF71DFD01902046FFF719FD04900095E1
:10C320006846C0883B4681B26846008A324680B281
:10C33000FFF784F8258B2046FFF798FDC01E86B2D4
:10C340002046FFF704FD01902046FFF700FD039013
:10C3500000956846C0880123801C81B268468089A8
:10C360003246801C80B2FFF747F8254620356878B2
:10C3700000281ED02046FFF779FD801E87B2204698
:10C38000FFF74DFD801E86B22046FFF7E0FC0290CD
:10C390002046FFF7DCFC01901F2000906846408992
:10C3A0003B46401C81B2684680883246401C80B2C1
:10C3B0001EE0268B2046FFF759FD801E80B20490B8
:10C3C0002046FFF72CFD801E87B22046FFF7BFFCFA
:10C3D00002902046FFF7BBFC01900096684640891A
:10C3E0003A46401C81B268468088049B401C80B25B
:10C3F000FFF724F82046FFF7FAF9002809D06878FB
:10C40000002806D01F21C943684601800088FDF737
:10C41000FDF82046A56AFFF79AFC00902046FFF73A
:10C4200096FC6B46029058882A46801C81B2188977
:10C43000C01C80B2FFF73EF8658B2046FFF716FD63
:10C44000C01E86B22046FFF782FC03902046FFF70D
:10C450007EFC01902046FFF7E2FC6B46998832464D
:10C460004118E06980880095081AD989401F891C05
:10C4700080B289B20123FEF7BFFF658B2046FFF72C
:10C48000F5FCC01E86B22046FFF761FC03902046F3
:10C49000FFF75DFC01902046FFF7C1FC6B469988D1
:10C4A00032464118E06980880095081AD989001F32
:10C4B000891C80B289B20123FEF79EFF668B20465D
:10C4C000FFF7D4FCC01E85B22046FFF740FC039066
:10C4D0002046FFF73CFC01902046FFF7A0FC6B468E
:10C4E0009988C01E40180096D98980B2891C89B2EB
:10C4F00001232A46FEF780FF208B6B461880608B55
:10C50000988099881888FDF789F82046FFF71FFC66
:10C5100001902046FFF71BFC00902046FFF77FFCB0
:10C520006B46198806A24118E0698088081AD988E4
:10C53000C01E891C80B289B2FEF7BCFF07B0F0BDF7
:10C54000760000000123202281621354426A002AEF
:10C5500000D01047704710B50024FFF748F90028B5
:10C5600000D00124204610BD38B50D460499009135
:10C570000021FFF72BFE04460648E56220600020FC
:10C58000A0862046FFF77CFE00212046FFF799FE9B
:10C59000204638BD0CEA010810B500F018F910BDAE
:10C5A000FEB50446458BFFF761FCE16989884908BF
:10C5B000401A87B22046FFF732FC01902046FFF771
:10C5C000C6FB0090E06980884108684640880818EA
:10C5D00086B22046FFF7BBFB0290009568460089B3
:10C5E0003B4680B23146019AFEF728FF2046656A35
:10C5F000FFF7ADFB01902046FFF7A9FB00906846CE
:10C60000C0882A4681B268460088801D80B2FEF745
:10C6100051FFFEBDF8B51D46164606AF1CCF00946F
:10C6200000F0A0F8044604482060AAB2B1B2204647
:10C63000FFF7EEFB2046F8BD34EA010810B500F024
:10C64000C6F810BD10B5FDF75DFA10BDF8B50E4681
:10C65000054605240B0000F0D3F8050B0406080A74
:10C660000B00032404E0042402E0022400E001247F
:10C670002046FDF75DFA194F01281AD17878A042BB
:10C680000CD13878002802D0401E387006E0686867
:10C69000002803D001684A69314690477878FF281E
:10C6A00007D17C706868002803D001680A693146A8
:10C6B00090472046FDF73CFA00280DD17878A0423B
:10C6C0000AD1FF207870052038706868002803D0F0
:10C6D00001688A6931469047F8BD0000C8300020E3
:10C6E00010B504460521FFF7B1FF01212046FFF7F1
:10C6F000ADFF02212046FFF7A9FF03212046FFF7E7
:10C70000A5FF04212046FFF7A1FF10BD7CB5416ABB
:10C71000044600291DD0E069C58886880846FBF7D5
:10C72000C5FF4643B1B22A462046FFF771FB2046BB
:10C73000FFF70DFB01902046FFF709FB00906846CC
:10C74000C088626A81B26846008880B2FEF7B2FE95
:10C750007CBDFFF76BFB7CBD416201212030017085
:10C760007047000070B51D4616460C462A463146F5
:10C77000049BFEF7B9FE03494462012201602021B7
:10C780000A5470BD68EA010810B5FFF703FC0021E8
:10C790000246203291705170014A0260416210BD20
:10C7A00068EA010810B500F012F810BD70B50C462B
:10C7B0000546FFF70DFC20462030294642782031FF
:10C7C0004A7080788870606A6862284670BD10B5CB
:10C7D000FCF7A9F810BD000010B5040008D1012431
:10C7E00006E0FCF767F80068002800D1034880479E
:10C7F0002046FCF767F80028F3D010BD2F8B010806
:10C8000030B47446641E2578641CAB4200D21D46C9
:10C81000635D5B00E31830BC1847F7B507460E466A
:10C8200000251020FCF74EF804000AD06760A660CF
:10C830000298E060FCF742F8016821600460284635
:10C84000FEBD0125FBE7F8B50646FCF737F800907A
:10C8500015E0002E04D0E068B04201D025460FE07C
:10C86000206828600098A1680768606888472046AB
:10C87000FCF759F800980068B84201D000980546C6
:10C880002C68002CE5D1F8BD10B50020FCF735F977
:10C8900010BD00001CB5F020FF23002200904133A2
:10C8A00011461948FFF73AFA184A1949FFF7B5FF38
:10C8B0001F20154A1749009001911046164B17A1E9
:10C8C0000C30FFF73FF9114A1549FFF7A6FF0E4953
:10C8D000303108460C46EC30FEF77AFF0B4A11491E
:10C8E000FFF79BFF21461048FEF772FF074A0D49EC
:10C8F000FFF793FF0C482146A830FEF769FF034A73
:10C900000849FFF78AFF1CBDD430002000800108D1
:10C910004DBD0108CC300020FFFF000000000000EA
:10C92000F5BC0108EDB701089832002030380A281C
:10C9300001D20120704700207047000001B581B08E
:10C940000449019848430090002801D0401EFAE7AE
:10C950000CBD0000D084000010B5FBF770FC002077
:10C9600010BD000010B500290AD00878002807D0B3
:10C9700005487844FCF760FA002801D0002010BD7B
:10C980000248784410BD0000A22400009A24000050
:10C9900001821E0001070B0D18C600F81F004C4352
:10C9A00044206D616E61676572207665723A20344D
:10C9B0002E33000000000000000000000000000016
:10C9C0000000000024CA010824CA0108D4CB0108D1
:10C9D0002CCC01082CCC0108B0CA01084CCB0108B2
:10C9E0000000000080CA010897CA010818CC01089D
:10C9F00090CC0108A9CC01082CCB0108B8CB0108C8
:10CA0000191A8205060718211617081F0C20090A93
:10CA10000B0D0E0F10111213151482828282828266
:10CA20008200000084EA010898EA01084CEB010842
:10CA3000FCEA0108D4EA0108ACEA010888EB010825
:10CA400074EB0108E8EA0108C0EA010860EB01089C
:10CA500010EB0108C4EB010800EC0108B0EB010881
:10CA60009CEB0108ECEB0108D8EB010814EC010881
:10CA700028EC010824EB010838EB01080000000055
:10CA8000232425262728292A2B2C2D2E31323334F6
:10CA9000353642433D3EFF232425262728292A2BCD
:10CAA0002C2D2E3738393A3B3C44453D3EFF0000A3
:10CAB00084EA010898EA01084CEB0108FCEA010845
:10CAC000D4EA0108ACEA010888EB010874EB01081C
:10CAD000E8EA0108C0EA010860EB010810EB010870
:10CAE0008CEC0108C8EC010850EC01083CEC010892
:10CAF00064EC010878EC0108A0EC0108B4EC010832
:10CB00002CED010868ED0108F0EC0108DCEC0108EF
:10CB100004ED010818ED010840ED010854ED01088D
:10CB200024EB010838EB010800000000232425262F
:10CB30002728292A2B2C2D2E3132333435364243E7
:10CB40003738393A3B3C44453D3EFF0084EA010812
:10CB500098EA01084CEB0108FCEA0108D4EA010854
:10CB6000ACEA010888EB010874EB0108E8EA010867
:10CB7000C0EA010860EB010810EB01087CED010838
:10CB800090ED0108B8ED0108A4ED01088CEC010856
:10CB9000C8EC010850EC01083CEC010864EC010809
:10CBA00078EC0108A0EC0108B4EC010824EB0108C2
:10CBB00038EB010800000000232425262728292A15
:10CBC0002B2C2D2E5D5E5F6031323334353642437F
:10CBD0003D3EFF0084EA010898EA01084CEB010899
:10CBE000FCEA0108D4EA0108ACEA010888EB010874
:10CBF00074EB0108E8EA0108C0EA010860EB0108EB
:10CC000010EB0108CCED0108E0ED010824EB010870
:10CC100038EB010800000000232425262728292AB4
:10CC20002B2C2D2E2F303D3EFF00000084EA010802
:10CC300098EA01084CEB0108FCEA0108D4EA010873
:10CC4000ACEA010888EB010874EB0108E8EA010886
:10CC5000C0EA010860EB010810EB0108CCED010807
:10CC6000E0ED0108C4EB010800EC0108B0EB01089D
:10CC70009CEB0108ECEB0108D8EB010814EC01086F
:10CC800028EC010824EB010838EB01080000000043
:10CC9000232425262728292A2B2C2D2E2F303132EC
:10CCA0003334353642433D3EFF23242526272829A9
:10CCB0002A2B2C2D2E2F303738393A3B3C44453D1A
:10CCC0003EFF0000200040000500060000000000BC
:10CCD000000002000000100000001000000100022F
:10CCE0000004000800001000000010000000100008
:10CCF00000001000002008000400000200040100F1
:10CD0000000008000000200000002000000040009B
:10CD100000004000000002000020080004000002A3
:10CD200000040100020004000400050005000000EA
:10CD30000D000300020009000A00000007000600C1
:10CD400006000700070005000000000000000000CA
:10CD500000000000000000000000000000000000D3
:10CD600000000000000000000000000000000000C3
:10CD70000000000000000000000080018001800130
:10CD8000800180018001800180018001800180019B
:10CD9000800180010000000080018001000000008F
:10CDA000000000000000000000000000CC00CC00EB
:10CDB000CC00CC00CC00CC00000000000000000043
:10CDC0000000000000000000000000000000000063
:10CDD0000000000000000000000000000000000053
:10CDE00000000000600C600C600C30063006FE1F76
:10CDF000FE1F300638071803FE1FFE1F1803180316
:10CE00008C018C018C01000000008000E003F80F11
:10CE10009C0E8C1C8C188C009800F801E007800E8A
:10CE2000801C8C188C189C18B80CF00FE003800044
:10CE300080000000000000000000000000000E184C
:10CE40001B0C110C11061106110311039B018E011D
:10CE5000C038C06C60446044304430441844186C9E
:10CE60000C380000000000000000E001F00338076B
:10CE7000180618063003F001F000F8009C310E335C
:10CE8000061E061C061C063FFC73F0210000000075
:10CE90000000000000000000000000000C000C007A
:10CEA0000C000C000C000C00000000000000000052
:10CEB0000000000000000000000000000000000072
:10CEC00000000000000000000000000200038001DC
:10CED000C000C00060006000300030003000300052
:10CEE000300030003000300060006000C000C00042
:10CEF0008001000300020000000020006000C0006C
:10CF00008001800100030003000600060006000601
:10CF100000060006000600060003000380018001F1
:10CF2000C0006000200000000000000000000000C1
:10CF300000000000C000C000D806F807E001300380
:10CF400038070000000000000000000000000000A2
:10CF500000000000000000000000000000000000D1
:10CF60000000000080018001800180018001FC3F01
:10CF7000FC3F8001800180018001800100000000F1
:10CF800000000000000000000000000000000000A1
:10CF90000000000000000000000000000000000091
:10CFA000000000000000000000008001800100017E
:10CFB00000018000000000000000000000000000F0
:10CFC0000000000000000000000000000000000061
:10CFD000E007E00700000000000000000000000083
:10CFE0000000000000000000000000000000000041
:10CFF0000000000000000000000000000000000031
:10D0000000000000000000000000C000C0000000A0
:10D0100000000000000000000000000C000C0006F2
:10D020000006000600030003000380038001800166
:10D030008001C000C000C00060006000000000006F
:10D0400000000000000000000000E003F007380EC0
:10D05000180C0C180C180C180C180C180C180C18B0
:10D060000C180C18180C380EF007E0030000000034
:10D070000000000000000000000000018001C0016D
:10D08000F001980188018001800180018001800108
:10D09000800180018001800180018001000000008A
:10D0A00000000000000000000000E003F80F180C72
:10D0B0000C180C1800180018000C00060003800162
:10D0C000C000600030001800FC1FFC1F00000000C2
:10D0D00000000000000000000000E001F807180E4A
:10D0E0000C0C0C0C000C0006C003C007000C001850
:10D0F00000180C180C18180CF807E00300000000CA
:10D1000000000000000000000000000C000E000FF6
:10D11000000F800DC00C600C600C300C180C0C0C57
:10D12000FC3FFC3F000C000C000C000C0000000059
:10D1300000000000000000000000F80FF80F1800C9
:10D1400018000C00EC03FC071C0E001C0018001853
:10D1500000180C181C0C180EF807E0030000000063
:10D1600000000000000000000000C007F00F381CA5
:10D17000181818000C00CC03EC0F3C0E1C1C0C18EB
:10D180000C180C18181C380EF007E0030000000003
:10D1900000000000000000000000FC1FFC1F000C4D
:10D1A00000060006000380038001C001C000E0000B
:10D1B00060006000700030003000300000000000AF
:10D1C00000000000000000000000E003F007380E3F
:10D1D000180C180C180C3806F007F007180C0C186F
:10D1E0000C180C180C18380CF80FE00300000000A5
:10D1F00000000000000000000000E003F007380E0F
:10D200001C0C0C180C180C181C1C381EF81BE019F0
:10D210000018000C000C1C0EF807F00100000000C4
:10D2200000000000000000000000000000000000FE
:10D2300000000000800180010000000000000000EC
:10D2400000000000000000008001800100000000DC
:10D2500000000000000000000000000000000000CE
:10D2600000000000800180010000000000000000BC
:10D2700000000000000000008001800100010001AA
:10D28000800000000000000000000000000000001E
:10D2900000000000000000000010001C800FE003F0
:10D2A000F87FF87FF87FE003800F001C001000007B
:10D2B000000000000000000000000000000000006E
:10D2C0000000000000000000F81F00000000000047
:10D2D000F81F000000000000000000000000000037
:10D2E000000000000000000000000000000000003E
:10D2F000000000000000000008003800F001C00736
:10D30000FE1FFE1FFE1FC007F001380008000000CE
:10D3100000000000000000000000E003F80F180CFF
:10D320000C180C180018000C000600038001C00047
:10D33000C000C00000000000C000C00000000000ED
:10D34000000000000000000000000000E0071818C6
:10D350000420C229224A11440944094409440922EB
:10D360001113E20C024004201818E007000000002E
:10D370000000000000000000000080038003C006E1
:10D38000C006C006600C600C301830183018F83F2A
:10D39000F83F1C700C600C6006C006C00000000066
:10D3A00000000000000000000000FC03FC0F0C0C5B
:10D3B0000C180C180C180C0CFC07FC0F0C180C307B
:10D3C0000C300C300C300C18FC1FFC070000000067
:10D3D00000000000000000000000C007F01F383807
:10D3E0001C300C70066006000600060006000600F1
:10D3F000060006600C701C30F01FE0070000000003
:10D4000000000000000000000000FE03FE0F060EFA
:10D41000061806180630063006300630063006308C
:10D42000063006180618060EFE0FFE030000000068
:10D4300000000000000000000000FC3FFC3F0C006A
:10D440000C000C000C000C00FC1FFC1F0C000C005E
:10D450000C000C000C000C00FC3FFC3F0000000026
:10D4600000000000000000000000F83FF83F180036
:10D470001800180018001800F81FF81F18001800EE
:10D48000180018001800180018001800000000000C
:10D4900000000000000000000000E00FF83F3C78B2
:10D4A0000E6006E007C00300030003FE03FE03C096
:10D4B00007C006C00EC03CF0F83FE00F00000000BF
:10D4C000000000000000000000000C300C300C30A8
:10D4D0000C300C300C300C30FC3FFC3F0C300C306E
:10D4E0000C300C300C300C300C300C3000000000D4
:10D4F00000000000000000000000800180018001A9
:10D500008001800180018001800180018001800113
:10D510008001800180018001800180010000000005
:10D5200000000000000000000000000600060006E9
:10D5300000060006000600060006000600060006BB
:10D540000006180618063807F003E0010000000086
:10D550000000000000000000000006300618060C65
:10D56000060606038601C60066007600DE008E0110
:10D5700006030606060C06180630066000000000CA
:10D580000000000000000000000018001800180053
:10D5900018001800180018001800180018001800CB
:10D5A0001800180018001800F81FF81F00000000ED
:10D5B000000000000000000000000EE01EF01EF061
:10D5C0001EF036D836D836D836D866CC66CC66CC7F
:10D5D000C6C6C6C6C6C6C6C686C386C30000000089
:10D5E000000000000000000000000C301C303C3047
:10D5F0003C306C306C30CC30CC308C310C330C3354
:10D600000C360C360C3C0C3C0C380C300000000086
:10D6100000000000000000000000E007F81F1C38B8
:10D620000E70066003C003C003C003C003C003C084
:10D6300003C006600E701C38F81FE00700000000F1
:10D6400000000000000000000000FC0FFC1F0C3870
:10D650000C300C300C300C300C18FC1FFC070C008C
:10D660000C000C000C000C000C000C000000000072
:10D6700000000000000000000000E007F81F1C3858
:10D680000E70066003E003C003C003C003C003C004
:10D6900007E006630E3F1C3CF83FE0F700C00000C7
:10D6A00000000000000000000000FE0FFE1F063812
:10D6B0000630063006300638FE1FFE070603060653
:10D6C000060C06180618063006300660000000003A
:10D6D00000000000000000000000E003F80F1C0C38
:10D6E0000C180C180C001C00F803E00F001E00388A
:10D6F000063006300E301C1CF80FE007000000005A
:10D7000000000000000000000000FE7FFE7F80019E
:10D710008001800180018001800180018001800101
:10D7200080018001800180018001800100000000F3
:10D73000000000000000000000000C300C300C3035
:10D740000C300C300C300C300C300C300C300C30F9
:10D750000C300C300C301818F81FE00700000000E7
:10D7600000000000000000000000036006300630EA
:10D7700006300C180C180C18180C180C380E300643
:10D780003006700760036003C001C00100000000A4
:10D79000000000000000000000000360C361C361DE
:10D7A000C3616633663366336633663366336C1B38
:10D7B0006C1B6C1B2C1A3C1E380E380E000000002F
:10D7C000000000000000000000000FE00C701830A6
:10D7D0003018700C600EC00780038003C003E006A1
:10D7E000700C301C18180C300E6007E000000000B0
:10D7F0000000000000000000000003C006600C30C4
:10D800001C383818300C6006E007C0038001800126
:10D810008001800180018001800180010000000002
:10D8200000000000000000000000FC7FFC7F0060A2
:10D8300000300018000C000600038001C0006000EA
:10D84000300018000C000600FE7FFE7F0000000084
:10D8500000000000000000000000E003E0036000A2
:10D8600060006000600060006000600060006000B8
:10D8700060006000600060006000600060006000A8
:10D880006000E003E00300000000300030006000B2
:10D8900060006000C000C000C000C00180018001C5
:10D8A00080010003000300030006000600000000E2
:10D8B00000000000000000000000E003E00300039F
:10D8C0000003000300030003000300030003000340
:10D8D0000003000300030003000300030003000330
:10D8E0000003E003E003000000008001C001C0016C
:10D8F000E003E003E003F007F007D80DD80DC00106
:10D90000C001C001C001C001C001C001C001C0010F
:10D91000C001C001C00100000000000000000000C4
:10D9200000000000000000000000000000000000F7
:10D9300000000000000000000000FFFFFFFF0000EB
:10D94000000000000000000000000C000C000C00B3
:10D950000C000C000C0000000000000000000000A3
:10D9600000000000000000000000000000000000B7
:10D9700000000000000000000000000000000000A7
:10D9800000000000F003F8071C0C0C0C000FF00F57
:10D99000F80C0C0C0C0C1C0FF80FF0180000000019
:10D9A000000000000000000000001800180018002F
:10D9B00018001800D803F80F380C18181818181881
:10D9C000181818181818380CF80FD80300000000A1
:10D9D0000000000000000000000000000000000047
:10D9E00000000000C003F007300E180C18001800EB
:10D9F00018001800180C300EF007C00300000000DB
:10DA000000000000000000000000001800180018CE
:10DA100000180018C01BF01F301C18181818181810
:10DA2000181818181818301CF01FC01B0000000030
:10DA300000000000000000000000000000000000E6
:10DA400000000000C003F00F300C1818F81FF81F7A
:10DA5000180018003818301CF00FC0070000000034
:10DA600000000000000000000000800FC00FC00098
:10DA7000C000C000F007F007C000C000C000C00038
:10DA8000C000C000C000C000C000C0000000000016
:10DA90000000000000000000000000000000000086
:10DAA00000000000E00DF80F180E0C0C0C0C0C0C14
:10DAB0000C0C0C0C0C0C180EF80FE00D000C0C0CE0
:10DAC0001C06F807F00100000000180018001800FC
:10DAD00018001800D807F80F381C1818181818184C
