:02000004080FE3
:10000000C0ED01207D020F085D521A00B9020F08F1
:1000100089020F088B020F088D020F0800000000F4
:100020000000000000000000000000008F020F0828
:1000300091020F080000000093020F0895020F08BC
:1000400097020F0897020F0897020F0897020F08F0
:1000500097020F0897020F0897020F0897020F08E0
:1000600097020F0897020F0897020F0897020F08D0
:1000700097020F0897020F0897020F0897020F08C0
:1000800097020F0897020F0897020F0897020F08B0
:1000900097020F0897020F0897020F0897020F08A0
:1000A00097020F0897020F0897020F0897020F0890
:1000B00097020F0897020F0897020F0897020F0880
:1000C00097020F0897020F0897020F0897020F0870
:1000D00097020F0897020F0897020F0897020F0860
:1000E00097020F0897020F0897020F0897020F0850
:1000F00097020F0897020F0897020F0897020F0840
:1001000097020F0897020F0897020F0897020F082F
:1001100097020F0897020F0897020F0897020F081F
:1001200097020F0897020F0897020F0897020F080F
:1001300097020F0897020F0897020F0897020F08FF
:1001400097020F0897020F0897020F0897020F08EF
:1001500097020F0897020F0897020F0897020F08DF
:1001600097020F0897020F0897020F0897020F08CF
:1001700097020F0897020F0897020F0897020F08BF
:1001800097020F0800F002F800F068F80AA090E863
:10019000000C82448344AAF10107DA4501D100F042
:1001A0005DF8AFF2090EBAE80F0013F0010F18BFA7
:1001B000FB1A43F00103184714C8000034C80000BC
:1001C000103A24BF78C878C1FAD8520724BF30C883
:1001D00030C144BF04680C60704700000023002455
:1001E00000250026103A28BF78C1FBD8520728BF47
:1001F00030C148BF0B607047692900F0FF80642957
:1002000000F0FC80752900F0F9806F2900F09081E2
:10021000782900F0B7810368DB0928BF41F080012D
:10022000632900F0E483E32900F0F783002070479E
:100230001FB59DE8030000F051FC00F005FD04002F
:100240000020002107F044FC401C606000F0D4FA5C
:100250001FBD10B5002006F079FE10BD00F0CEFCE9
:100260001146FFF7E5FF07F0C7FB00F00FFD03B4F1
:10027000FFF7EFFF03BC00F0BBFC0000094880471C
:1002800009480047FEE7FEE7FEE7FEE7FEE7FEE778
:10029000FEE7FEE7FEE7FEE704480549054A044B92
:1002A0007047000079280F0885010F08E8E6012053
:1002B000C0ED0120C0ED012000B5FFB441464A4623
:1002C00053465C4665463EB40D496A460A600D4990
:1002D00008600D4988473EBC884691469A46A34629
:1002E000AC46FFBC00BD064801688D463EBC884652
:1002F00091469A46A346AC46FFBC044800BD0000A8
:10030000F0FF0120F4FF01208D010F087CC20F08CF
:100310000FB41CB5074B06AA7B44694600900598AC
:1003200000F043FB0020694600F052FB1CBC5DF866
:1003300014FB0000B506000070B50446856900682E
:10034000C10601D5302600E02026C00707D070BDC9
:10035000D4E9012130469047206A401C20626D1E7E
:10036000F6D570BD70B5044685690078C00707D121
:1003700070BDD4E9012120209047206A401C2062F2
:100380006D1EF6D570BD09684A0501D540B27047AB
:10039000C905FCD500B2704709684A0501D5C0B24D
:1003A0007047C905FCD580B2704770B50C4605464C
:1003B000012A05D02878800600D5EA69002302E0EA
:1003C000012305E05B1C934202D2E05C0028F9D1D6
:1003D000A869E618C01AA861286A18442862284645
:1003E000FFF7AAFF04E0D5E9012114F8010B9047BB
:1003F000B442F8D32846FFF7B5FF70BD2DE9F041B0
:100400000646002410687529314616A510D0FFF75E
:10041000BAFF002802DA404213A507E031688A07D4
:1004200001D512A502E0490704D511A5012401E078
:10043000FFF7B2FF00210A2206F1240709E0B0FB12
:10044000F2FCB0FBF2F302FB1C003030785418468B
:10045000491C0028F3D123462A463046BDE8F04126
:1004600000F045BA000000002D0000002B00000045
:10047000200000002DE9FF5F15468A460446DFF89C
:10048000AC80F8440027D8E900103E46CDE90010C2
:1004900010E03AF816106A4602A800F0CAFA411CA9
:1004A00007D02178890603D5E269391891420DD821
:1004B0000744761C2078800602D5E069B84205DD45
:1004C000AE42E6DB3AF816000028E2D1A069C01B74
:1004D000A0612046FFF730FFD8E90010CDE90010F9
:1004E000002017E03AF818106A4602A800F0A1FAB6
:1004F000B0F1FF3F81460BD000250DF1080B05E060
:10050000D4E901211BF8050090476D1C4D45F7D338
:1005100008F10100B0428046E4DB206A38442062E2
:100520002046FFF71FFFBDE8FF9F000006BE00004A
:1005300070B5044621461068FFF72EFF002104F134
:10054000240505E000F007023032C0086A54491C57
:100550000028F7D12068002308A2050708D500F07D
:100560002000084304D0E069012305A2401EE06199
:100570002046BDE8704000F0BAB90000000000005D
:100580003000000070B504460D4621461068FFF7A4
:1005900003FF2188090502D50F4A7A4402E00E4A7A
:1005A0007A440E32002104F1240305E000F00F0626
:1005B0000009965D5E54491C0028F7D1207800237D
:1005C000000704D5702D02D009B102231132204654
:1005D000BDE8704000F08BB9F6BC00002DE9F05F7B
:1005E000894604464FF0000ADFF874B1FB44C0F8B6
:1005F00020A02046E1688847002874D0252806D02E
:10060000D4E901219047206A401C2062F1E70026CE
:100610005F462046E16888472028054607DB312DE4
:1006200005D2781910F8200C08B10643F1E7B0079D
:1006300001D526F00406C4F81CA00027C4F818A0B1
:100640002A2D09D0284607F037F838B304EB87087D
:10065000303DC8F8185019E059F8041B204604EB47
:1006600087029161E1688847012F054618D1E0694A
:10067000002820DA26F020061DE0D8F8180000EB4C
:10068000800005EB40003038C8F818002046E168CB
:100690008847054607F010F80028EED1012F0AD050
:1006A0002E2D08D12046E16888477F1C0546022F81
:1006B00046F02006C4DBA069002803DA404246F079
:1006C0000106A061F00701D026F010066C2D0BD0BA
:1006D000682D09D04C2D39D06A2D35D0742D35D0E8
:1006E0007A2D33D016E038E0E1682F46204688475F
:1006F000B842054609D16C2F26D04FF48060E168DE
:10070000064320468847054604E06C2F1AD04FF474
:10071000807006430DB3A5F14100192802D8203599
:1007200046F400664A462946204626604E46FFF7B4
:1007300063FD80B101280BD0F61D26F0070000F103
:10074000080956E74020E4E78020D8E70020D6E7F4
:1007500006F104094DE7284652E7206ABDE8F09FFC
:10076000CCBC000010B5431C02E010F8011B71B1B5
:100770008107FAD14FF0013202C88C1A8C4314EA77
:10078000C211F9D0C01A0A0603D0C01E10BDC01A8B
:1007900010BD0A0401D0801E10BD0902FCD0401E0D
:1007A00010BD4FF0000200B513469446964620391E
:1007B00022BFA0E80C50A0E80C50B1F12001BFF41A
:1007C000F7AF090728BFA0E80C5048BF0CC05DF880
:1007D00004EB890028BF40F8042B08BF704748BFCE
:1007E00020F8022B11F0804F18BF00F8012B704742
:1007F000704770477047000070B5064C7C44064D4A
:100800007D4403E0206820448047241DAC42F9D198
:1008100070BD0000FCC20000FCC200000048704730
:10082000B8E6012000487047BCE6012070B50646D6
:1008300000F034F9056806F10B0020F00704B4421B
:100840009CBF002070BD2B466A68BAB11068A042F8
:1008500010D304F1080188423CBF5068586007D3A8
:100860005168101941601168091B016058601460DB
:10087000101D70BD13465268002AE7D12146284654
:1008800000F018F90028DED170BD70B50446051FD0
:1008900000F004F90068002C14BF446870BD002CFF
:1008A00018BFAC423CBF20466468F8D301680A1800
:1008B000AA4218BF456003D12A6805461144016069
:1008C00028684119A1421CBF6C6070BD61686960F5
:1008D00021680844286070BD10B500F0E3F8006896
:1008E00010BD10B5044600F0DDF8046010BD2DE920
:1008F000F0470D4699469246044600F124080168E7
:10090000880604D5E06921F01001216000E0012093
:10091000A84201DD471B00E00027A1697A1902EB1C
:100920000900081AA0612078C00602D42046FFF70B
:1009300003FD002608E0D4E901211AF806009047DB
:10094000206A401C761C20624E45F4DB2078C006ED
:100950000AD52046FFF7F0FC06E0D4E9012130205B
:100960009047206A401C2062381EA7F10107F4DC82
:1009700007E0D4E9012118F805009047206A401CDF
:100980002062281EA5F10105F3DC2046FFF7EAFCF2
:100990002078000602D50220BDE8F0870120FBE7A1
:1009A00001694A1C02610878704700B58FB0CDE933
:1009B00001310021059105497944CDE90310114623
:1009C0006846FFF70BFE0FB000BD0000E5FFFFFF1C
:1009D0000A6802F8010B0A60704710B5436913B149
:1009E000AFF3008001E0FFF7E0FC012010BD1278BA
:1009F00000F124010A7000224A700122EDE711681B
:100A00004FF0FF32E9E710B5436913B1AFF300804F
:100A100001E0FFF72FFD012010BD128800F1240135
:100A200082840022C2840122EDE711684FF0FF3278
:100A3000E9E770B516460C46054600F027F803684E
:100A400093F80101012806D0FF2C0FD8185D68B17A
:100A500001202C7070BDD3F807013246214603F205
:100A6000071303442846BDE8704018474FF0FF3095
:100A700070BD10B500F06EF8BDE8104000F064B82D
:100A800000F080B80048704784E6012010B500F0FF
:100A9000DBF8001D10BD00BF397000000048704732
:100AA0008CE601200048704784E6012070477047BB
:100AB0007047704738B504460A4600206946AFF3D0
:100AC0000080002808BF38BD02460099204600F08B
:100AD000C3F8012038BD012000F0FFB8F8B5AFF32E
:100AE0000080054600200C46102000BF0646A819CD
:100AF000A0420DD9324669460020AFF300800700BE
:100B000008BF00F0EAF80098A04218BF0546C419D3
:100B1000FFF7C4FF05600746F01D20F007004619E7
:100B2000284600F00AF8B44208BFF8BDA21B3146BF
:100B30003868BDE8F84000F08FB800210160C0E9D6
:100B40000110704710207047002801D000F050B805
:100B50007047000010B5002102A000F0A5F80120A8
:100B600010BD00005349475056464E3A205075720A
:100B700065207669727475616C20666E2063616CA5
:100B80006C65640010B500F00EF8016919B100221F
:100B90000261884701E08068804700F07DF800002E
:100BA00010B500F079F870B500F052F80468054609
:100BB000A4B92020FFF73AFE040011D00949002013
:100BC0002C60C4E900010849A160207320616061C4
:100BD0000649A06109B100F087F8E061204670BDC8
:100BE00000F05AF800000000A10B0F080000000000
:100BF00001491820ABBEFEE7260002007546FFF74C
:100C000041FFAE4605006946534620F00700854681
:100C100018B020B5FFF740FBBDE820404FF00006BC
:100C20004FF000074FF000084FF0000B21F00701D4
:100C3000AC46ACE8C009ACE8C009ACE8C009ACE817
:100C4000C0098D467047000000487047A4E60120A7
:100C500000487047C0E60120034640688C460028E3
:100C600018BF88423CBF03464068F8D31868184450
:100C7000884207D00CF1030020F00700001D411A44
:100C8000521A0146081D0A60FFF7FFBD0446AFF384
:100C900000802046FFF7EBFA002000F04BF8FFF74A
:100CA000D8FA0120FFF7A4FF70B505460C460A20CC
:100CB00000E06D1C00F036F835B128780028F8D136
:100CC00002E0641C00F02EF814B120780028F8D15E
:100CD000BDE870400A2000F025B810B500F032F8E9
:100CE000BDE81040FFF730BF10B58820FFF79EFD2C
:100CF000002801D00021017010BD802902D808B160
:100D0000017809B100207047012100F8081B7047E5
:100D100018B100F10802914201D000207047002173
:100D20000170704708B569468DF800000320ABBE1E
:100D300008BD704710B500F06DF8BDE81040FFF732
:100D400003BF000010B5012805D0002103A0FFF764
:100D5000ABFF012010BD09A1F8E70000534947523D
:100D6000544D454D3A204F7574206F66206865617B
:100D700070206D656D6F7279000000003A20486543
:100D80006170206D656D6F727920636F727275701E
:100D9000746564004FF0013C50F8042B51F8043B9B
:100DA0009A4221D1A2EB0C03934313EACC1317D13F
:100DB00050F8042B51F8043B9A4215D1A2EB0C03D6
:100DC000934313EACC130BD150F8042B51F8043B96
:100DD0009A4209D1A2EB0C03934313EACC13DBD064
:100DE0004FF00000704700BFD01A01BAB1FA81F18C
:100DF00001F0180122FA01F0CB40C1F12001DBB271
:100E0000C0B2C01A2CFA01F3D11A914311EAC311EE
:100E1000E6D1704710B5002102A0FFF745FF012081
:100E200010BD0000534947414252543A2041626E7E
:100E30006F726D616C207465726D696E6174696F3B
:100E40006E000000074A904201D2074801E00548C1
:100E50001038064A8B0001EA020101D5C1607047D3
:100E60008160704710640240006002407D0F7D0F7A
:100E70000029016802D041F0010101E021F00101E7
:100E8000016070472DE9F043016821F00101016024
:100E90000021016041608160C160016121214161E7
:100EA0003C493C4A3D251039904202D18D60BDE855
:100EB000F083384A4FF474661832904201D18E6044
:100EC000F5E7344A4FF474173032904201D18F6005
:100ED000EDE7304A4FF0746C4832904202D1C1F8CD
:100EE00008C0E4E72B4B2C4A6033984201D1CA601A
:100EF000DDE7284C294B7834A04201D1CB60D6E7FE
:100F0000DFF89080264C08F19008404501D1CC6074
:100F1000CDE7DFF880804FF03D5908F1A808404543
:100F200002D1C1F80C90C2E71E49DFF87880083979
:100F3000404501D10D60BAE71A4D1835A84201D1DC
:100F40000E60B4E7174D3035A84201D10F60AEE70F
:100F5000144D4835A84202D1C1F800C0A7E7114D91
:100F600010496035091FA84201D10A609FE70D4A68
:100F70007832904201D10B6099E70A4A9032904250
:100F800001D10C6093E7074AA83290428FD1C1F893
:100F900000908CE7106002403D000020400F0020D0
:100FA00000003D20106402400246094B00209A4296
:100FB00001D2084A01E0064A103A8B0001D5526876
:100FC00000E01268044B1A400A4200D0012070472A
:100FD00010640240006002407D0F7D0F30B5036851
:100FE000124ACC6813400A682243D1E905452C43D4
:100FF0002243CC6922430C6A22434C6A22438C6A06
:1010000022434C6B22438C6B22431A430260426999
:1010100022F00703D1E90B2422431A4342610A69F3
:1010200042604A6882608968C16030BD3F801CF0C0
:101030008000A0F1C0400029016802D041F0010108
:1010400001E0024A1140016070470000FEFF0F00FE
:1010500010B5D0E901121143D0E903231A4311431B
:101060004269114382691143C2691143026A114303
:10107000426A1143826A1143C26A1143026B1143EF
:1010800002689200A2F1C04211608168082907D16C
:1010900001688900A1F1C0410A6842F040020A607B
:1010A000416BD1E9002342EA03128B688C891B0251
:1010B00043EA04431A430B8A42EA03520B7D8969CF
:1010C00042EA03620A4301688900A1F1C0414A6013
:1010D000C16AB1F5804F08D000686FF070418000A0
:1010E000A0F1C040C0F8041110BD816BD1E900230C
:1010F00042EA03128B680C8A1B0243EA04531A4328
:101100000B7D896942EA036200680A438000A0F10E
:10111000C040C0F8042110BDF0B50023012403270E
:101120000D6804FA03F21540954242D1D0F800C090
:101130005E0007FA06F52CEA050CC0F800C091F82D
:1011400004C0D0F800E00CFA06FC4CEA0E0CC0F823
:1011500000C091F804C0BCF1010F02D0BCF1020F35
:101160001FD1D0F808C02CEA050CC0F808C091F8CF
:1011700005C0D0F808E00CFA06FC4CEA0E0CC0F8EA
:1011800008C0D0F804C02CEA020CC0F804C04268C1
:1011900091F806C00CFA03FC1FFA8CFC42EA0C0220
:1011A0004260C268AA43C260CA79C568B2402A4395
:1011B000C2605B1C102BB3D3F0BD4B07DB0E9A4013
:1011C000C90810B500EB8100016A0F249C40A143BF
:1011D0000162016A1143016210BD02460020938A38
:1011E000128B43EA024323F07F42914300D1012056
:1011F00070470029818802D041F4006101E021F4A8
:101200000061818070470029818802D041F48051BB
:1012100001E021F48051818070470029018802D0CB
:1012200041F4807101E021F4807101807047002950
:10123000018802D041F4007101E021F400710180C5
:1012400070470CB50246002000920A0F21F07F4142
:10125000019202D0009A143202E0009A090C18326E
:10126000009212680A4200D001200CBD7FB50446EE
:1012700080880D4620F03F06684601F041F8274976
:101280000298B0FBF1F189B20E43A680228822F0C9
:1012900001022280224B2A689A421BD85200B0FBDE
:1012A000F2F080B2042800D20420491C2184A083DB
:1012B000208840F00100208021884FF6F530014061
:1012C000A8886A89104308432080A889298908438F
:1012D00020817FBDEB88A3F53F46FF3E0BD002EB9C
:1012E000C20303EB0212B0FBF2F080B240F4804084
:1012F000020506D007E002EB4202B0FBF2F080B23A
:10130000F6E740F001004FF4967251434FF47A72C1
:10131000B1FBF2F140F40040C7E7000040420F008B
:10132000A08601002DE9F84F8246002089460090F2
:101330006946012000F0D0F9504D01212846FFF701
:1013400062FF01212846FFF768FF4D4C4FF44056DD
:101350004C4F666004E06068401E6060401C7CD0BA
:1013600039462846FFF76DFF0028F4D00022514689
:10137000284600F08FF8DFF81081666004E06068AE
:10138000401E6060401C77D041462846FFF725FF8D
:101390000028F4D04946284600F084F8DFF8E480BD
:1013A000DFF8E09008F17F0809F10309666004E0C6
:1013B0006068401E6060401C5ED041462846FFF7D2
:1013C00040FF28B949462846FFF73BFF0028EFD0E9
:1013D00001212846FFF721FF666004E06068401E97
:1013E0006060401C48D039462846FFF72AFF002895
:1013F000F4D001225146284600F04CF86660234E96
:1014000004E06068401E6060401C35D031462846CC
:10141000FFF7E3FE0028F4D001212846FFF7E9FE9C
:101420001B4E01213046FFF723FD164F4FF4C040FD
:101430001F37606004E06068401E6060401C1BD085
:1014400039463046FFF7B0FD0028F4D00121284688
:10145000FFF7EDFE0021304600E00DE0FFF708FD4C
:1014600000212846FFF7C5FE39463046FFF7EAFC63
:101470009DF80000BDE8F88F0220FBE70054004013
:10148000FCE00120010000108200070002000300C0
:101490001060024012B141F0010101E001F0FE01D3
:1014A00001827047018270472DE9F84F8A468046D5
:1014B0004FF000098DF800206946484600F00CF90D
:1014C0003D4D01212846FFF7A8FE3C4C4FF4405605
:1014D0003B4F666004E06068401E6060401C68D05E
:1014E00039462846FFF7ADFE0028F4D000224146D9
:1014F0002846FFF7CFFF334F666004E06068401E68
:101500006060401C55D039462846FFF766FE00282B
:10151000F4D051462846FFF7C5FF294FDFF8A080D9
:101520007F3708F10308666004E06068401E606071
:10153000401C3ED039462846FFF783FE28B9414675
:101540002846FFF77EFE0028EFD001212846FFF74E
:1015500050FE1D4F01213846FFF78AFC66601B4E86
:1015600004E06068401E6060401C22D0314638466E
:10157000FFF71AFD0028F4D04FF4C04060604446E5
:1015800021462846FFF75DFE0028F9D001212846B4
:10159000FFF74DFE00213846FFF76AFC0021284680
:1015A000FFF727FE31463846FFF74CFC4846BDE8BA
:1015B000F88F0220FBE7000000540040FCE001200F
:1015C0000100001082000700A060024000002020FF
:1015D0001FB500F0CBF80020ADF80400ADF808000E
:1015E0004FF48060ADF80A000001ADF80C004BF636
:1015F000FF713748ADF80610009069463548FFF78F
:1016000035FE822000F048F910B1042004B010BD6E
:10161000882000F041F908B10520F7E7822000F0AA
:101620007BF9882000F078F901220721822000F060
:101630008BF801221146822000F01BF9012211468D
:10164000822000F0DFF80021012000F0F5F90022EF
:101650000C21882000F00DF901220C21882000F0D7
:10166000D1F803220C21882000F0DEF800F064F9A4
:1016700001220D21882000F067F801220421882032
:1016800000F0F7F800220121882000F0F2F8012292
:101690000521882000F0B6F80021042000F0CCF9E4
:1016A0000021012000F0C8F90022F821882000F074
:1016B000E0F80122F821882000F0A4F80322F821A4
:1016C000882000F0B1F800F095F900209EE70000B6
:1016D000A08601000054004030B50D4604460121AB
:1016E0008FB0480500F0D0FD4FF000700090144816
:1016F000CDE9010500210015CDE905100420CDE953
:101700000A100791089109910C910D910E91012CED
:101710000FD0002C0BD1402003900120094C0490E5
:101720002046FFF7AFFB69462046FFF757FC0FB096
:1017300030BD0220034CCDE90310903CF0E70000DF
:1017400010540040A060024070B50C461646054695
:101750000421FFF7E7FD0EB1A04300E0204302465D
:1017600004212846FFF7A0FE002070BD7CB50121B2
:101770004C05204600F0A0FD01214FF4817000F0DF
:1017800083FD0121880300F0AFFD0121204600F018
:101790009FFD0021204600F09BFD4020009002208C
:1017A0008DF804008DF8050001208DF80600134D1A
:1017B00000248DF8074069462846FFF7ADFC681500
:1017C000009069462846FFF7A7FC04220621284618
:1017D000FFF7F3FC042209212846FFF7EEFC042062
:1017E00000908DF804408DF8074069460448FFF7E3
:1017F00093FC0221082000F0DBFF7CBD00040240C6
:101800000020024070B50C46164605461721FFF72A
:1018100089FD0EB1204300E0A0430246172128466F
:10182000FFF742FE002070BD2DE9F0410D4616463F
:1018300007461621FFF776FD044615213846FFF7C7
:1018400071FD20EA050124EA05020C46F00700D0EC
:101850002A43B00701D541EA050416213846FFF7AF
:1018600023FE224615213846FFF71EFE0020BDE864
:10187000F08170B50C46164605461321FFF752FD60
:101880000EB1204300E0A043024613212846FFF793
:101890000BFE002070BD000010B500F02EF8A0F582
:1018A0000061113906D00448406808B1012010BD1C
:1018B000022010BD002010BDFCE0012010B5122157
:1018C0008820FFF72FFD1F21B1EBD00F13D00106A9
:1018D00001D4012010BD410601D4022010BD8106B3
:1018E00001D4032010BDC10601D4042010BD00079F
:1018F00001D4052010BD002010BD70B505460021A3
:10190000FFF710FD4FF6FF7101EA00240121284680
:10191000FFF708FD204370BD10B5044602220321E5
:10192000FFF7C2FD022006F04BF8002203212046FB
:10193000FFF7BAFD002010BD10B504218220FFF78B
:10194000F1FC20F0030204218220FFF7ADFD0A2103
:101950008220FFF7E7FC40F007020A218220FFF710
:10196000A3FD492220218220FFF79EFD022006F0E0
:1019700027F8012221218220FFF796FD17218220DE
:10198000FFF7D0FC20F01E0217218220FFF78CFD0C
:101990009A2241218220FFF787FD01224A218220DD
:1019A000FFF782FD01224B218220FFF77DFD0022FF
:1019B0004B218220FFF778FD012256218220FFF77C
:1019C00073FD012258218220FFF76EFD0122402184
:1019D0008220FFF769FDFF220B218220FFF764FDC3
:1019E00003480021C180818041800180084610BDEC
:1019F00008E1012008B500208DF8000004218820AE
:101A0000FFF790FC8DF800009DF8000020F0090021
:101A10008DF800009DF8002004218820FFF744FD88
:101A2000012260218820FFF73FFD032260218820EA
:101A3000FFF73AFD002008BD10B5C20701D0822390
:101A400003E010F0050F08D08823024639B11021B9
:101A50001846FFF729FD002010BD032010BD1121FD
:101A6000F6E700002DE9F05F594CDFF868A18346E6
:101A7000C4E91601DAF800001646574601695846CF
:101A8000884705463146544804F05EFB304603F073
:101A90004DFB8119504804F09EFB50494E4804F01C
:101AA00007FC4E494C48A83104F002FC4C494A4816
:101AB00004F0FEFB4A494848A83104F0F9FB4949C3
:101AC000454804F0F5FB47494348A83104F0F0FBD2
:101AD000A4F1800000260670386803210268A06D1A
:101AE0009047C0B2404F4FF00109012824D087F839
:101AF000009000213A4803F0AFFF7E7087F8029013
:101B0000E06DB04638B3DAF800105646A1460A68D0
:101B10001C219047C4B230681D210268D9F85C00CE
:101B20009047C6B2D9F8580002F002FD2F4A01468C
:101B3000002052F821100BE03E700121DAE7A242AA
:101B400000D178700A5CB24200D1B870401CC0B2BB
:101B50000A5CFF2AF3D187F8038087F8048087F8AE
:101B6000058087F8068087F8078087F8088087F85F
:101B7000098087F80A8087F80B80584600F048F8FB
:101B800015491B48C1F80C010021134804F0FEFA66
:101B90000920B0EB157F16D0C5F30360092812D0D9
:101BA0000021104803F058FF0A20B0EB157F0CD03D
:101BB000C5F303600A2808D00021BDE8F05F09489A
:101BC000A83003F049BF0121EBE70121F5E7000050
:101BD00084E00120F4FF012038E1012048E20120E7
:101BE00098E30120E8E4012078E60120A4A40F088E
:101BF000C5460F0810B5054C204604F00BFB04F554
:101C00008270BDE8104005F0D7B8000038E101202F
:101C1000002102F07BBD00002DE9F14FC14D0527E9
:101C2000C14EDFF80893DFF80883002405F1850A28
:101C30003068295D02681AF801100098904798F8FA
:101C4000003009EB83122B5D641CE4B222F8130010
:101C5000BC42EDD3B34D01270024DFF8D4A2ED1E22
:101C600005F1010B0AF1E00A3068295D02681BF8F2
:101C700001100098904798F800200AEBC2012A5DF5
:101C8000641CE4B241F82200BC42EDD3454698F80A
:101C90000000DFF8988200EB400108F140084FF0A7
:101CA000000A18F821000124F0BB306808210268FE
:101CB0000098904729784F4609EB81118882306857
:101CC0000C2102680098904701B2287807EB801237
:101CD00000EB400308EB83001183C07801282DD16D
:101CE000B2F9140008B900295CD0404301FB01009F
:101CF000B94606F09FFC05F0D5FE06F07FFC2A7879
:101D000009EB8217B887B7F9140006F093FC8346F5
:101D1000B7F9180006F08EFC0146584605F0D4FCD1
:101D2000844906F09FFC00E010E0834906F0A4FB24
:101D300006F064FC2A7809EB8211C887686E08B146
:101D400080F82040286F08B180F8204030680121D9
:101D500002680098904786B2070C56EA070008D040
:101D60007648B0F80001012803D00121734804F03F
:101D70000DFA686B68B306B1CFB1714803F0F2FE9B
:101D8000696B884202D16E4803F051FF6A6B4CF2D6
:101D90001860518B81421CD050830021104603F003
:101DA0002AFE13E0A2F83CA05A20D087C6E7002103
:101DB0004183012103F01FFE614803F0D3FE696BEC
:101DC000884203D000215E4803F0D8FE686B80F89B
:101DD00020402878514600EB400208EB8200730651
:101DE00080F805A04FF0020200D542717B0600D5B5
:101DF00044718171F30600D58271FB0600D58471B0
:101E0000C171B30600D5C271BB0600D5C4710172A1
:101E1000F30700D00272FB0700D00472330600D52E
:101E200002723B0600D504724172730700D54272FC
:101E30007B0700D544728172B30700D58272BB075D
:101E400000D58472C172310700D5C272390700D53E
:101E5000C472696BF1B33349AA694379491D568B42
:101E600031F813309E4202D0538382F82040EA6951
:101E70008379568B31F813309E4202D0538382F817
:101E800020402A6AC379568B31F813309E4202D023
:101E9000538382F820406A6A037A568B31F81330F4
:101EA0009E4202D0538382F82040AB6A427A5E8B16
:101EB00031F81220964202D05A8383F82040EA6A11
:101EC000837A568B31F813309E4202D0538382F8C6
:101ED000204000E009E02A6BC07A538B31F81000F3
:101EE000834202D0508382F82040286908B180F8EC
:101EF0002040686908B180F820400D488030C06CEF
:101F000008B180F82040686D08B180F82040A86EC4
:101F100008B180F82040686F002801D080F8204088
:101F2000BDE8F88F4BA40F08F4FF012038E601202C
:101F300004E0012000003443C3F5484038E10120AB
:101F4000F0E2012030B50546002440F23F11204662
:101F500000F07AF94FF0D041222008804FF49630FB
:101F60004D80641C8442FBD330BD00001CB50121B0
:101F7000782000F089F94CF23370009002208DF83F
:101F800004008DF8050000208DF80600404C8DF807
:101F9000070069462046FFF7BFF80C2200212046C3
:101FA000FFF70BF90C2201212046FFF706F90C225E
:101FB00004212046FFF701F90C2205212046FFF7F6
:101FC000FCF80C2208212046FFF7F7F80C22092123
:101FD0002046FFF7F2F80C220A212046FFF7EDF821
:101FE0000C220E212046FFF7E8F80C220F21204694
:101FF000FFF7E3F84FF68070264C009069462046C4
:10200000FFF78AF80C2207212046FFF7D6F80C22AA
:1020100008212046FFF7D1F80C2209212046FFF7BE
:10202000CCF80C220A212046FFF7C7F80C220B211E
:102030002046FFF7C2F80C2211462046FFF7BDF8F4
:102040000C220D212046FFF7B8F80C220E21204665
:10205000FFF7B3F80C220F212046FFF7AEF801205E
:102060000D4C009069462046FFF756F80C220021DF
:102070002046FFF7A2F82015084C0090694620463C
:10208000FFF74AF80C220A212046FFF796F81CBDFC
:10209000000C0240001002400014024000180240F0
:1020A000064B10B45B68203AD2B21C68DB885343FD
:1020B00004EB430210BC00F003B8000010E1012063
:1020C0002DE9F043904689460026054600F0BCF80D
:1020D0004FF0D047184C29E02220388000201BE028
:1020E0000C23B1FBF3F34FEAC30C802303FA0CF388
:1020F00038F816C0034113EA0C0F01D10C2906D998
:10210000012383401CEA030F03D10C2901D9618804
:1021100000E021887980401C91888142E0D86D1CC4
:10212000ADB24946284600F08FF8761C6268D08828
:10213000B042D1D8BDE8F08310E101207047000023
:102140002DE9F047984617468A460646002400F0D7
:102150007BF8222110484FF0D045B8F1000F02D093
:102160008946804614E0298002E001886980641C69
:10217000BC42FAD3BDE8F087A5F80090B8F800009B
:102180006880761CB6B25146304600F05DF8641C9B
:10219000BC42F1D3EEE7000010E1012000B50121BF
:1021A00097B0084600F07CF801200F90002009212C
:1021B000CDE91001149004211590CDE90010129082
:1021C0001021CDE9020113900490059006900902B8
:1021D0000790CDE908010A900B900C900FA80D9084
:1021E0000E906846FEF734FF01210420FEF720FF21
:1021F00017B000BD024A13880380508808807047DA
:1022000010E10120014840687047000010E1012002
:102210000120704770474FF0D041088048887047D0
:1022200001B5BDF800000149488008BD10E101205A
:1022300003B5BDF8001003480180BDF804104180CB
:102240000CBD000010E101200B4600B50146202026
:1022500000F014F8194621205DF804EB00F00EB8E8
:10226000014948607047000010E1012001B5BDF848
:1022700000000149088008BD10E101204FF0D04264
:102280001080518070470000044A0029116801D075
:10229000014300E081431160704700003038024084
:1022A000044A0029116801D0014300E08143116014
:1022B0007047000038380240044A0029116801D0F4
:1022C000014300E081431160704700004038024044
:1022D000044A0029116801D0014300E081431160E4
:1022E0007047000020380240044A0029116801D0DC
:1022F000014300E081431160704700004438024010
:1023000070B5204A1168204C11F00C0104D01F4E0A
:10231000042903D0082903D004601BE0066019E0FB
:102320001849091F0B68C3F380550B6803F03F037E
:1023300015B1B6FBF3F301E0B4FBF3F30C680968E5
:10234000C4F388146343C1F30141491C4900B3FB42
:10235000F1F1016011680F2303EA11110C4B5C5C71
:102360000168E14041601468072505EA94241C5D7A
:1023700021FA04F48460126805EA52329A5CD14072
:10238000C16070BD083802400024F40040787D012F
:10239000ECE001202DE9F84F00200090FFF7E6FD6A
:1023A000FFF7FCFE052005F019FB0020FFF733FFC7
:1023B000A0F513414FF480764FF4E06740F202231A
:1023C00041F2B07540F2371840F239194FF4E85A2B
:1023D00040F2023B41F218040090203902D0491F1C
:1023E0007DD0DAE14FF40041E520FFF747FF0121FE
:1023F0000020FFF743FF31460120FFF73FFF39463A
:102400000220FFF73BFF41F230010320FFF736FFC8
:1024100000210420FFF732FF19460820FFF72EFFA6
:1024200000210920FFF72AFF00210A20FFF726FFDD
:1024300000210C20FFF722FF00210D20FFF71EFFD7
:1024400000210F20FFF71AFF00211020FFF716FFD1
:1024500000211120FFF712FF00211220FFF70EFFCD
:1024600000211320FFF70AFF142005F0B7FA2946D0
:102470001020FFF703FF41461120FFF7FFFE052064
:1024800005F0ACFA49461220FFF7F8FE052005F0EA
:10249000A5FA51461320FFF7F1FE13212920FFF77B
:1024A000EDFE052005F09AFA00212020FFF7E6FE58
:1024B00000212120FFF7E2FE06213020FFF7DEFE9B
:1024C00040F201113120FFF7D9FE03213220FFF73E
:1024D000D5FE4FF483713520FFF7D0FE00E071E0A8
:1024E00040F602313620FFF7C9FE59463720FFF784
:1024F000C5FE40F207713820FFF7C0FE07213920E2
:10250000FFF7BCFE4FF4C0613C20FFF7B7FE40F27E
:102510000B213D20FFF7B2FE00215020FFF7AEFE59
:10252000EF215120FFF7AAFE00215220FFF7A6FE5F
:1025300040F23F115320FFF7A1FE4FF41C516020E1
:10254000FFF79CFE01216120FFF798FE00216A2021
:10255000FFF794FE00218020FFF790FE00218120EC
:10256000FFF78CFE00218220FFF788FE00218320E8
:10257000FFF784FE00218420FFF780FE00218520E4
:10258000FFF77CFE10219020FFF778FE00219220BB
:10259000FFF774FE03219320FFF770FE4FF488715C
:1025A0009520FFF76BFE00219720FFF767FE0021C3
:1025B0009820FFF763FE21460320FFF75FFE40F2FD
:1025C0007311E7E001210020FFF758FE314601209A
:1025D000FFF754FE39460220FFF750FE2146032044
:1025E000FFF74CFE00210420FFF748FE19460820A3
:1025F000FFF744FE00210920FFF740FE00210A20DA
:10260000FFF73CFE00210C20FFF738FE00210D20D3
:10261000FFF734FE00210F20FFF730FE00211020CD
:10262000FFF72CFE00211120FFF728FE00211220C9
:10263000FFF724FE00211320FFF720FE142005F0F1
:10264000CDF929461020FFF719FE41461120FFF76A
:1026500015FE052005F0C2F949461220FFF70EFECF
:10266000052005F0BBF951461320FFF707FE1321A3
:102670002920FFF703FE052005F0B0F900212020F6
:10268000FFF7FCFD00212120FFF7F8FD0721302096
:10269000FFF7F4FD59463120FFF7F0FD40F2051336
:1026A00019463220FFF7EAFD40F20625294635207B
:1026B000FFF7E4FD40F6080631463620FFF7DEFD61
:1026C00029463720FFF7DAFD40F204513820FFF7A2
:1026D000D5FD07213920FFF7D1FD19463C20FFF732
:1026E000CDFD31463D20FFF7C9FD00215020FFF709
:1026F000C5FDEF215120FFF7C1FD00215220FFF75A
:10270000BDFD40F23F115320FFF7B8FD4FF42741C4
:102710006020FFF7B3FD01216120FFF7AFFD00212D
:102720006A20FFF7ABFD00218020FFF7A7FD002105
:102730008120FFF7A3FD00218220FFF79FFD0021EC
:102740008320FFF79BFD00218420FFF797FD0021E8
:102750008520FFF793FD10219020FFF78FFD0021CA
:102760009220FFF78BFD03219320FFF787FD4FF4A5
:1027700088719520FFF782FD00219720FFF77EFDED
:1027800000219820FFF77AFD21460320FFF776FD10
:1027900040F233110720FFF771FD0348A0F1080153
:1027A0004860BDE8F88F000018E10120FEF710BF77
:1027B00010B58A0721F003040849130F21440F22A2
:1027C000D1F808489A409443C1F80848D1F808283D
:1027D00098400243C1F8082810BD000000300140B5
:1027E0000CB50021214801910091026842F4803229
:1027F00002604FF4A063026802F400320092019A72
:10280000521C0192009A12B9019A9A42F3D10268BD
:10281000920329D501210091144908310A680A6000
:102820000A6842F400420A600A6842F4A0520A6050
:102830000B1F0F4A1A60026842F080720260026841
:102840009201FCD50B4A40F203701060086820F03A
:1028500003000860086840F0020008600868C0F3E0
:1028600081000228FAD10CBD00910CBD0038024055
:10287000193C4005003C02400F4810B5016841F08A
:10288000010101600C4A00210832116002680B4B03
:102890001A400260031D0A4A1A60026822F480226C
:1028A000026005480C300160FFF79AFF05494FF0C0
:1028B0000060086010BD000000380240FFFFF6FE17
:1028C0001030002408ED00E02DE9FE4F282004F030
:1028D000E9FA0321009105233B4A3CA104F0AAFA3E
:1028E0008246282004F0DEFA1E2100910523364A94
:1028F00039A104F09FFA8146282004F0D3FA3C2144
:1029000000910523304A3EA104F094FA8046282025
:1029100004F0C8FA4B21009105232B4A41A104F091
:1029200089FA0746282004F0BDFA5A2100910523B0
:10293000254A45A104F07EFA0646282004F0B2FAA2
:10294000B42100910523204A48A104F073FA0546FA
:10295000282004F0A7FA7321009105231A4A4B4955
:1029600004F068FA04465146174803F0CCF849468B
:10297000154803F0C8F84146134803F0C4F8394637
:10298000114803F0C0F831460F4803F0BCF829465F
:102990000D4803F0B8F821460B4803F0B4F828209E
:1029A00004F080FA08499623F7228DE80E00384992
:1029B0002C234822096802F0E1FB03B00146BDE880
:1029C000F04F014803F09FB848E2012048656C7061
:1029D00020506167650000005573652074686520AC
:1029E0006A6F79737469636B20746F20776F726B91
:1029F0002077697468204C43442047554900000003
:102A00002D55502F444F574E20746F206D6F7665B3
:102A1000206265747765656E20636F6E74726F6C8B
:102A2000730000002D4C4546542F5249475448200E
:102A3000746F206D6F7665206265747765656E20B2
:102A400070616765730000002D53454C20746F2042
:102A5000696E746572616374207769746820746844
:102A60006520636F6E74726F6C000000436F707945
:102A700072696768742053544D6963726F656C6541
:102A80006374726F6E6963730000000056A40F08D0
:102A900000E001202DE9F04F87B00021FE4802F050
:102AA000DBFF282004F0FEF90021FB4A0B460091D1
:102AB000A832FAA104F0BEF90746282004F0F2F982
:102AC000F54A4FF0140B0A23A832FAA1CDF800B052
:102AD00004F0B0F90546382004F0E4F92121EE4A6B
:102AE00000910A23A832F64904F0B8F8F54C60606A
:102AF000282004F0D7F9DFF8A083352308F1A808CF
:102B00000A21CDF80080CDE901133C239B22EEA1E0
:102B100004F0F0F80646282004F0C4F911210091D1
:102B20000F233246EDA104F085F90490282004F02B
:102B3000B9F9252100910F233246EBA104F07AF96F
:102B40000590382004F0AEF96E22CDE900624FF016
:102B50000F09CDF80890227808F5527A0AEB821115
:102B60000323E4A202F02AFE2061382004F09AF93F
:102B700023216E220096CDE90121227803230AEB5E
:102B80008211DCA2891C02F019FE6061282004F089
:102B900089F9CD23CDE90083CDF808B0AA236422BA
:102BA000D5A104F0A7F80390282004F07BF90523B1
:102BB000CDF80090D2A1039A04F03CF9A06128203E
:102BC00004F070F9212100910523D0A1039A04F0AB
:102BD00031F9E061282004F065F9332100910523E3
:102BE000CDA1039A04F026F92062282004F05AF9B6
:102BF000452100910523CBA1039A04F01BF96062E3
:102C0000282004F04FF9572100910523C8A1039A09
:102C100004F010F9A062282004F044F96921009121
:102C20000523C6A1039A04F005F9E062282004F008
:102C300039F97B2100910523C3A1039A04F0FAF826
:102C40002063302004F02EF98D2100910A23C1A1C8
:102C5000039A02F0A9FBC249606341624CF2186119
:102C60004183002102F0C7FE4046616B02F04BFF3A
:102C70003946404602F047FF2946404602F043FFEE
:102C80004046616802F03FFF207808F5627700EB6C
:102C9000400017F82010606803F0A5FEB14804F169
:102CA000800500680169A86D8847C0067BD528208B
:102CB00004F0F8F873230A21CDF80080CDE9011360
:102CC0003C23BE22A8A104F015F88046282004F079
:102CD000E9F81121009105234246A7A104F0AAF8C2
:102CE0008246282004F0DEF8252100910523424683
:102CF000A2A104F09FF88146382004F0D3F80446DE
:102D0000A86D01F015FCDFF8B8B121230BF10C0B15
:102D100042465BF820100F200090204603F09EFFF3
:102D2000684CA060382004F0BDF80190A86D01F057
:102D3000FFFB5BF8201023200090212342460198DE
:102D400003F08CFFE0604146A7F5627002F0DBFE05
:102D50005146A7F5627002F0D6FE4946A7F56270AB
:102D600002F0D1FEA7F56270A16802F0CCFEA7F5D3
:102D70006270E16802F0C7FE207800EB400007EBCC
:102D800080004178A06803F02EFE207800EB400020
:102D900007EB80008178E06803F025FEA1687848A1
:102DA0004862E16848623C483146A83002F0ABFE18
:102DB00039480499A83002F0A6FE37480599A83092
:102DC00002F0A1FE3F4C3448A830216902F09BFE7E
:102DD00031486169A83002F096FE0021206902F0B6
:102DE0000AFE0021606902F006FE5E480068016983
:102DF000A86D88470221B1EB107F03D0C0F30360B8
:102E0000022813D1302004F04DF8B221224A00915B
:102E10000A23A8325BA102F0C7FA014628641E48C3
:102E2000A83002F070FE296C5B4848621A4803998A
:102E3000A83002F068FE1848A169A83002F063FECD
:102E40001548E169A83002F05EFE1348216AA830F7
:102E500002F059FE1048616AA83002F054FE0E4894
:102E6000A16AA83002F04FFE0B48E16AA83002F0D8
:102E70004AFE0948216BA83002F045FE2078A2697D
:102E800000EB400007EB80010D484B79283830F803
:102E9000133053838B7981E048E20120436F6E66E3
:102EA000696775726174696F6E20616E6420646514
:102EB000627567004374726C206D6F64650000007A
:102EC00078A40F0804E00120506F77657220626FCC
:102ED000617264207374617475730000444320420E
:102EE000757320766F6C74004865617473696E6BDE
:102EF00020542E00253364004661756C7473000005
:102F00004F76657263757272656E74005265767580
:102F100070206661696C00005370656564206664AA
:102F2000626B00005357206572726F7200000000E0
:102F3000556E64657220766F6C7400004F76657212
:102F400020766F6C740000004F7665722074656D9A
:102F5000700000004661756C742061636B000000B6
:102F6000AD460F08F4FF01204441432053657474BB
:102F7000696E6773000000004368310043683200E7
:102F8000A14A0F08456E636F64657220616C6967C2
:102F90006E6D656E74000000114B0F08E26930F829
:102FA00013305383CB79226A30F8133053830B7A72
:102FB000626A30F8133053834B7AA26A30F81330C8
:102FC00053838B7AE26A30F813305383C97A226BC9
:102FD00030F81100508361680348486207B0034825
:102FE000BDE8F04F02F023BE694E0F08F0E2012069
:102FF0002DE9F04F89B0282003F054FF00210B4643
:103000000091FE4AFEA103F015FF0390282003F073
:1030100049FFFA494FF0140A0A238DE80A045A239B
:103020009122FCA103F066FE0746282003F03AFF38
:103030001E2100913C233A46F9A103F0FBFE0490C7
:10304000282003F02FFF412100913C233A46F5A1AF
:1030500003F0F0FE0590282003F024FF0F210091DB
:1030600005233A46F0A103F0E5FE8346402003F035
:1030700019FF1E2105220097CDE90121EE49062303
:10308000A1F1E004227801EBC201ECA203F03AF8CE
:10309000DFF8AC830646A063D8F8000004F1800591
:1030A00040210268A86D90478146D8F800003F2172
:1030B0000268A86D9047C6E90E90282003F0F2FE42
:1030C0003221009105233A46DEA103F0B3FE0690BB
:1030D000382003F0E7FE412105220097CDE90121C8
:1030E000DFF870932278062309EB8211D3A2091D21
:1030F00002F064FB47F6FF720021E06302F02EFB52
:10310000302003F0CFFE412100915A233A46D2A14C
:1031100002F04AF9D2492064416201F0A1F9282065
:1031200003F0C0FEB54973230A228DE80E004B233D
:103130006822CCA103F0DEFD0646282003F0B2FE93
:103140000A233246CAA1CDF800A003F073FE07900F
:10315000282003F0A7FE232100910A233246C5A1AF
:1031600003F068FE0890382003F09CFE51464FF0B3
:10317000280A0096CDE901A12278062309EB8211E5
:10318000AEA2891D02F01AFB6064382003F08AFEAB
:1031900023210096CDE901A12278062309EB8211B3
:1031A000A6A2083102F00AFBA0649448039902F039
:1031B000AAFC9248049902F0A6FC9048059902F0F6
:1031C000A2FC39468D4802F09EFC59468B4802F01D
:1031D0009AFC8A48A16B02F096FC8848069902F096
:1031E00092FC8648E16B02F08EFC8448216C02F070
:1031F0008AFC8248696C02F086FC8048A96C02F067
:1032000082FC7E48E96C02F07EFC7C48696D02F02D
:103210007AFC0021E86C02F0EEFB7848296D02F0A0
:1032200072FC3146754802F06EFC7448079902F052
:103230006AFC7248089902F066FC7048616C02F002
:1032400062FC6E48A16C02F05EFCD8F800000169D7
:10325000A86D884780072AD5282003F023FE32274F
:103260000A23324684A1009703F0E4FD0546382086
:1032700003F018FECDE9006A02972278062309EBD5
:1032800082116EA20A3102F099FAE06429465B4885
:1032900002F039FC5948E16C02F035FC47F6FF7248
:1032A0000021E06C02F05AFA616C7448486247F6FB
:1032B000FF752A460021606C02F050FA2A46002170
:1032C000A06C02F04BFAD8F8000001695A48603847
:1032D000806D8847C0077DD0282003F0E3FD474973
:1032E00073237D228DE80E004B23B42264A103F0EA
:1032F00001FD0546282003F0D5FD0E260A232A46A7
:1033000063A1009603F096FD8346282003F0CAFDD2
:1033100050232A465EA1009603F08CFD8246382099
:1033200003F0C0FD0A22CDE9005219270297217847
:103330004E4609EB8111042357A20C3102F03EFAEC
:103340002065382003F0AEFD5022CDE900520297EF
:103350002178042306EB81114FA20E3102F02EFAE0
:103360006065282003F09EFD2C270A232A4640A1F1
:10337000009703F05FFD8046282003F093FD502363
:103380002A463CA1009703F055FD0746382003F07C
:1033900089FD0A22CDE900524FF03709CDF8089097
:1033A0002178062306EB811124A2103102F006FADF
:1033B000A065382003F076FD5022CDE90052CDF80B
:1033C00008902178062306EB81111CA2123102F02D
:1033D000F5F900E092E0E0652946084802F093FB29
:1033E0005946064802F08FFB5146044802F08BFB19
:1033F0000248216D02F087FB00484FE098E301206E
:10340000537065656420636F6E74726F6C6C657267
:103410000000000053657420706F696E7400000036
:1034200072706D006D730000546172676574207373
:103430007065656400000000E4E00120253664004A
:10344000F4FF012052616D70206475726174696FC0
:103450006E00000038E6012045786563000000003A
:10346000014F0F08504944204761696E7300000006
:103470004B5000004B4900004B4400007D480F08B2
:10348000466C757820776C2E2074756E696E6700B7
:10349000425553800000000025346400616D02F045
:1034A00032FB0021606D02F0A6FA4146194802F095
:1034B0002AFB3946174802F026FB1648A16D02F098
:1034C00022FB1448E16D02F01EFB4FF47A720021DA
:1034D000206D02F043F947F6FF752A460021A06DE2
:1034E00002F03CF92A460021E06D02F037F9216D27
:1034F00009484862A16D4862E16D4862616C064806
:103500004862A16C486209B00248BDE8F04F02F081
:103510008EBB000098E301207D480F082DE9F04F95
:103520008BB0282003F0BEFC00210B460091FE4A20
:10353000FEA103F07FFC0390282003F0B3FC872159
:103540000091E623F84AFEA103F074FC04902820C1
:1035500003F0A8FC4FF00A09F34DCDE900594FF0F4
:1035600014085A239122F8A1CDF8088003F0C2FB79
:103570000646282003F096FC0F21009105233246D1
:10358000F4A103F057FCF54C2066382003F08AFCC8
:103590001E2105220096CDE90121227805F5FC7156
:1035A00001EB82110623EEA2143102F007F96066E6
:1035B000282003F077FC0F21009150233246E9A127
:1035C00003F038FC0590382003F06CFC1E215027D6
:1035D0000096CDE90171227805F5FC7101EB8211AD
:1035E0000623DFA2163102F0E9F8A066282003F0D6
:1035F00059FC4FF0320B05233246DBA1CDF800B069
:1036000003F018FCE066382003F04CFC4121052251
:103610000096CDE90121227805F5FC7101EB8211BC
:103620000623CFA2183102F0C9F82067282003F042
:1036300039FC3221009150233246CDA103F0FAFB30
:103640000690382003F02EFC41210096CDE901714F
:10365000227805F5FC7101EB82110623C0A21A3114
:1036600002F0ACF86067282003F01CFC7322009580
:10367000CDE901924B236822BEA103F03BFB074634
:10368000282003F00FFC0A233A46BEA1CDF80080A3
:1036900003F0D0FB0790382003F004FC4FF028091A
:1036A000CDE90079CDF80880227805F5FC7101EBB1
:1036B00082110623AAA21C3102F080F8A0672820FC
:1036C00003F0F0FB4FF0230A0A233A46AEA1CDF8EF
:1036D00000A003F0AFFB0890382003F0E3FB8DE877
:1036E0008006227805F5FC7101EB821106239CA26D
:1036F0001E3102F063F8E067282003F0D3FB73214A
:1037000078220095CDE901214B2368229FA103F087
:10371000F1FA0546282003F0C5FB0A232A4699A1A1
:10372000CDF8008003F086FB0990382003F0BAFB47
:10373000CDE90059CDF8088098492278062301EB9D
:10374000821187A2223102F039F804F18008C8F80A
:103750000800282003F0A6FB0A232A468AA1CDF8F8
:1037600000A003F067FB0A90382003F09BFB8DE874
:1037700020068A492278062301EB821178A224319F
:1037800002F01CF84146C860302003F08BFB732127
:103790000091E623644A82A102F0DAFB4146886187
:1037A000382003F07FFB96210091E6235E4A7E4994
:1037B00003F054FA4146C86100F052FE5A4803999A
:1037C00002F0A1F95848049902F09DF93146564893
:1037D00002F099F95448216E02F095F95248616E51
:1037E00002F091F95048059902F08DF94E48A16E0A
:1037F00002F089F90021A06E02F0FDF84A48E16E5E
:1038000002F081F94848216F02F07DF94648069997
:1038100002F079F94448616F02F075F90021606F98
:1038200002F0E9F84046416C3F4802F06CF940462E
:10383000816C3D4802F067F94046C16C3A4802F09D
:1038400062F94046416D384802F05DF9404600217A
:10385000C06C02F0D0F84046016D334802F053F9D5
:10386000207800EB40014D48403000EB81003946A4
:1038700006792D4802F047F92B48079902F043F9E1
:103880002948A16F02F03FF92748089902F03BF957
:103890002548E16F02F037F9A16F44484862E16FB3
:1038A000434848624348006801694046806D884744
:1038B000400747F6FF7A2CD5282003F0F3FA0A23B5
:1038C0003A463DA1CDF800B003F0B4FAC8F80000C4
:1038D0004446382003F0E6FA204A8DE8800A2F4952
:1038E0001278062301EB82111DA2203101F066FF40
:1038F00060600D48216802F006F90B48616802F02B
:1039000002F952460021606801F028FF61682B48E7
:103910004862124F544652460021B86F01F01EFF14
:1039200022460021F86F4BE040E40120437572729B
:10393000656E7420636F6E74726F6C6C6572730069
:10394000496E70757400000053657420706F696E65
:10395000747300004971207265662E0004E0012036
:1039600025366400497100004964207265662E00A6
:1039700049640000497120504944204761696E73D1
:10398000000000004B5000004B49000049642050EB
:103990004944204761696E730000000038E6012049
:1039A0004C696E6B00000000C4A40F08F5490F08B5
:1039B000B1490F08F4FF01204B44000069490F088A
:1039C00001F0CCFE29465D4802F09DF85B4809995C
:1039D00002F099F844465948D8F8081002F093F8D4
:1039E00056480A9902F08FF85448E16802F08BF8C3
:1039F000534800680169A06D8847DFF848810007D7
:103A000031D5282003F04EFA0A232A46AFF2580196
:103A1000CDF800B003F00EFA2061382003F042FA2E
:103A20008DE8200A48493A78062301EB8211AFF26B
:103A3000D002263101F0C2FE60614048216902F0E7
:103A400062F83E48616902F05EF852460021606902
:103A500001F084FE002E56D00021606901F0CBFFFA
:103A60006169C1F82480554652460021A06801F0E2
:103A700075FE2A460021E06801F070FE2F48A1691A
:103A800002F041F82D48E16902F03DF83878DFF89E
:103A9000B89000EB400109F1400909EB8100C178C1
:103AA000E06902F0A0FF01F043FAA5696A6A2AB151
:103AB00095F8210010B131462846904785F82C60D2
:103AC0001EB30021A06801F096FF06B30021E06854
:103AD00001F091FFE1691D484862A1691C484862F4
:103AE000786E1C4941623A6F1B495162A268C2F864
:103AF0002480E268C2F82480397801EB410219F889
:103B0000221031B113E00121A7E70121DAE70121F9
:103B1000DDE7002101F06FFF094800680169A06D31
:103B20008847800603D40021386F01F064FF0BB092
:103B30000248BDE8F04F02F07AB8000040E40120EE
:103B4000F4FF01207D480F0838E60120B5500F082A
:103B5000B9480F08414C0F08294B0F082DE9F04FC9
:103B6000FF4887B000270068FE4C0169A06D8847B8
:103B7000064609200025B0EB167F09D1282003F066
:103B800091F90023F84AF9A1009503F053F907468B
:103B9000C6F30360092809D1282003F083F9002324
:103BA000F14AF9A1009503F045F907467006DFF8E0
:103BB000B8B34FF028000BD503F074F914210A2292
:103BC000CDF800B0CDE901215A239122F7A10AE0F6
:103BD00003F068F914210A22CDF800B0CDE90121E3
:103BE0005A239122F4A103F085F80546282003F01A
:103BF00059F94FF00F0A05232A46F0A1CDF800A08D
:103C000003F018F90390382003F04CF91E21052227
:103C1000DFF850930095CDE90121A9F18009DFF883
:103C2000A08399F80020062308EB8211E5A2283131
:103C300001F0C4FD2062282003F034F950232A4605
:103C4000E1A1CDF800A003F0F5F80490382003F0CE
:103C500029F91E214FF0500A0095CDE901A199F8EC
:103C60000020062308EB8211D6A22A3101F0A6FD1E
:103C7000606200F0F5FB3946BB4801F044FF29467D
:103C8000B94801F040FFB848039901F03CFFB6483D
:103C9000216A01F038FFB448049901F034FFB248BA
:103CA000616A01F030FF700658D5282003F0FAF859
:103CB0003221009105232A46C4A103F0BBF80390EA
:103CC000382003F0EFF8412105220095CDE90121CC
:103CD00099F80010474608EB81110623B9A230314C
:103CE00001F06CFD47F6FF720021A06201F036FD85
:103CF000282003F0D7F83221009150232A46B5A19D
:103D000003F098F80490382003F0CCF84121009596
:103D1000CDE901A199F80010062307EB8111A9A2B2
:103D2000323101F04BFD47F6FF720021E06201F0F5
:103D300015FD8D48039901F0E6FE8B48A16A01F05C
:103D4000E2FE8948049901F0DEFE8748E16A01F04D
:103D5000DAFEA16AA1484862E16A48628248616C61
:103D600001F0D1FE8048A16C01F0CDFE7E48E16CEF
:103D700001F0C9FE7C48616D01F0C5FE0021E06CD8
:103D800001F039FE7848216D01F0BDFE0920B0EB4D
:103D9000167F7DD1282003F085F873230A21CDF802
:103DA00000B0CDE901134B2340F227128CA102F0A1
:103DB000A1FF0546282003F075F814260A232A4699
:103DC0008BA1009603F036F80390382003F06AF8D0
:103DD000CDE9005A0296474699F80010C84607EB0D
:103DE0008111062377A2343101F0E8FC47F6FF7217
:103DF0000021206301F0B2FC282003F053F84FF0BB
:103E000023090A232A467DA1CDF8009003F012F879
:103E10008346382003F046F8CDE9005ACDF80890E3
:103E200098F80010062307EB811166A2363101F0E5
:103E3000C5FC6063282003F035F8322100910A2385
:103E40002A4670A102F0F6FF0490382003F02AF809
:103E500032210095CDE901A198F80010062307EB67
:103E6000811158A2383101F0A9FCA063282003F089
:103E700019F8B4232A4665A1009602F0DBFF0590ED
:103E8000382003F00FF8E621CDE90051029600E05A
:103E9000D4E098F80010032307EB81115DA23A31BA
:103EA00001F08CFCE0632E48222100680268A06DBE
:103EB0009047421E0021E06B01F050FC282002F0E8
:103EC000F1FF8C232A4654A1009602F0B3FF8246EC
:103ED000282002F0E7FF8C232A4650A1CDF800905D
:103EE00002F0A8FF98F80010064607EB811090F842
:103EF0003A20A06D00F0A0FDE16B49484862216BBB
:103F000048484862616B48484862A16B474848622C
:103F10005146154801F0F7FD3146134801F0F3FD15
:103F20002946114801F0EFFD0F48039901F0EBFD20
:103F30000D48216B01F0E7FD59460B4801F0E3FD08
:103F40000948616B01F0DFFD0748049901F0DBFDD2
:103F50000548A16B01F0D7FD0348059968E0000012
:103F6000F4FF012084E00120E8E4012053656E7332
:103F70006F726C6573732074756E696E672053542D
:103F80004F202620504C4C0053656E736F726C6549
:103F900073732074756E696E672053544F2026200A
:103FA000504C4C20284175782900000053544F2074
:103FB0002620504C4C00000053544F004731000065
:103FC00038E601202536640047320000504C4C2072
:103FD0004B500000504C4C204B4900007D480F08CE
:103FE0005265762075702074756E696E67000000EA
:103FF0004475726174696F6E00000000456E642044
:1040000073706400456E64204971000053746167E9
:1040100065000000253364006D73000072706D0050
:1040200055500F0891500F08E5500F0809510F081F
:1040300001F069FD0748E16B01F065FD216A064862
:104040004862616A486207B00248BDE8F04F01F07B
:10405000EEBD0000E8E401207D480F082DE9F04F97
:10406000D148DFF8488387B0006800250169D8F897
:104070005800884707460A240026B4EB177F09D169
:10408000282002F00FFF0023C94ACAA1009602F0BF
:10409000D1FE0546C7F303600A2809D1282002F0A3
:1040A00001FF0023C24ACBA1009602F0C3FE0546E1
:1040B000282002F0F7FEBE4BCDE900341421029116
:1040C000A3465A239122CDA102F014FE06462820D1
:1040D00002F0E8FE0F21009105233246C8A102F04C
:1040E000A9FE8146382002F0DDFE1E210522009641
:1040F000CDE90121AD49DFF8B8A280390AF1A80A5B
:10410000097806230AEB8111BEA22C3101F056FB7F
:10411000C8F820004446282002F0C4FE0F21009178
:1041200050233246B8A102F085FE8046382002F0C6
:10413000B9FE1E2150220096CDE901219B4906239C
:104140008039B0A209780AEB81112E3101F036FBDB
:10415000606200F085F92946954801F0D4FC3146AB
:10416000934801F0D0FC4946914801F0CCFC9048BE
:10417000216A01F0C8FC41468D4801F0C4FC8C481E
:10418000616A01F0C0FC8A48616C01F0BCFC88489F
:10419000A16C01F0B8FC8648E16C01F0B4FC8448E5
:1041A000616D01F0B0FC0021E06C01F024FC80485E
:1041B000216D01F0A8FCBBEB177F7DD1282002F018
:1041C00071FE7B4A00927323CDE901B34B2340F289
:1041D00027128EA102F08EFD0546282002F062FE15
:1041E0004FF014080A232A468CA1CDF8008002F073
:1041F00021FE0390382002F055FE4FF050096B4F1E
:10420000CDE90059803FCDF80880397856460AEB51
:10421000811106237BA2343101F0D0FA47F6FF72F8
:104220000021206301F09AFA282002F03BFE4FF0B3
:10423000230A0A232A467CA1CDF800A002F0FAFD49
:104240008346382002F02EFE8DE8200639780623BA
:1042500006EB81116BA2363101F0B0FA60632820C1
:1042600002F020FE322100910A232A4670A102F0BA
:10427000E1FD0490382002F015FE32210095CDE9D1
:1042800001913978062306EB81115EA2383101F0E5
:1042900095FAA063282002F005FEB4232A4666A101
:1042A000CDF8008002F0C6FD0590382002F0FAFD3E
:1042B000E622CDF8088000E06BE0CDE900523978C5
:1042C000032306EB81115EA23A3101F077FAE06335
:1042D0003548222100680268A06D9047421E0021E7
:1042E000E06B01F03BFA282002F0DCFD8C232A462B
:1042F00054A1CDF8008002F09DFD8146282002F0F7
:10430000D1FD8C232A4650A1CDF800A002F092FDE9
:104310003978804606EB811090F83A20A06D00F0C5
:104320008BFBE16B49484862216B49484862616BED
:1043300048484862A16B4848486249461C4801F019
:10434000E2FB41461A4801F0DEFB2946184801F01D
:10435000DAFB1748039901F0D6FB1548216B01F0F1
:10436000D2FB5946124801F0CEFB1148616B01F0B7
:10437000CAFB0F48049901F0C6FB0D48A16B01F080
:10438000C2FB0B48059901F0BEFB0948E16B01F047
:10439000BAFB216A31484862616A486207B0044842
:1043A000BDE8F04F01F043BCF4FF012084E00120A0
:1043B00090E5012053656E736F726C6573732074A2
:1043C000756E696E672053544F202620434F524428
:1043D0004943000053656E736F726C65737320748C
:1043E000756E696E672053544F202620434F524408
:1043F00049432028417578290000000053544F009C
:1044000047310000253664004732000052657620AF
:1044100075702074756E696E670000004475726176
:1044200074696F6E00000000456E64207370640054
:10443000456E642049710000537461676500000097
:10444000253364006D73000072706D0055500F08C5
:1044500091500F08E5500F0809510F087D480F08CB
:104460003EB5282002F01EFDA0232349CDE900130C
:10447000142202925A23912220A102F03BFC214CEB
:104480006064282002F00EFD0F21009105231EA17B
:10449000626C02F0CFFCA064402002F003FD052115
:1044A000626CCDE9002104F160011E25A1F1E0025A
:1044B00002951278062301EBC20117A2091D01F033
:1044C00021FEE064302002F0EDFC41210091052343
:1044D00012A1626C00F068FF2065282002F0E2FC67
:1044E00000953C2310A1626C02F0A4FC6065216D74
:1044F0000E4848623EBD00005CE101204D6F6E69D0
:10450000746F720084E001204D656173757265649B
:104510002073706565640000253664005374617211
:10452000742F53746F70000072706D0075470F0820
:1045300070B531490024096809698847010E0E07E2
:104540004FF009014FF00A024FF002034FF001054E
:104550000ED0B1EB107F03D1C0F303660A2E17D043
:10456000B2EB107F15D1C0F30366092E10D010E016
:10457000B1EB107F00D10124B2EB107F00D10224F7
:10458000B5EB107F02D0B3EB107F33D1032431E0C1
:104590000624B1EB107F05D1C0F3036102290BD0D3
:1045A000012909D0C0F30361092906D1B3EB107FBB
:1045B00002D0B5EB107F00D10424B2EB107F05D1FF
:1045C000C0F3036102290BD0012909D0C0F30361B4
:1045D0000A2906D1B3EB107F02D0B5EB107F00D1D2
:1045E00005240B21B1EB107F04D1C0F3036009282F
:1045F00000D10724204670BDF4FF012010B52748E4
:1046000001F0E3FA2548A83001F0DFFA244801F070
:10461000DCFA2348A83001F0D8FA224801F0D5FA94
:104620002048A83001F0D1FA1F4900204860886076
:10463000C860086148618861C86108624862886230
:10464000C862086348638863C86308644864886410
:10465000C864086548658865C865086648668866F0
:10466000C866086748678867C8678031086048601F
:104670008860C860086148618861C86108624862F2
:104680008862C862086348638863C86308644864D2
:104690008864C8640865486510BD000048E20120D0
:1046A00098E30120E8E4012004E001200348072109
:1046B0000068C2680248806D10470000F4FF0120C6
:1046C00084E0012010B50C46FFF798FF062C1CD2A1
:1046D000DFE804F003070B0F1317BDE81040FEF7E7
:1046E000F3B8BDE81040FEF7D5B9BDE81040FEF7BD
:1046F0007FBCBDE81040FEF711BFBDE81040FFF7DA
:104700002DBABDE81040FFF7A9BC10BD2DE9F04758
:10471000814616480E46134FDFF84C80002400EB0C
:104720008615395D832908D0D8F80000026848460C
:104730009047411C01D025F81400641CE4B2202CE1
:10474000EFD3D8F800000421026848469047084992
:1047500041F8360095F83A2031464846BDE8F04722
:1047600000F06AB9D0A40F08F4FF012038E6012058
:10477000E4E001202DE9F05F3A4A3B4F3B4E1178CF
:10478000A7F1400C01EB4105336817F8258002F1D1
:1047900080040CEB8110B8F1000F06D007EB850107
:1047A000C97859B1012955D10EE082882D485B683E
:1047B000E03050F83110A06D98474BE0B0F9182068
:1047C000B0F914101B6A43E0E3469246B0F93E008C
:1047D00003F0CBFB264A274B03F0F2FB0022264BCB
:1047E00003F03CFA03F09EF80F469AF800100546D5
:1047F0000BEB8119B9F93C0003F0B7FB2A463B46A5
:1048000003F0DEFB03F082FB0FFA80F8B9F93E00FB
:1048100003F0ABFB164A174B03F0D2FB0022164BFA
:1048200003F01CFA03F0EEF80F469AF80010054664
:104830000BEB8110B0F93C0003F097FB2A463B4696
:1048400003F0BEFB03F062FB01B230684246036A2C
:10485000A06D984730680621C268A06DBDE8F05F82
:104860001047000004E0012078E60120F4FF012059
:104870001F85EB51B81E0940008066400B4B0A466D
:1048800009491B78008D01EB8311401AC0F34701E1
:104890000748415C832906D00648006883680348BE
:1048A0008030806D1847704738E6012004E0012011
:1048B000D0A40F08F4FF01202DE9F041284E11F09B
:1048C000FF052849307800EB400001EB80000571BE
:1048D00040D00021224C8034A06801F08CF8C5B390
:1048E0000021E06801F087F8FDB11E4F3078403FAD
:1048F00007EB8010B0F91C104184C28B8284028CBB
:10490000C284A06800F00EFE307807EB8010B0F98A
:104910002410E06800F006FE606930B1317807EBE2
:104920008111B1F9261000F0FDFDA068012680F884
:104930002060E06880F820606069002807D06DB1D1
:104940005FF0000101F057F8606980F82060BDE871
:10495000F08101E00121BDE70121C2E70121F1E77A
:1049600004E0012078E6012070B50D46FFF786FFD0
:104970000D480E4A017801EB410002EB80000079FE
:1049800000280FD0084C8034606900280AD0403AD3
:1049900002EB8111CD84294600F0EAFD6069012116
:1049A00080F8201070BD000004E0012078E60120AE
:1049B00010B50C46FFF762FF0C480D4A007800EB7B
:1049C000400102EB8101097900290ED0A2F14001DA
:1049D00001EB801021468484044C8034E06800F0B0
:1049E000C7FDE068012180F8201010BD04E001201F
:1049F00078E6012010B50C46FFF740FF0C480D4A41
:104A0000007800EB400102EB8101097900290ED00A
:104A1000A2F1400101EB801021464484044C803413
:104A2000A06800F0A5FDA068012180F8201010BD4D
:104A300004E0012078E60120F8B51546094A02EBAA
:104A40008114094904F1380200920968931E121F6B
:104A50008E692946B047E08E00EB40004000E086BA
:104A6000F8BD000038E60120F4FF012038B51546F6
:104A7000094A062302EB8112B2F9361091FBF3F1D9
:104A80000BB2B2F9381000910449928E09684C6952
:104A90002946A04738BD000038E60120F4FF012078
:104AA0002DE9F041164A054610461649007802F1F4
:104AB000800400EB400001EB80019368124E134F1D
:104AC000A06D9D420BD193F830504D70FFF730FD33
:104AD00056F820000021425D3868C3690BE0D268B7
:104AE00092F830508D70FFF723FD56F82000012119
:104AF000425D3868C369E06DBDE8F04118470000C9
:104B000004E0012078E60120A4A40F08F4FF0120AE
:104B1000034808210068C2680248806D1047000001
:104B2000F4FF012084E001202DE9F05F3E4D3F4A73
:104B3000DFF8FCA02878A2F1400600EB400102EB70
:104B4000810305F18004DB7806EB8010F3B3012BC1
:104B500068D1B146A846B0F93E0003F006FADFF886
:104B6000D4B0354B5A4603F02BFA0022334B03F0F6
:104B700075F802F0D7FE0F4698F80010054609EBCD
:104B80008116B6F93C0003F0F0F92A463B4603F0E3
:104B900017FA03F0BBF907B2B6F93E0003F0E5F9E6
:104BA0005A46254B03F00CFA0022244B03F056F82A
:104BB00002F028FF0E4698F80010054609EB811018
:104BC000B0F93C0003F0D1F92A4600E00AE0334690
:104BD00003F0F6F903F09AF901B2DAF800003A4668
:104BE000036A09E012F82110114A136841B1B0F9C3
:104BF0001820B0F914101B6AA06DBDE8F05F1847CB
:104C000019695746A06D884780060BD52878412141
:104C100006EB8010B0F9182038688368A06DBDE8F5
:104C2000F05F1847BDE8F09F04E0012078E601201E
:104C3000F4FF01201F85EB51B81E0940008066403B
:104C40002DE9F05F3449354BDFF8D4900878A3F1B3
:104C5000400400EB400203EB820201F1800AD278AB
:104C600004EB8010F2B3012A53D18846B0F93E001C
:104C700003F07BF9DFF8ACB02B4B5A4603F0A0F9F8
:104C800000222A4B02F0EAFF02F04CFE054698F89B
:104C900000000F4604EB8016B6F93C0003F065F9FE
:104CA0002A463B4603F08CF903F030F907B2B6F917
:104CB0003E0003F05AF95A461B4B03F081F90022DB
:104CC0001A4B02F0CBFF02F09DFE054698F800005B
:104CD0000E4604EB8010B0F93C0003F046F92A467A
:104CE000334600E00DE003F06BF903F00FF901B279
:104CF000D9F800003A46036ADAF85800BDE8F05FD8
:104D00001847B0F91820B0F91410D9F80000036A58
:104D1000F2E7BDE8F09F000004E0012078E6012002
:104D2000F4FF01201F85EB51B81E0940008066404A
:104D30002DE9F05F454D464A2878A2F1400400EB8A
:104D4000400102EB810104EB8010C97829B10129EF
:104D50004AD1B0F91410E9B34AE0A846B0F93E00D0
:104D600003F003F9DFF8EC90DFF8ECA04A46534675
:104D700003F026F9DFF8E4B000225B4602F06EFF94
:104D800002F040FE074698F800000D4604EB80163E
:104D9000B6F93C0003F0E9F83A462B4603F010F967
:104DA00003F0B4F8B082B6F93E0003F0DEF84A46EC
:104DB000534603F005F900225B4602F04FFF02F074
:104DC000B1FD064698F800000D4604EB8014B4F9D6
:104DD0003C0000E00AE003F0C8F832462B4603F03E
:104DE000EFF803F093F82083BDE8F09F028B42B305
:104DF000B0F91800494300FB001003F01BFC02F05F
:104E000051FE03F0FBFB297804EB8116B087B6F95D
:104E1000140003F00FFC0746B6F9180003F00AFC73
:104E20000146384602F050FC0D4903F01BFC0D49C9
:104E300003F022FB03F0E2FB297804EB8111C88721
:104E4000D2E7002181875A21C187CDE704E0012004
:104E500078E601201F85EB51B81E094000806640AE
:104E600000003443C3F548402DE9F041204D224E67
:104E700005F180042978686801EB41021D4990F82A
:104E8000300001F82200012807D001211B4800F062
:104E9000E3FD30680122836825E030680221026862
:104EA000A06D9047C0B930680921C268A06D9047D5
:104EB000306829210268A06D90470E4F2978403F45
:104EC00007EB8111888230682A210268A06D904723
:104ED000297807EB811108830021084800F0BCFD08
:104EE000306800228368A06DBDE8F04103211847B7
:104EF00004E0012078E60120F4FF012098E301207E
:104F000009480849007801EB80118A880649E03198
:104F100051F8301005480068436803488030806DC0
:104F20001847000038E6012004E00120F4FF0120CA
:104F30002DE9F0413B4C3C4F04252078A7F1400679
:104F400000EB400007EB800047F6FF78C07810B117
:104F5000012836D13EE035A1206E01F066FF35A173
:104F6000E06E01F062FF2178606E06EB811202F1C3
:104F7000140180F833508162216F18322F4E81F86E
:104F800033508A6245464246314600F0E7FB2A46E6
:104F90003146206F00F0E2FB207800EB400017F86C
:104FA000200050B92648006801691E488030806D95
:104FB0008847800601D4002100E00121206F00F025
:104FC0001AFD616E012081F82000216F81F8200018
:104FD000BDE8F0811BA1206E01F027FF1BA1E06E50
:104FE00001F023FF2178606E06EB811202F13C0193
:104FF00080F833508162236F891C424683F8335016
:105000009962002100F0AAFB40F267120021206F94
:1050100000F0A4FB207800EB400017F820000028E7
:10502000CBD1C8E704E0012078E601204971207265
:1050300065662E004964207265662E000180FFFFC0
:10504000F4FF0120416D702E202020004570732E4A
:105050004465670008460D4910B50B4A09780B4CAA
:1050600002EB811280345087C2B2A06DFFF7E4FCDE
:10507000216B012081F82000616B81F82000A16B79
:1050800081F8200010BD000038E6012004E0012076
:105090000748064A007802EB8012918601460448D0
:1050A00092F83A208030806DFFF7E0BC38E60120AE
:1050B00004E00120094910B508488039084A0978F8
:1050C000C06901EB410102EB810190F83000C8702A
:1050D000FFF72EFEBDE81040FFF72ABF84E0012055
:1050E00078E601200748064A007802EB8012D18654
:1050F0000146044892F83A208030806DFFF7B6BC34
:1051000038E6012004E001200748064A007802EB57
:10511000801211870146044892F83A208030806D51
:10512000FFF7A4BC38E6012004E00120014600207E
:105130000A5C401CC0B2002AFAD17047F8B5044698
:10514000406A0028204615D001F050FA0646204655
:1051500001F02AFA0546204601F0C5F90746204627
:1051600001F0C1F981B200963A0C2B46606A00F05A
:1051700053FBF8BDBDE8F84001F01DBA2DE9F04140
:1051800006AD1E4617460C4695E80E0000F03AFCA8
:1051900005460748286032463946284601F0FDF9A1
:1051A0006C6214B1012085F820002846BDE8F0812A
:1051B000F8C30F0801F071BE10B5002400F0E9F843
:1051C00000B10124204610BD70B5426A0D46044668
:1051D0004AB194F82C0030B12DB994F8210010B1E7
:1051E00000212046904784F82C5070BD70B50024F3
:1051F0000546052906D10021FFF7E6FF284601F004
:1052000091F90124284600F0C4F800B10124204699
:1052100070BD2DE9FC5F0646C069C1888588891D7F
:105220008CB2B06AFBF79EFA4543ED1DA9B2224647
:10523000304601F0B2F9304601F055F985B23046FA
:1052400001F051F9040C304601F0D0F9801E87B20C
:10525000304601F0A9F9801E1FFA80F8B6F81A90BE
:10526000304601F0C3F90190304601F09DF98346C4
:10527000304601F038F98246304601F034F94FEA01
:105280001A4180B2CDF800905A46019B00F062FBB3
:10529000304600F07EF840B3304601F024F9801C1F
:1052A00085B2304601F01FF90014801C84B2B6F8B4
:1052B0001A90304601F09AF9401E82B2CDF8009063
:1052C000A4F10109681E1FFA89F180B2012300F0E0
:1052D0001FFBB6F81AA0304601F066F9801E82B2B4
:1052E0001FFA89F1CDF800A011E0708B0090601CCE
:1052F00081B205EB080080B201233A4600F008FBBA
:10530000708B009008F1020082B2E01981B2002394
:10531000284600F0FDFA708B00903B46424621463D
:10532000284600F017FB308B0090F81E82B2A01CBC
:10533000814681B2A81C80B2012300F0E9FA96F8F8
:10534000210008B11F2000E0308B0090A8F102007E
:1053500082B2BF1E641C681CBBB2A1B280B200F056
:10536000F9FAB26AED1C02B01FFA89F1A8B2BDE8E1
:10537000F05F00F02DBB10B504460020052907D1D1
:1053800001212046FFF720FF204601F0CBF8012045
:1053900010BD90F82C1021B190F8210008B1012027
:1053A000704700207047000070B51C4616460D4639
:1053B00022463146049B00F025FB0849016000218C
:1053C000416280F82C100446012100F014FB0121F9
:1053D000A562204684F8201070BD00001CC40F0890
:1053E00001F05BBD10B5C36A0C4603B911A390F878
:1053F0003310062919D2DFE801F0180303070B0F59
:1054000000F063F802460AE000F05FF882B206E0BE
:1054100000F05BF802B202E000F057F8C2B220469A
:10542000BDE810401946FAF773BF00F04EF842B2DB
:10543000F5E700002564000070B50E46044600251F
:1054400000F0A4FD28B3A06A10B3012E02D0022EF2
:105450001ED10DE094F83200218EFF2801442186F0
:1054600002D0401C84F83200204600F05DF90CE0C8
:1054700094F83200218EFF280144218602D0401C7E
:1054800084F83200204600F006F8204601F04AF881
:105490000125284670BD10B5034600F016F80146F8
:1054A000B3F93000B3F93420091A8A4206DD8010BE
:1054B000188693F83200800883F8320093F833009E
:1054C000BDE81040184600F02DB890F83310806AFF
:1054D00006290DD2DFE801F00C030305070A006876
:1054E000704700887047B0F9000070470078704737
:1054F00090F90000704770B50E460446002500F094
:1055000045FD00B10125052E08D194F8230038B1DE
:10551000002084F82300204601F004F8284670BDDE
:105520000120F6E710B50346806A00281FD0B3F9C2
:1055300034208A421BDCB3F936208A4217DB93F809
:105540003320022A04D0042A04D049B2017002E0B8
:10555000016000E00180586A002808D01846FFF773
:10556000B4FF5A6A0146BDE810401846104710BD06
:1055700010B50346806A002814D09A8E8A4211D84A
:10558000DA8E8A420ED393F833200170586A0028CD
:1055900008D01846FFF799FF5A6A0146BDE8104047
:1055A0001846104710BD2DE9F0418AB0044620216D
:1055B00001A8FBF7F6F8658B204601F017F8804646
:1055C000204600F0F1FF0646204600F08CFF07461B
:1055D000204600F088FF390C80B2434632460095E1
:1055E00000F0B8F9258B204601F000F8C01E87B204
:1055F000204600F078FF0646204600F074FF311484
:10560000891C801C89B280B201233A46009500F0C3
:105610007FF994F82100A0B1204600F0E7FF801E3A
:1056200087B2204600F0C0FF801E86B2204600F000
:105630005AFF0546204600F056FF1F21009129140D
:1056400014E0258B204600F0D1FF801E87B2204653
:1056500000F0AAFF801E86B2204600F044FF80467C
:10566000204600F040FF4FEA28410095491C401CAD
:1056700089B280B23B46324600F06CF9204600F019
:1056800085FC50B194F8210038B14FF6E070ADF8C8
:105690000000BDF80000FCF7C3FD94F8220038B903
:1056A00047F6FF70ADF80000BDF80000FCF7B8FD4C
:1056B000A06A002812D001A92046FFF793FE2046D9
:1056C00000F011FF0546204600F00DFF2914891C4B
:1056D000C01C89B280B201AA00F07AF90AB0BDE814
:1056E000F08170B50E460446002500F04FFCC8B1AD
:1056F000A06AB0B100200121012E02D0022E10D1EB
:1057000006E0218684F83200204600F00DF805E01E
:10571000218684F832002046FFF7BDFE204600F0C7
:1057200001FF0125284670BD10B50346FFF7CDFEE9
:105730000146B3F93000B3F9362001448A4206DA53
:105740008010188693F83200800883F8320093F8AE
:105750003300BDE810401846FFF7E4BE8186C286DC
:10576000704700002DE9F04106AC1D4617460E4675
:1057700094E80E0000F014FC0F4901600221044679
:1057800080F833100121C4E90A670186C069C18825
:105790008088091D68438AB2401D81B2204600F00E
:1057A000FCFE48F20101A186891EE1860021204607
:1057B0006162BDE8F081000044C40F082DE9F041AA
:1057C00006AC1D4617460E4694E80E0000F0E8FBB6
:1057D0000F4901600421044680F833100121C4E917
:1057E0000A670186C069C1888088091D68438AB23A
:1057F000401D81B2204600F0D0FE48F20101A18692
:10580000891EE186002120466162BDE8F08100002A
:1058100044C40F0801F041BB38B5049C0094FCF768
:10582000F9FC38BD2DE9FC410F461249DDF8208016
:105830001C4609881600A1EB0000A0F1010085B20A
:1058400016D001A96846FCF7D5FC4046FCF70EFDD2
:1058500007E03846791C8FB2002332462946FCF710
:105860006FFC641EA4B2F4D2BDF80000FCF7FEFC8D
:10587000BDE8FC8122E1012010B5FCF78BFD4FF65D
:10588000FF742046FCF75EFB2046FCF7C9FCBDE830
:1058900010400020FCF7EABC2DE9F04190460E468E
:1058A00004460546FCF7B4FC184F012803D138889C
:1058B000001B401E85B2FCF7A5FC80883988204477
:1058C000884221D8FCF79EFC8088062804D1FCF78A
:1058D00099FCC088082806D0424629463046BDE8D3
:1058E000F041FCF7DDBBFCF78DFC0468FCF78AFC9B
:1058F0008188A8F12000414304EB4102F0B229461F
:10590000BDE8F041FCF71ABCBDE8F08122E10120BE
:105910002DE9FC410E460E49984614460988089F19
:10592000081A401E85B201A96846FCF763FC384698
:10593000FCF79CFC34B1641EA2B2434629463046B3
:10594000FCF7FEFBBDF80000FCF790FCBDE8FC8115
:1059500022E101202DE9FC4188461C49089F1C4694
:1059600009881500A1EB0000A0F1010086B22BD040
:10597000002C29D001A96846FCF73CFC3846FCF70E
:1059800075FC6F1EBAB2002331464046FCF7D8FBC7
:1059900008EB0400401EBAB280B200233146FCF787
:1059A000CFFB601E82B2012331464046FCF7C8FBA4
:1059B000701B401C81B2012322464046FCF7C0FB0D
:1059C000BDF80000FCF752FCBDE8FC8122E101209B
:1059D00070B514460E46054609E031462846FFF7E5
:1059E0005BFFFCF70FFC8088641C284485B222789A
:1059F000002AF2D170BD80F82210002901D180F870
:105A0000211070472DE9FF411F46944600240D46A2
:105A1000064623463A46614601A8009400F04AFD36
:105A200002462946304600F01DFE0449016080F818
:105A3000224080F8214004B0BDE8F08168C40F081E
:105A400001F02BBA00224274002904D090F82120E2
:105A5000002A00D04174704780F82110002900D13D
:105A60004174704700F0A7BD70B50C4600F0D2FD40
:105A700005460948286054B1204600F0B7FD0246AB
:105A8000A0892189401A81B2284600F086FD0120B4
:105A900085F82100284670BD8CC40F082DE9F0411F
:105AA00086B00F46DDE90C4580461E46114602A829
:105AB00000F0F6FC0246334639464046CDE9004543
:105AC00000F0FCFD03490160012180F8211006B0BF
:105AD000BDE8F0818CC40F0810B500F015FE034935
