:020000040801F1
:10000000104F0020E50101085D521A00210201088D
:10001000F1010108F3010108F501010800000000E9
:10002000000000000000000000000000F7010108CF
:10003000F901010800000000FB010108FD010108B1
:10004000FF010108FF010108FF010108FF0101088C
:10005000FF010108FF010108FF010108FF0101087C
:10006000FF010108FF010108FF010108FF0101086C
:10007000FF010108FF010108FF010108FF0101085C
:10008000FF010108FF010108FF010108FF0101084C
:10009000FF010108FF010108FF010108FF0101083C
:1000A000FF010108FF010108FF010108FF0101082C
:1000B000FF010108FF010108FF010108FF0101081C
:1000C000FF010108FF010108FF010108FF0101080C
:1000D000FF010108FF010108FF010108FF010108FC
:1000E000FF010108FF010108FF01010800F002F80B
:1000F00000F068F80AA090E8000C82448344AAF15A
:100100000107DA4501D100F05DF8AFF2090EBAE857
:100110000F0013F0010F18BFFB1A43F0010318473B
:1001200044C5000064C50000103A24BF78C878C1F7
:10013000FAD8520724BF30C830C144BF04680C60ED
:10014000704700000023002400250026103A28BF35
:1001500078C1FBD8520728BF30C148BF0B60704739
:10016000692900F0FF80642900F0FC80752900F007
:10017000F9806F2900F09081782900F0B781036839
:10018000DB0928BF41F08001632900F0E483E32903
:1001900000F0F783002070471FB59DE8030000F0D2
:1001A00051FC00F005FD04000020002107F088FA52
:1001B000401C606000F0D4FA1FBD10B5002006F0AE
:1001C000CDFC10BD00F0CEFC1146FFF7E5FF07F0B7
:1001D0000BFA00F00FFD03B4FFF7EFFF03BC00F0D4
:1001E000BBFC00000948804709480047FEE7FEE7DE
:1001F000FEE7FEE7FEE7FEE7FEE7FEE7FEE7FEE7D7
:1002000004480549054A044B70470000852401084D
:10021000ED00010810370020104F0020104F002083
:1002200000B5FFB441464A4653465C4665463EB477
:100230000D496A460A600D4908600D4988473EBC71
:10024000884691469A46A346AC46FFBC00BD064888
:1002500001688D463EBC884691469A46A346AC4608
:10026000FFBC044800BD0000F04F0020F44F002008
:10027000F500010814BF01080FB41CB5074B06AA0E
:100280007B4469460090059800F043FB00206946D6
:1002900000F052FB1CBC5DF814FB0000B50600002A
:1002A00070B5044685690068C10601D5302600E0B6
:1002B0002026C00707D070BDD4E901213046904701
:1002C000206A401C20626D1EF6D570BD70B50446D4
:1002D00085690078C00707D170BDD4E901212020CD
:1002E0009047206A401C20626D1EF6D570BD0968DB
:1002F0004A0501D540B27047C905FCD500B2704728
:1003000009684A0501D5C0B27047C905FCD580B25D
:10031000704770B50C460546012A05D0287880063E
:1003200000D5EA69002302E0012305E05B1C93424B
:1003300002D2E05C0028F9D1A869E618C01AA861C9
:10034000286A184428622846FFF7AAFF04E0D5E986
:10035000012114F8010B9047B442F8D32846FFF767
:10036000B5FF70BD2DE9F0410646002410687529DF
:10037000314616A510D0FFF7BAFF002802DA404236
:1003800013A507E031688A0701D512A502E04907E5
:1003900004D511A5012401E0FFF7B2FF00210A22D4
:1003A00006F1240709E0B0FBF2FCB0FBF2F302FB1C
:1003B0001C00303078541846491C0028F3D12346DD
:1003C0002A463046BDE8F04100F045BA0000000082
:1003D0002D0000002B000000200000002DE9FF5F31
:1003E00015468A460446DFF8AC80F8440027D8E971
:1003F00000103E46CDE9001010E03AF816106A46AB
:1004000002A800F0CAFA411C07D02178890603D55A
:10041000E269391891420DD80744761C207880068D
:1004200002D5E069B84205DDAE42E6DB3AF81600D7
:100430000028E2D1A069C01BA0612046FFF730FF71
:10044000D8E90010CDE90010002017E03AF81810A4
:100450006A4602A800F0A1FAB0F1FF3F81460BD036
:1004600000250DF1080B05E0D4E901211BF805007A
:1004700090476D1C4D45F7D308F10100B04280460E
:10048000E4DB206A384420622046FFF71FFFBDE806
:10049000FF9F000036BB000070B50446214610687F
:1004A000FFF72EFF002104F1240505E000F007020C
:1004B0003032C0086A54491C0028F7D12068002354
:1004C00008A2050708D500F02000084304D0E06921
:1004D000012305A2401EE0612046BDE8704000F007
:1004E000BAB90000000000003000000070B50446FA
:1004F0000D4621461068FFF703FF2188090502D544
:100500000F4A7A4402E00E4A7A440E32002104F186
:10051000240305E000F00F060009965D5E54491CB7
:100520000028F7D120780023000704D5702D02D0D1
:1005300009B1022311322046BDE8704000F08BB9AA
:1005400026BA00002DE9F05F894604464FF0000A04
:10055000DFF874B1FB44C0F820A02046E16888476A
:10056000002874D0252806D0D4E901219047206ABC
:10057000401C2062F1E700265F462046E16888477C
:100580002028054607DB312D05D2781910F8200CFC
:1005900008B10643F1E7B00701D526F00406C4F818
:1005A0001CA00027C4F818A02A2D09D0284606F060
:1005B0008BFE38B304EB8708303DC8F8185019E0BB
:1005C00059F8041B204604EB87029161E1688847D3
:1005D000012F054618D1E069002820DA26F0200610
:1005E0001DE0D8F8180000EB800005EB4000303823
:1005F000C8F818002046E1688847054606F064FE02
:100600000028EED1012F0AD02E2D08D12046E16816
:1006100088477F1C0546022F46F02006C4DBA069F0
:10062000002803DA404246F00106A061F00701D03D
:1006300026F010066C2D0BD0682D09D04C2D39D02A
:100640006A2D35D0742D35D07A2D33D016E038E0B0
:10065000E1682F4620468847B842054609D16C2FED
:1006600026D04FF48060E16806432046884705465F
:1006700004E06C2F1AD04FF4807006430DB3A5F13F
:100680004100192802D8203546F400664A4629461A
:10069000204626604E46FFF763FD80B101280BD04F
:1006A000F61D26F0070000F1080956E74020E4E7B0
:1006B0008020D8E70020D6E706F104094DE7284658
:1006C00052E7206ABDE8F09FFCB9000010B5431C5A
:1006D00002E010F8011B71B18107FAD14FF001322D
:1006E00002C88C1A8C4314EAC211F9D0C01A0A0647
:1006F00003D0C01E10BDC01A10BD0A0401D0801E58
:1007000010BD0902FCD0401E10BD4FF0000200B524
:10071000134694469646203922BFA0E80C50A0E824
:100720000C50B1F12001BFF4F7AF090728BFA0E8D2
:100730000C5048BF0CC05DF804EB890028BF40F89E
:10074000042B08BF704748BF20F8022B11F0804FE0
:1007500018BF00F8012B70477047704770470000C2
:1007600070B5064C7C44064D7D4403E0206820446F
:100770008047241DAC42F9D170BD00002CC00000A0
:100780002CC0000000487047E03600200048704749
:10079000E436002070B5064600F034F9056806F12D
:1007A0000B0020F00704B4429CBF002070BD2B4614
:1007B0006A68BAB11068A04210D304F108018842F7
:1007C0003CBF5068586007D35168101941601168E8
:1007D000091B016058601460101D70BD13465268FB
:1007E000002AE7D12146284600F018F90028DED17A
:1007F00070BD70B50446051F00F004F90068002CB8
:1008000014BF446870BD002C18BFAC423CBF2046EA
:100810006468F8D301680A18AA4218BF456003D17A
:100820002A6805461144016028684119A1421CBF8D
:100830006C6070BD6168696021680844286070BDA3
:1008400010B500F0E3F8006810BD10B5044600F0E4
:10085000DDF8046010BD2DE9F0470D46994692463B
:10086000044600F124080168880604D5E06921F0F7
:100870001001216000E00120A84201DD471B00E0DB
:100880000027A1697A1902EB0900081AA0612078F3
:10089000C00602D42046FFF703FD002608E0D4E995
:1008A00001211AF806009047206A401C761C20623D
:1008B0004E45F4DB2078C0060AD52046FFF7F0FC51
:1008C00006E0D4E9012130209047206A401C2062D4
:1008D000381EA7F10107F4DC07E0D4E9012118F87C
:1008E00005009047206A401C2062281EA5F10105E2
:1008F000F3DC2046FFF7EAFC2078000602D5022050
:10090000BDE8F0870120FBE701694A1C0261087815
:10091000704700B58FB0CDE901310021059105493F
:100920007944CDE9031011466846FFF70BFE0FB07E
:1009300000BD0000E5FFFFFF0A6802F8010B0A6036
:10094000704710B5436913B1AFF3008001E0FFF7C2
:10095000E0FC012010BD127800F124010A70002291
:100960004A700122EDE711684FF0FF32E9E710B558
:10097000436913B1AFF3008001E0FFF72FFD0120C1
:1009800010BD128800F1240182840022C284012259
:10099000EDE711684FF0FF32E9E770B516460C46F7
:1009A000054600F027F8036893F80101012806D0F6
:1009B000FF2C0FD8185D68B101202C7070BDD3F8E2
:1009C00007013246214603F2071303442846BDE8D7
:1009D000704018474FF0FF3070BD10B500F06EF852
:1009E000BDE8104000F064B800F080B800487047DF
:1009F000AC36002010B500F0DBF8001D10BD00BFC4
:100A0000C16C000000487047B436002000487047B1
:100A1000AC360020704770477047704738B50446C1
:100A20000A4600206946AFF30080002808BF38BDA1
:100A300002460099204600F0C3F8012038BD01208D
:100A400000F0FFB8F8B5AFF30080054600200C4673
:100A5000102000BF0646A819A0420DD932466946AB
:100A60000020AFF30080070008BF00F0EAF800980C
:100A7000A04218BF0546C419FFF7C4FF056007462A
:100A8000F01D20F007004619284600F00AF8B4428D
:100A900008BFF8BDA21B31463868BDE8F84000F039
:100AA0008FB800210160C0E9011070471020704725
:100AB000002801D000F050B87047000010B50021A8
:100AC00002A000F0A5F8012010BD000053494750D6
:100AD00056464E3A2050757265207669727475617B
:100AE0006C20666E2063616C6C65640010B500F06C
:100AF0000EF8016919B100220261884701E080689F
:100B0000804700F07DF8000010B500F079F870B56E
:100B100000F052F804680546A4B92020FFF73AFE19
:100B2000040011D0094900202C60C4E900010849E3
:100B3000A1602073206160610649A06109B100F0E5
:100B400087F8E061204670BD00F05AF80000000010
:100B5000090B01080000000001491820ABBEFEE7A8
:100B6000260002007546FFF741FFAE4605006946C4
:100B7000534620F00700854618B020B5FFF740FB2C
:100B8000BDE820404FF000064FF000074FF000088E
:100B90004FF0000B21F00701AC46ACE8C009ACE80F
:100BA000C009ACE8C009ACE8C0098D467047000038
:100BB00000487047CC36002000487047E8360020D7
:100BC000034640688C46002818BF88423CBF034655
:100BD0004068F8D318681844884207D00CF1030025
:100BE00020F00700001D411A521A0146081D0A6034
:100BF000FFF7FFBD0446AFF300802046FFF7EBFA96
:100C0000002000F04BF8FFF7D8FA0120FFF7A4FF0F
:100C100070B505460C460A2000E06D1C00F036F861
:100C200035B128780028F8D102E0641C00F02EF8D5
:100C300014B120780028F8D1BDE870400A2000F0F7
:100C400025B810B500F032F8BDE81040FFF730BF0E
:100C500010B58820FFF79EFD002801D0002101700B
:100C600010BD802902D808B1017809B10020704771
:100C7000012100F8081B704718B100F108029142E9
:100C800001D00020704700210170704708B5694607
:100C90008DF800000320ABBE08BD704710B500F012
:100CA0006DF8BDE81040FFF703BF000010B5012844
:100CB00005D0002103A0FFF7ABFF012010BD09A163
:100CC000F8E7000053494752544D454D3A204F75BF
:100CD00074206F662068656170206D656D6F727934
:100CE000000000003A2048656170206D656D6F72EC
:100CF0007920636F72727570746564004FF0013C07
:100D000050F8042B51F8043B9A4221D1A2EB0C037A
:100D1000934313EACC1317D150F8042B51F8043B3A
:100D20009A4215D1A2EB0C03934313EACC130BD1D7
:100D300050F8042B51F8043B9A4209D1A2EB0C0362
:100D4000934313EACC13DBD04FF00000704700BF91
:100D5000D01A01BAB1FA81F101F0180122FA01F0BA
:100D6000CB40C1F12001DBB2C0B2C01A2CFA01F3B2
:100D7000D11A914311EAC311E6D1704710B5002191
:100D800002A0FFF745FF012010BD00005349474175
:100D90004252543A2041626E6F726D616C207465EC
:100DA000726D696E6174696F6E00000030B51A492A
:100DB0008379026853B30B6893430B600A1D136871
:100DC0000468A343136002790A4413680468234348
:100DD0001360114A083213680468A3431360131D9B
:100DE0001C680568AC431C604479102C05D0214474
:100DF0000A68006802430A6030BD11680468214334
:100E00001160196800680143196030BD0079084419
:100E100001689143016030BD0004014010B58A07AC
:100E200021F003040649130F21440F228C689A40D5
:100E300094438C608A68984002438A6010BD000029
:100E400000000140F0B5CA78002502F00F03D20679
:100E500001D58A7813430A784FF00F0E12F0FF0F76
:100E60004FF001021CD004680F8802FA05F63740E3
:100E7000B74211D14FEA850C0EFA0CF724EA0707A6
:100E800003FA0CF43C43CF78282F02D0482F02D02D
:100E900002E0466100E006616D1C082DE4D30460A9
:100EA0000C88FF2C1ED944685FF0000606F1080785
:100EB00002FA07F50F882F40AF420FD14FEA860C98
:100EC0000EFA0CF7BC4303FA0CF73C43CF78282FFB
:100ED00000D14561CF78482F00D10561761C082EDE
:100EE000E4D34460F0BD0246002092680A4200D07C
:100EF000012070470AB101617047416170470000ED
:100F00002DE9F05F594CDFF868A18346C4E916016A
:100F1000DAF80000164657460169584688470546E4
:100F20003146544804F016FF304603F005FF81199E
:100F3000504804F056FF50494E4804F0BFFF4E4958
:100F40004C48A83104F0BAFF4C494A4804F0B6FFB7
:100F50004A494848A83104F0B1FF4949454804F0DE
:100F6000ADFF47494348A83104F0A8FFA4F1800031
:100F700000260670386803210268A06D9047C0B251
:100F8000404F4FF00109012824D087F8009000213C
:100F90003A4804F067FB7E7087F80290E06DB04637
:100FA00038B3DAF800105646A1460A681C2190476B
:100FB000C4B230681D210268D9F85C009047C6B2FF
:100FC000D9F8580003F0BAF82F4A0146002052F829
:100FD00021100BE03E700121DAE7A24200D17870C7
:100FE0000A5CB24200D1B870401CC0B20A5CFF2A51
:100FF000F3D187F8038087F8048087F8058087F8A5
:10100000068087F8078087F8088087F8098087F8C6
:101010000A8087F80B80584600F048F815491B48AD
:10102000C1F80C010021134804F0B6FE0920B0EB12
:10103000157F16D0C5F30360092812D0002110488F
:1010400004F010FB0A20B0EB157F0CD0C5F3036051
:101050000A2808D00021BDE8F05F0948A83004F054
:1010600001BB0121EBE70121F5E7000084300020FE
:10107000F44F00206031002070320020C033002087
:1010800010350020A036002094A00108D1420108AC
:1010900010B5054C204604F0C3FE04F58270BDE88F
:1010A000104005F091BC000060310020002103F0E9
:1010B00033B900002DE9F14FC14D0527C14EDFF8CE
:1010C0000893DFF80883002405F1850A3068295D5C
:1010D00002681AF801100098904798F8003009EB60
:1010E00083122B5D641CE4B222F81300BC42EDD3E2
:1010F000B34D01270024DFF8D4A2ED1E05F1010B4A
:101100000AF1E00A3068295D02681BF801100098B6
:10111000904798F800200AEBC2012A5D641CE4B2F3
:1011200041F82200BC42EDD3454698F80000DFF8B4
:10113000988200EB400108F140084FF0000A18F8CF
:1011400021000124F0BB3068082102680098904714
:1011500029784F4609EB8111888230680C2102689A
:101160000098904701B2287807EB801200EB40030B
:1011700008EB83001183C07801282DD1B2F9140047
:1011800008B900295CD0404301FB0100B94607F0D3
:1011900049F806F07FFA07F029F82A7809EB821758
:1011A000B887B7F9140007F03DF88346B7F918007F
:1011B00007F038F80146584606F08EF8844907F0E3
:1011C00049F800E010E0834906F04EFF07F00EF802
:1011D0002A7809EB8211C887686E08B180F8204030
:1011E000286F08B180F8204030680121026800981B
:1011F000904786B2070C56EA070008D07648B0F848
:101200000001012803D00121734804F0C5FD686B7B
:1012100068B306B1CFB1714804F0AAFA696B88428D
:1012200002D16E4804F009FB6A6B4CF21860518BD6
:1012300081421CD050830021104604F0E2F913E0F3
:10124000A2F83CA05A20D087C6E7002141830121A3
:1012500004F0D7F9614804F08BFA696B884203D037
:1012600000215E4804F090FA686B80F820402878EE
:10127000514600EB400208EB8200730680F805A09F
:101280004FF0020200D542717B0600D54471817196
:10129000F30600D58271FB0600D58471C171B306D7
:1012A00000D5C271BB0600D5C4710172F30700D02E
:1012B0000272FB0700D00472330600D502723B06AF
:1012C00000D504724172730700D542727B0700D5C6
:1012D00044728172B30700D58272BB0700D5847255
:1012E000C172310700D5C272390700D5C472696B6B
:1012F000F1B33349AA694379491D568B31F813304C
:101300009E4202D0538382F82040EA698379568B4B
:1013100031F813309E4202D0538382F820402A6A6B
:10132000C379568B31F813309E4202D0538382F832
:1013300020406A6A037A568B31F813309E4202D0FD
:10134000538382F82040AB6A427A5E8B31F81220D8
:10135000964202D05A8383F82040EA6A837A568BF9
:1013600031F813309E4202D0538382F8204000E0CF
:1013700009E02A6BC07A538B31F81000834202D007
:10138000508382F82040286908B180F820406869BD
:1013900008B180F820400D488030C06C08B180F85A
:1013A0002040686D08B180F82040A86E08B180F830
:1013B0002040686F002801D080F82040BDE8F88FF9
:1013C0003BA00108F44F00206036002004300020CC
:1013D00000003443C3F5484060310020183300203A
:1013E00070B506460E4800244068472815D040F2E4
:1013F0003F11002000F0C4F900F02EFE4FF49635A6
:10140000304600F0FFFD641CAC42F9D3BDE87040EB
:1014100001220421034800F03FB80021E9E7000061
:10142000EC300020000C014038B50121082000F00C
:10143000CDFE0420ADF8000003208DF8020010203E
:10144000134C8DF8030069462046FFF7FBFC012290
:101450000421204600F020F880200E4DADF8000059
:1014600069462846FFF7EEFC4FF40044ADF8004013
:1014700069462846FFF7E6FC01222146284600F08F
:101480000BF801228021284600F006F838BD000044
:10149000000C014000140140FFF72CBD064B30B496
:1014A0009B68203AD2B21C68DB88534304EB4302AA
:1014B00030BC00F003B80000EC3000202DE9F74FFD
:1014C000904600270646019900F05AF91C4C31E07D
:1014D00000F0C2FD00254FF00C094FF0800A4FF0DC
:1014E000010B17E0B0FBF9F1CA000AFA02F138F873
:1014F00017202941114201D10C2805D90BFA05F119
:101500000A4203D10C2801D9608800E0208800F04D
:1015100079FD6D1CA0688088A842E3D801220421CF
:101520000848FFF7B9FF761CB6B23046019900F0C3
:1015300027F97F1CA068C088B842C9D8BDE8FE8FD3
:10154000EC300020000C0140704700002DE9F0470E
:10155000194D80469946686817460E46002447286C
:1015600003D1A1F23F16704286B23146404600F0E8
:1015700007F9B9F1000F1AD100F06EFD03E02888D9
:1015800000F040FD641CBC42F9D3BDE8F0470122E5
:1015900004210A48FFF780BF288800F04DFD08F1BC
:1015A000010080B28046314600F0EAF8641CBC427B
:1015B000F2D3BDE8F0870000EC300020000C0140C1
:1015C000024A13880380508808807047EC3000205E
:1015D0000148806870470000EC30002003484068F4
:1015E000472801D00120704700207047EC300020D0
:1015F0007047000070B52D4C0025218821F038017E
:101600002180218841F00801218000F057FD7320DE
:1016100000F07AFDFF21204600F02DFE80212046BB
:1016200000F020FE0028F9D10121204600F01AFE2A
:101630000028F9D0204600F01CFE6D1CEDB2052DEF
:10164000E8D3FF21204600F016FE8021204600F05E
:1016500009FE0028F9D10121204600F003FE0028F0
:10166000F9D0204600F005FE0546FF21204600F097
:1016700002FE8021204600F0F5FD0028F9D101216D
:10168000204600F0EFFD0028F9D0204600F0F1FDE3
:10169000E9B240EA0125012204210548FFF7FCFEDA
:1016A000208820F038002080284670BD0038004097
:1016B000000C014030B587B00121082000F086FD04
:1016C00001218C03204600F069FD6010ADF8140084
:1016D00003208DF8160018201D4D8DF8170005A960
:1016E0002846FFF7AFFBADF8144005A92846FFF7E1
:1016F000A9FB6000ADF8140005A92846FFF7A2FB7E
:10170000144C204600F084FD0021ADF800104FF489
:101710008270ADF80200ADF804100220ADF80600AA
:101720000120ADF808004002ADF80A00ADF80C1039
:101730000720ADF80E10ADF810006946204600F005
:101740009CFD0121204600F059FD07B030BD00008E
:10175000000C01400038004001B5BDF8000001490F
:10176000488008BDEC30002003B5BDF800100348E8
:101770000180BDF8041041800CBD0000EC30002059
:1017800070B505460E480C464068472809D02946E2
:10179000202000F06BFC21462120BDE8704000F0C5
:1017A00065BC210A022000F061FCE1B2032000F0D8
:1017B0005DFC0021062000F059FC29460720ECE7DB
:1017C000EC3000200149886070470000EC300020B8
:1017D00001B5BDF800000149088008BDEC300020CB
:1017E0002DE9F05FFFF720FEFFF764FFFE48416838
:1017F00047297CD041684FF48079A1F513424FF41A
:10180000E06B41F2300A40F23F1741F21808203AEB
:101810006ED0416840F20514A1F5A84240F20625B9
:1018200040F60806083A7DD04068A0F513412539F6
:1018300079D10121002000F019FC4946012000F077
:1018400015FC5946022000F011FC4146032000F02F
:101850000DFC0021042000F009FC291F082000F0E5
:1018600005FC0021092000F001FC00210A2000F005
:10187000FDFB00210C2000F0F9FB00210D2000F001
:10188000F5FB00210F2000F0F1FB0021102000F0FB
:10189000EDFB0021112000F0E9FB0021122000F0F7
:1018A000E5FB0021132000F0E1FB142005F090FE81
:1018B00041F2B071102000F0D9FB40F23711112035
:1018C00000F0D4FB052005F083FEB91F122000F0C4
:1018D000CDFB052005F07CFE4FF4E851132000F00D
:1018E000C5FB1321292000F0C1FB052001E088E1A0
:1018F0008FE005F06DFE0021202000F0B7FB0021F5
:10190000212000F0B3FB0721302000F0AFFB40F2B4
:101910000231312000F0AAFB2146322000F0A6FB64
:10192000294601E077E26AE3352000F09FFB31466B
:10193000362000F09BFB2946372000F097FB40F251
:101940000451382000F092FB0721392000F08EFB73
:1019500021463C2000F08AFB31463D2000F086FB0A
:101960000021502000F082FBEF21512000F07EFB8F
:101970000021522000F07AFB3946532000F076FB1C
:101980004FF42741602000F071FB0121612000F03D
:101990006DFB00216A2000F069FB0021802000F02F
:1019A00065FB0021812000F061FB0021822000F016
:1019B0005DFB0021832000F059FB0021842000F012
:1019C00055FB0021852000F051FB1021902000F0F4
:1019D0004DFB0021922000F049FB0321932000F0F1
:1019E00045FB4FF48871952000F040FB00219720C3
:1019F00000F03CFB0021982000F038FB414603201A
:101A000000F034FB40F233110720BDE8F05F00F036
:101A10002DBB052005F0DCFD4FF40041E52000F072
:101A200025FB0121002000F021FB4946012000F0A8
:101A30001DFB5946022000F019FB5146032000F01F
:101A400015FB0021042000F011FB40F202210820C8
:101A500000F00CFB0021092000F008FB00210A2007
:101A600000F004FB00210C2000F000FB00210D2001
:101A700000F0FCFA00210F2000F0F8FA00211020FD
:101A800000F0F4FA0021112000F0F0FA00211220F9
:101A900000F0ECFA0021132000F0E8FA142005F021
:101AA00097FD41F2B071102000F0E0FA40F23711DA
:101AB000112000F0DBFA052005F08AFD40F2391113
:101AC000122000F0D3FA052005F082FD4FF4E85112
:101AD000132000F0CBFA1321292000F0C7FA0520CB
:101AE00005F076FD0021202000F0C0FA0021212021
:101AF00000F0BCFA0621302000F0B8FA40F20111E3
:101B0000312000F0B3FA0321322000F0AFFA4FF495
:101B10008371352000F0AAFA40F60231362000F039
:101B2000A5FA40F20231372000F0A0FA40F2077126
:101B3000382000F09BFA0721392000F097FA4FF483
:101B4000C0613C2000F092FA40F20B213D2000F0F1
:101B50008DFA0021502000F089FAEF21512000F089
:101B600085FA0021522000F081FA3946532000F016
:101B70007DFA4FF41C51602000F078FA01216120B9
:101B800000F074FA00216A2000F070FA0021802031
:101B900000F06CFA0021812000F068FA0021822018
:101BA00000F064FA0021832000F060FA0021842014
:101BB00000F05CFA0021852000F058FA10219020F6
:101BC00000F054FA0021922000F050FA03219320F3
:101BD00000F04CFA4FF48871952000F047FA00218C
:101BE000972000F043FA01E0EC300020002198201B
:101BF00000F03CFA4146032000F038FA40F273113D
:101C000002E70021EA2000F031FA2021EB2000F069
:101C10002DFA0C21EC2000F029FAC421ED2000F06F
:101C200025FA4021E82000F021FA3821E92000F0CF
:101C30001DFA0121F12000F019FA1021F22000F024
:101C400015FAA321272000F011FA0121402000F00D
:101C50000DFA0021412000F009FA0021422000F095
:101C600005FA1021432000F001FA0E21442000F073
:101C7000FDF92421452000F0F9F90421462000F067
:101C8000F5F95021472000F0F1F90221482000F039
:101C9000EDF91321492000F0E9F919214A2000F05B
:101CA000E5F919214B2000F0E1F916214C2000F054
:101CB000DDF91B21502000F0D9F93121512000F02D
:101CC000D5F92F21522000F0D1F93F21532000F007
:101CD000CDF93F21542000F0C9F93E21552000F0F4
:101CE000C5F92F21562000F0C1F97B21572000F0C3
:101CF000BDF90921582000F0B9F90621592000F05A
:101D0000B5F906215A2000F0B1F90C215B2000F052
:101D1000ADF91D215C2000F0A9F9CC215D2000F077
:101D2000A5F91B21084600F0A1F901211A2000F0B5
:101D30009DF92F21242000F099F95721252000F04A
:101D400095F98621232000F091F93621182000F022
:101D50008DF90121192000F089F90021012000F0FE
:101D600085F988211F2000F081F9022005F030FC60
:101D700080211F2000F07AF9022005F029FC902133
:101D80001F2000F073F9022005F022FCD0211F2053
:101D900000F06CF9022005F01BFC0521172000F073
:101DA00065F90021012000F061F90021022000F016
:101DB0005DF90021032000F059F90121042000F011
:101DC00055F93F21052000F051F90021062000F0CF
:101DD0004DF90021072000F049F90021082000F00A
:101DE00045F9EF21092000F041F92821162000F0E3
:101DF0003DF90021362000F039F90421362000F0A9
:101E000035F93821282000F031F9062005F0E0FBF3
:101E10003C212820F9E543F20801E32000F026F9EF
:101E20001221E72000F022F941F23121EF2000F0E9
:101E30001DF94946012000F019F95946022000F029
:101E400015F95146032000F011F90021042000F09B
:101E50000DF940F20221082000F008F900210920C4
:101E600000F004F900210A2000F000F900210C2004
:101E700000F0FCF800210D2000F0F8F800210F2000
:101E800000F0F4F80021102000F0F0F800211120FB
:101E900000F0ECF80021122000F0E8F800211320F7
:101EA00000F0E4F8142005F093FB0721112000F066
:101EB000DDF8052005F08CFB41F2B021102000F088
:101EC000D5F8052005F084FB40F2BD11122000F08A
:101ED000CDF8052005F07CFB4FF4A051132000F055
:101EE000C5F80E21292000F0C1F8052005F070FB8F
:101EF0000021202000F0BAF83946212000F0B6F881
:101F00000721302000F0B2F840F20231312000F019
:101F1000ADF82146322000F0A9F82946352000F01E
:101F2000A5F83146362000F0A1F82946372000F008
:101F30009DF840F20451382000F098F8072139202C
:101F400000F094F821463C2000F090F831463D2006
:101F500000F08CF80021502000F088F8EF2151208B
:101F600000F084F80021522000F080F83946532018
:101F700000F07CF84FF42741602000F077F8012151
:101F8000612000F073F800216A2000F06FF8002152
:101F9000802000F06BF80021812000F067F800211C
:101FA000822000F063F80021832000F05FF8002118
:101FB000842000F05BF80021852000F057F8102104
:101FC000902000F053F80021922000F04FF80321F8
:101FD000932000F04BF84FF48871952000F046F8FC
:101FE0000021972000F042F80021982000F03EF8F0
:101FF0004146032000F03AF84FF4897104E5BDE84A
:10200000F09F000070B50B4D0446010A284600F011
:1020100032F98021284600F025F90028F9D1E1B2F3
:10202000284600F028F98021284600F01BF90028F6
:10203000F9D170BD0038004010B5044600F00CF82E
:102040002046FFF7DFFF0122BDE8104004210148D0
:10205000FFF722BA000C014010B5222000F02EF844
:10206000BDE81040722000F04FB8000070B50C467B
:1020700000F024F8722000F047F80E4D210A28469F
:1020800000F0F9F88021284600F0ECF80028F9D19A
:10209000E1B2284600F0EFF88021284600F0E2F88F
:1020A0000028F9D1BDE87040012204210248FFF761
:1020B000F3B9000000380040000C014070B505463F
:1020C000702000F021F80E4C0021204600F0D3F8DB
:1020D0008021204600F0C6F80028F9D12946204684
:1020E00000F0C9F88021204600F0BCF80028F9D1A2
:1020F000BDE87040012204210248FFF7CDB900007D
:1021000000380040000C014010B5044600220421B4
:102110000748FFF7C1F92146064C204600F0ABF80E
:102120008021204600F09EF80028F9D110BD000063
:10213000000C01400038004070B50F23C4780178CE
:102140000122F4B1144C2468457804F4E064C4F529
:10215000E064240AC4F10406E3408478B5401C40DE
:102160002C4301F1E021230181F80034007800F0D4
:102170001F018A404009800000F1E020C0F80021E2
:1021800070BD01F01F0082404809800000F1E0208E
:10219000C0F8802170BD00000CED00E0044A002969
:1021A000D16901D0014300E08143D1617047000053
:1021B00000100240044A0029116901D0014300E0E7
:1021C000814311617047000000100240044A002959
:1021D000916901D0014300E08143916170470000A3
:1021E00000100240044A0029D16801D0014300E0F8
:1021F0008143D1607047000000100240002901882F
:1022000002D041F0400101E021F04001018070471F
:10221000114910B588420AD1841401212046FFF7E4
:10222000E1FF2046BDE810400021FFF7DBBF0B496E
:10223000884202D10121041404E0094988420AD1EC
:102240000121C4132046FFF7B5FF2046BDE810402A
:102250000021FFF7AFBF10BD003001400038004043
:10226000003C00400246002012890A4200D00120B2
:102270007047808970478181704730B502884C88EB
:1022800002F441530A88CD8822438C882C43224390
:102290000C8922434C8922438C892243CC892243D6
:1022A0001A430280828B22F400628283098A0182AF
:1022B00030BD000038B500200090FFF791FA0020F3
:1022C000FFF798F90146009045F20840094C814219
:1022D00006D049F22530814202D0401F814203D10D
:1022E0006060FFF77DFA01E04720606001480C3034
:1022F000A06038BDEC30002010B50021072000F0B0
:102300001FF80021052000F01BF80021062000F036
:1023100017F80021032000F013F80021BDE8104059
:10232000042000F00DB800000349044A31F81010F1
:1023300052F82000FEF7D7BD8CB5010828310020E7
:102340007FB5044623480D46012150F8240040F093
:102350000100FFF73BFF04208DF80F001D4803A983
:10236000103830F81400ADF80C001B4850F8240069
:10237000FEF768FD012D2CD11648403010F81410DE
:10238000103810F81400FEF749FD1248203030F8DC
:102390001400009000208DF804000CB10C2000E027
:1023A00008208DF8050001258DF806506846FEF7D7
:1023B000FDFC0848503010F814008DF808000F207C
:1023C0008DF809008DF80A008DF80B5002A8FFF770
:1023D000B3FE7FBD9CB50108283100200CB500215B
:1023E000264801910091026842F4803202604FF465
:1023F000A063026802F400320092019A521C01921A
:10240000009A12B9019A9A42F3D10268920333D525
:10241000012100911A490A6842F010020A600A6814
:1024200022F003020A600A6842F002020A60416870
:10243000416041684160416841F4806141604168A8
:1024400021F47C114160416841F4E8114160016868
:1024500041F08071016001688901FCD5416821F07B
:1024600003014160416841F0020141604168C1F3EC
:1024700081010229FAD10CBD00910CBD001002406F
:10248000002002400F4810B5016841F001010160D1
:1024900041680D4A1140416001680C4A11400160D9
:1024A000016821F480210160416821F4FE0141604E
:1024B0004FF41F018160FFF791FF05494FF0006065
:1024C000086010BD001002400000FFF8FFFFF6FE9C
:1024D00008ED00E02DE9FE4F282004F0EBFA03217F
:1024E000009105233B4A3CA104F0ACFA8246282027
:1024F00004F0E0FA1E2100910523364A39A104F0C8
:10250000A1FA8146282004F0D5FA3C210091052348
:10251000304A3EA104F096FA8046282004F0CAFA18
:102520004B21009105232B4A41A104F08BFA074669
:10253000282004F0BFFA5A2100910523254A45A11D
:1025400004F080FA0646282004F0B4FAB421009181
:102550000523204A48A104F075FA0546282004F016
:10256000A9FA7321009105231A4A4B4904F06AFA2B
:1025700004465146174803F0CCF84946154803F085
:10258000C8F84146134803F0C4F83946114803F02F
:10259000C0F831460F4803F0BCF829460D4803F057
:1025A000B8F821460B4803F0B4F8282004F082FA6A
:1025B00008499623F7228DE80E0038492C2348223B
:1025C000096802F0E1FB03B00146BDE8F04F0148A5
:1025D00003F09FB87032002048656C70205061672E
:1025E0006500000055736520746865206A6F797313
:1025F0007469636B20746F20776F726B20776974D6
:1026000068204C4344204755490000002D55502F69
:10261000444F574E20746F206D6F7665206265744D
:102620007765656E20636F6E74726F6C7300000067
:102630002D4C4546542F524947544820746F206D05
:102640006F7665206265747765656E207061676579
:10265000730000002D53454C20746F20696E746523
:102660007261637420776974682074686520636F91
:102670006E74726F6C000000436F707972696768E6
:10268000742053544D6963726F656C656374726F27
:102690006E6963730000000046A00108003000204E
:1026A0002DE9F04F87B00021FE4802F0DBFF282023
:1026B00004F000FA0021FB4A0B460091A832FAA16F
:1026C00004F0C0F90746282004F0F4F9F54A4FF069
:1026D000140B0A23A832FAA1CDF800B004F0B2F925
:1026E0000546382004F0E6F92121EE4A00910A233C
:1026F000A832F64904F0B8F8F54C6060282004F0E0
:10270000D9F9DFF8A083352308F1A8080A21CDF80C
:102710000080CDE901133C239B22EEA104F0F0F8E8
:102720000646282004F0C6F9112100910F233246F5
:10273000EDA104F087F90490282004F0BBF92521CD
:1027400000910F233246EBA104F07CF9059038206C
:1027500004F0B0F96E22CDE900624FF00F09CDF818
:102760000890227808F5527A0AEB82110323E4A23A
:1027700002F02AFE2061382004F09CF923216E2209
:102780000096CDE90121227803230AEB8211DCA215
:10279000891C02F019FE6061282004F08BF9CD231A
:1027A000CDE90083CDF808B0AA236422D5A104F0B6
:1027B000A7F80390282004F07DF90523CDF80090B8
:1027C000D2A1039A04F03EF9A061282004F072F926
:1027D000212100910523D0A1039A04F033F9E0618F
:1027E000282004F067F9332100910523CDA1039A35
:1027F00004F028F92062282004F05CF945210091BA
:102800000523CBA1039A04F01DF96062282004F08F
:1028100051F9572100910523C8A1039A04F012F938
:10282000A062282004F046F9692100910523C6A181
:10283000039A04F007F9E062282004F03BF97B21B9
:1028400000910523C3A1039A04F0FCF82063302013
:1028500004F030F98D2100910A23C1A1039A02F0FE
:10286000A9FBC249606341624CF2186141830021B7
:1028700002F0C7FE4046616B02F04BFF394640460E
:1028800002F047FF2946404602F043FF4046616898
:1028900002F03FFF207808F5627700EB400017F860
:1028A0002010606803F0A5FEB14804F180050068BF
:1028B0000169A86D8847C0067BD5282004F0FAF886
:1028C00073230A21CDF80080CDE901133C23BE22F9
:1028D000A8A104F015F88046282004F0EBF8112197
:1028E000009105234246A7A104F0ACF882462820B7
:1028F00004F0E0F82521009105234246A2A104F04E
:10290000A1F88146382004F0D5F80446A86D01F0FE
:1029100015FCDFF8B8B121230BF10C0B42465BF834
:1029200020100F200090204603F09EFF684CA0600E
:10293000382004F0BFF80190A86D01F0FFFB5BF8B0
:1029400020102320009021234246019803F08CFFA1
:10295000E0604146A7F5627002F0DBFE5146A7F544
:10296000627002F0D6FE4946A7F5627002F0D1FE11
:10297000A7F56270A16802F0CCFEA7F56270E1686D
:1029800002F0C7FE207800EB400007EB80004178A2
:10299000A06803F02EFE207800EB400007EB8000DB
:1029A0008178E06803F025FEA16878484862E16814
:1029B00048623C483146A83002F0ABFE39480499E1
:1029C000A83002F0A6FE37480599A83002F0A1FE13
:1029D0003F4C3448A830216902F09BFE31486169C0
:1029E000A83002F096FE0021206902F00AFE0021C4
:1029F000606902F006FE5E4800680169A86D8847BC
:102A00000221B1EB107F03D0C0F30360022813D181
:102A1000302004F04FF8B221224A00910A23A83254
:102A20005BA102F0C7FA014628641E48A83002F0F4
:102A300070FE296C5B4848621A480399A83002F07E
:102A400068FE1848A169A83002F063FE1548E169E4
:102A5000A83002F05EFE1348216AA83002F059FE49
:102A60001048616AA83002F054FE0E48A16AA830EE
:102A700002F04FFE0B48E16AA83002F04AFE094816
:102A8000216BA83002F045FE2078A26900EB4000DF
:102A900007EB80010D484B79283830F81330538309
:102AA0008B7981E070320020436F6E6669677572C2
:102AB0006174696F6E20616E642064656275670081
:102AC0004374726C206D6F646500000068A001089B
:102AD00004300020506F77657220626F617264204D
:102AE00073746174757300004443204275732076DB
:102AF0006F6C74004865617473696E6B20542E00AE
:102B0000253364004661756C747300004F766572FE
:102B100063757272656E74005265767570206661B9
:102B2000696C00005370656564206664626B000028
:102B30005357206572726F7200000000556E646515
:102B40007220766F6C7400004F76657220766F6C21
:102B5000740000004F7665722074656D700000008F
:102B60004661756C742061636B000000B942010816
:102B7000F44F00204441432053657474696E6773B9
:102B8000000000004368310043683200AD46010890
:102B9000456E636F64657220616C69676E6D656E0A
:102BA000740000001D470108E26930F813305383B8
:102BB000CB79226A30F8133053830B7A626A30F88B
:102BC000133053834B7AA26A30F8133053838B7AD5
:102BD000E26A30F813305383C97A226B30F811005F
:102BE000508361680348486207B00348BDE8F04F6E
:102BF00002F023BE754A0108183300202DE9F04F7A
:102C000089B0282003F056FF00210B460091FE4AB0
:102C1000FEA103F017FF0390282003F04BFFFA49B1
:102C20004FF0140A0A238DE80A045A239122FCA1CA
:102C300003F066FE0746282003F03CFF1E210091AA
:102C40003C233A46F9A103F0FDFE0490282003F04E
:102C500031FF412100913C233A46F5A103F0F2FEF9
:102C60000590282003F026FF0F21009105233A4606
:102C7000F0A103F0E7FE8346402003F01BFF1E2176
:102C800005220097CDE90121EE490623A1F1E004D8
:102C9000227801EBC201ECA203F03AF8DFF8AC8332
:102CA0000646A063D8F8000004F1800540210268C0
:102CB000A86D90478146D8F800003F210268A86DB2
:102CC0009047C6E90E90282003F0F4FE32210091CF
:102CD00005233A46DEA103F0B5FE0690382003F046
:102CE000E9FE412105220097CDE90121DFF870932B
:102CF0002278062309EB8211D3A2091D02F064FB9E
:102D000047F6FF720021E06302F02EFB302003F053
:102D1000D1FE412100915A233A46D2A102F04AF94C
:102D2000D2492064416201F0A1F9282003F0C2FEDB
:102D3000B54973230A228DE80E004B236822CCA1EB
:102D400003F0DEFD0646282003F0B4FE0A233246D7
:102D5000CAA1CDF800A003F075FE0790282003F06B
:102D6000A9FE232100910A233246C5A103F06AFE81
:102D70000890382003F09EFE51464FF0280A009636
:102D8000CDE901A12278062309EB8211AEA2891DAB
:102D900002F01AFB6064382003F08CFE23210096B9
:102DA000CDE901A12278062309EB8211A6A2083100
:102DB00002F00AFBA0649448039902F0AAFC92482E
:102DC000049902F0A6FC9048059902F0A2FC39464D
:102DD0008D4802F09EFC59468B4802F09AFC8A48C6
:102DE000A16B02F096FC8848069902F092FC864896
:102DF000E16B02F08EFC8448216C02F08AFC824870
:102E0000696C02F086FC8048A96C02F082FC7E4866
:102E1000E96C02F07EFC7C48696D02F07AFC0021CE
:102E2000E86C02F0EEFB7848296D02F072FC314646
:102E3000754802F06EFC7448079902F06AFC72480B
:102E4000089902F066FC7048616C02F062FC6E4802
:102E5000A16C02F05EFCD8F800000169A86D8847FB
:102E600080072AD5282003F025FE32270A23324680
:102E700084A1009703F0E6FD0546382003F01AFE12
:102E8000CDE9006A02972278062309EB82116EA22F
:102E90000A3102F099FAE06429465B4802F039FCF5
:102EA0005948E16C02F035FC47F6FF720021E06CF6
:102EB00002F05AFA616C7448486247F6FF752A4678
:102EC0000021606C02F050FA2A460021A06C02F04A
:102ED0004BFAD8F8000001695A486038806D88477D
:102EE000C0077DD0282003F0E5FD474973237D22EC
:102EF0008DE80E004B23B42264A103F001FD0546CA
:102F0000282003F0D7FD0E260A232A4663A1009647
:102F100003F098FD8346282003F0CCFD50232A4679
:102F20005EA1009603F08EFD8246382003F0C2FDBC
:102F30000A22CDE900521927029721784E4609EB63
:102F40008111042357A20C3102F03EFA206538208B
:102F500003F0B0FD5022CDE90052029721780423FE
:102F600006EB81114FA20E3102F02EFA6065282087
:102F700003F0A0FD2C270A232A4640A1009703F066
:102F800061FD8046282003F095FD50232A463CA190
:102F9000009703F057FD0746382003F08BFD0A2207
:102FA000CDE900524FF03709CDF80890217806237B
:102FB00006EB811124A2103102F006FAA065382038
:102FC00003F078FD5022CDE90052CDF80890217829
:102FD000062306EB81111CA2123102F0F5F900E084
:102FE00092E0E0652946084802F093FB59460648FE
:102FF00002F08FFB5146044802F08BFB0248216D22
:1030000002F087FB00484FE0C03300205370656535
:103010006420636F6E74726F6C6C657200000000E8
:1030200053657420706F696E7400000072706D00DB
:103030006D73000054617267657420737065656418
:1030400000000000E430002025366400F44F00202A
:1030500052616D70206475726174696F6E0000005A
:103060006036002045786563000000000D4B0108C4
:10307000504944204761696E730000004B500000C6
:103080004B4900004B44000089440108466C7578A8
:1030900020776C2E2074756E696E670042555380E0
:1030A0000000000025346400616D02F032FB002155
:1030B000606D02F0A6FA4146194802F02AFB394633
:1030C000174802F026FB1648A16D02F022FB1448B7
:1030D000E16D02F01EFB4FF47A720021206D02F0C8
:1030E00043F947F6FF752A460021A06D02F03CF92E
:1030F0002A460021E06D02F037F9216D0948486247
:10310000A16D4862E16D4862616C06484862A16C3D
:10311000486209B00248BDE8F04F02F08EBB0000E3
:10312000C0330020894401082DE9F04F8BB02820DE
:1031300003F0C0FC00210B460091FE4AFEA103F003
:1031400081FC0390282003F0B5FC87210091E62341
:10315000F84AFEA103F076FC0490282003F0AAFCB4
:103160004FF00A09F34DCDE900594FF014085A23E6
:103170009122F8A1CDF8088003F0C2FB0646282072
:1031800003F098FC0F21009105233246F4A103F0CF
:1031900059FCF54C2066382003F08CFC1E210522DA
:1031A0000096CDE90121227805F5FC7101EB821131
:1031B0000623EEA2143102F007F96066282003F01E
:1031C00079FC0F21009150233246E9A103F03AFC2B
:1031D0000590382003F06EFC1E2150270096CDE9A3
:1031E0000171227805F5FC7101EB82110623DFA243
:1031F000163102F0E9F8A066282003F05BFC4FF0DE
:10320000320B05233246DBA1CDF800B003F01AFCE7
:10321000E066382003F04EFC412105220096CDE9FE
:103220000121227805F5FC7101EB82110623CFA262
:10323000183102F0C9F82067282003F03BFC322146
:10324000009150233246CDA103F0FCFB06903820BC
:1032500003F030FC41210096CDE90171227805F59B
:10326000FC7101EB82110623C0A21A3102F0ACF806
:103270006067282003F01EFC73220095CDE90192BF
:103280004B236822BEA103F03BFB0746282003F036
:1032900011FC0A233A46BEA1CDF8008003F0D2FB10
:1032A0000790382003F006FC4FF02809CDE900799B
:1032B000CDF80880227805F5FC7101EB8211062318
:1032C000AAA21C3102F080F8A067282003F0F2FBCC
:1032D0004FF0230A0A233A46AEA1CDF800A003F02E
:1032E000B1FB0890382003F0E5FB8DE880062278DA
:1032F00005F5FC7101EB821106239CA21E3102F040
:1033000063F8E067282003F0D5FB7321782200954D
:10331000CDE901214B2368229FA103F0F1FA054674
:10332000282003F0C7FB0A232A4699A1CDF8008084
:1033300003F088FB0990382003F0BCFBCDE900596D
:10334000CDF8088098492278062301EB821187A2E4
:10335000223102F039F804F18008C8F8080028206A
:1033600003F0A8FB0A232A468AA1CDF800A003F0A7
:1033700069FB0A90382003F09DFB8DE820068A49FE
:103380002278062301EB821178A2243102F01CF886
:103390004146C860302003F08DFB73210091E62385
:1033A000644A82A102F0DAFB41468861382003F0CA
:1033B00081FB96210091E6235E4A7E4903F054FA90
:1033C0004146C86100F052FE5A48039902F0A1F943
:1033D0005848049902F09DF93146564802F099F98F
:1033E0005448216E02F095F95248616E02F091F94D
:1033F0005048059902F08DF94E48A16E02F089F906
:103400000021A06E02F0FDF84A48E16E02F081F959
:103410004848216F02F07DF94648069902F079F993
:103420004448616F02F075F90021606F02F0E9F81D
:103430004046416C3F4802F06CF94046816C3D4883
:1034400002F067F94046C16C3A4802F062F9404622
:10345000416D384802F05DF940460021C06C02F031
:10346000D0F84046016D334802F053F9207800EB64
:1034700040014D48403000EB8100394606792D4827
:1034800002F047F92B48079902F043F92948A16F48
:1034900002F03FF92748089902F03BF92548E16F0F
:1034A00002F037F9A16F44484862E16F434848622F
:1034B0004348006801694046806D8847400747F6E9
:1034C000FF7A2CD5282003F0F5FA0A233A463DA1CD
:1034D000CDF800B003F0B6FAC8F800004446382032
:1034E00003F0E8FA204A8DE8800A2F491278062373
:1034F00001EB82111DA2203101F066FF60600D48D2
:10350000216802F006F90B48616802F002F95246A0
:103510000021606801F028FF61682B484862124F63
:10352000544652460021B86F01F01EFF224600218A
:10353000F86F4BE06834002043757272656E74203A
:10354000636F6E74726F6C6C65727300496E707528
:103550007400000053657420706F696E747300000E
:103560004971207265662E00043000202536640003
:10357000497100004964207265662E0049640000AC
:10358000497120504944204761696E730000000072
:103590004B5000004B4900004964205049442047EB
:1035A00061696E7300000000603600204C696E6B2C
:1035B00000000000B4A0010801460108BD45010853
:1035C000F44F00204B4400007545010801F0CCFE8B
:1035D00029465D4802F09DF85B48099902F099F888
:1035E00044465948D8F8081002F093F856480A990A
:1035F00002F08FF85448E16802F08BF853480068F5
:103600000169A06D8847DFF84881000731D528207F
:1036100003F050FA0A232A46AFF25801CDF800B061
:1036200003F010FA2061382003F044FA8DE8200AF4
:1036300048493A78062301EB8211AFF2D0022631D5
:1036400001F0C2FE60614048216902F062F83E4824
:10365000616902F05EF852460021606901F084FE63
:10366000002E56D00021606901F0CBFF6169C1F8DE
:103670002480554652460021A06801F075FE2A4676
:103680000021E06801F070FE2F48A16902F041F8C6
:103690002D48E16902F03DF83878DFF8B89000EB8A
:1036A000400109F1400909EB8100C178E06902F0AD
:1036B000A0FF01F043FAA5696A6A2AB195F82100D2
:1036C00010B131462846904785F82C601EB3002182
:1036D000A06801F096FF06B30021E06801F091FFB9
:1036E000E1691D484862A1691C484862786E1C491E
:1036F00041623A6F1B495162A268C2F82480E268B5
:10370000C2F82480397801EB410219F8221031B156
:1037100013E00121A7E70121DAE70121DDE700211C
:1037200001F06FFF094800680169A06D88478006B5
:1037300003D40021386F01F064FF0BB00248BDE8EC
:10374000F04F02F07AB8000068340020F44F0020F7
:103750008944010860360020C14C0108C5440108B5
:103760004D480108354701082DE9F04FFF4887B063
:1037700000270068FE4C0169A06D884706460920B5
:103780000025B0EB167F09D1282003F093F9002320
:10379000F84AF9A1009503F055F90746C6F303600E
:1037A000092809D1282003F085F90023F14AF9A15D
:1037B000009503F047F907467006DFF8B8B34FF0FD
:1037C00028000BD503F076F914210A22CDF800B0B9
:1037D000CDE901215A239122F7A10AE003F06AF909
:1037E00014210A22CDF800B0CDE901215A239122FB
:1037F000F4A103F085F80546282003F05BF94FF0AB
:103800000F0A05232A46F0A1CDF800A003F01AF90B
:103810000390382003F04EF91E210522DFF8509363
:103820000095CDE90121A9F18009DFF8A08399F87D
:103830000020062308EB8211E5A2283101F0C4FD27
:103840002062282003F036F950232A46E1A1CDF862
:1038500000A003F0F7F80490382003F02BF91E21A4
:103860004FF0500A0095CDE901A199F800200623F8
:1038700008EB8211D6A22A3101F0A6FD606200F0A9
:10388000F5FB3946BB4801F044FF2946B94801F031
:1038900040FFB848039901F03CFFB648216A01F0A7
:1038A00038FFB448049901F034FFB248616A01F06E
:1038B00030FF700658D5282003F0FCF83221009123
:1038C00005232A46C4A103F0BDF80390382003F075
:1038D000F1F8412105220095CDE9012199F8001068
:1038E000474608EB81110623B9A2303101F06CFD87
:1038F00047F6FF720021A06201F036FD282003F098
:10390000D9F83221009150232A46B5A103F09AF844
:103910000490382003F0CEF841210095CDE901A1B3
:1039200099F80010062307EB8111A9A2323101F0AA
:103930004BFD47F6FF720021E06201F015FD8D4856
:10394000039901F0E6FE8B48A16A01F0E2FE894886
:10395000049901F0DEFE8748E16A01F0DAFEA16A0F
:10396000A1484862E16A48628248616C01F0D1FE78
:103970008048A16C01F0CDFE7E48E16C01F0C9FEEB
:103980007C48616D01F0C5FE0021E06C01F039FE5C
:103990007848216D01F0BDFE0920B0EB167F7DD186
:1039A000282003F087F873230A21CDF800B0CDE971
:1039B00001134B2340F227128CA102F0A1FF054610
:1039C000282003F077F814260A232A468BA10096B4
:1039D00003F038F80390382003F06CF8CDE9005A72
:1039E0000296474699F80010C84607EB8111062356
:1039F00077A2343101F0E8FC47F6FF720021206322
:103A000001F0B2FC282003F055F84FF023090A23F7
:103A10002A467DA1CDF8009003F014F883463820A3
:103A200003F048F8CDE9005ACDF8089098F8001056
:103A3000062307EB811166A2363101F0C5FC6063F5
:103A4000282003F037F8322100910A232A4670A17A
:103A500002F0F8FF0490382003F02CF83221009592
:103A6000CDE901A198F80010062307EB811158A2B7
:103A7000383101F0A9FCA063282003F01BF8B4231F
:103A80002A4665A1009602F0DDFF0590382003F07C
:103A900011F8E621CDE90051029600E0D4E098F853
:103AA0000010032307EB81115DA23A3101F08CFC79
:103AB000E0632E48222100680268A06D9047421EF4
:103AC0000021E06B01F050FC282002F0F3FF8C2372
:103AD0002A4654A1009602F0B5FF8246282002F043
:103AE000E9FF8C232A4650A1CDF8009002F0AAFFEE
:103AF00098F80010064607EB811090F83A20A06D68
:103B000000F0A0FDE16B49484862216B48484862DB
:103B1000616B48484862A16B474848625146154866
:103B200001F0F7FD3146134801F0F3FD2946114835
:103B300001F0EFFD0F48039901F0EBFD0D48216BFB
:103B400001F0E7FD59460B4801F0E3FD0948616BC0
:103B500001F0DFFD0748049901F0DBFD0548A16B8A
:103B600001F0D7FD0348059968E00000F44F0020FC
:103B7000843000201035002053656E736F726C65C1
:103B800073732074756E696E672053544F2026201E
:103B9000504C4C0053656E736F726C657373207478
:103BA000756E696E672053544F202620504C4C2070
:103BB000284175782900000053544F202620504C8E
:103BC0004C00000053544F00473100006036002085
:103BD0002536640047320000504C4C204B5000000A
:103BE000504C4C204B490000894401085265762016
:103BF00075702074756E696E67000000447572619F
:103C000074696F6E00000000456E6420737064007C
:103C1000456E6420497100005374616765000000BF
:103C2000253364006D73000072706D00614C0108F3
:103C30009D4C0108F14C0108154D010801F069FD8A
:103C40000748E16B01F065FD216A06484862616A38
:103C5000486207B00248BDE8F04F01F0EEBD000039
:103C600010350020894401082DE9F04FD148DFF8D4
:103C7000488387B0006800250169D8F85800884754
:103C800007460A240026B4EB177F09D1282002F04A
:103C900011FF0023C94ACAA1009602F0D3FE0546CF
:103CA000C7F303600A2809D1282002F003FF00238C
:103CB000C24ACBA1009602F0C5FE0546282002F0BC
:103CC000F9FEBE4BCDE9003414210291A3465A23DC
:103CD0009122CDA102F014FE0646282002F0EAFE51
:103CE0000F21009105233246C8A102F0ABFE8146A8
:103CF000382002F0DFFE1E2105220096CDE90121C9
:103D0000AD49DFF8B8A280390AF1A80A097806237C
:103D10000AEB8111BEA22C3101F056FBC8F820003D
:103D20004446282002F0C6FE0F210091502332465F
:103D3000B8A102F087FE8046382002F0BBFE1E21AB
:103D400050220096CDE901219B4906238039B0A27B
:103D500009780AEB81112E3101F036FB606200F028
:103D600085F92946954801F0D4FC3146934801F085
:103D7000D0FC4946914801F0CCFC9048216A01F002
:103D8000C8FC41468D4801F0C4FC8C48616A01F0D2
:103D9000C0FC8A48616C01F0BCFC8848A16C01F051
:103DA000B8FC8648E16C01F0B4FC8448616D01F018
:103DB000B0FC0021E06C01F024FC8048216D01F092
:103DC000A8FCBBEB177F7DD1282002F073FE7B4A55
:103DD00000927323CDE901B34B2340F227128EA149
:103DE00002F08EFD0546282002F064FE4FF0140814
:103DF0000A232A468CA1CDF8008002F023FE03900E
:103E0000382002F057FE4FF050096B4FCDE90059B2
:103E1000803FCDF80880397856460AEB8111062399
:103E20007BA2343101F0D0FA47F6FF720021206303
:103E300001F09AFA282002F03DFE4FF0230A0A23EF
:103E40002A467CA1CDF800A002F0FCFD8346382074
:103E500002F030FE8DE820063978062306EB81114A
:103E60006BA2363101F0B0FA6063282002F022FE26
:103E7000322100910A232A4670A102F0E3FD04904A
:103E8000382002F017FE32210095CDE901913978F2
:103E9000062306EB81115EA2383101F095FAA0638A
:103EA000282002F007FEB4232A4666A1CDF8008040
:103EB00002F0C8FD0590382002F0FCFDE622CDF8A6
:103EC000088000E06BE0CDE900523978032306EB6F
:103ED00081115EA23A3101F077FAE0633548222180
:103EE00000680268A06D9047421E0021E06B01F05F
:103EF0003BFA282002F0DEFD8C232A4654A1CDF89F
:103F0000008002F09FFD8146282002F0D3FD8C2323
:103F10002A4650A1CDF800A002F094FD39788046E1
:103F200006EB811090F83A20A06D00F08BFBE16B5E
:103F300049484862216B49484862616B4848486279
:103F4000A16B4848486249461C4801F0E2FB4146E3
:103F50001A4801F0DEFB2946184801F0DAFB174841
:103F6000039901F0D6FB1548216B01F0D2FB5946AD
:103F7000124801F0CEFB1148616B01F0CAFB0F48FB
:103F8000049901F0C6FB0D48A16B01F0C2FB0B4880
:103F9000059901F0BEFB0948E16B01F0BAFB216A0B
:103FA00031484862616A486207B00448BDE8F04F92
:103FB00001F043BCF44F002084300020B8350020CD
:103FC00053656E736F726C6573732074756E696E72
:103FD000672053544F202620434F5244494300004A
:103FE00053656E736F726C6573732074756E696E52
:103FF000672053544F202620434F524449432028E2
:10400000417578290000000053544F0047310000EB
:1040100025366400473200005265762075702074A2
:10402000756E696E670000004475726174696F6E29
:1040300000000000456E642073706400456E6420CB
:104040004971000053746167650000002533640006
:104050006D73000072706D00614C01089D4C010889
:10406000F14C0108154D0108894401083EB528208E
:1040700002F020FDA0232349CDE90013142202926F
:104080005A23912220A102F03BFC214C606428209D
:1040900002F010FD0F21009105231EA1626C02F0B9
:1040A000D1FCA064402002F005FD0521626CCDE941
:1040B000002104F160011E25A1F1E00202951278B1
:1040C000062301EBC20117A2091D01F021FEE064E5
:1040D000302002F0EFFC41210091052312A1626C17
:1040E00000F068FF2065282002F0E4FC00953C23E6
:1040F00010A1626C02F0A6FC6065216D0E4848625A
:104100003EBD0000843100204D6F6E69746F7200F7
:10411000843000204D65617375726564207370652D
:10412000656400002536640053746172742F537403
:104130006F70000072706D008143010870B53149E5
:104140000024096809698847010E0E074FF009012C
:104150004FF00A024FF002034FF001050ED0B1EB11
:10416000107F03D1C0F303660A2E17D0B2EB107F85
:1041700015D1C0F30366092E10D010E0B1EB107F0B
:1041800000D10124B2EB107F00D10224B5EB107FE7
:1041900002D0B3EB107F33D1032431E00624B1EB1E
:1041A000107F05D1C0F3036102290BD0012909D08A
:1041B000C0F30361092906D1B3EB107F02D0B5EB40
:1041C000107F00D10424B2EB107F05D1C0F303614E
:1041D00002290BD0012909D0C0F303610A2906D1B5
:1041E000B3EB107F02D0B5EB107F00D105240B217B
:1041F000B1EB107F04D1C0F30360092800D107247C
:10420000204670BDF44F002010B5274801F0E3FAB6
:104210002548A83001F0DFFA244801F0DCFA2348F1
:10422000A83001F0D8FA224801F0D5FA2048A83089
:1042300001F0D1FA1F49002048608860C860086119
:1042400048618861C861086248628862C862086320
:1042500048638863C863086448648864C864086500
:1042600048658865C865086648668866C8660867E0
:1042700048678867C8678031086048608860C860A0
:10428000086148618861C861086248628862C862E2
:10429000086348638863C863086448648864C864C2
:1042A0000865486510BD000070320020C033002052
:1042B0001035002004300020034807210068C26840
:1042C0000248806D10470000F44F00208430002029
:1042D00010B50C46FFF798FF062C1CD2DFE804F05F
:1042E00003070B0F1317BDE81040FEF7F3B8BDE846
:1042F0001040FEF7D5B9BDE81040FEF77FBCBDE821
:104300001040FEF711BFBDE81040FFF72DBABDE821
:104310001040FFF7A9BC10BD2DE9F04781461648B3
:104320000E46134FDFF84C80002400EB8615395DF4
:10433000832908D0D8F80000026848469047411CFD
:1043400001D025F81400641CE4B2202CEFD3D8F877
:1043500000000421026848469047084941F83600A9
:1043600095F83A2031464846BDE8F04700F06AB972
:10437000C0A00108F44F002060360020E430002087
:104380002DE9F05F3A4A3B4F3B4E1178A7F1400CC4
:1043900001EB4105336817F8258002F180040CEB2E
:1043A0008110B8F1000F06D007EB8501C97859B12B
:1043B000012955D10EE082882D485B68E03050F825
:1043C0003110A06D98474BE0B0F91820B0F91410E7
:1043D0001B6A43E0E3469246B0F93E0003F0BDFBA2
:1043E000264A274B03F0E4FB0022264B03F02EFA6B
:1043F00003F0A0F80F469AF8001005460BEB811960
:10440000B9F93C0003F0A9FB2A463B4603F0D0FB78
:1044100003F074FB0FFA80F8B9F93E0003F09DFB3E
:10442000164A174B03F0C4FB0022164B03F00EFA9A
:1044300003F0E0F80F469AF8001005460BEB8110E8
:10444000B0F93C0003F089FB2A463B4603F0B0FB81
:1044500003F054FB01B230684246036AA06D9847EE
:1044600030680621C268A06DBDE8F05F104700000B
:1044700004300020A0360020F44F00201F85EB51AF
:10448000B81E0940008066400B4B0A4609491B785C
:10449000008D01EB8311401AC0F347010748415CCE
:1044A000832906D006480068836803488030806D01
:1044B000184770476036002004300020C0A0010873
:1044C000F44F00202DE9F041284E11F0FF05284956
:1044D000307800EB400001EB8000057140D00021F6
:1044E000224C8034A06801F08CF8C5B30021E0684C
:1044F00001F087F8FDB11E4F3078403F07EB801088
:10450000B0F91C104184C28B8284028CC284A068E2
:1045100000F00EFE307807EB8010B0F92410E06850
:1045200000F006FE606930B1317807EB8111B1F916
:10453000261000F0FDFDA068012680F82060E068EC
:1045400080F820606069002807D06DB15FF000013D
:1045500001F057F8606980F82060BDE8F08101E063
:104560000121BDE70121C2E70121F1E7043000206C
:10457000A036002070B50D46FFF786FF0D480E4AA5
:10458000017801EB410002EB8000007900280FD098
:10459000084C8034606900280AD0403A02EB81114F
:1045A000CD84294600F0EAFD6069012180F82010E1
:1045B00070BD000004300020A036002010B50C466D
:1045C000FFF762FF0C480D4A007800EB400102EB58
:1045D0008101097900290ED0A2F1400101EB801080
:1045E00021468484044C8034E06800F0C7FDE06814
:1045F000012180F8201010BD04300020A0360020DA
:1046000010B50C46FFF740FF0C480D4A007800EB50
:10461000400102EB8101097900290ED0A2F140018D
:1046200001EB801021464484044C8034A06800F0E3
:10463000A5FDA068012180F8201010BD04300020E5
:10464000A0360020F8B51546094A02EB8114094945
:1046500004F1380200920968931E121F8E692946E0
:10466000B047E08E00EB40004000E086F8BD00005F
:1046700060360020F44F002038B51546094A06235D
:1046800002EB8112B2F9361091FBF3F10BB2B2F9E1
:10469000381000910449928E09684C692946A04758
:1046A00038BD000060360020F44F00202DE9F041B5
:1046B000164A054610461649007802F1800400EBC0
:1046C000400001EB80019368124E134FA06D9D4294
:1046D0000BD193F830504D70FFF730FD56F82000A5
:1046E0000021425D3868C3690BE0D26892F830500F
:1046F0008D70FFF723FD56F820000121425D3868D8
:10470000C369E06DBDE8F0411847000004300020A7
:10471000A036002094A00108F44F0020034808218F
:104720000068C2680248806D10470000F44F002006
:10473000843000202DE9F05F3E4D3F4ADFF8FCA0B9
:104740002878A2F1400600EB400102EB810305F15D
:104750008004DB7806EB8010F3B3012B68D1B146FF
:10476000A846B0F93E0003F0F8F9DFF8D4B0354BB5
:104770005A4603F01DFA0022334B03F067F802F0AB
:10478000D9FE0F4698F80010054609EB8116B6F9D8
:104790003C0003F0E2F92A463B4603F009FA03F035
:1047A000ADF907B2B6F93E0003F0D7F95A46254BEA
:1047B00003F0FEF90022244B03F048F802F01AFF40
:1047C0000E4698F80010054609EB8110B0F93C0040
:1047D00003F0C3F92A4600E00AE0334603F0E8F9A3
:1047E00003F08CF901B2DAF800003A46036A09E0F6
:1047F00012F82110114A136841B1B0F91820B0F92C
:1048000014101B6AA06DBDE8F05F18471969574680
:10481000A06D884780060BD52878412106EB8010D3
:10482000B0F9182038688368A06DBDE8F05F1847BC
:10483000BDE8F09F04300020A0360020F44F002097
:104840001F85EB51B81E0940008066402DE9F05FDE
:104850003449354BDFF8D4900878A3F1400400EBDD
:10486000400203EB820201F1800AD27804EB80104F
:10487000F2B3012A53D18846B0F93E0003F06DF936
:10488000DFF8ACB02B4B5A4603F092F900222A4BCA
:1048900002F0DCFF02F04EFE054698F800000F46DD
:1048A00004EB8016B6F93C0003F057F92A463B4664
:1048B00003F07EF903F022F907B2B6F93E0003F0E7
:1048C0004CF95A461B4B03F073F900221A4B02F0C5
:1048D000BDFF02F08FFE054698F800000E4604EB7F
:1048E0008010B0F93C0003F038F92A46334600E066
:1048F0000DE003F05DF903F001F901B2D9F8000011
:104900003A46036ADAF85800BDE8F05F1847B0F994
:104910001820B0F91410D9F80000036AF2E7BDE8D6
:10492000F09F000004300020A0360020F44F00204B
:104930001F85EB51B81E0940008066402DE9F05FED
:10494000454D464A2878A2F1400400EB400102EBB5
:10495000810104EB8010C97829B101294AD1B0F94D
:104960001410E9B34AE0A846B0F93E0003F0F5F8A8
:10497000DFF8EC90DFF8ECA04A46534603F018F954
:10498000DFF8E4B000225B4602F060FF02F032FE86
:10499000074698F800000D4604EB8016B6F93C0077
:1049A00003F0DBF83A462B4603F002F903F0A6F8D1
:1049B000B082B6F93E0003F0D0F84A46534603F001
:1049C000F7F800225B4602F041FF02F0B3FD064615
:1049D00098F800000D4604EB8014B4F93C0000E0A8
:1049E0000AE003F0BAF832462B4603F0E1F803F090
:1049F00085F82083BDE8F09F028B42B3B0F9180020
:104A0000494300FB001003F00DFC02F043FE03F0ED
:104A1000EDFB297804EB8116B087B6F9140003F09A
:104A200001FC0746B6F9180003F0FCFB01463846C6
:104A300002F052FC0D4903F00DFC0D4903F014FB8C
:104A400003F0D4FB297804EB8111C887D2E7002159
:104A500081875A21C187CDE704300020A03600208D
:104A60001F85EB51B81E09400080664000003443AA
:104A7000C3F548402DE9F041204D224E05F1800458
:104A80002978686801EB41021D4990F8300001F86F
:104A90002200012807D001211B4800F0E3FD306807
:104AA0000122836825E0306802210268A06D9047EA
:104AB000C0B930680921C268A06D904730682921CB
:104AC0000268A06D90470E4F2978403F07EB811197
:104AD000888230682A210268A06D9047297807EB08
:104AE000811108830021084800F0BCFD30680022D5
:104AF0008368A06DBDE8F041032118470430002011
:104B0000A0360020F44F0020C03300200948084997
:104B1000007801EB80118A880649E03151F83010A5
:104B200005480068436803488030806D18470000DE
:104B30006036002004300020F44F00202DE9F041C1
:104B40003B4C3C4F04252078A7F1400600EB400089
:104B500007EB800047F6FF78C07810B1012836D106
:104B60003EE035A1206E01F068FF35A1E06E01F056
:104B700064FF2178606E06EB811202F1140180F867
:104B800033508162216F18322F4E81F833508A6280
:104B900045464246314600F0E7FB2A463146206F43
:104BA00000F0E2FB207800EB400017F8200050B93D
:104BB0002648006801691E488030806D884780065D
:104BC00001D4002100E00121206F00F01AFD616E88
:104BD000012081F82000216F81F82000BDE8F081DC
:104BE0001BA1206E01F029FF1BA1E06E01F025FF43
:104BF0002178606E06EB811202F13C0180F833509F
:104C00008162236F891C424683F8335099620021E8
:104C100000F0AAFB40F267120021206F00F0A4FB15
:104C2000207800EB400017F820000028CBD1C8E71F
:104C300004300020A03600204971207265662E00E5
:104C40004964207265662E000180FFFFF44F00204A
:104C5000416D702E202020004570732E4465670042
:104C600008460D4910B50B4A09780B4C02EB81122E
:104C700080345087C2B2A06DFFF7E4FC216B0120A5
:104C800081F82000616B81F82000A16B81F8200081
:104C900010BD000060360020043000200748064A9E
:104CA000007802EB801291860146044892F83A207F
:104CB0008030806DFFF7E0BC6036002004300020BB
:104CC000094910B508488039084A0978C06901EBDC
:104CD000410102EB810190F83000C870FFF72EFE11
:104CE000BDE81040FFF72ABF84300020A036002026
:104CF0000748064A007802EB8012D1860146044834
:104D000092F83A208030806DFFF7B6BC6036002004
:104D1000043000200748064A007802EB8012118711
:104D20000146044892F83A208030806DFFF7A4BC19
:104D30006036002004300020014600200A5C401C40
:104D4000C0B2002AFAD17047F8B50446406A00287C
:104D5000204615D001F050FA0646204601F02AFA06
:104D60000546204601F0C5F90746204601F0C1F985
:104D700081B200963A0C2B46606A00F053FBF8BDF6
:104D8000BDE8F84001F01DBA2DE9F04106AD1E4620
:104D900017460C4695E80E0000F03AFC0546074819
:104DA000286032463946284601F0FDF96C6214B19C
:104DB000012085F820002846BDE8F08190C0010858
:104DC00001F073BE10B5002400F0E9F800B1012431
:104DD000204610BD70B5426A0D4604464AB194F8AB
:104DE0002C0030B12DB994F8210010B100212046DB
:104DF000904784F82C5070BD70B5002405460529F5
:104E000006D10021FFF7E6FF284601F091F90124C1
:104E1000284600F0C4F800B10124204670BD2DE9F9
:104E2000FC5F0646C069C1888588891D8CB2B06A5E
:104E3000FBF74CFC4543ED1DA9B22246304601F07C
:104E4000B2F9304601F055F985B2304601F051F91A
:104E5000040C304601F0D0F9801E87B2304601F0D4
:104E6000A9F9801E1FFA80F8B6F81A90304601F0B2
:104E7000C3F90190304601F09DF98346304601F0B8
:104E800038F98246304601F034F94FEA1A4180B2CF
:104E9000CDF800905A46019B00F062FB304600F0CE
:104EA0007EF840B3304601F024F9801C85B23046CC
:104EB00001F01FF90014801C84B2B6F81A90304635
:104EC00001F09AF9401E82B2CDF80090A4F10109D8
:104ED000681E1FFA89F180B2012300F01FFBB6F8AB
:104EE0001AA0304601F066F9801E82B21FFA89F1DD
:104EF000CDF800A011E0708B0090601C81B205EB32
:104F0000080080B201233A4600F008FB708B009045
:104F100008F1020082B2E01981B20023284600F0B5
:104F2000FDFA708B00903B4642462146284600F031
:104F300017FB308B0090F81E82B2A01C814681B214
:104F4000A81C80B2012300F0E9FA96F8210008B10C
:104F50001F2000E0308B0090A8F1020082B2BF1E3B
:104F6000641C681CBBB2A1B280B200F0F9FAB26A4C
:104F7000ED1C02B01FFA89F1A8B2BDE8F05F00F0A5
:104F80002DBB10B504460020052907D1012120467C
:104F9000FFF720FF204601F0CBF8012010BD90F86C
:104FA0002C1021B190F8210008B101207047002099
:104FB0007047000070B51C4616460D462246314625
:104FC000049B00F025FB084901600021416280F844
:104FD0002C100446012100F014FB0121A56220469B
:104FE00084F8201070BD0000B4C0010801F05DBD60
:104FF00010B5C36A0C4603B911A390F83310062903
:1050000019D2DFE801F0180303070B0F00F063F873
:1050100002460AE000F05FF882B206E000F05BF8BA
:1050200002B202E000F057F8C2B22046BDE81040DC
:105030001946FBF721B900F04EF842B2F5E700003F
:105040002564000070B50E460446002500F0A4FD5E
:1050500028B3A06A10B3012E02D0022E1ED10DE09B
:1050600094F83200218EFF280144218602D0401C92
:1050700084F83200204600F05DF90CE094F832002C
:10508000218EFF280144218602D0401C84F8320082
:10509000204600F006F8204601F04AF8012528468F
:1050A00070BD10B5034600F016F80146B3F93000A4
:1050B000B3F93420091A8A4206DD8010188693F865
:1050C0003200800883F8320093F83300BDE81040C6
:1050D000184600F02DB890F83310806A06290DD2DA
:1050E000DFE801F00C030305070A00687047008839
:1050F0007047B0F9000070470078704790F90000E1
:10510000704770B50E460446002500F045FD00B11D
:105110000125052E08D194F8230038B1002084F829
:105120002300204601F004F8284670BD0120F6E770
:1051300010B50346806A00281FD0B3F934208A4294
:105140001BDCB3F936208A4217DB93F83320022A9E
:1051500004D0042A04D049B2017002E0016000E0EA
:105160000180586A002808D01846FFF7B4FF5A6A31
:105170000146BDE810401846104710BD10B5034663
:10518000806A002814D09A8E8A4211D8DA8E8A4218
:105190000ED393F833200170586A002808D01846BF
:1051A000FFF799FF5A6A0146BDE8104018461047BC
:1051B00010BD2DE9F0418AB00446202101A8FBF77B
:1051C000A4FA658B204601F017F88046204600F0CF
:1051D000F1FF0646204600F08CFF0746204600F00F
:1051E00088FF390C80B243463246009500F0B8F98A
:1051F000258B204601F000F8C01E87B2204600F043
:1052000078FF0646204600F074FF3114891C801C8C
:1052100089B280B201233A46009500F07FF994F8F4
:105220002100A0B1204600F0E7FF801E87B2204693
:1052300000F0C0FF801E86B2204600F05AFF0546EF
:10524000204600F056FF1F210091291414E0258B01
:10525000204600F0D1FF801E87B2204600F0AAFF52
:10526000801E86B2204600F044FF8046204600F0B3
:1052700040FF4FEA28410095491C401C89B280B28A
:105280003B46324600F06CF9204600F085FC50B1F8
:1052900094F8210038B14FF6E070ADF80000BDF889
:1052A0000000FCF759FA94F8220038B947F6FF706D
:1052B000ADF80000BDF80000FCF74EFAA06A002827
:1052C00012D001A92046FFF793FE204600F011FFFF
:1052D0000546204600F00DFF2914891CC01C89B228
:1052E00080B201AA00F07AF90AB0BDE8F08170B589
:1052F0000E460446002500F04FFCC8B1A06AB0B1CC
:1053000000200121012E02D0022E10D106E02186BC
:1053100084F83200204600F00DF805E0218684F87C
:1053200032002046FFF7BDFE204600F001FF0125B8
:10533000284670BD10B50346FFF7CDFE0146B3F910
:105340003000B3F9362001448A4206DA801018860C
:1053500093F83200800883F8320093F83300BDE8F8
:1053600010401846FFF7E4BE8186C28670470000F1
:105370002DE9F04106AC1D4617460E4694E80E0096
:1053800000F014FC0F4901600221044680F833103C
:105390000121C4E90A670186C069C1888088091DA6
:1053A00068438AB2401D81B2204600F0FCFE48F2FC
:1053B0000101A186891EE186002120466162BDE8C7
:1053C000F0810000DCC001082DE9F04106AC1D466B
:1053D00017460E4694E80E0000F0E8FB0F49016006
:1053E0000421044680F833100121C4E90A670186CC
:1053F000C069C1888088091D68438AB2401D81B296
:10540000204600F0D0FE48F20101A186891EE18607
:10541000002120466162BDE8F0810000DCC0010887
:1054200001F043BB38B5049C0094FCF7E1F838BDAB
:105430002DE9FC410F461249DDF820801C46098801
:105440001600A1EB0000A0F1010085B216D001A961
:105450006846FCF7B5F84046FCF7BAF907E038466D
:10546000791C8FB2002332462946FCF76FF8641E80
:10547000A4B2F4D2BDF80000FCF7AAF9BDE8FC81A3
:105480004A31002010B5FCF715FF4FF6FF74204697
:10549000FBF7A6FF2046FCF75FF9BDE810400020AF
:1054A000FCF796B92DE9F04190460E4604460546B4
:1054B000FCF794F8184F012803D13888001B401ED0
:1054C00085B2FCF785F8808839882044884221D845
:1054D000FCF77EF88088062804D1FCF779F8C088AC
:1054E000082806D0424629463046BDE8F041FBF781
:1054F000D5BFFCF76DF80468FCF76AF88188A8F15D
:105500002000414304EB4102F0B22946BDE8F041DE
:10551000FCF71AB8BDE8F0814A3100202DE9FC41C2
:105520000E460E49984614460988089F081A401EE0
:1055300085B201A96846FCF743F83846FCF748F9FC
:1055400034B1641EA2B2434629463046FBF7FEFF43
:10555000BDF80000FCF73CF9BDE8FC814A310020B1
:105560002DE9FC4188461C49089F1C460988150006
:10557000A1EB0000A0F1010086B22BD0002C29D0B5
:1055800001A96846FCF71CF83846FCF721F96F1EA4
:10559000BAB2002331464046FBF7D8FF08EB0400BF
:1055A000401EBAB280B200233146FBF7CFFF601E27
:1055B00082B2012331464046FBF7C8FF701B401CF6
:1055C00081B2012322464046FBF7C0FFBDF8000030
:1055D000FCF7FEF8BDE8FC814A31002070B51446A6
:1055E0000E46054609E031462846FFF75BFFFBF70C
:1055F000EFFF8088641C284485B22278002AF2D10B
:1056000070BD80F82210002901D180F82110704768
:105610002DE9FF411F46944600240D4606462346C9
:105620003A46614601A8009400F04AFD0246294628
:10563000304600F01DFE0449016080F8224080F8E9
:10564000214004B0BDE8F08100C1010801F02DBA8D
:1056500000224274002904D090F82120002A00D0B2
:105660004174704780F82110002900D141747047BF
:1056700000F0A7BD70B50C4600F0D2FD0546094804
:10568000286054B1204600F0B7FD0246A089218968
:10569000401A81B2284600F086FD012085F82100DD
:1056A000284670BD24C101082DE9F04186B00F469F
:1056B000DDE90C4580461E46114602A800F0F6FCC6
:1056C0000246334639464046CDE9004500F0FCFD30
:1056D00003490160012180F8211006B0BDE8F08186
:1056E00024C1010810B500F015FE03490160012135
:1056F00080F8211010BD000024C1010870B50D46CE
:10570000044600F025FE95F8210084F8210020468B
:1057100070BD002909D0B0F8A620202A05D200EBE0
:105720008203521CA0F8A6205962704770B50C463F
:10573000054600F01DF801684A6921469047002897
:1057400007D1012C06D0022C03D1284600F075F8B1
:10575000012070BD284600F08BF8F9E710B50B4624
:1057600000F006F801688A69BDE810401946104744
:10577000B0F8A620B0F8A4108A4203D900EB81004B
:10578000406A70470020704770B50446B0F8A60024
:105790000E46B0421ED92046FFF7EAFF002580F8EA
:1057A00021502046FFF7E4FF00F0C2FCA4F8A460FB
:1057B0002046FFF7DDFF80F8215090F822200121DC
:1057C0000AB180F821102046FFF7D2FFBDE87040F3
:1057D00000F0AEBC70BD70B50546002408E005EBD6
:1057E0008400406A10B1016849688847641CE4B2CB
:1057F000B5F8A600A042F2D8002025F8A40F6880D2
:1058000070BD70B5054690F8200010B1284600F034
:105810008FFCB5F8A60000280ED0002408E005EBA8
:105820008400406A90F8201009B100F081FC641CEB
:10583000B5F8A600A042F2DC70BD30B4B0F8A630D6
:10584000002B13D0B0F8A4100A46491C8B4200D894
:1058500000218A4206D000EB8104646A94F8224059
:10586000002CF2D030BC89B2FFF78EBF30BC70473D
:1058700030B4B0F8A620002A12D0B0F8A4100B461D
:1058800001B91146491E8B4206D000EB8104646ABF
:1058900094F82240002CF3D030BC89B2FFF774BFDB
:1058A00030BC704770B5044600F08BFCB4F8A6001D
:1058B00000280BD0002505E004EB8500406A00F0CD
:1058C00037FC6D1CB4F8A600A842F5DC70BD70B5BD
:1058D0000C460546FFF74CFF01680A6921469047D0
:1058E000002807D1012C06D0022C03D12846FFF74F
:1058F000A4FF012070BD2846FFF7BAFFF9E70000BA
:1059000010B5FFF7B7FE044901600021A0F8A4100C
:10591000A0F8A610417410BD48C1010870470020CE
:10592000704770B504460020052911D194F82C0069
:1059300078B10025626A2AB194F8210010B1294695
:1059400020469047204684F82C5000F0F1FB0120BF
:1059500070BD0125EEE700002DE9F8430446C0695B
:10596000C1888688091D8DB2A06AFAF7AFFE401C77
:1059700046430936B1B22A46204600F014FC658B36
:10598000204600F039FC8046204600F013FC064615
:10599000204600F0AEFB0746204600F0AAFB390C7B
:1059A00080B2434632460095FFF7DAFD94F82C00AA
:1059B000002820460CD000F09CFB0546204600F055
:1059C00098FB2914491C001D89B280B260A20BE02B
:1059D00000F08FFB0546204600F08BFB2914491C84
:1059E000001D89B280B25BA2FFF7F8FDE069258B4C
:1059F000C788204600F07DFB0646204600F079FB74
:105A00003114891CC01C89B280B201233A4600952A
:105A1000FFF784FDE069258BC088401C87B22046D3
:105A200000F067FB0646204600F063FBE1690123B6
:105A30003A46898800950844801D1FFA80FC30147E
:105A4000801C81B26046FFF769FDE069258BC08844
:105A5000401C87B2204600F04CFB0646204600F072
:105A600048FBE16901233A46898800950844401DB6
:105A70001FFA80FC3014801C81B26046FFF74EFD97
:105A8000658B204600F0B8FB001F87B2E069808874
:105A9000C01C86B2204600F02CFB8046204600F059
:105AA00028FB4FEA2841891C801C89B280B23B4602
:105AB00032460095FFF754FD94F82100A0B120462E
:105AC00000F09AFB801E87B2204600F073FB801E18
:105AD00086B2204600F00DFB0546204600F009FB8B
