:020000040803EF
:10000000C86E0020850203085D521A00C102030871
:100010009102030893020308950203080000000000
:10002000000000000000000000000000970203082C
:1000300099020308000000009B0203089D020308C8
:100040009F0203089F0203089F0203089F02030800
:100050009F0203089F0203089F0203089F020308F0
:100060009F0203089F0203089F0203089F020308E0
:100070009F0203089F0203089F0203089F020308D0
:100080009F0203089F0203089F0203089F020308C0
:100090009F0203089F0203089F0203089F020308B0
:1000A0009F0203089F0203089F0203089F020308A0
:1000B0009F0203089F0203089F0203089F02030890
:1000C0009F0203089F0203089F0203089F02030880
:1000D0009F0203089F0203089F0203089F02030870
:1000E0009F0203089F0203089F0203089F02030860
:1000F0009F0203089F0203089F0203089F02030850
:100100000000000000000000000000009F02030843
:100110009F0203089F0203089F0203089F0203082F
:100120009F0203089F0203089F0203089F0203081F
:100130009F0203089F020308000000000000000067
:100140009F0203089F0203089F02030800000000AB
:10015000000000000000000000000000000000009F
:1001600000000000000000009F0203089F02030837
:100170009F020308000000000000000000000000D3
:10018000000000009F02030800F002F800F06AF887
:100190000AA090E8000C82448344AAF10107DA45E2
:1001A00001D100F05FF8AFF2090EBAE80F0013F0CA
:1001B000010F18BFFB1A43F00103184788C1000064
:1001C000A8C10000103A24BF78C878C1FAD85207F5
:1001D00024BF30C830C144BF04680C6070470000C1
:1001E0000023002400250026103A28BF78C1FBD840
:1001F000520728BF30C148BF0B607047692900F023
:100200000181642900F0FE80752900F0FB806F29D0
:1002100000F09281782900F0B9810368DB0928BFDA
:1002200041F08001632900F0E683E32900F0F983BF
:10023000002070471FB508F001F99DE8030000F0A9
:1002400051FC00F005FD04000020002107F086FCB1
:10025000401C606000F0D4FA1FBD10B5002006F00D
:1002600099FD10BD00F0CEFC1146FFF7E3FF07F04B
:1002700070FC00F00FFD03B4FFF7EFFF03BC00F0CC
:10028000BBFC00000948804709480047FEE7FEE73D
:10029000FEE7FEE7FEE7FEE7FEE7FEE7FEE7FEE736
:1002A00004480549054A044B70470000FD25030832
:1002B00089010308F8660020C86E0020C86E00207F
:1002C00000B5FFB441464A4653465C4665463EB4D7
:1002D0000D496A460A600D4908600D4988473EBCD1
:1002E000884691469A46A346AC46FFBC00BD0648E8
:1002F00001688D463EBC884691469A46A346AC4668
:10030000FFBC044800BD0000F07F0020F47F002007
:1003100091010308F0BB03080FB41CB5074B06AAF4
:100320007B4469460090059800F043FB0020694635
:1003300000F052FB1CBC5DF814FB0000B506000089
:1003400070B5044685690068C10601D5302600E015
:100350002026C00707D070BDD4E901213046904760
:10036000206A401C20626D1EF6D570BD70B5044633
:1003700085690078C00707D170BDD4E9012120202C
:100380009047206A401C20626D1EF6D570BD09683A
:100390004A0501D540B27047C905FCD500B2704787
:1003A00009684A0501D5C0B27047C905FCD580B2BD
:1003B000704770B50C460546012A05D0287880069E
:1003C00000D5EA69002302E0012305E05B1C9342AB
:1003D00002D2E05C0028F9D1A869E618C01AA86129
:1003E000286A184428622846FFF7AAFF04E0D5E9E6
:1003F000012114F8010B9047B442F8D32846FFF7C7
:10040000B5FF70BD2DE9F04106460024106875293E
:10041000314616A510D0FFF7BAFF002802DA404295
:1004200013A507E031688A0701D512A502E0490744
:1004300004D511A5012401E0FFF7B2FF00210A2233
:1004400006F1240709E0B0FBF2FCB0FBF2F302FB7B
:100450001C00303078541846491C0028F3D123463C
:100460002A463046BDE8F04100F045BA00000000E1
:100470002D0000002B000000200000002DE9FF5F90
:1004800015468A460446DFF8AC80F8440027D8E9D0
:1004900000103E46CDE9001010E03AF816106A460A
:1004A00002A800F0CAFA411C07D02178890603D5BA
:1004B000E269391891420DD80744761C20788006ED
:1004C00002D5E069B84205DDAE42E6DB3AF8160037
:1004D0000028E2D1A069C01BA0612046FFF730FFD1
:1004E000D8E90010CDE90010002017E03AF8181004
:1004F0006A4602A800F0A1FAB0F1FF3F81460BD096
:1005000000250DF1080B05E0D4E901211BF80500D9
:1005100090476D1C4D45F7D308F10100B04280466D
:10052000E4DB206A384420622046FFF71FFFBDE865
:10053000FF9F000072B7000070B5044621461068A6
:10054000FFF72EFF002104F1240505E000F007026B
:100550003032C0086A54491C0028F7D120680023B3
:1005600008A2050708D500F02000084304D0E06980
:10057000012305A2401EE0612046BDE8704000F066
:10058000BAB90000000000003000000070B5044659
:100590000D4621461068FFF703FF2188090502D5A3
:1005A0000F4A7A4402E00E4A7A440E32002104F1E6
:1005B000240305E000F00F060009965D5E54491C17
:1005C0000028F7D120780023000704D5702D02D031
:1005D00009B1022311322046BDE8704000F08BB90A
:1005E00062B600002DE9F05F894604464FF0000A2C
:1005F000DFF874B1FB44C0F820A02046E1688847CA
:10060000002874D0252806D0D4E901219047206A1B
:10061000401C2062F1E700265F462046E1688847DB
:100620002028054607DB312D05D2781910F8200C5B
:1006300008B10643F1E7B00701D526F00406C4F877
:100640001CA00027C4F818A02A2D09D0284607F0BE
:1006500061FA38B304EB8708303DC8F8185019E048
:1006600059F8041B204604EB87029161E168884732
:10067000012F054618D1E069002820DA26F020066F
:100680001DE0D8F8180000EB800005EB4000303882
:10069000C8F818002046E1688847054607F03AFA8E
:1006A0000028EED1012F0AD02E2D08D12046E16876
:1006B00088477F1C0546022F46F02006C4DBA06950
:1006C000002803DA404246F00106A061F00701D09D
:1006D00026F010066C2D0BD0682D09D04C2D39D08A
:1006E0006A2D35D0742D35D07A2D33D016E038E010
:1006F000E1682F4620468847B842054609D16C2F4D
:1007000026D04FF48060E1680643204688470546BE
:1007100004E06C2F1AD04FF4807006430DB3A5F19E
:100720004100192802D8203546F400664A46294679
:10073000204626604E46FFF761FD80B101280BD0B0
:10074000F61D26F0070000F1080956E74020E4E70F
:100750008020D8E70020D6E706F104094DE72846B7
:1007600052E7206ABDE8F09F38B6000010B5431C80
:1007700002E010F8011B71B18107FAD14FF001328C
:1007800002C88C1A8C4314EAC211F9D0C01A0A06A6
:1007900003D0C01E10BDC01A10BD0A0401D0801EB7
:1007A00010BD0902FCD0401E10BD4FF0000200B584
:1007B000134694469646203922BFA0E80C50A0E884
:1007C0000C50B1F12001BFF4F7AF090728BFA0E832
:1007D0000C5048BF0CC05DF804EB890028BF40F8FE
:1007E000042B08BF704748BF20F8022B11F0804F40
:1007F00018BF00F8012B7047704770477047000022
:1008000070B5064C7C44064D7D4403E020682044CE
:100810008047241DAC42F9D170BD00006CBC0000C3
:100820006CBC000000487047CC6600200048704750
:10083000D066002070B5064600F034F9056806F170
:100840000B0020F00704B4429CBF002070BD2B4673
:100850006A68BAB11068A04210D304F10801884256
:100860003CBF5068586007D3516810194160116847
:10087000091B016058601460101D70BD134652685A
:10088000002AE7D12146284600F018F90028DED1D9
:1008900070BD70B50446051F00F004F90068002C17
:1008A00014BF446870BD002C18BFAC423CBF20464A
:1008B0006468F8D301680A18AA4218BF456003D1DA
:1008C0002A6805461144016028684119A1421CBFED
:1008D0006C6070BD6168696021680844286070BD03
:1008E00010B500F0E3F8006810BD10B5044600F044
:1008F000DDF8046010BD2DE9F0470D46994692469B
:10090000044600F124080168880604D5E06921F056
:100910001001216000E00120A84201DD471B00E03A
:100920000027A1697A1902EB0900081AA061207852
:10093000C00602D42046FFF703FD002608E0D4E9F4
:1009400001211AF806009047206A401C761C20629C
:100950004E45F4DB2078C0060AD52046FFF7F0FCB0
:1009600006E0D4E9012130209047206A401C206233
:10097000381EA7F10107F4DC07E0D4E9012118F8DB
:1009800005009047206A401C2062281EA5F1010541
:10099000F3DC2046FFF7EAFC2078000602D50220AF
:1009A000BDE8F0870120FBE701694A1C0261087875
:1009B000704700B58FB0CDE901310021059105499F
:1009C0007944CDE9031011466846FFF70BFE0FB0DE
:1009D00000BD0000E5FFFFFF0A6802F8010B0A6096
:1009E000704710B5436913B1AFF3008001E0FFF722
:1009F000E0FC012010BD127800F124010A700022F1
:100A00004A700122EDE711684FF0FF32E9E710B5B7
:100A1000436913B1AFF3008001E0FFF72FFD012020
:100A200010BD128800F1240182840022C2840122B8
:100A3000EDE711684FF0FF32E9E770B516460C4656
:100A4000054600F027F8036893F80101012806D055
:100A5000FF2C0FD8185D68B101202C7070BDD3F841
:100A600007013246214603F2071303442846BDE836
:100A7000704018474FF0FF3070BD10B500F06EF8B1
:100A8000BDE8104000F064B800F080B8004870473E
:100A90009866002010B500F0DBF8001D10BD00BF07
:100AA000BD70000000487047A066002000487047F5
:100AB00098660020704770477047704738B5044605
:100AC0000A4600206946AFF30080002808BF38BD01
:100AD00002460099204600F0C3F8012038BD0120ED
:100AE00000F0FFB8F8B5AFF30080054600200C46D3
:100AF000102000BF0646A819A0420DD9324669460B
:100B00000020AFF30080070008BF00F0EAF800986B
:100B1000A04218BF0546C419FFF7C4FF0560074689
:100B2000F01D20F007004619284600F00AF8B442EC
:100B300008BFF8BDA21B31463868BDE8F84000F098
:100B40008FB800210160C0E9011070471020704784
:100B5000002801D000F050B87047000010B5002107
:100B600002A000F0A5F8012010BD00005349475035
:100B700056464E3A205075726520766972747561DA
:100B80006C20666E2063616C6C65640010B500F0CB
:100B90000EF8016919B100220261884701E08068FE
:100BA000804700F07DF8000010B500F079F870B5CE
:100BB00000F052F804680546A4B92020FFF73AFE79
:100BC000040011D0094900202C60C4E90001084943
:100BD000A1602073206160610649A06109B100F045
:100BE00087F8E061204670BD00F05AF80000000070
:100BF000A90B03080000000001491820ABBEFEE766
:100C0000260002007546FFF741FFAE460500694623
:100C1000534620F00700854618B020B5FFF740FB8B
:100C2000BDE820404FF000064FF000074FF00008ED
:100C30004FF0000B21F00701AC46ACE8C009ACE86E
:100C4000C009ACE8C009ACE8C0098D467047000097
:100C500000487047B866002000487047D4660020FE
:100C6000034640688C46002818BF88423CBF0346B4
:100C70004068F8D318681844884207D00CF1030084
:100C800020F00700001D411A521A0146081D0A6093
:100C9000FFF7FFBD0446AFF300802046FFF7EBFAF5
:100CA000002000F04BF8FFF7D8FA0120FFF7A4FF6F
:100CB00070B505460C460A2000E06D1C00F036F8C1
:100CC00035B128780028F8D102E0641C00F02EF835
:100CD00014B120780028F8D1BDE870400A2000F057
:100CE00025B810B500F032F8BDE81040FFF730BF6E
:100CF00010B58820FFF79EFD002801D0002101706B
:100D000010BD802902D808B1017809B100207047D0
:100D1000012100F8081B704718B100F10802914248
:100D200001D00020704700210170704708B5694666
:100D30008DF800000320ABBE08BD704710B500F071
:100D40006DF8BDE81040FFF703BF000010B50128A3
:100D500005D0002103A0FFF7ABFF012010BD09A1C2
:100D6000F8E7000053494752544D454D3A204F751E
:100D700074206F662068656170206D656D6F727993
:100D8000000000003A2048656170206D656D6F724B
:100D90007920636F72727570746564004FF0013C66
:100DA00050F8042B51F8043B9A4221D1A2EB0C03DA
:100DB000934313EACC1317D150F8042B51F8043B9A
:100DC0009A4215D1A2EB0C03934313EACC130BD137
:100DD00050F8042B51F8043B9A4209D1A2EB0C03C2
:100DE000934313EACC13DBD04FF00000704700BFF1
:100DF000D01A01BAB1FA81F101F0180122FA01F01A
:100E0000CB40C1F12001DBB2C0B2C01A2CFA01F311
:100E1000D11A914311EAC311E6D1704710B50021F0
:100E200002A0FFF745FF012010BD000053494741D4
:100E30004252543A2041626E6F726D616C2074654B
:100E4000726D696E6174696F6E000000F0B50268C2
:100E5000867902F01F040121384B01FA04F422F0D4
:100E60001F05002E63D0364A1544D5F80064A6430A
:100E7000C5F80064056825F01F041444D4F8046420
:100E800005F01F0501FA05F5AE43C4F804640568D2
:100E9000047925F01F061E443444266805F01F051A
:100EA00001FA05F52E432660056825F01F04144459
:100EB000D4F8086405F01F0501FA05F5AE43C4F83F
:100EC0000864046824F01F051544D5F80C6404F088
:100ED0001F0701FA07F4A643C5F80C644479102CE7
:100EE0000BD0026822F01F0018442044036802F06F
:100EF0001F0291400B430360F0BD046824F01F0300
:100F00001344D3F8085404F01F0401FA04F42543F1
:100F1000C3F80854036823F01F001044D0F80C24D1
:100F200003F01F0399400A43C0F80C24F0BD007978
:100F3000E91808440168A1430160F0BD00040140C4
:100F400000000140F0B50022012603240D6806FAD6
:100F500002F31D409D422BD10D79012D01D0022DB0
:100F600013D18768550004FA05FC27EA0C0787604F
:100F70004F79AF4085682F43876085889D43858082
:100F800085888B7993401D4385800568570004FA56
:100F900007F39D4305600D79D0F800C0BD4045EAD8
:100FA0000C050560C5689D43CB79BB402B43C360EE
:100FB000521C102ACAD3F0BD4B07DB0E9A40C90859
:100FC00010B500EB8100016A0F249C40A14301622F
:100FD000016A1143016210BD02460020128A0A42D2
:100FE00000D0012070470AB18161704701857047C8
:100FF0002DE9F05F594CDFF868A18346C4E916017A
:10100000DAF80000164657460169584688470546F3
:101010003146544804F0B2FF304603F09FFF811977
:10102000504804F0F2FF50494E4805F05BF84E4935
:101030004C48A83105F056F84C494A4805F052F89A
:101040004A494848A83105F04DF84949454805F056
:1010500049F847494348A83105F044F8A4F1800015
:1010600000260670386803210268A06D9047C0B260
:10107000404F4FF00109012824D087F8009000214B
:101080003A4804F003FC7E7087F80290E06DB046A9
:1010900038B3DAF800105646A1460A681C2190477A
:1010A000C4B230681D210268D9F85C009047C6B20E
:1010B000D9F8580003F010F92F4A0146002052F8E1
:1010C00021100BE03E700121DAE7A24200D17870D6
:1010D0000A5CB24200D1B870401CC0B20A5CFF2A60
:1010E000F3D187F8038087F8048087F8058087F8B4
:1010F000068087F8078087F8088087F8098087F8D6
:101100000A8087F80B80584600F048F815491B48BC
:10111000C1F80C010021134804F052FF0920B0EB84
:10112000157F16D0C5F30360092812D0002110489E
:1011300004F0ACFB0A20B0EB157F0CD0C5F30360C4
:101140000A2808D00021BDE8F05F0948A83004F063
:101150009DBB0121EBE70121F5E700008460002041
:10116000F47F00204C6100205C620020AC63002012
:10117000FC6400208C660020A49D03086D440308D5
:1011800010B5054C204604F05FFF04F58270BDE801
:10119000104005F02DBD00004C610020002103F03F
:1011A00089B900002DE9F14FC54D0527C54EDFF87F
:1011B0001893DFF81883002405F1850A3068295D4B
:1011C00002681AF801100098904798F8003009EB6F
:1011D00083122B5D641CE4B222F81300BC42EDD3F1
:1011E000B74D01270024DFF8E4A2ED1E05F1010B45
:1011F0000AF1E00A3068295D02681BF801100098C6
:10120000904798F800200AEBC2012A5D641CE4B202
:1012100041F82200BC42EDD3454698F80000DFF8C3
:10122000A88200EB400108F140084FF0000A18F8CE
:1012300021000124E8BB306808210268009890472B
:1012400029784F4609EB8111888230680C210268A9
:10125000009890472A7800B207EB821102EB420314
:1012600008EB83020883D278012A35D1B1F9142022
:1012700002B9E8B312FB02F110FB001000EE100AF5
:10128000B8EEC00A05F025FDBDEEC00A287810EEC4
:10129000101A07EB80108187B0F91810B0F914000C
:1012A00000EE101AF8EEC00A00EE100AB8EEC00AFE
:1012B00000E019E005F00FFDDFED850A20EE200AC1
:1012C000DFED840A297880EE201A07EB8111BDEE4C
:1012D000C10A10EE100AC887686E08B180F8204075
:1012E000286F08B180F8204030680121026800E0D2
:1012F00027E00098904786B2070C56EA070008D00E
:101300007548B0F80001012803D00121724804F0AB
:1013100057FE686B58B306B1BFB1704804F03CFB90
:10132000696B884202D16D4804F09BFB686B4CF2FC
:101330001861428B8A421AD04183002104F075FA69
:1013400012E0A1F83CA05A20C5E700214183012109
:1013500004F06BFA614804F01FFB696B884203D00C
:1013600000215E4804F024FB686B80F82040287858
:10137000514600EB400208EB8200730680F805A09E
:101380004FF0020200D542717B0600D54471817195
:10139000F30600D58271FB0600D58471C171B306D6
:1013A00000D5C271BB0600D5C4710172F30700D02D
:1013B0000272FB0700D00472330600D502723B06AE
:1013C00000D504724172730700D542727B0700D5C5
:1013D00044728172B30700D58272BB0700D5847254
:1013E000C172310700D5C272390700D5C472696B6A
:1013F000F1B33349AA694379491D568B31F813304B
:101400009E4202D0538382F82040EA698379568B4A
:1014100031F813309E4202D0538382F820402A6A6A
:10142000C379568B31F813309E4202D0538382F831
:1014300020406A6A037A568B31F813309E4202D0FC
:10144000538382F82040AA6A437A568B31F81330CE
:101450009E4202D0538382F82040EA6A837A568BF8
:1014600031F813309E4202D0538382F8204000E0CE
:1014700009E02A6BC07A538B31F81000834202D006
:10148000508382F82040286908B180F820406869BC
:1014900008B180F820400D488030C06C08B180F859
:1014A0002040686D08B180F82040A86E08B180F82F
:1014B0002040686F002801D080F82040BDE8F88FF8
:1014C0004B9D0308F47F00204C6600200460002040
:1014D00000003443C3F548404C6100200463002001
:1014E00070B5064611480024406847281CD040F2D9
:1014F0003F11002000F0B4FA00F022FE4FF49635C0
:10150000304600F0F3FD641CAC42F9D3084C802156
:10151000204600F027FF0028F9D1BDE870400122E5
:101520001146044800F026B80021E2E7EC600020F4
:1015300000380040001000481CB50121480500F0AB
:10154000A1FE032101208DF8051000908DF8040004
:1015500000208DF80600064C8DF8070069462046ED
:10156000FFF7F0FC01221146204600F003F81CBDF5
:1015700000100048FFF737BD203AD3B2084A30B414
:101580005468472C03D1A1F23F11494289B29268B5
:101590001468D2885A4304EB420230BC00F002B80F
:1015A000EC6000202DE9F74F904600270646019990
:1015B00000F056FA1C4C31E000F0C2FD00254FF05F
:1015C0000C094FF0800A4FF0010B17E0B0FBF9F166
:1015D000CA000AFA02F138F817202941114201D154
:1015E0000C2805D90BFA05F10A4203D10C2801D9C0
:1015F000608800E0208800F079FD6D1CA06880887C
:10160000A842E3D8012211460848FFF7B3FF761C31
:10161000F6B23046019900F023FA7F1CA068C0881A
:10162000B842C9D8BDE8FE8FEC6000200010004829
:101630002DE9F74F82B0002604469246ADF80060CF
:10164000ADF8046001A9684600F092F8A046204673
:10165000039900F005FA49F2203945F2084B1D4D77
:1016600031E06968494502D06968594501D100F007
:1016700067FD00240127B7400DE000BF3AF81400D1
:10168000384202D1BDF8040001E0BDF8000000F0CE
:101690002DFD641CE4B2A8688088A042EED8696879
:1016A000494502D06968594504D1012211460A48CA
:1016B000FFF760FF08F10100C0B28046039900F017
:1016C000CFF9761CF6B2A868C088B042C9D805B078
:1016D000BDE8F08FEC600020001000482DE9F047D5
:1016E000204D8A4699466968164680460024AAF22B
:1016F0003F104742472907D05146404600F0B0F915
:10170000B9F1000F02D027E0B9B2F6E700F018FDFA
:1017100003E0288800F0EAFC641CB442F9D3124CC0
:101720008021204600F01EFE0028F9D1BDE8F047D8
:10173000012211460D48FFF71DBF288800F0F0FC7C
:1017400008F1010000F0FF086868472808D05146FA
:10175000404600F085F9641CB442EED3BDE8F08742
:10176000B9B2F5E7EC6000200038004000100048F6
:10177000024A13880380508808807047EC6000207C
:101780000148806870470000EC600020012070472D
:101790002DE9FF4F81B0A1F23F11DDF838801F46DF
:1017A00002EB080084B2484280B200900026E0B20A
:1017B000009900F055F949F2203A45F2084BDFF85C
:1017C00088902DE04168514503D0D9F8041059455F
:1017D00006D141F20801032000F0BCFC00F0B0FC8F
:1017E000002507E006FB0751019830F8110000F0D2
:1017F0007DFC6D1CBD42F5D3D9F804204846524506
:1018000002D04168594504D1012211460F48FFF723
:10181000B1FE641EA4B2E0B2009900F021F9761C7A
:1018200046454846CED34268524502D041685945A4
:1018300007D105B041F21801BDE8F04F032000F0D8
:1018400089BC05B0BDE8F08FEC60002000100048B6
:1018500070B53D4C0025218821F038012180218878
:1018600041F0080121803949496847294AD000F0F0
:1018700099FC732000F0BCFCFF21204600F0C2FD63
:101880008021204600F06EFD0028F9D1012120467C
:1018900000F068FD0028F9D0204600F0A9FD6D1C7D
:1018A000EDB2052DE8D3FF21204600F0ABFD8021ED
:1018B000204600F057FD0028F9D10121204600F014
:1018C00051FD0028F9D0FF21204600F09BFD80212A
:1018D000204600F047FD0028F9D10121204600F004
:1018E00041FD0028F9D0204600F043FD05460122C5
:1018F00011461748FFF73EFE208820F03800208070
:10190000284670BD00F04EFC732000F071FC05E02D
:101910000221204600F026FD0028F9D08021204633
:1019200000F020FD0028F3D1FF21204600F06AFDE1
:101930000121204600F016FD0028F9D02046BDE820
:10194000704000F055BD000000380040EC60002001
:10195000001000482DE9F04188B001214FF48800C3
:1019600000F090FC012144F2010000F0AFFC0121E5
:101970008F03384600F092FC03208DF819000226F0
:101980008DF818600024DFF8A4807D118DF81A40CE
:1019900005958DF81B4005A94046FFF7D3FA05973A
:1019A000234F05A93846FFF7CDFAA801059005A9F0
:1019B0003846FFF7C7FA052209214046FFF7FCFA2F
:1019C00005220E213846FFF7F7FA05220F21384687
:1019D000FFF7F2FA174F384600F09AFCADF80040D6
:1019E0004FF48270ADF802004FF4E060ADF80400EF
:1019F0000120ADF808000820ADF80C000720ADF874
:101A00001000ADF80660ADF80A50ADF80E4069461A
:101A1000384600F0B0FCE900384600F0EBFC01214C
:101A2000384600F06BFC08B0BDE8F08100140048B7
:101A3000000400480038004001B5BDF8000001492D
:101A4000488008BDEC60002003B5BDF800100348D5
:101A50000180BDF8041041800CBD0000EC60002046
:101A600070B505460E480C464068472809D02946FF
:101A7000202000F06FFB21462120BDE8704000F0DF
:101A800069BB0021062000F065FB2946072000F015
:101A900061FB210A022000F05DFBE1B20320ECE7CC
:101AA000EC6000200149886070470000EC60002075
:101AB00001B5BDF800000149088008BDEC600020B8
:101AC0002DE9F05FFFF738FDFFF744FFFE4C60683B
:101AD0004FF48076A0F513414FF4E06741F23008EF
:101AE00040F2022940F2023A40F23F154FF4887B5F
:101AF000203908D06068A0F5A84108397ED0606818
:101B000047287CD0EBE2052006F00BF84FF40041AB
:101B1000E52000F01FFB0121002000F01BFB3146F7
:101B2000012000F017FB3946022000F013FB41466C
:101B3000032000F00FFB0021042000F00BFB4946BE
:101B4000082000F007FB0021092000F003FB002122
:101B50000A2000F0FFFA00210C2000F0FBFA00211F
:101B60000D2000F0F7FA00210F2000F0F3FA002119
:101B7000102000F0EFFA0021112000F0EBFA002114
:101B8000122000F0E7FA0021132000F0E3FA1420FD
:101B900005F0C7FF41F2B071102000F0DBFA40F20F
:101BA0003711112000F0D6FA052005F0BAFF40F2F7
:101BB0003911122000F0CEFA052005F0B2FF4FF4E3
:101BC000E851132000F0C6FA1321292000F0C2FAD0
:101BD000052005F0A6FF0021202000F0BBFA00211F
:101BE000212000F0B7FA0621302000F0B3FA40F2CD
:101BF0000111312000F0AEFA032101E079E074E137
:101C0000322000F0A7FA4FF48371352000F0A2FAD9
:101C100040F60231362000F09DFA5146372000F0A0
:101C200099FA40F20771382000F094FA0721392020
:101C300000F090FA4FF4C0613C2000F08BFA40F2C3
:101C40000B213D2000F086FA0021502000F082FA9E
:101C5000EF21512000F07EFA0021522000F07AFAA4
:101C60002946532000F076FA4FF41C51602000F012
:101C700071FA0121612000F06DFA00216A2000F064
:101C800069FA0021802000F065FA0021812000F02F
:101C900061FA0021822000F05DFA0021832000F02B
:101CA00059FA0021842000F055FA0021852000F027
:101CB00051FA1021902000F04DFA0021922000F0FE
:101CC00049FA0321932000F045FA5946952000F087
:101CD00041FA0021972000F03DFA0021982000F001
:101CE00039FA41F21801032000F034FA40F273117E
:101CF000F9E043F20801E32000F02CFA1221E7207A
:101D000000F028FA41F23121EF2000F023FA3146A9
:101D1000012000F01FFA3946022000F01BFA41466C
:101D2000032000F017FA0021042000F013FA4946BE
:101D3000082000F00FFA0021092000F00BFA002122
:101D40000A2000F007FA00210C2000F003FA00211D
:101D50000D2000F0FFF900210F2000F0FBF9002119
:101D6000102000F0F7F90021112000F0F3F9002114
:101D7000122000F0EFF90021132000F0EBF91420FD
:101D800005F0CFFE0721112000F0E4F9052005F051
:101D9000C8FE41F2B021102000F0DCF9052005F06A
:101DA000C0FE40F2BD11122000F0D4F9052005F06C
:101DB000B8FE4FF4A051132000F0CCF90E212920D9
:101DC00000F0C8F9052005F0ACFE0021202000F04D
:101DD000C1F92946212000F0BDF90721302000F08B
:101DE000B9F95146312000F0B5F940F205163146F7
:101DF000322000F0AFF940F206273946352000F0D6
:101E0000A9F940F608084146362000F0A3F9394602
:101E1000372000F09FF940F20451382000F09AF981
:101E20000721392000F096F931463C2000F092F964
:101E300041463D2000F08EF90021502000F08AF943
:101E4000EF21512000F086F90021522000F082F9A4
:101E50002946532000F07EF94FF42741602000F01E
:101E600079F90121612000F075F900216A2000F064
:101E700071F90021802000F06DF90021812000F02F
:101E800069F90021822000F065F90021832000F02B
:101E900061F90021842000F05DF90021852000F027
:101EA00059F91021902000F055F90021922000F0FE
:101EB00051F90321932000F04DF95946952000F087
:101EC00049F90021972001E0EC60002000F042F980
:101ED0000021982000F03EF941F21801032000F0A3
:101EE00039F94FF489710720F7E00021EA2000F06A
:101EF00031F92021EB2000F02DF90C21EC2000F02D
:101F000029F9C421ED2000F025F94021E82000F056
:101F100021F93821E92000F01DF90121F12000F01C
:101F200019F91021F22000F015F9A321272000F063
:101F300011F90121402000F00DF90021412000F0AD
:101F400009F90021422000F005F91021432000F09A
:101F500001F90E21442000F0FDF82421452000F075
:101F6000F9F80421462000F0F5F85021472000F050
:101F7000F1F80221482000F0EDF81321492000F08B
:101F8000E9F819214A2000F0E5F819214B2000F06A
:101F9000E1F816214C2000F0DDF81B21502000F064
:101FA000D9F83121512000F0D5F82F21522000F02E
:101FB000D1F83F21532000F0CDF83F21542000F00C
:101FC000C9F83E21552000F0C5F82F21562000F019
:101FD000C1F87B21572000F0BDF80921582000F0FE
:101FE000B9F80621592000F0B5F806215A2000F072
:101FF000B1F80C215B2000F0ADF81D215C2000F051
:10200000A9F8CC215D2000F0A5F81B21084600F0BE
:10201000A1F801211A2000F09DF82F21242000F0C2
:1020200099F85721252000F095F88621232000F00B
:1020300091F83621182000F08DF80121192000F0C8
:1020400089F806211C2000F085F806211D2000F0EB
:1020500081F890211F2000F07DF80121272000F059
:1020600079F80A2005F05DFD0521172000F072F8CF
:102070000921362000F06EF83821282000F06AF897
:102080003C2005F04EFD3C21282000F063F80021A3
:10209000012000F05FF80021022000F05BF8002131
:1020A000032000F057F80121042000F053F83F21ED
:1020B000052000F04FF80021062000F04BF8002129
:1020C000072000F047F80021082000F043F8EF2136
:1020D000092000F03FF8E021162000F03BF802480C
:1020E000A060BDE8F09F0000F860002070B50B4DC7
:1020F0000446010A284600F085F98021284600F0B0
:1021000031F90028F9D1E1B2284600F07BF98021AD
:10211000284600F027F90028F9D170BD00380040AA
:1021200010B5044600F00CF82046FFF7DFFF01224F
:10213000BDE8104011460148FFF71CBA00100048E6
:1021400010B5222000F02EF8BDE81040722000F0FB
:102150004FB8000070B50C4600F024F8722000F073
:1021600047F80E4D210A284600F04CF980212846F8
:1021700000F0F8F80028F9D1E1B2284600F042F961
:102180008021284600F0EEF80028F9D1BDE8704023
:10219000012211460248FFF7EDB900000038004067
:1021A0000010004870B50546702000F021F80E4C74
:1021B0000021204600F026F98021204600F0D2F8C8
:1021C0000028F9D12946204600F01CF9802120463C
:1021D00000F0C8F80028F9D1BDE87040012211468E
:1021E0000248FFF7C7B9000000380040001000485F
:1021F00010B50446002201210748FFF7BBF921462C
:10220000064C204600F0FEF88021204600F0AAF897
:102210000028F9D110BD000000100048003800402F
:1022200070B50F23C47801780122F4B1144C2468EE
:10223000457804F4E064C4F5E064240AC4F10406BB
:10224000E3408478B5401C402C4301F1E021230198
:1022500081F80034007800F01F018A4040098000B6
:1022600000F1E020C0F8002170BD01F01F008240A5
:102270004809800000F1E020C0F8802170BD000016
:102280000CED00E0044A0029516901D0014300E04F
:10229000814351617047000000100240044A002948
:1022A000D16901D0014300E08143D1617047000052
:1022B00000100240044A0029116901D0014300E0E6
:1022C000814311617047000000100240044A002958
:1022D000916901D0014300E08143916170470000A2
:1022E00000100240044A0029D16801D0014300E0F7
:1022F0008143D1607047000000100240002901882E
:1023000002D041F0400101E021F04001018070471E
:10231000114910B588420AD1841401212046FFF7E3
:10232000E1FF2046BDE810400021FFF7DBBF0B496D
:10233000884202D10121041404E0094988420AD1EB
:102340000121C4132046FFF7B5FF2046BDE8104029
:102350000021FFF7AFBF10BD003001400038004042
:10236000003C00400246002012890A4200D00120B1
:1023700070478089704730B54A88B2F5827F1ED099
:10238000828822F470638A881A43828002880C89CA
:1023900002F44153CA888D8922434C892C43CD894C
:1023A0002C4322430C884D882C4322431A4302803D
:1023B000828B22F400628283098A018230BD028806
:1023C0000C8902F44153CA888D8922434C892C43DD
:1023D000CD892C4322430C8844F4827422431A434F
:1023E0000280828822F470638A881A438280DFE741
:1023F000007B7047828822F48052828082880A4360
:10240000828070470173704738B500200090FFF755
:1024100057FB0020FFF71CFA0146009045F20840E8
:10242000074C814204D049F22030814200D047203D
:102430006060FFF745FB02480C30A06038BD00002B
:10244000EC60002010B50021062000F025F80021E6
:10245000042000F021F80021052000F01DF80021E3
:10246000022000F019F80021BDE81040032000F020
:1024700013B8000048B1401E0549C0B2054A31F802
:10248000101052F82000FEF7A7BDFF207047000093
:10249000A8B203081C61002070B586B00D46002864
:1024A00048D0401EC4B22448012150F82400FFF750
:1024B000E9FE01210846FFF709FF00268DF81060AC
:1024C00002208DF813001C4803A90C3830F81400C2
:1024D00003901A4850F82400FEF734FD012D29D14D
:1024E00015483238015D801F005D00F029F8124860
:1024F0001830012C30F8140000908DF8046001D0E1
:10250000082000E00C208DF8050001258DF806500C
:102510006846FEF79BFC08482C38005D8DF80800E3
:102520000F208DF809008DF80A008DF80B5002A8D5
:10253000FFF776FE06B070BDB4B203081C61002040
:1025400010B58A0721F003040649130F21440F2216
:102550008C689A4094438C608A68984002438A60F1
:1025600010BD0000000001400CB500212148019180
:102570000091026842F4803202604FF4A043026886
:1025800002F400320092019A521C0192009A12B990
:10259000019A9A42F3D10268920329D50121164A81
:1025A00000911221116041684160416841604168B9
:1025B00041F480614160416821F47C1141604168CF
:1025C00041F4E8114160016841F0807101600168E7
:1025D0008901FCD5416821F003014160416841F067
:1025E000020141604168C1F381010229FAD10CBDA9
:1025F00000910CBD0010024000200240174810B5A9
:10260000016841F470010160154C206840F0010040
:1026100020606068134908406060206812490840E3
:102620002060206820F480202060606820F4FE0094
:102630006060E06A20F00F00E062206B0B49084008
:1026400020630020A060FFF78FFF0449E00380397A
:102650000860606940F04000606110BD88ED00E0F6
:10266000001002400CC07FF8FFFFF6FECCFC00FF1C
:102670002DE9FE4F282004F035FB032100910523AE
:102680003B4A3CA104F0F2FA8246282004F02AFBDF
:102690001E2100910523364A39A104F0E7FA81464C
:1026A000282004F01FFB3C2100910523304A3EA165
:1026B00004F0DCFA8046282004F014FB4B21009142
:1026C00005232B4A41A104F0D1FA0746282004F043
:1026D00009FB5A2100910523254A45A104F0C6FAB9
:1026E0000646282004F0FEFAB42100910523204A72
:1026F00048A104F0BBFA0546282004F0F3FA732140
:10270000009105231A4A4B4904F0B0FA0446514699
:10271000174803F012F94946154803F00EF94146EF
:10272000134803F00AF93946114803F006F9314617
:102730000F4803F002F929460D4803F0FEF8214640
:102740000B4803F0FAF8282004F0CCFA0849962345
:10275000F7228DE80E0038492C234822096802F040
:1027600025FC03B00146BDE8F04F014803F0E5B891
:102770005C62002048656C70205061676500000055
:1027800055736520746865206A6F79737469636B2B
:1027900020746F20776F726B2077697468204C43C8
:1027A00044204755490000002D55502F444F574EA7
:1027B00020746F206D6F7665206265747765656E35
:1027C00020636F6E74726F6C730000002D4C454671
:1027D000542F524947544820746F206D6F766520FE
:1027E0006265747765656E207061676573000000CF
:1027F0002D53454C20746F20696E7465726163744B
:1028000020776974682074686520636F6E74726FD6
:102810006C000000436F70797269676874205354CC
:102820004D6963726F656C656374726F6E69637313
:1028300000000000569D0308006000202DE9F04FC5
:1028400087B00021FE4803F021F8282004F04AFA5E
:102850000021FB4A0B460091A832FAA104F006FAC7
:102860000746282004F03EFAF54A4FF0140B0A23DD
:10287000A832FAA1CDF800B004F0F8F905463820E6
:1028800004F030FA2121EE4A00910A23A832F649D9
:1028900004F0FEF8F54C6060282004F023FADFF81D
:1028A000A083352308F1A8080A21CDF80080CDE9DE
:1028B00001133C239B22EEA104F036F906462820A2
:1028C00004F010FA112100910F233246EDA104F01B
:1028D000CDF90490282004F005FA252100910F235A
:1028E0003246EBA104F0C2F90590382004F0FAF961
:1028F0006E22CDE900624FF00F09CDF808902278E2
:1029000008F5527A0AEB82110323E4A202F06EFE6C
:102910002061382004F0E6F923216E220096CDE9EB
:102920000121227803230AEB8211DCA2891C02F028
:102930005DFE6061282004F0D5F9CD23CDE9008348
:10294000CDF808B0AA236422D5A104F0EDF80390D5
:10295000282004F0C7F90523CDF80090D2A1039AEE
:1029600004F084F9A061282004F0BCF92121009131
:102970000523D0A1039A04F079F9E061282004F03E
:10298000B1F9332100910523CDA1039A04F06EF92A
:102990002062282004F0A6F9452100910523CBA14F
:1029A000039A04F063F96062282004F09BF9572130
:1029B00000910523C8A1039A04F058F9A0622820C9
:1029C00004F090F9692100910523C6A1039A04F04F
:1029D0004DF9E062282004F085F97B210091052360
:1029E000C3A1039A04F042F92063302004F07AF97D
:1029F0008D2100910A23C1A1039A02F0EDFBC24987
:102A0000606341624CF218614183002102F00DFFC6
:102A10004046616B02F091FF3946404602F08DFF5F
:102A20002946404602F089FF4046616802F085FF72
:102A3000207808F5627700EB400017F820106068F6
:102A400003F0EBFEB14804F1800500680169A86D50
:102A50008847C0067BD5282004F044F973230A2157
:102A6000CDF80080CDE901133C23BE22A8A104F0DB
:102A70005BF88046282004F035F9112100910523E8
:102A80004246A7A104F0F2F88246282004F02AF971
:102A90002521009105234246A2A104F0E7F88146D2
:102AA000382004F01FF90446A86D01F015FCDFF88A
:102AB000B8B121230BF10C0B42465BF820100F201C
:102AC0000090204603F0E4FF684CA060382004F03A
:102AD00009F90190A86D01F0FFFB5BF8201023209D
:102AE000009021234246019803F0D2FFE060414666
:102AF000A7F5627002F021FF5146A7F5627002F05F
:102B00001CFF4946A7F5627002F017FFA7F5627037
:102B1000A16802F012FFA7F56270E16802F00DFFF4
:102B2000207800EB400007EB80004178A06803F0BC
:102B300074FE207800EB400007EB80008178E068AD
:102B400003F06BFEA16878484862E16848623C483F
:102B50003146A83002F0F1FE39480499A83002F05D
:102B6000ECFE37480599A83002F0E7FE3F4C3448A8
:102B7000A830216902F0E1FE31486169A83002F015
:102B8000DCFE0021206902F050FE0021606902F0A5
:102B90004CFE5E4800680169A86D88470221B1EBD0
:102BA000107F03D0C0F30360022813D1302004F05B
:102BB00099F8B221224A00910A23A8325BA102F0BF
:102BC0000BFB014628641E48A83002F0B6FE296CB3
:102BD0005B4848621A480399A83002F0AEFE1848D4
:102BE000A169A83002F0A9FE1548E169A83002F0F9
:102BF000A4FE1348216AA83002F09FFE1048616AC3
:102C0000A83002F09AFE0E48A16AA83002F095FEA4
:102C10000B48E16AA83002F090FE0948216BA83009
:102C200002F08BFE2078A26900EB400007EB8001E8
:102C30000D484B79283830F8133053838B7981E075
:102C40005C620020436F6E66696775726174696FBC
:102C50006E20616E64206465627567004374726CF7
:102C6000206D6F6465000000789D030804600020FB
:102C7000506F77657220626F617264207374617443
:102C80007573000044432042757320766F6C7400A6
:102C90004865617473696E6B20542E00253364009F
:102CA0004661756C747300004F766572637572725D
:102CB000656E74005265767570206661696C0000FF
:102CC0005370656564206664626B0000535720652D
:102CD00072726F7200000000556E64657220766F2C
:102CE0006C7400004F76657220766F6C7400000083
:102CF0004F7665722074656D700000004661756CDA
:102D0000742061636B00000055440308F47F0020C9
:102D10004441432053657474696E6773000000007A
:102D2000436831004368320071480308456E636FA1
:102D300064657220616C69676E6D656E7400000079
:102D4000E1480308E26930F813305383CB79226AF3
:102D500030F8133053830B7A626A30F813305383A0
:102D60004B7AA26A30F8133053838B7AE26A30F8D8
:102D700013305383C97A226B30F811005083616895
:102D80000348486207B00348BDE8F04F02F069BE4F
:102D9000994C0308046300202DE9F04F89B02820E6
:102DA00003F0A0FF00210B460091FE4AFEA103F0B4
:102DB0005DFF0390282003F095FFFA494FF0140AB5
:102DC0000A238DE80A045A239122FCA103F0ACFEE9
:102DD0000746282003F086FF1E2100913C233A4637
:102DE000F9A103F043FF0490282003F07BFF412169
:102DF00000913C233A46F5A103F038FF05902820C6
:102E000003F070FF0F21009105233A46F0A103F073
:102E10002DFF8346402003F065FF1E210522009709
:102E2000CDE90121EE490623A1F1E004227801EB6E
:102E3000C201ECA203F080F8DFF8AC830646A06381
:102E4000D8F8000004F1800540210268A86D904781
:102E50008146D8F800003F210268A86D9047C6E976
:102E60000E90282003F03EFF3221009105233A46C0
:102E7000DEA103F0FBFE0690382003F033FF412172
:102E800005220097CDE90121DFF87093227806230F
:102E900009EB8211D3A2091D02F0A8FB47F6FF72CD
:102EA0000021E06302F072FB302003F01BFF4121A0
:102EB00000915A233A46D2A102F08EF9D2492064F9
:102EC000416201F0A1F9282003F00CFFB5497323FA
:102ED0000A228DE80E004B236822CCA103F024FEC9
:102EE0000646282003F0FEFE0A233246CAA1CDF88A
:102EF00000A003F0BBFE0790282003F0F3FE23217F
:102F000000910A233246C5A103F0B0FE0890382094
:102F100003F0E8FE51464FF0280A0096CDE901A1E2
:102F20002278062309EB8211AEA2891D02F05EFB16
:102F30006064382003F0D6FE23210096CDE901A17C
:102F40002278062309EB8211A6A2083102F04EFB7B
:102F5000A0649448039902F0F0FC9248049902F0AE
:102F6000ECFC9048059902F0E8FC39468D4802F0E7
:102F7000E4FC59468B4802F0E0FC8A48A16B02F061
:102F8000DCFC8848069902F0D8FC8648E16B02F028
:102F9000D4FC8448216C02F0D0FC8248696C02F0B9
:102FA000CCFC8048A96C02F0C8FC7E48E96C02F0B9
:102FB000C4FC7C48696D02F0C0FC0021E86C02F0A2
:102FC00034FC7848296D02F0B8FC3146754802F0AF
:102FD000B4FC7448079902F0B0FC7248089902F0FA
:102FE000ACFC7048616C02F0A8FC6E48A16C02F069
:102FF000A4FCD8F800000169A86D884780072AD58D
:10300000282003F06FFE32270A23324684A100975E
:1030100003F02CFE0546382003F064FECDE9006A7B
:1030200002972278062309EB82116EA20A3102F080
:10303000DDFAE06429465B4802F07FFC5948E16C08
:1030400002F07BFC47F6FF720021E06C02F09EFA72
:10305000616C7448486247F6FF752A460021606C2F
:1030600002F094FA2A460021A06C02F08FFAD8F8F8
:10307000000001695A486038806D8847C0077DD0DC
:10308000282003F02FFE474973237D228DE80E0090
:103090004B23B42264A103F047FD0546282003F02A
:1030A00021FE0E260A232A4663A1009603F0DEFDC8
:1030B0008346282003F016FE50232A465EA1009680
:1030C00003F0D4FD8246382003F00CFE0A22CDE93D
:1030D00000521927029721784E4609EB81110423EB
:1030E00057A20C3102F082FA2065382003F0FAFD75
:1030F0005022CDE9005202972178042306EB81117A
:103100004FA20E3102F072FA6065282003F0EAFD4A
:103110002C270A232A4640A1009703F0A7FD8046EA
:10312000282003F0DFFD50232A463CA1009703F03E
:103130009DFD0746382003F0D5FD0A22CDE9005257
:103140004FF03709CDF808902178062306EB81115E
:1031500024A2103102F04AFAA065382003F0C2FD23
:103160005022CDE90052CDF808902178062306EBD5
:1031700081111CA2123102F039FA00E092E0E06500
:103180002946084802F0D9FB5946064802F0D5FB0B
:103190005146044802F0D1FB0248216D02F0CDFBFC
:1031A00000484FE0AC630020537065656420636F96
:1031B0006E74726F6C6C6572000000005365742051
:1031C000706F696E7400000072706D006D730000A6
:1031D0005461726765742073706565640000000057
:1031E000E460002025366400F47F002052616D7099
:1031F000206475726174696F6E0000004C66002077
:103200004578656300000000314D030850494420B3
:103210004761696E730000004B5000004B4900008D
:103220004B44000045460308466C757820776C2EA9
:103230002074756E696E670042555380000000006F
:1032400025346400616D02F078FB0021606D02F0AE
:10325000ECFA4146194802F070FB3946174802F073
:103260006CFB1648A16D02F068FB1448E16D02F09A
:1032700064FB4FF47A720021206D02F087F947F663
:10328000FF752A460021A06D02F080F92A46002130
:10329000E06D02F07BF9216D09484862A16D48623A
:1032A000E16D4862616C06484862A16C486209B0F1
:1032B0000248BDE8F04F02F0D4BB0000AC63002030
:1032C000454603082DE9F04F8BB0282003F00AFD96
:1032D00000210B460091FE4AFEA103F0C7FC0390BB
:1032E000282003F0FFFC87210091E623F84AFEA185
:1032F00003F0BCFC0490282003F0F4FC4FF00A0912
:10330000F34DCDE900594FF014085A239122F8A14A
:10331000CDF8088003F008FC0646282003F0E2FC04
:103320000F21009105233246F4A103F09FFCF54CD8
:103330002066382003F0D6FC1E2105220096CDE938
:103340000121227805F5FC7101EB82110623EEA222
:10335000143102F04BF96066282003F0C3FC0F2102
:10336000009150233246E9A103F080FC05903820FB
:1033700003F0B8FC1E2150270096CDE90171227898
:1033800005F5FC7101EB82110623DFA2163102F074
:103390002DF9A066282003F0A5FC4FF0320B052381
:1033A0003246DBA1CDF800B003F060FCE0663820C7
:1033B00003F098FC412105220096CDE901212278F5
:1033C00005F5FC7101EB82110623CFA2183102F042
:1033D0000DF92067282003F085FC3221009150234D
:1033E0003246CDA103F042FC0690382003F07AFC6F
:1033F00041210096CDE90171227805F5FC7101EBC0
:1034000082110623C0A21A3102F0F0F8606728206A
:1034100003F068FC73220095CDE901924B236822EA
:10342000BEA103F081FB0746282003F05BFC0A23C2
:103430003A46BEA1CDF8008003F018FC0790382072
:1034400003F050FC4FF02809CDE90079CDF8088051
:10345000227805F5FC7101EB82110623AAA21C312A
:1034600002F0C4F8A067282003F03CFC4FF0230AC8
:103470000A233A46AEA1CDF800A003F0F7FB08906E
:10348000382003F02FFC8DE88006227805F5FC71CA
:1034900001EB821106239CA21E3102F0A7F8E0671F
:1034A000282003F01FFC732178220095CDE901212B
:1034B0004B2368229FA103F037FB0546282003F029
:1034C00011FC0A232A4699A1CDF8008003F0CEFB17
:1034D0000990382003F006FCCDE90059CDF80880AA
:1034E00098492278062301EB821187A2223102F04B
:1034F0007DF804F18008C8F80800282003F0F2FBEA
:103500000A232A468AA1CDF800A003F0AFFB0A9057
:10351000382003F0E7FB8DE820068A49227806234D
:1035200001EB821178A2243102F060F84146C860B4
:10353000302003F0D7FB73210091E623644A82A177
:1035400002F020FC41468861382003F0CBFB962135
:103550000091E6235E4A7E4903F09AFA4146C8612B
:1035600000F052FE5A48039902F0E7F958480499CE
:1035700002F0E3F93146564802F0DFF95448216E73
:1035800002F0DBF95248616E02F0D7F95048059914
:1035900002F0D3F94E48A16E02F0CFF90021A06EDF
:1035A00002F043F94A48E16E02F0C7F94848216F3A
:1035B00002F0C3F94648069902F0BFF94448616F2A
:1035C00002F0BBF90021606F02F02FF94046416C18
:1035D0003F4802F0B2F94046816C3D4802F0ADF937
:1035E0004046C16C3A4802F0A8F94046416D38485F
:1035F00002F0A3F940460021C06C02F016F94046E3
:10360000016D334802F099F9207800EB40014D48F4
:10361000403000EB8100394606792D4802F08DF9E3
:103620002B48079902F089F92948A16F02F085F922
:103630002748089902F081F92548E16F02F07DF9E9
:10364000A16F44484862E16F4348486243480068BC
:1036500001694046806D8847400747F6FF7A2CD5C0
:10366000282003F03FFB0A233A463DA1CDF800B0E5
:1036700003F0FCFAC8F800004446382003F032FB9F
:10368000204A8DE8800A2F491278062301EB821127
:103690001DA2203101F0AAFF60600D48216802F0F0
:1036A0004CF90B48616802F048F952460021606805
:1036B00001F06CFF61682B484862124F5446524635
:1036C0000021B86F01F062FF22460021F86F4BE045
:1036D0005464002043757272656E7420636F6E745B
:1036E000726F6C6C65727300496E707574000000C7
:1036F00053657420706F696E747300004971207295
:1037000065662E00046000202536640049710000C3
:103710004964207265662E0049640000497120509A
:103720004944204761696E73000000004B5000005F
:103730004B490000496420504944204761696E7339
:10374000000000004C6600204C696E6B0000000019
:10375000C49D0308C547030881470308F47F002080
:103760004B4400003947030801F010FF29465D482B
:1037700002F0E3F85B48099902F0DFF84446594843
:10378000D8F8081002F0D9F856480A9902F0D5F88E
:103790005448E16802F0D1F8534800680169A06D0F
:1037A0008847DFF84881000731D5282003F09AFACE
:1037B0000A232A46AFF25801CDF800B003F056FABA
:1037C0002061382003F08EFA8DE8200A48493A78C3
:1037D000062301EB8211AFF2D002263101F006FF81
:1037E00060614048216902F0A8F83E48616902F032
:1037F000A4F852460021606901F0C8FE002E56D0A0
:103800000021606902F011F86169C1F82480554611
:1038100052460021A06801F0B9FE2A460021E06866
:1038200001F0B4FE2F48A16902F087F82D48E16944
:1038300002F083F83878DFF8B89000EB400109F126
:10384000400909EB8100C178E06902F0E6FF01F070
:1038500087FAA5696A6A2AB195F8210010B1314644
:103860002846904785F82C601EB30021A06801F01F
:10387000DCFF06B30021E06801F0D7FFE1691D48D5
:103880004862A1691C484862786E1C4941623A6FDF
:103890001B495162A268C2F82480E268C2F8248001
:1038A000397801EB410219F8221031B113E00121FE
:1038B000A7E70121DAE70121DDE7002101F0B5FFEB
:1038C000094800680169A06D8847800603D400217B
:1038D000386F01F0AAFF0BB00248BDE8F04F02F0CC
:1038E000C0B8000054640020F47F0020454603085F
:1038F0004C660020E54E030889460308354A030854
:10390000F94803082DE9F04FFF4887B00027006809
:10391000FE4C0169A06D8847064609200025B0EBE2
:10392000167F09D1282003F0DDF90023F84AF9A118
:10393000009503F09BF90746C6F30360092809D1F7
:10394000282003F0CFF90023F14AF9A1009503F0F4
:103950008DF907467006DFF8B8B34FF028000BD595
:1039600003F0C0F914210A22CDF800B0CDE90121FD
:103970005A239122F7A10AE003F0B4F914210A2294
:10398000CDF800B0CDE901215A239122F4A103F032
:10399000CBF80546282003F0A5F94FF00F0A0523C0
:1039A0002A46F0A1CDF800A003F060F9039038207A
:1039B00003F098F91E210522DFF850930095CDE918
:1039C0000121A9F18009DFF8A08399F800200623DE
:1039D00008EB8211E5A2283101F008FE20622820C0
:1039E00003F080F950232A46E1A1CDF800A003F0AE
:1039F0003DF90490382003F075F91E214FF0500A6C
:103A00000095CDE901A199F80020062308EB821169
:103A1000D6A22A3101F0EAFD606200F0F5FB3946DA
:103A2000BB4801F08AFF2946B94801F086FFB84833
:103A3000039901F082FFB648216A01F07EFFB44885
:103A4000049901F07AFFB248616A01F076FF7006CE
:103A500058D5282003F046F93221009105232A4643
:103A6000C4A103F003F90390382003F03BF941218E
:103A700005220095CDE9012199F80010474608EB91
:103A800081110623B9A2303101F0B0FD47F6FF7273
:103A90000021A06201F07AFD282003F023F93221F1
:103AA000009150232A46B5A103F0E0F80490382095
:103AB00003F018F941210095CDE901A199F8001012
:103AC000062307EB8111A9A2323101F08FFD47F6E1
:103AD000FF720021E06201F059FD8D48039901F069
:103AE0002CFF8B48A16A01F028FF8948049901F056
:103AF00024FF8748E16A01F020FFA16AA1484862DB
:103B0000E16A48628248616C01F017FF8048A16C4D
:103B100001F013FF7E48E16C01F00FFF7C48616DFE
:103B200001F00BFF0021E06C01F07FFE7848216D71
:103B300001F003FF0920B0EB167F7DD1282003F0B0
:103B4000D1F873230A21CDF800B0CDE901134B233E
:103B500040F227128CA102F0E7FF0546282003F06F
:103B6000C1F814260A232A468BA1009603F07EF89A
:103B70000390382003F0B6F8CDE9005A0296474684
:103B800099F80010C84607EB8111062377A234315B
:103B900001F02CFD47F6FF720021206301F0F6FCD6
:103BA000282003F09FF84FF023090A232A467DA11D
:103BB000CDF8009003F05AF88346382003F092F8CD
:103BC000CDE9005ACDF8089098F80010062307EBCD
:103BD000811166A2363101F009FD6063282003F0EF
:103BE00081F8322100910A232A4670A103F03EF8A1
:103BF0000490382003F076F832210095CDE901A138
:103C000098F80010062307EB811158A2383101F013
:103C1000EDFCA063282003F065F8B4232A4665A1D3
:103C2000009603F023F80590382003F05BF8E621B6
:103C3000CDE90051029600E0D4E098F8001003238B
:103C400007EB81115DA23A3101F0D0FCE0632E4810
:103C5000222100680268A06D9047421E0021E06B9F
:103C600001F094FC282003F03DF88C232A4654A14F
:103C7000009602F0FBFF8246282003F033F88C23E5
:103C80002A4650A1CDF8009002F0F0FF98F80010FD
:103C9000064607EB811090F83A20A06D00F0B4FDC5
:103CA000E16B49484862216B48484862616B48486B
:103CB0004862A16B474848625146154801F03DFEF5
:103CC0003146134801F039FE2946114801F035FE0E
:103CD0000F48039901F031FE0D48216B01F02DFED4
:103CE00059460B4801F029FE0948616B01F025FE99
:103CF0000748049901F021FE0548A16B01F01DFE63
:103D00000348059968E00000F47F002084600020EB
:103D1000FC64002053656E736F726C65737320745E
:103D2000756E696E672053544F202620504C4C000E
:103D300053656E736F726C6573732074756E696E04
:103D4000672053544F202620504C4C202841757832
:103D50002900000053544F202620504C4C000000F6
:103D600053544F00473100004C6600202536640054
:103D700047320000504C4C204B500000504C4C201F
:103D80004B49000045460308526576207570207443
:103D9000756E696E670000004475726174696F6EBC
:103DA00000000000456E642073706400456E64205E
:103DB0004971000053746167650000002533640099
:103DC0006D73000072706D00854E0308C14E0308CC
:103DD000154F0308394F030801F0AFFD0748E16BA9
:103DE00001F0ABFD216A06484862616A486207B08B
:103DF0000248BDE8F04F01F034BE0000FC64002032
:103E0000454603082DE9F04FD148DFF8488387B0D5
:103E1000006800250169D8F85800884707460A2439
:103E20000026B4EB177F09D1282002F05BFF0023A6
:103E3000C94ACAA1009602F019FF0546C7F30360FC
:103E40000A2809D1282002F04DFF0023C24ACBA145
:103E5000009602F00BFF0546282002F043FFBE4B00
:103E6000CDE9003414210291A3465A239122CDA119
:103E700002F05AFE0646282002F034FF0F2100917E
:103E800005233246C8A102F0F1FE8146382002F037
:103E900029FF1E2105220096CDE90121AD49DFF859
:103EA000B8A280390AF1A80A097806230AEB811121
:103EB000BEA22C3101F09AFBC8F82000444628200D
:103EC00002F010FF0F21009150233246B8A102F0FA
:103ED000CDFE8046382002F005FF1E2150220096BC
:103EE000CDE901219B4906238039B0A209780AEB6C
:103EF00081112E3101F07AFB606200F085F92946CC
:103F0000954801F01AFD3146934801F016FD4946E7
:103F1000914801F012FD9048216A01F00EFD4146E2
:103F20008D4801F00AFD8C48616A01F006FD8A485F
:103F3000616C01F002FD8848A16C01F0FEFC86482E
:103F4000E16C01F0FAFC8448616D01F0F6FC00219F
:103F5000E06C01F06AFC8048216D01F0EEFCBBEBE7
:103F6000177F7DD1282002F0BDFE7B4A009273238B
:103F7000CDE901B34B2340F227128EA102F0D4FD0C
:103F80000546282002F0AEFE4FF014080A232A4608
:103F90008CA1CDF8008002F069FE0390382002F079
:103FA000A1FE4FF050096B4FCDE90059803FCDF88D
:103FB0000880397856460AEB811106237BA23431FA
:103FC00001F014FB47F6FF720021206301F0DEFAD6
:103FD000282002F087FE4FF0230A0A232A467CA1FC
:103FE000CDF800A002F042FE8346382002F07AFEAF
:103FF0008DE820063978062306EB81116BA2363155
:1040000001F0F4FA6063282002F06CFE3221009186
:104010000A232A4670A102F029FE0490382002F0FB
:1040200061FE32210095CDE901913978062306EB36
:1040300081115EA2383101F0D9FAA063282002F084
:1040400051FEB4232A4666A1CDF8008002F00EFE90
:104050000590382002F046FEE622CDF8088000E008
:104060006BE0CDE900523978032306EB81115EA2A3
:104070003A3101F0BBFAE06335482221006802685A
:10408000A06D9047421E0021E06B01F07FFA2820CE
:1040900002F028FE8C232A4654A1CDF8008002F0BD
:1040A000E5FD8146282002F01DFE8C232A4650A102
:1040B000CDF800A002F0DAFD3978804606EB8110D9
:1040C00090F83A20A06D00F09FFBE16B49484862F0
:1040D000216B49484862616B48484862A16B484877
:1040E000486249461C4801F028FC41461A4801F044
:1040F00024FC2946184801F020FC1748039901F0D8
:104100001CFC1548216B01F018FC5946124801F0BF
:1041100014FC1148616B01F010FC0F48049901F088
:104120000CFC0D48A16B01F008FC0B48059901F04F
:1041300004FC0948E16B01F000FC216A3148486247
:10414000616A486207B00448BDE8F04F01F089BCDD
:10415000F47F002084600020A465002053656E7306
:104160006F726C6573732074756E696E672053543B
:104170004F202620434F52444943000053656E733D
:104180006F726C6573732074756E696E672053541B
:104190004F202620434F5244494320284175782917
:1041A0000000000053544F004731000025366400E2
:1041B000473200005265762075702074756E696E06
:1041C000670000004475726174696F6E0000000042
:1041D000456E642073706400456E64204971000070
:1041E0005374616765000000253364006D7300003F
:1041F00072706D00854E0308C14E0308154F030809
:10420000394F0308454603083EB5282002F06AFDF1
:10421000A0232349CDE90013142202925A239122AC
:1042200020A102F081FC214C6064282002F05AFD9C
:104230000F21009105231EA1626C02F017FDA064FE
:10424000402002F04FFD0521626CCDE9002104F110
:1042500060011E25A1F1E00202951278062301EB10
:10426000C20117A2091D01F067FEE064302002F0D0
:1042700039FD41210091052312A1626C00F0ACFFD1
:104280002065282002F02EFD00953C2310A1626CD1
:1042900002F0ECFC6065216D0E4848623EBD0000F6
:1042A000706100204D6F6E69746F72008460002031
:1042B0004D65617375726564207370656564000097
:1042C0002536640053746172742F53746F7000004C
:1042D00072706D001D45030870B5314900240968EE
:1042E00009698847010E0E074FF009014FF00A02D5
:1042F0004FF002034FF001050ED0B1EB107F03D158
:10430000C0F303660A2E17D0B2EB107F15D1C0F3AD
:104310000366092E10D010E0B1EB107F00D101240C
:10432000B2EB107F00D10224B5EB107F02D0B3EBCB
:10433000107F33D1032431E00624B1EB107F05D187
:10434000C0F3036102290BD0012909D0C0F3036136
:10435000092906D1B3EB107F02D0B5EB107F00D155
:104360000424B2EB107F05D1C0F3036102290BD006
:10437000012909D0C0F303610A2906D1B3EB107FEC
:1043800002D0B5EB107F00D105240B21B1EB107FDB
:1043900004D1C0F30360092800D10724204670BD72
:1043A000F47F002010B5274801F029FB2548A830EC
:1043B00001F025FB244801F022FB2348A83001F03E
:1043C0001EFB224801F01BFB2048A83001F017FB20
:1043D0001F49002048608860C860086148618861A2
:1043E000C861086248628862C8620863486388637B
:1043F000C863086448648864C8640865486588655B
:10440000C865086648668866C8660867486788673A
:10441000C8678031086048608860C860086148618A
:104420008861C861086248628862C862086348633C
:104430008863C863086448648864C864086548651C
:1044400010BD00005C620020AC630020FC64002012
:1044500004600020034807210068C2680248806D9C
:1044600010470000F47F00208460002010B50C4647
:10447000FFF798FF062C1CD2DFE804F003070B0FB0
:104480001317BDE81040FEF7F3B8BDE81040FEF783
:10449000D5B9BDE81040FEF77FBCBDE81040FEF77F
:1044A00011BFBDE81040FFF72DBABDE81040FFF77F
:1044B000A9BC10BD2DE9F047814616480E46134FA2
:1044C000DFF84C80002400EB8615395D832908D085
:1044D000D8F80000026848469047411C01D025F8F2
:1044E0001400641CE4B2202CEFD3D8F8000004219F
:1044F000026848469047084941F8360095F83A2046
:1045000031464846BDE8F04700F07EB9D09D03082B
:10451000F47F00204C660020E46000202DE9F04785
:10452000414A424F424DA7F1400C2DED068B02F15E
:10453000800411782B6801EB41060CEB811017F811
:104540002680B8F1000F06D007EB8601C97859B173
:10455000012960D10EE0828833485B68E03050F872
:104560003110A06D984756E0B0F91820B0F914103A
:104570001B6A4EE0E1469046B0F93E0003F03FFD75
:104580009FED2C8B53EC182B03F064FD9FED2B9BC0
:1045900053EC192B03F0ACFB41EC100B02F048FD7F
:1045A00098F80010B0EE40AA09EB8116F0EE60AA70
:1045B000B6F93C0003F023FD53EC1A2B03F04AFD3F
:1045C00003F0EEFC07B2B6F93E0003F018FD53EC21
:1045D000182B03F03FFD53EC192B03F089FB41EC42
:1045E000100B02F089FD98F80010B0EE408A09EB3C
:1045F0008110F0EE608AB0F93C0003F000FD53EC4E
:10460000182B03F027FD03F0CBFC01B228683A46D3
:10461000036AA06D984728680621C268A06DBDECAA
:10462000068BBDE8F0471047046000208C66002030
:10463000F47F00201F85EB51B81E094000000000E8
:10464000008066400D4B0C4A806A1B7802EB831297
:10465000801A0B4A400852FA80F31B78832B0AD049
:10466000C0B2105C074A126893680A4601460348C4
:104670008030806D184770474C6600200460002031
:10468000D09D0308F47F00202DE9F041284E11F061
:10469000FF052849307800EB400001EB80000571F0
:1046A00040D00021224C8034A06801F0BEF8C5B390
:1046B0000021E06801F0B9F8FDB11E4F3078403FAD
:1046C00007EB8010B0F91C104184C28B8284028CED
:1046D000C284A06800F03EFE307807EB8010B0F98D
:1046E0002410E06800F036FE606930B1317807EBE5
:1046F0008111B1F9261000F02DFEA068012680F886
:104700002060E06880F820606069002807D06DB103
:104710005FF0000101F089F8606980F82060BDE871
:10472000F08101E00121BDE70121C2E70121F1E7AC
:10473000046000208C66002070B50D46FFF782FFF4
:104740000D480E4A017801EB410002EB8000007930
:1047500000280FD0084C8034606900280AD0403A05
:1047600002EB8111CD84294600F01AFE6069012117
:1047700080F8201070BD0000046000208C660020CE
:1047800010B50C46FFF75EFF0C480D4A007800EBB1
:10479000400102EB8101097900290ED0A2F140010C
:1047A00001EB801021468484044C8034E06800F0E2
:1047B000F7FDE068012180F8201010BD04600020A2
:1047C0008C66002010B50C46FFF73CFF0C480D4AE4
:1047D000007800EB400102EB8101097900290ED03D
:1047E000A2F1400101EB801021464484044C803446
:1047F000A06800F0D5FDA068012180F8201010BD50
:10480000046000208C660020F8B51546094A02EBCA
:104810008114094904F1380200920968931E121F9D
:104820008E692946B047E08E00EB40004000E086EC
:10483000F8BD00004C660020F47F002038B5154616
:10484000094A062302EB8112B2F9361091FBF3F10B
:104850000BB2B2F9381000910449928E09684C6984
:104860002946A04738BD00004C660020F47F002098
:104870002DE9F041164A054610461649007802F126
:10488000800400EB400001EB80019368124E134F4F
:10489000A06D9D420BD193F830504D70FFF71CFD79
:1048A00056F820000021425D3868C3690BE0D268E9
:1048B00092F830508D70FFF70FFD56F8200001215F
:1048C000425D3868C369E06DBDE8F04118470000FB
:1048D000046000208C660020A49D0308F47F002063
:1048E000034808210068C2680248806D1047000034
:1048F000F47F0020846000202DE9F047464D4749B1
:10490000DFF81C91A1F140062DED068B05F1800426
:10491000287800EB400201EB820306EB8010DB7885
:10492000002B4FD0012B72D1B046B0F93E0003F0FE
:1049300066FB9FED3C8B53EC182B03F08BFB9FED3C
:104940003B9B53EC192B03F0D3F941EC100B02F015
:104950006FFB2978B0EE40AA08EB8117F0EE60AA51
:10496000B7F93C0003F04BFB53EC1A2B03F072FB3E
:1049700003F016FB06B2B7F93E0003F040FB53EC20
:10498000182B03F067FB53EC192B03F0B1F941EC42
:10499000100B02F0B1FB2978B0EE408A08EB8110D1
:1049A000F0EE608AB0F93C0003F029FB53EC182BC1
:1049B00003F050FB03F0F4FA01B2D9F800003246DC
:1049C000036A09E011F82210154A136851B1B0F9D1
:1049D0001820B0F914101B6AA06DBDEC068BBDE861
:1049E000F047184719694F46A06D884780060ED5D5
:1049F0002878412106EB8010B0F9182038688368C8
:104A0000A06DBDEC068BBDE8F0471847FFE7BDEC95
:104A1000068BBDE8F0870000046000208C66002053
:104A2000F47F00201F85EB51B81E094000000000F4
:104A3000008066402DE9F0473A4D3B4ADFF8EC80B4
:104A4000A2F140042DED068B05F18009287800EBDA
:104A5000400102EB810104EB8010C978002954D099
:104A600001295AD1B0F93E0003F0C9FA9FED309BFD
:104A700053EC192B03F0EEFA9FED2F8B53EC182B10
:104A800003F036F941EC100B02F0D2FA2878B0EEC0
:104A900040AA04EB8017F0EE60AAB7F93C0003F0DF
:104AA000AEFA53EC1A2B03F0D5FA03F079FA06B2FA
:104AB000B7F93E0003F0A3FA53EC192B03F0CAFA3E
:104AC00053EC182B03F014F941EC100B02F014FB1B
:104AD0002878B0EE408A04EB8010F0EE608AB0F9DE
:104AE0003C0003F08CFA53EC182B03F0B3FA03F0FC
:104AF00057FA01B2D8F800003246036AD9F85800D4
:104B0000BDEC068BBDE8F0471847B0F91820B0F9A6
:104B10001410D8F80000036AF0E7BDEC068BBDE87E
:104B2000F0870000046000208C660020F47F0020E5
:104B30001F85EB51B81E0940000000000080664050
:104B400070B54D4C4D4A2DED068BA2F140052078F5
:104B500000EB400102EB810105EB8010C97831B117
:104B600001294CD1B0F9141000294BD04CE0B0F918
:104B70003E0003F044FA9FED429B53EC192B03F0E7
:104B800069FA9FED418B53EC182B03F0B1F841EC1F
:104B9000100B02F0B1FA2078B0EE40AA05EB8016B7
:104BA000F0EE60AAB6F93C0003F029FA53EC1A2B98
:104BB00003F050FA03F0F4F9B082B6F93E0003F0C6
:104BC0001EFA53EC192B03F045FA53EC182B03F0A3
:104BD0008FF841EC100B02F02BFA2078B0EE408AEF
:104BE00005EB8014F0EE608AB4F93C0003F007FA9C
:104BF00053EC182B03F02EFA03F0D2F92083BDEC0E
:104C0000068B70BD028B8AB311FB01F1008B10FB88
:104C1000001000EE100AB8EEC00A02F05AF8BDEE1D
:104C2000C00A207810EE101A05EB80108187B0F9C9
:104C30001810B0F9140000EE101AF8EEC00A00EED9
:104C4000100AB8EEC00A02F046F8DFED110A21782A
:104C500020EE200ADFED0F0A05EB811180EE201A0D
:104C6000BDEEC10A10EE100AC887C8E7FFE70021B1
:104C700081875A21C187C2E7046000208C6600202A
:104C80001F85EB51B81E09400000000000806640FF
:104C900000003443C3F548402DE9F041204D224E39
:104CA00005F180042978686801EB41021D4990F8FC
:104CB000300001F82200012807D001211B4800F034
:104CC000E5FD30680122836825E030680221026832
:104CD000A06D9047C0B930680921C268A06D9047A7
:104CE000306829210268A06D90470E4F2978403F17
:104CF00007EB8111888230682A210268A06D9047F5
:104D0000297807EB811108830021084800F0BEFDD7
:104D1000306800228368A06DBDE8F0410321184788
:104D2000046000208C660020F47F0020AC6300202B
:104D300009480849007801EB80118A880649E0316A
:104D400051F8301005480068436803488030806D92
:104D5000184700004C66002004600020F47F00200B
:104D60002DE9F0413B4C3C4F04252078A7F140064B
:104D700000EB400007EB800047F6FF78C07810B1E9
:104D8000012836D13EE035A1206E01F06AFF35A141
:104D9000E06E01F066FF2178606E06EB811202F191
:104DA000140180F833508162216F18322F4E81F840
:104DB00033508A6245464246314600F0E7FB2A46B8
:104DC0003146206F00F0E2FB207800EB400017F83E
:104DD000200050B92648006801691E488030806D67
:104DE0008847800601D4002100E00121206F00F0F7
:104DF0001CFD616E012081F82000216F81F82000E8
:104E0000BDE8F0811BA1206E01F02BFF1BA1E06E1D
:104E100001F027FF2178606E06EB811202F13C0160
:104E200080F833508162236F891C424683F83350E7
:104E30009962002100F0AAFB40F267120021206F66
:104E400000F0A4FB207800EB400017F820000028B9
:104E5000CBD1C8E7046000208C6600204971207225
:104E600065662E004964207265662E000180FFFF92
:104E7000F47F0020416D702E202020004570732E9D
:104E80004465670008460D4910B50B4A09780B4C7C
:104E900002EB811280345087C2B2A06DFFF7B4FCE0
:104EA000216B012081F82000616B81F82000A16B4B
:104EB00081F8200010BD00004C6600200460002036
:104EC0000748064A007802EB8012918601460448A2
:104ED00092F83A208030806DFFF7B0BC4C6600201D
:104EE00004600020094910B508488039084A09784B
:104EF000C06901EB410102EB810190F83000C870FC
:104F0000FFF71EFEBDE81040FFF72ABF84600020B7
:104F10008C6600200748064A007802EB8012D18692
:104F20000146044892F83A208030806DFFF786BC35
:104F30004C660020046000200748064A007802EB17
:104F4000801211870146044892F83A208030806D23
:104F5000FFF774BC4C66002004600020014600206E
:104F60000A5C401CC0B2002AFAD17047F8B504466A
:104F7000406A0028204615D001F052FA0646204625
:104F800001F02CFA0546204601F0C7F907462046F5
:104F900001F0C3F981B200963A0C2B46606A00F02A
:104FA00053FBF8BDBDE8F84001F01FBA2DE9F04110
:104FB00006AD1E4617460C4695E80E0000F03CFC78
:104FC00005460748286032463946284601F0FFF971
:104FD0006C6214B1012085F820002846BDE8F081FC
:104FE00070BD030801F079BE10B5002400F0E9F8A7
:104FF00000B10124204610BD70B5426A0D4604463A
:105000004AB194F82C0030B12DB994F8210010B1B8
:1050100000212046904784F82C5070BD70B50024C4
:105020000546052906D10021FFF7E6FF284601F0D5
:1050300093F90124284600F0C4F800B10124204669
:1050400070BD2DE9FC5F0646C069C1888588891D51
:105050008CB2B06AFBF78AFB4543ED1DA9B222462C
:10506000304601F0B4F9304601F057F985B23046C8
:1050700001F053F9040C304601F0D2F9801E87B2DA
:10508000304601F0ABF9801E1FFA80F8B6F81A908E
:10509000304601F0C5F90190304601F09FF9834692
:1050A000304601F03AF98246304601F036F94FEACF
:1050B0001A4180B2CDF800905A46019B00F062FB85
:1050C000304600F07EF840B3304601F026F9801CEF
:1050D00085B2304601F021F90014801C84B2B6F884
:1050E0001A90304601F09CF9401E82B2CDF8009033
:1050F000A4F10109681E1FFA89F180B2012300F0B2
:105100001FFBB6F81AA0304601F068F9801E82B283
:105110001FFA89F1CDF800A011E0708B0090601C9F
:1051200081B205EB080080B201233A4600F008FB8B
:10513000708B009008F1020082B2E01981B2002366
:10514000284600F0FDFA708B00903B46424621460F
:10515000284600F017FB308B0090F81E82B2A01C8E
:10516000814681B2A81C80B2012300F0E9FA96F8CA
:10517000210008B11F2000E0308B0090A8F1020050
:1051800082B2BF1E641C681CBBB2A1B280B200F028
:10519000F9FAB26AED1C02B01FFA89F1A8B2BDE8B3
:1051A000F05F00F02FBB10B504460020052907D1A1
:1051B00001212046FFF720FF204601F0CDF8012015
:1051C00010BD90F82C1021B190F8210008B10120F9
:1051D000704700207047000070B51C4616460D460B
:1051E00022463146049B00F027FB0849016000215C
:1051F000416280F82C100446012100F016FB0121C9
:10520000A562204684F8201070BD000094BD0308FC
:1052100001F063BD10B5C36A0C4603B911A390F841
:105220003310062919D2DFE801F0180303070B0F2A
:1052300000F063F802460AE000F05FF882B206E090
:1052400000F05BF802B202E000F057F8C2B220466C
:10525000BDE810401946FBF75FB800F04EF842B2C7
:10526000F5E700002564000070B50E4604460025F1
:1052700000F0A6FD28B3A06A10B3012E02D0022EC2
:105280001ED10DE094F83200218EFF2801442186C2
:1052900002D0401C84F83200204600F05DF90CE09A
:1052A00094F83200218EFF280144218602D0401C50
:1052B00084F83200204600F006F8204601F04CF851
:1052C0000125284670BD10B5034600F016F80146CA
:1052D000B3F93000B3F93420091A8A4206DD801090
:1052E000188693F83200800883F8320093F8330070
:1052F000BDE81040184600F02DB890F83310806AD1
:1053000006290DD2DFE801F00C030305070A006847
:10531000704700887047B0F9000070470078704708
:1053200090F90000704770B50E460446002500F065
:1053300047FD00B10125052E08D194F8230038B1AE
:10534000002084F82300204601F006F8284670BDAE
:105350000120F6E710B50346806A00281FD0B3F994
:1053600034208A421BDCB3F936208A4217DB93F8DB
:105370003320022A04D0042A04D049B2017002E08A
:10538000016000E00180586A002808D01846FFF745
:10539000B4FF5A6A0146BDE810401846104710BDD8
:1053A00010B50346806A002814D09A8E8A4211D81C
:1053B000DA8E8A420ED393F833200170586A00289F
:1053C00008D01846FFF799FF5A6A0146BDE8104019
:1053D0001846104710BD2DE9F0418AB0044620213F
:1053E00001A8FBF7E2F9658B204601F019F8804629
:1053F000204600F0F3FF0646204600F08EFF0746E9
:10540000204600F08AFF390C80B2434632460095B0
:1054100000F0B8F9258B204601F002F8C01E87B2D3
:10542000204600F07AFF0646204600F076FF311451
:10543000891C801C89B280B201233A46009500F095
:105440007FF994F82100A0B1204600F0E9FF801E0A
:1054500087B2204600F0C2FF801E86B2204600F0D0
:105460005CFF0546204600F058FF1F2100912914DB
:1054700014E0258B204600F0D3FF801E87B2204623
:1054800000F0ACFF801E86B2204600F046FF80464A
:10549000204600F042FF4FEA28410095491C401C7D
:1054A00089B280B23B46324600F06CF9204600F0EB
:1054B00087FC50B194F8210038B14FF6E070ADF898
:1054C0000000BDF80000FCF7B7FA94F8220038B9E4
:1054D00047F6FF70ADF80000BDF80000FCF7ACFA2D
:1054E000A06A002812D001A92046FFF793FE2046AB
:1054F00000F013FF0546204600F00FFF2914891C19
:10550000C01C89B280B201AA00F07CF90AB0BDE8E3
:10551000F08170B50E460446002500F051FCC8B17C
:10552000A06AB0B100200121012E02D0022E10D1BC
:1055300006E0218684F83200204600F00DF805E0F0
:10554000218684F832002046FFF7BDFE204600F099
:1055500003FF0125284670BD10B50346FFF7CDFEB9
:105560000146B3F93000B3F9362001448A4206DA25
:105570008010188693F83200800883F8320093F880
:105580003300BDE810401846FFF7E4BE8186C286AE
:10559000704700002DE9F04106AC1D4617460E4647
:1055A00094E80E0000F016FC0F4901600221044649
:1055B00080F833100121C4E90A670186C069C188F7
:1055C0008088091D68438AB2401D81B2204600F0E0
:1055D000FEFE48F20101A186891EE18600212046D7
:1055E0006162BDE8F0810000BCBD03082DE9F04117
:1055F00006AC1D4617460E4694E80E0000F0EAFB86
:105600000F4901600421044680F833100121C4E9E8
:105610000A670186C069C1888088091D68438AB20B
:10562000401D81B2204600F0D2FE48F20101A18661
:10563000891EE186002120466162BDE8F0810000FC
:10564000BCBD030801F049BB38B5049C0094FCF7CD
:105650009FF838BD2DE9FC410D461249DDF8208048
:105660001C4609881700A1EB0000A0F1010086B2DA
:1056700016D001A96846FCF77BF84046FCF718FAFB
:1056800007E0E8B26D1CADB200233A463146FCF7A4
:1056900025F8641EA4B2F4D2BDF80000FCF708FAA5
:1056A000BDE8FC813661002010B5FCF7ADFE4FF679
:1056B000FF742046FBF714FF2046FCF7BDF9BDE858
:1056C00010400020FCF7F4B92DE9F04190460E4659
:1056D00004460546FCF75AF8184F012803D13888CC
:1056E000001B401E85B2FCF74BF8808839882044A7
:1056F000884221D8FCF744F88088062804D1FCF7BA
:105700003FF8C088082806D0F0B242462946BDE8D6
:10571000F041FBF731BFFCF733F80468FCF730F8D1
:105720008188A8F12000414304EB4102F0B22946F0
:10573000BDE8F041FBF77CBFBDE8F0813661002099
:105740002DE9FC410E460E49984614460988089FEB
:10575000081A401E85B201A96846FCF709F83846C8
:10576000FCF7A6F934B1641EA2B2F0B24346294652
:10577000FBF7B4FFBDF80000FCF79AF9BDE8FC8127
:10578000366100202DE9FC410D461D49089F1C464D
:1057900009881600A1EB0000A0F101001FFA80F8B3
:1057A0002BD0002C29D001A96846FBF7E1FF384631
:1057B000FCF77EF9771EBAB2E8B200234146FBF748
:1057C0008DFF2819401EBAB2C0B200234146FBF734
:1057D00085FF601E82B2E8B201234146FBF77EFFDF
:1057E000A8EB0600401C81B2E8B201232246FBF779
:1057F00075FFBDF80000FCF75BF9BDE8FC81000017
:105800003661002070B514460E46054609E0314663
:105810002846FFF759FFFBF7B3FF8088641C284434
:1058200085B22278002AF2D170BD80F822100029BA
:1058300001D180F8211070472DE9FF411F469446A1
:1058400000240D46064623463A46614601A80094C8
:1058500000F04AFD02462946304600F01DFE04498C
:10586000016080F8224080F8214004B0BDE8F0815A
:10587000E0BD030801F031BA00224274002904D0CF
:1058800090F82120002A00D04174704780F8211040
:10589000002900D14174704700F0A7BD70B50C46D7
:1058A00000F0D2FD05460948286054B1204600F0BA
:1058B000B7FD0246A0892189401A81B2284600F02E
:1058C00086FD012085F82100284670BD04BE03082E
:1058D0002DE9F04186B00F46DDE90C4580461E46B5
:1058E000114602A800F0F6FC02463346394640460F
:1058F000CDE9004500F0FCFD03490160012180F87D
:10590000211006B0BDE8F08104BE030810B500F018
:1059100015FE03490160012180F8211010BD00002F
:1059200004BE030870B50D46044600F025FE95F848
:10593000210084F82100204670BD002909D0B0F86C
:10594000A620202A05D200EB8203521CA0F8A62034
:105950005962704770B50C46054600F01DF80168A5
:105960004A6921469047002807D1012C06D0022C15
:1059700003D1284600F075F8012070BD284600F0DC
:105980008BF8F9E710B50B4600F006F801688A6954
:10599000BDE8104019461047B0F8A620B0F8A41092
:1059A0008A4203D900EB8100406A704700207047AB
:1059B00070B50446B0F8A6000E46B0421ED9204687
:1059C000FFF7EAFF002580F821502046FFF7E4FFAB
:1059D00000F0C2FCA4F8A4602046FFF7DDFF80F8C9
:1059E000215090F8222001210AB180F82110204690
:1059F000FFF7D2FFBDE8704000F0AEBC70BD70B5DF
:105A00000546002408E005EB8400406A10B10168F7
:105A100049688847641CE4B2B5F8A600A042F2D8F1
:105A2000002025F8A40F688070BD70B5054690F879
:105A3000200010B1284600F08FFCB5F8A600002821
:105A40000ED0002408E005EB8400406A90F8201096
:105A500009B100F081FC641CB5F8A600A042F2DC9C
:105A600070BD30B4B0F8A630002B13D0B0F8A4103D
:105A70000A46491C8B4200D800218A4206D000EB1E
:105A80008104646A94F82240002CF2D030BC89B2C0
:105A9000FFF78EBF30BC704730B4B0F8A620002AA4
:105AA00012D0B0F8A4100B4601B91146491E8B4222
:105AB00006D000EB8104646A94F82240002CF3D0F5
:105AC00030BC89B2FFF774BF30BC704770B5044674
:105AD00000F08BFCB4F8A60000280BD0002505E0F0
